{
	"dataTypes.sol": {
		"DataType": {
			"abi": [
				{
					"inputs": [],
					"name": "defaultBool",
					"outputs": [
						{
							"internalType": "bool",
							"name": "",
							"type": "bool"
						}
					],
					"stateMutability": "view",
					"type": "function"
				},
				{
					"inputs": [],
					"name": "defaultInt",
					"outputs": [
						{
							"internalType": "int256",
							"name": "",
							"type": "int256"
						}
					],
					"stateMutability": "view",
					"type": "function"
				},
				{
					"inputs": [],
					"name": "hey",
					"outputs": [
						{
							"internalType": "address",
							"name": "",
							"type": "address"
						}
					],
					"stateMutability": "view",
					"type": "function"
				},
				{
					"inputs": [],
					"name": "number",
					"outputs": [
						{
							"internalType": "uint256",
							"name": "",
							"type": "uint256"
						}
					],
					"stateMutability": "view",
					"type": "function"
				}
			],
			"devdoc": {
				"kind": "dev",
				"methods": {},
				"version": 1
			},
			"evm": {
				"assembly": "    /* \"dataTypes.sol\":65:485  contract DataType {... */\n  mstore(0x40, 0x80)\n  callvalue\n  dup1\n  iszero\n  tag_1\n  jumpi\n  0x00\n  dup1\n  revert\ntag_1:\n  pop\n  dataSize(sub_0)\n  dup1\n  dataOffset(sub_0)\n  0x00\n  codecopy\n  0x00\n  return\nstop\n\nsub_0: assembly {\n        /* \"dataTypes.sol\":65:485  contract DataType {... */\n      mstore(0x40, 0x80)\n      callvalue\n      dup1\n      iszero\n      tag_1\n      jumpi\n      0x00\n      dup1\n      revert\n    tag_1:\n      pop\n      jumpi(tag_2, lt(calldatasize, 0x04))\n      shr(0xe0, calldataload(0x00))\n      dup1\n      0x5abe622b\n      eq\n      tag_3\n      jumpi\n      dup1\n      0x8381f58a\n      eq\n      tag_4\n      jumpi\n      dup1\n      0xbde2b573\n      eq\n      tag_5\n      jumpi\n      dup1\n      0xd668f5b5\n      eq\n      tag_6\n      jumpi\n    tag_2:\n      0x00\n      dup1\n      revert\n        /* \"dataTypes.sol\":415:439  int256 public defaultInt */\n    tag_3:\n      tag_7\n      tag_8\n      jump\t// in\n    tag_7:\n      mload(0x40)\n      tag_9\n      swap2\n      swap1\n      tag_10\n      jump\t// in\n    tag_9:\n      mload(0x40)\n      dup1\n      swap2\n      sub\n      swap1\n      return\n        /* \"dataTypes.sol\":383:404  uint256 public number */\n    tag_4:\n      tag_11\n      tag_12\n      jump\t// in\n    tag_11:\n      mload(0x40)\n      tag_13\n      swap2\n      swap1\n      tag_14\n      jump\t// in\n    tag_13:\n      mload(0x40)\n      dup1\n      swap2\n      sub\n      swap1\n      return\n        /* \"dataTypes.sol\":450:468  address public hey */\n    tag_5:\n      tag_15\n      tag_16\n      jump\t// in\n    tag_15:\n      mload(0x40)\n      tag_17\n      swap2\n      swap1\n      tag_18\n      jump\t// in\n    tag_17:\n      mload(0x40)\n      dup1\n      swap2\n      sub\n      swap1\n      return\n        /* \"dataTypes.sol\":345:368  bool public defaultBool */\n    tag_6:\n      tag_19\n      tag_20\n      jump\t// in\n    tag_19:\n      mload(0x40)\n      tag_21\n      swap2\n      swap1\n      tag_22\n      jump\t// in\n    tag_21:\n      mload(0x40)\n      dup1\n      swap2\n      sub\n      swap1\n      return\n        /* \"dataTypes.sol\":415:439  int256 public defaultInt */\n    tag_8:\n      sload(0x02)\n      dup2\n      jump\t// out\n        /* \"dataTypes.sol\":383:404  uint256 public number */\n    tag_12:\n      sload(0x01)\n      dup2\n      jump\t// out\n        /* \"dataTypes.sol\":450:468  address public hey */\n    tag_16:\n      0x03\n      0x00\n      swap1\n      sload\n      swap1\n      0x0100\n      exp\n      swap1\n      div\n      0xffffffffffffffffffffffffffffffffffffffff\n      and\n      dup2\n      jump\t// out\n        /* \"dataTypes.sol\":345:368  bool public defaultBool */\n    tag_20:\n      0x00\n      dup1\n      sload\n      swap1\n      0x0100\n      exp\n      swap1\n      div\n      0xff\n      and\n      dup2\n      jump\t// out\n        /* \"#utility.yul\":7:83   */\n    tag_23:\n        /* \"#utility.yul\":43:50   */\n      0x00\n        /* \"#utility.yul\":72:77   */\n      dup2\n        /* \"#utility.yul\":61:77   */\n      swap1\n      pop\n        /* \"#utility.yul\":7:83   */\n      swap2\n      swap1\n      pop\n      jump\t// out\n        /* \"#utility.yul\":89:204   */\n    tag_24:\n        /* \"#utility.yul\":174:197   */\n      tag_35\n        /* \"#utility.yul\":191:196   */\n      dup2\n        /* \"#utility.yul\":174:197   */\n      tag_23\n      jump\t// in\n    tag_35:\n        /* \"#utility.yul\":169:172   */\n      dup3\n        /* \"#utility.yul\":162:198   */\n      mstore\n        /* \"#utility.yul\":89:204   */\n      pop\n      pop\n      jump\t// out\n        /* \"#utility.yul\":210:428   */\n    tag_10:\n        /* \"#utility.yul\":301:305   */\n      0x00\n        /* \"#utility.yul\":339:341   */\n      0x20\n        /* \"#utility.yul\":328:337   */\n      dup3\n        /* \"#utility.yul\":324:342   */\n      add\n        /* \"#utility.yul\":316:342   */\n      swap1\n      pop\n        /* \"#utility.yul\":352:421   */\n      tag_37\n        /* \"#utility.yul\":418:419   */\n      0x00\n        /* \"#utility.yul\":407:416   */\n      dup4\n        /* \"#utility.yul\":403:420   */\n      add\n        /* \"#utility.yul\":394:400   */\n      dup5\n        /* \"#utility.yul\":352:421   */\n      tag_24\n      jump\t// in\n    tag_37:\n        /* \"#utility.yul\":210:428   */\n      swap3\n      swap2\n      pop\n      pop\n      jump\t// out\n        /* \"#utility.yul\":434:511   */\n    tag_25:\n        /* \"#utility.yul\":471:478   */\n      0x00\n        /* \"#utility.yul\":500:505   */\n      dup2\n        /* \"#utility.yul\":489:505   */\n      swap1\n      pop\n        /* \"#utility.yul\":434:511   */\n      swap2\n      swap1\n      pop\n      jump\t// out\n        /* \"#utility.yul\":517:635   */\n    tag_26:\n        /* \"#utility.yul\":604:628   */\n      tag_40\n        /* \"#utility.yul\":622:627   */\n      dup2\n        /* \"#utility.yul\":604:628   */\n      tag_25\n      jump\t// in\n    tag_40:\n        /* \"#utility.yul\":599:602   */\n      dup3\n        /* \"#utility.yul\":592:629   */\n      mstore\n        /* \"#utility.yul\":517:635   */\n      pop\n      pop\n      jump\t// out\n        /* \"#utility.yul\":641:863   */\n    tag_14:\n        /* \"#utility.yul\":734:738   */\n      0x00\n        /* \"#utility.yul\":772:774   */\n      0x20\n        /* \"#utility.yul\":761:770   */\n      dup3\n        /* \"#utility.yul\":757:775   */\n      add\n        /* \"#utility.yul\":749:775   */\n      swap1\n      pop\n        /* \"#utility.yul\":785:856   */\n      tag_42\n        /* \"#utility.yul\":853:854   */\n      0x00\n        /* \"#utility.yul\":842:851   */\n      dup4\n        /* \"#utility.yul\":838:855   */\n      add\n        /* \"#utility.yul\":829:835   */\n      dup5\n        /* \"#utility.yul\":785:856   */\n      tag_26\n      jump\t// in\n    tag_42:\n        /* \"#utility.yul\":641:863   */\n      swap3\n      swap2\n      pop\n      pop\n      jump\t// out\n        /* \"#utility.yul\":869:995   */\n    tag_27:\n        /* \"#utility.yul\":906:913   */\n      0x00\n        /* \"#utility.yul\":946:988   */\n      0xffffffffffffffffffffffffffffffffffffffff\n        /* \"#utility.yul\":939:944   */\n      dup3\n        /* \"#utility.yul\":935:989   */\n      and\n        /* \"#utility.yul\":924:989   */\n      swap1\n      pop\n        /* \"#utility.yul\":869:995   */\n      swap2\n      swap1\n      pop\n      jump\t// out\n        /* \"#utility.yul\":1001:1097   */\n    tag_28:\n        /* \"#utility.yul\":1038:1045   */\n      0x00\n        /* \"#utility.yul\":1067:1091   */\n      tag_45\n        /* \"#utility.yul\":1085:1090   */\n      dup3\n        /* \"#utility.yul\":1067:1091   */\n      tag_27\n      jump\t// in\n    tag_45:\n        /* \"#utility.yul\":1056:1091   */\n      swap1\n      pop\n        /* \"#utility.yul\":1001:1097   */\n      swap2\n      swap1\n      pop\n      jump\t// out\n        /* \"#utility.yul\":1103:1221   */\n    tag_29:\n        /* \"#utility.yul\":1190:1214   */\n      tag_47\n        /* \"#utility.yul\":1208:1213   */\n      dup2\n        /* \"#utility.yul\":1190:1214   */\n      tag_28\n      jump\t// in\n    tag_47:\n        /* \"#utility.yul\":1185:1188   */\n      dup3\n        /* \"#utility.yul\":1178:1215   */\n      mstore\n        /* \"#utility.yul\":1103:1221   */\n      pop\n      pop\n      jump\t// out\n        /* \"#utility.yul\":1227:1449   */\n    tag_18:\n        /* \"#utility.yul\":1320:1324   */\n      0x00\n        /* \"#utility.yul\":1358:1360   */\n      0x20\n        /* \"#utility.yul\":1347:1356   */\n      dup3\n        /* \"#utility.yul\":1343:1361   */\n      add\n        /* \"#utility.yul\":1335:1361   */\n      swap1\n      pop\n        /* \"#utility.yul\":1371:1442   */\n      tag_49\n        /* \"#utility.yul\":1439:1440   */\n      0x00\n        /* \"#utility.yul\":1428:1437   */\n      dup4\n        /* \"#utility.yul\":1424:1441   */\n      add\n        /* \"#utility.yul\":1415:1421   */\n      dup5\n        /* \"#utility.yul\":1371:1442   */\n      tag_29\n      jump\t// in\n    tag_49:\n        /* \"#utility.yul\":1227:1449   */\n      swap3\n      swap2\n      pop\n      pop\n      jump\t// out\n        /* \"#utility.yul\":1455:1545   */\n    tag_30:\n        /* \"#utility.yul\":1489:1496   */\n      0x00\n        /* \"#utility.yul\":1532:1537   */\n      dup2\n        /* \"#utility.yul\":1525:1538   */\n      iszero\n        /* \"#utility.yul\":1518:1539   */\n      iszero\n        /* \"#utility.yul\":1507:1539   */\n      swap1\n      pop\n        /* \"#utility.yul\":1455:1545   */\n      swap2\n      swap1\n      pop\n      jump\t// out\n        /* \"#utility.yul\":1551:1660   */\n    tag_31:\n        /* \"#utility.yul\":1632:1653   */\n      tag_52\n        /* \"#utility.yul\":1647:1652   */\n      dup2\n        /* \"#utility.yul\":1632:1653   */\n      tag_30\n      jump\t// in\n    tag_52:\n        /* \"#utility.yul\":1627:1630   */\n      dup3\n        /* \"#utility.yul\":1620:1654   */\n      mstore\n        /* \"#utility.yul\":1551:1660   */\n      pop\n      pop\n      jump\t// out\n        /* \"#utility.yul\":1666:1876   */\n    tag_22:\n        /* \"#utility.yul\":1753:1757   */\n      0x00\n        /* \"#utility.yul\":1791:1793   */\n      0x20\n        /* \"#utility.yul\":1780:1789   */\n      dup3\n        /* \"#utility.yul\":1776:1794   */\n      add\n        /* \"#utility.yul\":1768:1794   */\n      swap1\n      pop\n        /* \"#utility.yul\":1804:1869   */\n      tag_54\n        /* \"#utility.yul\":1866:1867   */\n      0x00\n        /* \"#utility.yul\":1855:1864   */\n      dup4\n        /* \"#utility.yul\":1851:1868   */\n      add\n        /* \"#utility.yul\":1842:1848   */\n      dup5\n        /* \"#utility.yul\":1804:1869   */\n      tag_31\n      jump\t// in\n    tag_54:\n        /* \"#utility.yul\":1666:1876   */\n      swap3\n      swap2\n      pop\n      pop\n      jump\t// out\n\n    auxdata: 0xa26469706673582212203b830bd4f8b23c38f6ffb9906e89fb897d69217b0ed61af51d21f3b99a852b0664736f6c634300080d0033\n}\n",
				"bytecode": {
					"linkReferences": {},
					"object": "608060405234801561001057600080fd5b5061023c806100206000396000f3fe608060405234801561001057600080fd5b506004361061004c5760003560e01c80635abe622b146100515780638381f58a1461006f578063bde2b5731461008d578063d668f5b5146100ab575b600080fd5b6100596100c9565b6040516100669190610125565b60405180910390f35b6100776100cf565b6040516100849190610159565b60405180910390f35b6100956100d5565b6040516100a291906101b5565b60405180910390f35b6100b36100fb565b6040516100c091906101eb565b60405180910390f35b60025481565b60015481565b600360009054906101000a900473ffffffffffffffffffffffffffffffffffffffff1681565b60008054906101000a900460ff1681565b6000819050919050565b61011f8161010c565b82525050565b600060208201905061013a6000830184610116565b92915050565b6000819050919050565b61015381610140565b82525050565b600060208201905061016e600083018461014a565b92915050565b600073ffffffffffffffffffffffffffffffffffffffff82169050919050565b600061019f82610174565b9050919050565b6101af81610194565b82525050565b60006020820190506101ca60008301846101a6565b92915050565b60008115159050919050565b6101e5816101d0565b82525050565b600060208201905061020060008301846101dc565b9291505056fea26469706673582212203b830bd4f8b23c38f6ffb9906e89fb897d69217b0ed61af51d21f3b99a852b0664736f6c634300080d0033",
					"opcodes": "PUSH1 0x80 PUSH1 0x40 MSTORE CALLVALUE DUP1 ISZERO PUSH2 0x10 JUMPI PUSH1 0x0 DUP1 REVERT JUMPDEST POP PUSH2 0x23C DUP1 PUSH2 0x20 PUSH1 0x0 CODECOPY PUSH1 0x0 RETURN INVALID PUSH1 0x80 PUSH1 0x40 MSTORE CALLVALUE DUP1 ISZERO PUSH2 0x10 JUMPI PUSH1 0x0 DUP1 REVERT JUMPDEST POP PUSH1 0x4 CALLDATASIZE LT PUSH2 0x4C JUMPI PUSH1 0x0 CALLDATALOAD PUSH1 0xE0 SHR DUP1 PUSH4 0x5ABE622B EQ PUSH2 0x51 JUMPI DUP1 PUSH4 0x8381F58A EQ PUSH2 0x6F JUMPI DUP1 PUSH4 0xBDE2B573 EQ PUSH2 0x8D JUMPI DUP1 PUSH4 0xD668F5B5 EQ PUSH2 0xAB JUMPI JUMPDEST PUSH1 0x0 DUP1 REVERT JUMPDEST PUSH2 0x59 PUSH2 0xC9 JUMP JUMPDEST PUSH1 0x40 MLOAD PUSH2 0x66 SWAP2 SWAP1 PUSH2 0x125 JUMP JUMPDEST PUSH1 0x40 MLOAD DUP1 SWAP2 SUB SWAP1 RETURN JUMPDEST PUSH2 0x77 PUSH2 0xCF JUMP JUMPDEST PUSH1 0x40 MLOAD PUSH2 0x84 SWAP2 SWAP1 PUSH2 0x159 JUMP JUMPDEST PUSH1 0x40 MLOAD DUP1 SWAP2 SUB SWAP1 RETURN JUMPDEST PUSH2 0x95 PUSH2 0xD5 JUMP JUMPDEST PUSH1 0x40 MLOAD PUSH2 0xA2 SWAP2 SWAP1 PUSH2 0x1B5 JUMP JUMPDEST PUSH1 0x40 MLOAD DUP1 SWAP2 SUB SWAP1 RETURN JUMPDEST PUSH2 0xB3 PUSH2 0xFB JUMP JUMPDEST PUSH1 0x40 MLOAD PUSH2 0xC0 SWAP2 SWAP1 PUSH2 0x1EB JUMP JUMPDEST PUSH1 0x40 MLOAD DUP1 SWAP2 SUB SWAP1 RETURN JUMPDEST PUSH1 0x2 SLOAD DUP2 JUMP JUMPDEST PUSH1 0x1 SLOAD DUP2 JUMP JUMPDEST PUSH1 0x3 PUSH1 0x0 SWAP1 SLOAD SWAP1 PUSH2 0x100 EXP SWAP1 DIV PUSH20 0xFFFFFFFFFFFFFFFFFFFFFFFFFFFFFFFFFFFFFFFF AND DUP2 JUMP JUMPDEST PUSH1 0x0 DUP1 SLOAD SWAP1 PUSH2 0x100 EXP SWAP1 DIV PUSH1 0xFF AND DUP2 JUMP JUMPDEST PUSH1 0x0 DUP2 SWAP1 POP SWAP2 SWAP1 POP JUMP JUMPDEST PUSH2 0x11F DUP2 PUSH2 0x10C JUMP JUMPDEST DUP3 MSTORE POP POP JUMP JUMPDEST PUSH1 0x0 PUSH1 0x20 DUP3 ADD SWAP1 POP PUSH2 0x13A PUSH1 0x0 DUP4 ADD DUP5 PUSH2 0x116 JUMP JUMPDEST SWAP3 SWAP2 POP POP JUMP JUMPDEST PUSH1 0x0 DUP2 SWAP1 POP SWAP2 SWAP1 POP JUMP JUMPDEST PUSH2 0x153 DUP2 PUSH2 0x140 JUMP JUMPDEST DUP3 MSTORE POP POP JUMP JUMPDEST PUSH1 0x0 PUSH1 0x20 DUP3 ADD SWAP1 POP PUSH2 0x16E PUSH1 0x0 DUP4 ADD DUP5 PUSH2 0x14A JUMP JUMPDEST SWAP3 SWAP2 POP POP JUMP JUMPDEST PUSH1 0x0 PUSH20 0xFFFFFFFFFFFFFFFFFFFFFFFFFFFFFFFFFFFFFFFF DUP3 AND SWAP1 POP SWAP2 SWAP1 POP JUMP JUMPDEST PUSH1 0x0 PUSH2 0x19F DUP3 PUSH2 0x174 JUMP JUMPDEST SWAP1 POP SWAP2 SWAP1 POP JUMP JUMPDEST PUSH2 0x1AF DUP2 PUSH2 0x194 JUMP JUMPDEST DUP3 MSTORE POP POP JUMP JUMPDEST PUSH1 0x0 PUSH1 0x20 DUP3 ADD SWAP1 POP PUSH2 0x1CA PUSH1 0x0 DUP4 ADD DUP5 PUSH2 0x1A6 JUMP JUMPDEST SWAP3 SWAP2 POP POP JUMP JUMPDEST PUSH1 0x0 DUP2 ISZERO ISZERO SWAP1 POP SWAP2 SWAP1 POP JUMP JUMPDEST PUSH2 0x1E5 DUP2 PUSH2 0x1D0 JUMP JUMPDEST DUP3 MSTORE POP POP JUMP JUMPDEST PUSH1 0x0 PUSH1 0x20 DUP3 ADD SWAP1 POP PUSH2 0x200 PUSH1 0x0 DUP4 ADD DUP5 PUSH2 0x1DC JUMP JUMPDEST SWAP3 SWAP2 POP POP JUMP INVALID LOG2 PUSH5 0x6970667358 0x22 SLT KECCAK256 EXTCODESIZE DUP4 SIGNEXTEND 0xD4 0xF8 0xB2 EXTCODECOPY CODESIZE 0xF6 SELFDESTRUCT 0xB9 SWAP1 PUSH15 0x89FB897D69217B0ED61AF51D21F3B9 SWAP11 DUP6 0x2B MOD PUSH5 0x736F6C6343 STOP ADDMOD 0xD STOP CALLER "
				},
				"gasEstimates": {
					"creation": {
						"codeDepositCost": "114400",
						"executionCost": "159",
						"totalCost": "114559"
					},
					"external": {
						"defaultBool()": "2512",
						"defaultInt()": "2407",
						"hey()": "2536",
						"number()": "2429"
					}
				},
				"methodIdentifiers": {
					"defaultBool()": "d668f5b5",
					"defaultInt()": "5abe622b",
					"hey()": "bde2b573",
					"number()": "8381f58a"
				}
			},
			"storageLayout": {
				"storage": [
					{
						"astId": 3,
						"contract": "dataTypes.sol:DataType",
						"label": "defaultBool",
						"offset": 0,
						"slot": "0",
						"type": "t_bool"
					},
					{
						"astId": 5,
						"contract": "dataTypes.sol:DataType",
						"label": "number",
						"offset": 0,
						"slot": "1",
						"type": "t_uint256"
					},
					{
						"astId": 7,
						"contract": "dataTypes.sol:DataType",
						"label": "defaultInt",
						"offset": 0,
						"slot": "2",
						"type": "t_int256"
					},
					{
						"astId": 9,
						"contract": "dataTypes.sol:DataType",
						"label": "hey",
						"offset": 0,
						"slot": "3",
						"type": "t_address"
					}
				],
				"types": {
					"t_address": {
						"encoding": "inplace",
						"label": "address",
						"numberOfBytes": "20"
					},
					"t_bool": {
						"encoding": "inplace",
						"label": "bool",
						"numberOfBytes": "1"
					},
					"t_int256": {
						"encoding": "inplace",
						"label": "int256",
						"numberOfBytes": "32"
					},
					"t_uint256": {
						"encoding": "inplace",
						"label": "uint256",
						"numberOfBytes": "32"
					}
				}
			},
			"userdoc": {
				"kind": "user",
				"methods": {},
				"version": 1
			}
		}
	}
}