{
	"ifElse.sol": {
		"IfElse": {
			"abi": [
				{
					"inputs": [
						{
							"internalType": "uint256",
							"name": "num",
							"type": "uint256"
						}
					],
					"name": "get",
					"outputs": [
						{
							"internalType": "string",
							"name": "",
							"type": "string"
						}
					],
					"stateMutability": "nonpayable",
					"type": "function"
				},
				{
					"inputs": [],
					"name": "myNum",
					"outputs": [
						{
							"internalType": "uint256",
							"name": "",
							"type": "uint256"
						}
					],
					"stateMutability": "view",
					"type": "function"
				},
				{
					"inputs": [],
					"name": "myString",
					"outputs": [
						{
							"internalType": "string",
							"name": "",
							"type": "string"
						}
					],
					"stateMutability": "view",
					"type": "function"
				},
				{
					"inputs": [
						{
							"internalType": "uint256",
							"name": "num",
							"type": "uint256"
						}
					],
					"name": "shorthandGet",
					"outputs": [
						{
							"internalType": "string",
							"name": "",
							"type": "string"
						}
					],
					"stateMutability": "nonpayable",
					"type": "function"
				}
			],
			"devdoc": {
				"kind": "dev",
				"methods": {},
				"version": 1
			},
			"evm": {
				"assembly": "    /* \"ifElse.sol\":57:550  contract IfElse {... */\n  mstore(0x40, 0x80)\n    /* \"ifElse.sol\":102:103  5 */\n  0x05\n    /* \"ifElse.sol\":79:103  uint256 public myNum = 5 */\n  0x00\n  sstore\n    /* \"ifElse.sol\":57:550  contract IfElse {... */\n  callvalue\n  dup1\n  iszero\n  tag_1\n  jumpi\n  0x00\n  dup1\n  revert\ntag_1:\n  pop\n  dataSize(sub_0)\n  dup1\n  dataOffset(sub_0)\n  0x00\n  codecopy\n  0x00\n  return\nstop\n\nsub_0: assembly {\n        /* \"ifElse.sol\":57:550  contract IfElse {... */\n      mstore(0x40, 0x80)\n      callvalue\n      dup1\n      iszero\n      tag_1\n      jumpi\n      0x00\n      dup1\n      revert\n    tag_1:\n      pop\n      jumpi(tag_2, lt(calldatasize, 0x04))\n      shr(0xe0, calldataload(0x00))\n      dup1\n      0x492bfa18\n      eq\n      tag_3\n      jumpi\n      dup1\n      0x9507d39a\n      eq\n      tag_4\n      jumpi\n      dup1\n      0xa4dc2bb8\n      eq\n      tag_5\n      jumpi\n      dup1\n      0xd4da005a\n      eq\n      tag_6\n      jumpi\n    tag_2:\n      0x00\n      dup1\n      revert\n        /* \"ifElse.sol\":109:131  string public myString */\n    tag_3:\n      tag_7\n      tag_8\n      jump\t// in\n    tag_7:\n      mload(0x40)\n      tag_9\n      swap2\n      swap1\n      tag_10\n      jump\t// in\n    tag_9:\n      mload(0x40)\n      dup1\n      swap2\n      sub\n      swap1\n      return\n        /* \"ifElse.sol\":138:353  function get(uint256 num) public returns (string memory) {... */\n    tag_4:\n      tag_11\n      0x04\n      dup1\n      calldatasize\n      sub\n      dup2\n      add\n      swap1\n      tag_12\n      swap2\n      swap1\n      tag_13\n      jump\t// in\n    tag_12:\n      tag_14\n      jump\t// in\n    tag_11:\n      mload(0x40)\n      tag_15\n      swap2\n      swap1\n      tag_10\n      jump\t// in\n    tag_15:\n      mload(0x40)\n      dup1\n      swap2\n      sub\n      swap1\n      return\n        /* \"ifElse.sol\":383:548  function shorthandGet(uint256 num) public returns (string memory) {... */\n    tag_5:\n      tag_16\n      0x04\n      dup1\n      calldatasize\n      sub\n      dup2\n      add\n      swap1\n      tag_17\n      swap2\n      swap1\n      tag_13\n      jump\t// in\n    tag_17:\n      tag_18\n      jump\t// in\n    tag_16:\n      mload(0x40)\n      tag_19\n      swap2\n      swap1\n      tag_10\n      jump\t// in\n    tag_19:\n      mload(0x40)\n      dup1\n      swap2\n      sub\n      swap1\n      return\n        /* \"ifElse.sol\":79:103  uint256 public myNum = 5 */\n    tag_6:\n      tag_20\n      tag_21\n      jump\t// in\n    tag_20:\n      mload(0x40)\n      tag_22\n      swap2\n      swap1\n      tag_23\n      jump\t// in\n    tag_22:\n      mload(0x40)\n      dup1\n      swap2\n      sub\n      swap1\n      return\n        /* \"ifElse.sol\":109:131  string public myString */\n    tag_8:\n      0x01\n      dup1\n      sload\n      tag_24\n      swap1\n      tag_25\n      jump\t// in\n    tag_24:\n      dup1\n      0x1f\n      add\n      0x20\n      dup1\n      swap2\n      div\n      mul\n      0x20\n      add\n      mload(0x40)\n      swap1\n      dup2\n      add\n      0x40\n      mstore\n      dup1\n      swap3\n      swap2\n      swap1\n      dup2\n      dup2\n      mstore\n      0x20\n      add\n      dup3\n      dup1\n      sload\n      tag_26\n      swap1\n      tag_25\n      jump\t// in\n    tag_26:\n      dup1\n      iszero\n      tag_27\n      jumpi\n      dup1\n      0x1f\n      lt\n      tag_28\n      jumpi\n      0x0100\n      dup1\n      dup4\n      sload\n      div\n      mul\n      dup4\n      mstore\n      swap2\n      0x20\n      add\n      swap2\n      jump(tag_27)\n    tag_28:\n      dup3\n      add\n      swap2\n      swap1\n      0x00\n      mstore\n      keccak256(0x00, 0x20)\n      swap1\n    tag_29:\n      dup2\n      sload\n      dup2\n      mstore\n      swap1\n      0x01\n      add\n      swap1\n      0x20\n      add\n      dup1\n      dup4\n      gt\n      tag_29\n      jumpi\n      dup3\n      swap1\n      sub\n      0x1f\n      and\n      dup3\n      add\n      swap2\n    tag_27:\n      pop\n      pop\n      pop\n      pop\n      pop\n      dup2\n      jump\t// out\n        /* \"ifElse.sol\":138:353  function get(uint256 num) public returns (string memory) {... */\n    tag_14:\n        /* \"ifElse.sol\":180:193  string memory */\n      0x60\n        /* \"ifElse.sol\":216:217  5 */\n      0x05\n        /* \"ifElse.sol\":209:212  num */\n      dup3\n        /* \"ifElse.sol\":209:217  num == 5 */\n      sub\n        /* \"ifElse.sol\":205:321  if (num == 5) {... */\n      tag_31\n      jumpi\n        /* \"ifElse.sol\":233:261  myString = \"You are correct\" */\n      mload(0x40)\n      dup1\n      0x40\n      add\n      0x40\n      mstore\n      dup1\n      0x0f\n      dup2\n      mstore\n      0x20\n      add\n      0x596f752061726520636f72726563740000000000000000000000000000000000\n      dup2\n      mstore\n      pop\n        /* \"ifElse.sol\":233:241  myString */\n      0x01\n        /* \"ifElse.sol\":233:261  myString = \"You are correct\" */\n      swap1\n      dup1\n      mload\n      swap1\n      0x20\n      add\n      swap1\n      tag_32\n      swap3\n      swap2\n      swap1\n      tag_33\n      jump\t// in\n    tag_32:\n      pop\n        /* \"ifElse.sol\":205:321  if (num == 5) {... */\n      jump(tag_34)\n    tag_31:\n        /* \"ifElse.sol\":292:310  myString = \"Wrong\" */\n      mload(0x40)\n      dup1\n      0x40\n      add\n      0x40\n      mstore\n      dup1\n      0x05\n      dup2\n      mstore\n      0x20\n      add\n      0x57726f6e67000000000000000000000000000000000000000000000000000000\n      dup2\n      mstore\n      pop\n        /* \"ifElse.sol\":292:300  myString */\n      0x01\n        /* \"ifElse.sol\":292:310  myString = \"Wrong\" */\n      swap1\n      dup1\n      mload\n      swap1\n      0x20\n      add\n      swap1\n      tag_35\n      swap3\n      swap2\n      swap1\n      tag_33\n      jump\t// in\n    tag_35:\n      pop\n        /* \"ifElse.sol\":205:321  if (num == 5) {... */\n    tag_34:\n        /* \"ifElse.sol\":338:346  myString */\n      0x01\n        /* \"ifElse.sol\":331:346  return myString */\n      dup1\n      sload\n      tag_36\n      swap1\n      tag_25\n      jump\t// in\n    tag_36:\n      dup1\n      0x1f\n      add\n      0x20\n      dup1\n      swap2\n      div\n      mul\n      0x20\n      add\n      mload(0x40)\n      swap1\n      dup2\n      add\n      0x40\n      mstore\n      dup1\n      swap3\n      swap2\n      swap1\n      dup2\n      dup2\n      mstore\n      0x20\n      add\n      dup3\n      dup1\n      sload\n      tag_37\n      swap1\n      tag_25\n      jump\t// in\n    tag_37:\n      dup1\n      iszero\n      tag_38\n      jumpi\n      dup1\n      0x1f\n      lt\n      tag_39\n      jumpi\n      0x0100\n      dup1\n      dup4\n      sload\n      div\n      mul\n      dup4\n      mstore\n      swap2\n      0x20\n      add\n      swap2\n      jump(tag_38)\n    tag_39:\n      dup3\n      add\n      swap2\n      swap1\n      0x00\n      mstore\n      keccak256(0x00, 0x20)\n      swap1\n    tag_40:\n      dup2\n      sload\n      dup2\n      mstore\n      swap1\n      0x01\n      add\n      swap1\n      0x20\n      add\n      dup1\n      dup4\n      gt\n      tag_40\n      jumpi\n      dup3\n      swap1\n      sub\n      0x1f\n      and\n      dup3\n      add\n      swap2\n    tag_38:\n      pop\n      pop\n      pop\n      pop\n      pop\n      swap1\n      pop\n        /* \"ifElse.sol\":138:353  function get(uint256 num) public returns (string memory) {... */\n      swap2\n      swap1\n      pop\n      jump\t// out\n        /* \"ifElse.sol\":383:548  function shorthandGet(uint256 num) public returns (string memory) {... */\n    tag_18:\n        /* \"ifElse.sol\":434:447  string memory */\n      0x60\n        /* \"ifElse.sol\":477:478  5 */\n      0x05\n        /* \"ifElse.sol\":470:473  num */\n      dup3\n        /* \"ifElse.sol\":470:478  num == 5 */\n      eq\n        /* \"ifElse.sol\":470:516  num == 5 ? \"You are correct\" : \"You are wrong\" */\n      tag_42\n      jumpi\n      mload(0x40)\n      dup1\n      0x40\n      add\n      0x40\n      mstore\n      dup1\n      0x0d\n      dup2\n      mstore\n      0x20\n      add\n      0x596f75206172652077726f6e6700000000000000000000000000000000000000\n      dup2\n      mstore\n      pop\n      jump(tag_43)\n    tag_42:\n      mload(0x40)\n      dup1\n      0x40\n      add\n      0x40\n      mstore\n      dup1\n      0x0f\n      dup2\n      mstore\n      0x20\n      add\n      0x596f752061726520636f72726563740000000000000000000000000000000000\n      dup2\n      mstore\n      pop\n    tag_43:\n        /* \"ifElse.sol\":459:467  myString */\n      0x01\n        /* \"ifElse.sol\":459:516  myString = num == 5 ? \"You are correct\" : \"You are wrong\" */\n      swap1\n      dup1\n      mload\n      swap1\n      0x20\n      add\n      swap1\n      tag_44\n      swap3\n      swap2\n      swap1\n      tag_33\n      jump\t// in\n    tag_44:\n      pop\n        /* \"ifElse.sol\":533:541  myString */\n      0x01\n        /* \"ifElse.sol\":526:541  return myString */\n      dup1\n      sload\n      tag_45\n      swap1\n      tag_25\n      jump\t// in\n    tag_45:\n      dup1\n      0x1f\n      add\n      0x20\n      dup1\n      swap2\n      div\n      mul\n      0x20\n      add\n      mload(0x40)\n      swap1\n      dup2\n      add\n      0x40\n      mstore\n      dup1\n      swap3\n      swap2\n      swap1\n      dup2\n      dup2\n      mstore\n      0x20\n      add\n      dup3\n      dup1\n      sload\n      tag_46\n      swap1\n      tag_25\n      jump\t// in\n    tag_46:\n      dup1\n      iszero\n      tag_47\n      jumpi\n      dup1\n      0x1f\n      lt\n      tag_48\n      jumpi\n      0x0100\n      dup1\n      dup4\n      sload\n      div\n      mul\n      dup4\n      mstore\n      swap2\n      0x20\n      add\n      swap2\n      jump(tag_47)\n    tag_48:\n      dup3\n      add\n      swap2\n      swap1\n      0x00\n      mstore\n      keccak256(0x00, 0x20)\n      swap1\n    tag_49:\n      dup2\n      sload\n      dup2\n      mstore\n      swap1\n      0x01\n      add\n      swap1\n      0x20\n      add\n      dup1\n      dup4\n      gt\n      tag_49\n      jumpi\n      dup3\n      swap1\n      sub\n      0x1f\n      and\n      dup3\n      add\n      swap2\n    tag_47:\n      pop\n      pop\n      pop\n      pop\n      pop\n      swap1\n      pop\n        /* \"ifElse.sol\":383:548  function shorthandGet(uint256 num) public returns (string memory) {... */\n      swap2\n      swap1\n      pop\n      jump\t// out\n        /* \"ifElse.sol\":79:103  uint256 public myNum = 5 */\n    tag_21:\n      sload(0x00)\n      dup2\n      jump\t// out\n    tag_33:\n      dup3\n      dup1\n      sload\n      tag_50\n      swap1\n      tag_25\n      jump\t// in\n    tag_50:\n      swap1\n      0x00\n      mstore\n      keccak256(0x00, 0x20)\n      swap1\n      0x1f\n      add\n      0x20\n      swap1\n      div\n      dup2\n      add\n      swap3\n      dup3\n      tag_52\n      jumpi\n      0x00\n      dup6\n      sstore\n      jump(tag_51)\n    tag_52:\n      dup3\n      0x1f\n      lt\n      tag_53\n      jumpi\n      dup1\n      mload\n      not(0xff)\n      and\n      dup4\n      dup1\n      add\n      or\n      dup6\n      sstore\n      jump(tag_51)\n    tag_53:\n      dup3\n      dup1\n      add\n      0x01\n      add\n      dup6\n      sstore\n      dup3\n      iszero\n      tag_51\n      jumpi\n      swap2\n      dup3\n      add\n    tag_54:\n      dup3\n      dup2\n      gt\n      iszero\n      tag_55\n      jumpi\n      dup3\n      mload\n      dup3\n      sstore\n      swap2\n      0x20\n      add\n      swap2\n      swap1\n      0x01\n      add\n      swap1\n      jump(tag_54)\n    tag_55:\n    tag_51:\n      pop\n      swap1\n      pop\n      tag_56\n      swap2\n      swap1\n      tag_57\n      jump\t// in\n    tag_56:\n      pop\n      swap1\n      jump\t// out\n    tag_57:\n    tag_58:\n      dup1\n      dup3\n      gt\n      iszero\n      tag_59\n      jumpi\n      0x00\n      dup2\n      0x00\n      swap1\n      sstore\n      pop\n      0x01\n      add\n      jump(tag_58)\n    tag_59:\n      pop\n      swap1\n      jump\t// out\n        /* \"#utility.yul\":7:106   */\n    tag_60:\n        /* \"#utility.yul\":59:65   */\n      0x00\n        /* \"#utility.yul\":93:98   */\n      dup2\n        /* \"#utility.yul\":87:99   */\n      mload\n        /* \"#utility.yul\":77:99   */\n      swap1\n      pop\n        /* \"#utility.yul\":7:106   */\n      swap2\n      swap1\n      pop\n      jump\t// out\n        /* \"#utility.yul\":112:281   */\n    tag_61:\n        /* \"#utility.yul\":196:207   */\n      0x00\n        /* \"#utility.yul\":230:236   */\n      dup3\n        /* \"#utility.yul\":225:228   */\n      dup3\n        /* \"#utility.yul\":218:237   */\n      mstore\n        /* \"#utility.yul\":270:274   */\n      0x20\n        /* \"#utility.yul\":265:268   */\n      dup3\n        /* \"#utility.yul\":261:275   */\n      add\n        /* \"#utility.yul\":246:275   */\n      swap1\n      pop\n        /* \"#utility.yul\":112:281   */\n      swap3\n      swap2\n      pop\n      pop\n      jump\t// out\n        /* \"#utility.yul\":287:594   */\n    tag_62:\n        /* \"#utility.yul\":355:356   */\n      0x00\n        /* \"#utility.yul\":365:478   */\n    tag_77:\n        /* \"#utility.yul\":379:385   */\n      dup4\n        /* \"#utility.yul\":376:377   */\n      dup2\n        /* \"#utility.yul\":373:386   */\n      lt\n        /* \"#utility.yul\":365:478   */\n      iszero\n      tag_79\n      jumpi\n        /* \"#utility.yul\":464:465   */\n      dup1\n        /* \"#utility.yul\":459:462   */\n      dup3\n        /* \"#utility.yul\":455:466   */\n      add\n        /* \"#utility.yul\":449:467   */\n      mload\n        /* \"#utility.yul\":445:446   */\n      dup2\n        /* \"#utility.yul\":440:443   */\n      dup5\n        /* \"#utility.yul\":436:447   */\n      add\n        /* \"#utility.yul\":429:468   */\n      mstore\n        /* \"#utility.yul\":401:403   */\n      0x20\n        /* \"#utility.yul\":398:399   */\n      dup2\n        /* \"#utility.yul\":394:404   */\n      add\n        /* \"#utility.yul\":389:404   */\n      swap1\n      pop\n        /* \"#utility.yul\":365:478   */\n      jump(tag_77)\n    tag_79:\n        /* \"#utility.yul\":496:502   */\n      dup4\n        /* \"#utility.yul\":493:494   */\n      dup2\n        /* \"#utility.yul\":490:503   */\n      gt\n        /* \"#utility.yul\":487:588   */\n      iszero\n      tag_80\n      jumpi\n        /* \"#utility.yul\":576:577   */\n      0x00\n        /* \"#utility.yul\":567:573   */\n      dup5\n        /* \"#utility.yul\":562:565   */\n      dup5\n        /* \"#utility.yul\":558:574   */\n      add\n        /* \"#utility.yul\":551:578   */\n      mstore\n        /* \"#utility.yul\":487:588   */\n    tag_80:\n        /* \"#utility.yul\":336:594   */\n      pop\n        /* \"#utility.yul\":287:594   */\n      pop\n      pop\n      pop\n      jump\t// out\n        /* \"#utility.yul\":600:702   */\n    tag_63:\n        /* \"#utility.yul\":641:647   */\n      0x00\n        /* \"#utility.yul\":692:694   */\n      0x1f\n        /* \"#utility.yul\":688:695   */\n      not\n        /* \"#utility.yul\":683:685   */\n      0x1f\n        /* \"#utility.yul\":676:681   */\n      dup4\n        /* \"#utility.yul\":672:686   */\n      add\n        /* \"#utility.yul\":668:696   */\n      and\n        /* \"#utility.yul\":658:696   */\n      swap1\n      pop\n        /* \"#utility.yul\":600:702   */\n      swap2\n      swap1\n      pop\n      jump\t// out\n        /* \"#utility.yul\":708:1072   */\n    tag_64:\n        /* \"#utility.yul\":796:799   */\n      0x00\n        /* \"#utility.yul\":824:863   */\n      tag_83\n        /* \"#utility.yul\":857:862   */\n      dup3\n        /* \"#utility.yul\":824:863   */\n      tag_60\n      jump\t// in\n    tag_83:\n        /* \"#utility.yul\":879:950   */\n      tag_84\n        /* \"#utility.yul\":943:949   */\n      dup2\n        /* \"#utility.yul\":938:941   */\n      dup6\n        /* \"#utility.yul\":879:950   */\n      tag_61\n      jump\t// in\n    tag_84:\n        /* \"#utility.yul\":872:950   */\n      swap4\n      pop\n        /* \"#utility.yul\":959:1011   */\n      tag_85\n        /* \"#utility.yul\":1004:1010   */\n      dup2\n        /* \"#utility.yul\":999:1002   */\n      dup6\n        /* \"#utility.yul\":992:996   */\n      0x20\n        /* \"#utility.yul\":985:990   */\n      dup7\n        /* \"#utility.yul\":981:997   */\n      add\n        /* \"#utility.yul\":959:1011   */\n      tag_62\n      jump\t// in\n    tag_85:\n        /* \"#utility.yul\":1036:1065   */\n      tag_86\n        /* \"#utility.yul\":1058:1064   */\n      dup2\n        /* \"#utility.yul\":1036:1065   */\n      tag_63\n      jump\t// in\n    tag_86:\n        /* \"#utility.yul\":1031:1034   */\n      dup5\n        /* \"#utility.yul\":1027:1066   */\n      add\n        /* \"#utility.yul\":1020:1066   */\n      swap2\n      pop\n        /* \"#utility.yul\":800:1072   */\n      pop\n        /* \"#utility.yul\":708:1072   */\n      swap3\n      swap2\n      pop\n      pop\n      jump\t// out\n        /* \"#utility.yul\":1078:1391   */\n    tag_10:\n        /* \"#utility.yul\":1191:1195   */\n      0x00\n        /* \"#utility.yul\":1229:1231   */\n      0x20\n        /* \"#utility.yul\":1218:1227   */\n      dup3\n        /* \"#utility.yul\":1214:1232   */\n      add\n        /* \"#utility.yul\":1206:1232   */\n      swap1\n      pop\n        /* \"#utility.yul\":1278:1287   */\n      dup2\n        /* \"#utility.yul\":1272:1276   */\n      dup2\n        /* \"#utility.yul\":1268:1288   */\n      sub\n        /* \"#utility.yul\":1264:1265   */\n      0x00\n        /* \"#utility.yul\":1253:1262   */\n      dup4\n        /* \"#utility.yul\":1249:1266   */\n      add\n        /* \"#utility.yul\":1242:1289   */\n      mstore\n        /* \"#utility.yul\":1306:1384   */\n      tag_88\n        /* \"#utility.yul\":1379:1383   */\n      dup2\n        /* \"#utility.yul\":1370:1376   */\n      dup5\n        /* \"#utility.yul\":1306:1384   */\n      tag_64\n      jump\t// in\n    tag_88:\n        /* \"#utility.yul\":1298:1384   */\n      swap1\n      pop\n        /* \"#utility.yul\":1078:1391   */\n      swap3\n      swap2\n      pop\n      pop\n      jump\t// out\n        /* \"#utility.yul\":1478:1595   */\n    tag_66:\n        /* \"#utility.yul\":1587:1588   */\n      0x00\n        /* \"#utility.yul\":1584:1585   */\n      dup1\n        /* \"#utility.yul\":1577:1589   */\n      revert\n        /* \"#utility.yul\":1724:1801   */\n    tag_68:\n        /* \"#utility.yul\":1761:1768   */\n      0x00\n        /* \"#utility.yul\":1790:1795   */\n      dup2\n        /* \"#utility.yul\":1779:1795   */\n      swap1\n      pop\n        /* \"#utility.yul\":1724:1801   */\n      swap2\n      swap1\n      pop\n      jump\t// out\n        /* \"#utility.yul\":1807:1929   */\n    tag_69:\n        /* \"#utility.yul\":1880:1904   */\n      tag_94\n        /* \"#utility.yul\":1898:1903   */\n      dup2\n        /* \"#utility.yul\":1880:1904   */\n      tag_68\n      jump\t// in\n    tag_94:\n        /* \"#utility.yul\":1873:1878   */\n      dup2\n        /* \"#utility.yul\":1870:1905   */\n      eq\n        /* \"#utility.yul\":1860:1923   */\n      tag_95\n      jumpi\n        /* \"#utility.yul\":1919:1920   */\n      0x00\n        /* \"#utility.yul\":1916:1917   */\n      dup1\n        /* \"#utility.yul\":1909:1921   */\n      revert\n        /* \"#utility.yul\":1860:1923   */\n    tag_95:\n        /* \"#utility.yul\":1807:1929   */\n      pop\n      jump\t// out\n        /* \"#utility.yul\":1935:2074   */\n    tag_70:\n        /* \"#utility.yul\":1981:1986   */\n      0x00\n        /* \"#utility.yul\":2019:2025   */\n      dup2\n        /* \"#utility.yul\":2006:2026   */\n      calldataload\n        /* \"#utility.yul\":1997:2026   */\n      swap1\n      pop\n        /* \"#utility.yul\":2035:2068   */\n      tag_97\n        /* \"#utility.yul\":2062:2067   */\n      dup2\n        /* \"#utility.yul\":2035:2068   */\n      tag_69\n      jump\t// in\n    tag_97:\n        /* \"#utility.yul\":1935:2074   */\n      swap3\n      swap2\n      pop\n      pop\n      jump\t// out\n        /* \"#utility.yul\":2080:2409   */\n    tag_13:\n        /* \"#utility.yul\":2139:2145   */\n      0x00\n        /* \"#utility.yul\":2188:2190   */\n      0x20\n        /* \"#utility.yul\":2176:2185   */\n      dup3\n        /* \"#utility.yul\":2167:2174   */\n      dup5\n        /* \"#utility.yul\":2163:2186   */\n      sub\n        /* \"#utility.yul\":2159:2191   */\n      slt\n        /* \"#utility.yul\":2156:2275   */\n      iszero\n      tag_99\n      jumpi\n        /* \"#utility.yul\":2194:2273   */\n      tag_100\n      tag_66\n      jump\t// in\n    tag_100:\n        /* \"#utility.yul\":2156:2275   */\n    tag_99:\n        /* \"#utility.yul\":2314:2315   */\n      0x00\n        /* \"#utility.yul\":2339:2392   */\n      tag_101\n        /* \"#utility.yul\":2384:2391   */\n      dup5\n        /* \"#utility.yul\":2375:2381   */\n      dup3\n        /* \"#utility.yul\":2364:2373   */\n      dup6\n        /* \"#utility.yul\":2360:2382   */\n      add\n        /* \"#utility.yul\":2339:2392   */\n      tag_70\n      jump\t// in\n    tag_101:\n        /* \"#utility.yul\":2329:2392   */\n      swap2\n      pop\n        /* \"#utility.yul\":2285:2402   */\n      pop\n        /* \"#utility.yul\":2080:2409   */\n      swap3\n      swap2\n      pop\n      pop\n      jump\t// out\n        /* \"#utility.yul\":2415:2533   */\n    tag_71:\n        /* \"#utility.yul\":2502:2526   */\n      tag_103\n        /* \"#utility.yul\":2520:2525   */\n      dup2\n        /* \"#utility.yul\":2502:2526   */\n      tag_68\n      jump\t// in\n    tag_103:\n        /* \"#utility.yul\":2497:2500   */\n      dup3\n        /* \"#utility.yul\":2490:2527   */\n      mstore\n        /* \"#utility.yul\":2415:2533   */\n      pop\n      pop\n      jump\t// out\n        /* \"#utility.yul\":2539:2761   */\n    tag_23:\n        /* \"#utility.yul\":2632:2636   */\n      0x00\n        /* \"#utility.yul\":2670:2672   */\n      0x20\n        /* \"#utility.yul\":2659:2668   */\n      dup3\n        /* \"#utility.yul\":2655:2673   */\n      add\n        /* \"#utility.yul\":2647:2673   */\n      swap1\n      pop\n        /* \"#utility.yul\":2683:2754   */\n      tag_105\n        /* \"#utility.yul\":2751:2752   */\n      0x00\n        /* \"#utility.yul\":2740:2749   */\n      dup4\n        /* \"#utility.yul\":2736:2753   */\n      add\n        /* \"#utility.yul\":2727:2733   */\n      dup5\n        /* \"#utility.yul\":2683:2754   */\n      tag_71\n      jump\t// in\n    tag_105:\n        /* \"#utility.yul\":2539:2761   */\n      swap3\n      swap2\n      pop\n      pop\n      jump\t// out\n        /* \"#utility.yul\":2767:2947   */\n    tag_72:\n        /* \"#utility.yul\":2815:2892   */\n      0x4e487b7100000000000000000000000000000000000000000000000000000000\n        /* \"#utility.yul\":2812:2813   */\n      0x00\n        /* \"#utility.yul\":2805:2893   */\n      mstore\n        /* \"#utility.yul\":2912:2916   */\n      0x22\n        /* \"#utility.yul\":2909:2910   */\n      0x04\n        /* \"#utility.yul\":2902:2917   */\n      mstore\n        /* \"#utility.yul\":2936:2940   */\n      0x24\n        /* \"#utility.yul\":2933:2934   */\n      0x00\n        /* \"#utility.yul\":2926:2941   */\n      revert\n        /* \"#utility.yul\":2953:3273   */\n    tag_25:\n        /* \"#utility.yul\":2997:3003   */\n      0x00\n        /* \"#utility.yul\":3034:3035   */\n      0x02\n        /* \"#utility.yul\":3028:3032   */\n      dup3\n        /* \"#utility.yul\":3024:3036   */\n      div\n        /* \"#utility.yul\":3014:3036   */\n      swap1\n      pop\n        /* \"#utility.yul\":3081:3082   */\n      0x01\n        /* \"#utility.yul\":3075:3079   */\n      dup3\n        /* \"#utility.yul\":3071:3083   */\n      and\n        /* \"#utility.yul\":3102:3120   */\n      dup1\n        /* \"#utility.yul\":3092:3173   */\n      tag_108\n      jumpi\n        /* \"#utility.yul\":3158:3162   */\n      0x7f\n        /* \"#utility.yul\":3150:3156   */\n      dup3\n        /* \"#utility.yul\":3146:3163   */\n      and\n        /* \"#utility.yul\":3136:3163   */\n      swap2\n      pop\n        /* \"#utility.yul\":3092:3173   */\n    tag_108:\n        /* \"#utility.yul\":3220:3222   */\n      0x20\n        /* \"#utility.yul\":3212:3218   */\n      dup3\n        /* \"#utility.yul\":3209:3223   */\n      lt\n        /* \"#utility.yul\":3189:3207   */\n      dup2\n        /* \"#utility.yul\":3186:3224   */\n      sub\n        /* \"#utility.yul\":3183:3267   */\n      tag_109\n      jumpi\n        /* \"#utility.yul\":3239:3257   */\n      tag_110\n      tag_72\n      jump\t// in\n    tag_110:\n        /* \"#utility.yul\":3183:3267   */\n    tag_109:\n        /* \"#utility.yul\":3004:3273   */\n      pop\n        /* \"#utility.yul\":2953:3273   */\n      swap2\n      swap1\n      pop\n      jump\t// out\n\n    auxdata: 0xa26469706673582212202407620a3d24344bf5d1c9a9f5b4e111a231bd81ecfcf86d167b377c4574873364736f6c634300080d0033\n}\n",
				"bytecode": {
					"linkReferences": {},
					"object": "6080604052600560005534801561001557600080fd5b50610665806100256000396000f3fe608060405234801561001057600080fd5b506004361061004c5760003560e01c8063492bfa18146100515780639507d39a1461006f578063a4dc2bb81461009f578063d4da005a146100cf575b600080fd5b6100596100ed565b604051610066919061051b565b60405180910390f35b61008960048036038101906100849190610578565b61017b565b604051610096919061051b565b60405180910390f35b6100b960048036038101906100b49190610578565b6102b5565b6040516100c6919061051b565b60405180910390f35b6100d76103d9565b6040516100e491906105b4565b60405180910390f35b600180546100fa906105fe565b80601f0160208091040260200160405190810160405280929190818152602001828054610126906105fe565b80156101735780601f1061014857610100808354040283529160200191610173565b820191906000526020600020905b81548152906001019060200180831161015657829003601f168201915b505050505081565b6060600582036101d6576040518060400160405280600f81526020017f596f752061726520636f72726563740000000000000000000000000000000000815250600190805190602001906101d09291906103df565b50610223565b6040518060400160405280600581526020017f57726f6e67000000000000000000000000000000000000000000000000000000815250600190805190602001906102219291906103df565b505b60018054610230906105fe565b80601f016020809104026020016040519081016040528092919081815260200182805461025c906105fe565b80156102a95780601f1061027e576101008083540402835291602001916102a9565b820191906000526020600020905b81548152906001019060200180831161028c57829003601f168201915b50505050509050919050565b6060600582146102fa576040518060400160405280600d81526020017f596f75206172652077726f6e6700000000000000000000000000000000000000815250610331565b6040518060400160405280600f81526020017f596f752061726520636f727265637400000000000000000000000000000000008152505b600190805190602001906103469291906103df565b5060018054610354906105fe565b80601f0160208091040260200160405190810160405280929190818152602001828054610380906105fe565b80156103cd5780601f106103a2576101008083540402835291602001916103cd565b820191906000526020600020905b8154815290600101906020018083116103b057829003601f168201915b50505050509050919050565b60005481565b8280546103eb906105fe565b90600052602060002090601f01602090048101928261040d5760008555610454565b82601f1061042657805160ff1916838001178555610454565b82800160010185558215610454579182015b82811115610453578251825591602001919060010190610438565b5b5090506104619190610465565b5090565b5b8082111561047e576000816000905550600101610466565b5090565b600081519050919050565b600082825260208201905092915050565b60005b838110156104bc5780820151818401526020810190506104a1565b838111156104cb576000848401525b50505050565b6000601f19601f8301169050919050565b60006104ed82610482565b6104f7818561048d565b935061050781856020860161049e565b610510816104d1565b840191505092915050565b6000602082019050818103600083015261053581846104e2565b905092915050565b600080fd5b6000819050919050565b61055581610542565b811461056057600080fd5b50565b6000813590506105728161054c565b92915050565b60006020828403121561058e5761058d61053d565b5b600061059c84828501610563565b91505092915050565b6105ae81610542565b82525050565b60006020820190506105c960008301846105a5565b92915050565b7f4e487b7100000000000000000000000000000000000000000000000000000000600052602260045260246000fd5b6000600282049050600182168061061657607f821691505b602082108103610629576106286105cf565b5b5091905056fea26469706673582212202407620a3d24344bf5d1c9a9f5b4e111a231bd81ecfcf86d167b377c4574873364736f6c634300080d0033",
					"opcodes": "PUSH1 0x80 PUSH1 0x40 MSTORE PUSH1 0x5 PUSH1 0x0 SSTORE CALLVALUE DUP1 ISZERO PUSH2 0x15 JUMPI PUSH1 0x0 DUP1 REVERT JUMPDEST POP PUSH2 0x665 DUP1 PUSH2 0x25 PUSH1 0x0 CODECOPY PUSH1 0x0 RETURN INVALID PUSH1 0x80 PUSH1 0x40 MSTORE CALLVALUE DUP1 ISZERO PUSH2 0x10 JUMPI PUSH1 0x0 DUP1 REVERT JUMPDEST POP PUSH1 0x4 CALLDATASIZE LT PUSH2 0x4C JUMPI PUSH1 0x0 CALLDATALOAD PUSH1 0xE0 SHR DUP1 PUSH4 0x492BFA18 EQ PUSH2 0x51 JUMPI DUP1 PUSH4 0x9507D39A EQ PUSH2 0x6F JUMPI DUP1 PUSH4 0xA4DC2BB8 EQ PUSH2 0x9F JUMPI DUP1 PUSH4 0xD4DA005A EQ PUSH2 0xCF JUMPI JUMPDEST PUSH1 0x0 DUP1 REVERT JUMPDEST PUSH2 0x59 PUSH2 0xED JUMP JUMPDEST PUSH1 0x40 MLOAD PUSH2 0x66 SWAP2 SWAP1 PUSH2 0x51B JUMP JUMPDEST PUSH1 0x40 MLOAD DUP1 SWAP2 SUB SWAP1 RETURN JUMPDEST PUSH2 0x89 PUSH1 0x4 DUP1 CALLDATASIZE SUB DUP2 ADD SWAP1 PUSH2 0x84 SWAP2 SWAP1 PUSH2 0x578 JUMP JUMPDEST PUSH2 0x17B JUMP JUMPDEST PUSH1 0x40 MLOAD PUSH2 0x96 SWAP2 SWAP1 PUSH2 0x51B JUMP JUMPDEST PUSH1 0x40 MLOAD DUP1 SWAP2 SUB SWAP1 RETURN JUMPDEST PUSH2 0xB9 PUSH1 0x4 DUP1 CALLDATASIZE SUB DUP2 ADD SWAP1 PUSH2 0xB4 SWAP2 SWAP1 PUSH2 0x578 JUMP JUMPDEST PUSH2 0x2B5 JUMP JUMPDEST PUSH1 0x40 MLOAD PUSH2 0xC6 SWAP2 SWAP1 PUSH2 0x51B JUMP JUMPDEST PUSH1 0x40 MLOAD DUP1 SWAP2 SUB SWAP1 RETURN JUMPDEST PUSH2 0xD7 PUSH2 0x3D9 JUMP JUMPDEST PUSH1 0x40 MLOAD PUSH2 0xE4 SWAP2 SWAP1 PUSH2 0x5B4 JUMP JUMPDEST PUSH1 0x40 MLOAD DUP1 SWAP2 SUB SWAP1 RETURN JUMPDEST PUSH1 0x1 DUP1 SLOAD PUSH2 0xFA SWAP1 PUSH2 0x5FE JUMP JUMPDEST DUP1 PUSH1 0x1F ADD PUSH1 0x20 DUP1 SWAP2 DIV MUL PUSH1 0x20 ADD PUSH1 0x40 MLOAD SWAP1 DUP2 ADD PUSH1 0x40 MSTORE DUP1 SWAP3 SWAP2 SWAP1 DUP2 DUP2 MSTORE PUSH1 0x20 ADD DUP3 DUP1 SLOAD PUSH2 0x126 SWAP1 PUSH2 0x5FE JUMP JUMPDEST DUP1 ISZERO PUSH2 0x173 JUMPI DUP1 PUSH1 0x1F LT PUSH2 0x148 JUMPI PUSH2 0x100 DUP1 DUP4 SLOAD DIV MUL DUP4 MSTORE SWAP2 PUSH1 0x20 ADD SWAP2 PUSH2 0x173 JUMP JUMPDEST DUP3 ADD SWAP2 SWAP1 PUSH1 0x0 MSTORE PUSH1 0x20 PUSH1 0x0 KECCAK256 SWAP1 JUMPDEST DUP2 SLOAD DUP2 MSTORE SWAP1 PUSH1 0x1 ADD SWAP1 PUSH1 0x20 ADD DUP1 DUP4 GT PUSH2 0x156 JUMPI DUP3 SWAP1 SUB PUSH1 0x1F AND DUP3 ADD SWAP2 JUMPDEST POP POP POP POP POP DUP2 JUMP JUMPDEST PUSH1 0x60 PUSH1 0x5 DUP3 SUB PUSH2 0x1D6 JUMPI PUSH1 0x40 MLOAD DUP1 PUSH1 0x40 ADD PUSH1 0x40 MSTORE DUP1 PUSH1 0xF DUP2 MSTORE PUSH1 0x20 ADD PUSH32 0x596F752061726520636F72726563740000000000000000000000000000000000 DUP2 MSTORE POP PUSH1 0x1 SWAP1 DUP1 MLOAD SWAP1 PUSH1 0x20 ADD SWAP1 PUSH2 0x1D0 SWAP3 SWAP2 SWAP1 PUSH2 0x3DF JUMP JUMPDEST POP PUSH2 0x223 JUMP JUMPDEST PUSH1 0x40 MLOAD DUP1 PUSH1 0x40 ADD PUSH1 0x40 MSTORE DUP1 PUSH1 0x5 DUP2 MSTORE PUSH1 0x20 ADD PUSH32 0x57726F6E67000000000000000000000000000000000000000000000000000000 DUP2 MSTORE POP PUSH1 0x1 SWAP1 DUP1 MLOAD SWAP1 PUSH1 0x20 ADD SWAP1 PUSH2 0x221 SWAP3 SWAP2 SWAP1 PUSH2 0x3DF JUMP JUMPDEST POP JUMPDEST PUSH1 0x1 DUP1 SLOAD PUSH2 0x230 SWAP1 PUSH2 0x5FE JUMP JUMPDEST DUP1 PUSH1 0x1F ADD PUSH1 0x20 DUP1 SWAP2 DIV MUL PUSH1 0x20 ADD PUSH1 0x40 MLOAD SWAP1 DUP2 ADD PUSH1 0x40 MSTORE DUP1 SWAP3 SWAP2 SWAP1 DUP2 DUP2 MSTORE PUSH1 0x20 ADD DUP3 DUP1 SLOAD PUSH2 0x25C SWAP1 PUSH2 0x5FE JUMP JUMPDEST DUP1 ISZERO PUSH2 0x2A9 JUMPI DUP1 PUSH1 0x1F LT PUSH2 0x27E JUMPI PUSH2 0x100 DUP1 DUP4 SLOAD DIV MUL DUP4 MSTORE SWAP2 PUSH1 0x20 ADD SWAP2 PUSH2 0x2A9 JUMP JUMPDEST DUP3 ADD SWAP2 SWAP1 PUSH1 0x0 MSTORE PUSH1 0x20 PUSH1 0x0 KECCAK256 SWAP1 JUMPDEST DUP2 SLOAD DUP2 MSTORE SWAP1 PUSH1 0x1 ADD SWAP1 PUSH1 0x20 ADD DUP1 DUP4 GT PUSH2 0x28C JUMPI DUP3 SWAP1 SUB PUSH1 0x1F AND DUP3 ADD SWAP2 JUMPDEST POP POP POP POP POP SWAP1 POP SWAP2 SWAP1 POP JUMP JUMPDEST PUSH1 0x60 PUSH1 0x5 DUP3 EQ PUSH2 0x2FA JUMPI PUSH1 0x40 MLOAD DUP1 PUSH1 0x40 ADD PUSH1 0x40 MSTORE DUP1 PUSH1 0xD DUP2 MSTORE PUSH1 0x20 ADD PUSH32 0x596F75206172652077726F6E6700000000000000000000000000000000000000 DUP2 MSTORE POP PUSH2 0x331 JUMP JUMPDEST PUSH1 0x40 MLOAD DUP1 PUSH1 0x40 ADD PUSH1 0x40 MSTORE DUP1 PUSH1 0xF DUP2 MSTORE PUSH1 0x20 ADD PUSH32 0x596F752061726520636F72726563740000000000000000000000000000000000 DUP2 MSTORE POP JUMPDEST PUSH1 0x1 SWAP1 DUP1 MLOAD SWAP1 PUSH1 0x20 ADD SWAP1 PUSH2 0x346 SWAP3 SWAP2 SWAP1 PUSH2 0x3DF JUMP JUMPDEST POP PUSH1 0x1 DUP1 SLOAD PUSH2 0x354 SWAP1 PUSH2 0x5FE JUMP JUMPDEST DUP1 PUSH1 0x1F ADD PUSH1 0x20 DUP1 SWAP2 DIV MUL PUSH1 0x20 ADD PUSH1 0x40 MLOAD SWAP1 DUP2 ADD PUSH1 0x40 MSTORE DUP1 SWAP3 SWAP2 SWAP1 DUP2 DUP2 MSTORE PUSH1 0x20 ADD DUP3 DUP1 SLOAD PUSH2 0x380 SWAP1 PUSH2 0x5FE JUMP JUMPDEST DUP1 ISZERO PUSH2 0x3CD JUMPI DUP1 PUSH1 0x1F LT PUSH2 0x3A2 JUMPI PUSH2 0x100 DUP1 DUP4 SLOAD DIV MUL DUP4 MSTORE SWAP2 PUSH1 0x20 ADD SWAP2 PUSH2 0x3CD JUMP JUMPDEST DUP3 ADD SWAP2 SWAP1 PUSH1 0x0 MSTORE PUSH1 0x20 PUSH1 0x0 KECCAK256 SWAP1 JUMPDEST DUP2 SLOAD DUP2 MSTORE SWAP1 PUSH1 0x1 ADD SWAP1 PUSH1 0x20 ADD DUP1 DUP4 GT PUSH2 0x3B0 JUMPI DUP3 SWAP1 SUB PUSH1 0x1F AND DUP3 ADD SWAP2 JUMPDEST POP POP POP POP POP SWAP1 POP SWAP2 SWAP1 POP JUMP JUMPDEST PUSH1 0x0 SLOAD DUP2 JUMP JUMPDEST DUP3 DUP1 SLOAD PUSH2 0x3EB SWAP1 PUSH2 0x5FE JUMP JUMPDEST SWAP1 PUSH1 0x0 MSTORE PUSH1 0x20 PUSH1 0x0 KECCAK256 SWAP1 PUSH1 0x1F ADD PUSH1 0x20 SWAP1 DIV DUP2 ADD SWAP3 DUP3 PUSH2 0x40D JUMPI PUSH1 0x0 DUP6 SSTORE PUSH2 0x454 JUMP JUMPDEST DUP3 PUSH1 0x1F LT PUSH2 0x426 JUMPI DUP1 MLOAD PUSH1 0xFF NOT AND DUP4 DUP1 ADD OR DUP6 SSTORE PUSH2 0x454 JUMP JUMPDEST DUP3 DUP1 ADD PUSH1 0x1 ADD DUP6 SSTORE DUP3 ISZERO PUSH2 0x454 JUMPI SWAP2 DUP3 ADD JUMPDEST DUP3 DUP2 GT ISZERO PUSH2 0x453 JUMPI DUP3 MLOAD DUP3 SSTORE SWAP2 PUSH1 0x20 ADD SWAP2 SWAP1 PUSH1 0x1 ADD SWAP1 PUSH2 0x438 JUMP JUMPDEST JUMPDEST POP SWAP1 POP PUSH2 0x461 SWAP2 SWAP1 PUSH2 0x465 JUMP JUMPDEST POP SWAP1 JUMP JUMPDEST JUMPDEST DUP1 DUP3 GT ISZERO PUSH2 0x47E JUMPI PUSH1 0x0 DUP2 PUSH1 0x0 SWAP1 SSTORE POP PUSH1 0x1 ADD PUSH2 0x466 JUMP JUMPDEST POP SWAP1 JUMP JUMPDEST PUSH1 0x0 DUP2 MLOAD SWAP1 POP SWAP2 SWAP1 POP JUMP JUMPDEST PUSH1 0x0 DUP3 DUP3 MSTORE PUSH1 0x20 DUP3 ADD SWAP1 POP SWAP3 SWAP2 POP POP JUMP JUMPDEST PUSH1 0x0 JUMPDEST DUP4 DUP2 LT ISZERO PUSH2 0x4BC JUMPI DUP1 DUP3 ADD MLOAD DUP2 DUP5 ADD MSTORE PUSH1 0x20 DUP2 ADD SWAP1 POP PUSH2 0x4A1 JUMP JUMPDEST DUP4 DUP2 GT ISZERO PUSH2 0x4CB JUMPI PUSH1 0x0 DUP5 DUP5 ADD MSTORE JUMPDEST POP POP POP POP JUMP JUMPDEST PUSH1 0x0 PUSH1 0x1F NOT PUSH1 0x1F DUP4 ADD AND SWAP1 POP SWAP2 SWAP1 POP JUMP JUMPDEST PUSH1 0x0 PUSH2 0x4ED DUP3 PUSH2 0x482 JUMP JUMPDEST PUSH2 0x4F7 DUP2 DUP6 PUSH2 0x48D JUMP JUMPDEST SWAP4 POP PUSH2 0x507 DUP2 DUP6 PUSH1 0x20 DUP7 ADD PUSH2 0x49E JUMP JUMPDEST PUSH2 0x510 DUP2 PUSH2 0x4D1 JUMP JUMPDEST DUP5 ADD SWAP2 POP POP SWAP3 SWAP2 POP POP JUMP JUMPDEST PUSH1 0x0 PUSH1 0x20 DUP3 ADD SWAP1 POP DUP2 DUP2 SUB PUSH1 0x0 DUP4 ADD MSTORE PUSH2 0x535 DUP2 DUP5 PUSH2 0x4E2 JUMP JUMPDEST SWAP1 POP SWAP3 SWAP2 POP POP JUMP JUMPDEST PUSH1 0x0 DUP1 REVERT JUMPDEST PUSH1 0x0 DUP2 SWAP1 POP SWAP2 SWAP1 POP JUMP JUMPDEST PUSH2 0x555 DUP2 PUSH2 0x542 JUMP JUMPDEST DUP2 EQ PUSH2 0x560 JUMPI PUSH1 0x0 DUP1 REVERT JUMPDEST POP JUMP JUMPDEST PUSH1 0x0 DUP2 CALLDATALOAD SWAP1 POP PUSH2 0x572 DUP2 PUSH2 0x54C JUMP JUMPDEST SWAP3 SWAP2 POP POP JUMP JUMPDEST PUSH1 0x0 PUSH1 0x20 DUP3 DUP5 SUB SLT ISZERO PUSH2 0x58E JUMPI PUSH2 0x58D PUSH2 0x53D JUMP JUMPDEST JUMPDEST PUSH1 0x0 PUSH2 0x59C DUP5 DUP3 DUP6 ADD PUSH2 0x563 JUMP JUMPDEST SWAP2 POP POP SWAP3 SWAP2 POP POP JUMP JUMPDEST PUSH2 0x5AE DUP2 PUSH2 0x542 JUMP JUMPDEST DUP3 MSTORE POP POP JUMP JUMPDEST PUSH1 0x0 PUSH1 0x20 DUP3 ADD SWAP1 POP PUSH2 0x5C9 PUSH1 0x0 DUP4 ADD DUP5 PUSH2 0x5A5 JUMP JUMPDEST SWAP3 SWAP2 POP POP JUMP JUMPDEST PUSH32 0x4E487B7100000000000000000000000000000000000000000000000000000000 PUSH1 0x0 MSTORE PUSH1 0x22 PUSH1 0x4 MSTORE PUSH1 0x24 PUSH1 0x0 REVERT JUMPDEST PUSH1 0x0 PUSH1 0x2 DUP3 DIV SWAP1 POP PUSH1 0x1 DUP3 AND DUP1 PUSH2 0x616 JUMPI PUSH1 0x7F DUP3 AND SWAP2 POP JUMPDEST PUSH1 0x20 DUP3 LT DUP2 SUB PUSH2 0x629 JUMPI PUSH2 0x628 PUSH2 0x5CF JUMP JUMPDEST JUMPDEST POP SWAP2 SWAP1 POP JUMP INVALID LOG2 PUSH5 0x6970667358 0x22 SLT KECCAK256 0x24 SMOD PUSH3 0xA3D24 CALLVALUE 0x4B CREATE2 0xD1 0xC9 0xA9 CREATE2 0xB4 0xE1 GT LOG2 BALANCE 0xBD DUP2 0xEC 0xFC 0xF8 PUSH14 0x167B377C4574873364736F6C6343 STOP ADDMOD 0xD STOP CALLER "
				},
				"gasEstimates": {
					"creation": {
						"codeDepositCost": "327400",
						"executionCost": "22474",
						"totalCost": "349874"
					},
					"external": {
						"get(uint256)": "infinite",
						"myNum()": "2473",
						"myString()": "infinite",
						"shorthandGet(uint256)": "infinite"
					}
				},
				"methodIdentifiers": {
					"get(uint256)": "9507d39a",
					"myNum()": "d4da005a",
					"myString()": "492bfa18",
					"shorthandGet(uint256)": "a4dc2bb8"
				}
			},
			"storageLayout": {
				"storage": [
					{
						"astId": 4,
						"contract": "ifElse.sol:IfElse",
						"label": "myNum",
						"offset": 0,
						"slot": "0",
						"type": "t_uint256"
					},
					{
						"astId": 6,
						"contract": "ifElse.sol:IfElse",
						"label": "myString",
						"offset": 0,
						"slot": "1",
						"type": "t_string_storage"
					}
				],
				"types": {
					"t_string_storage": {
						"encoding": "bytes",
						"label": "string",
						"numberOfBytes": "32"
					},
					"t_uint256": {
						"encoding": "inplace",
						"label": "uint256",
						"numberOfBytes": "32"
					}
				}
			},
			"userdoc": {
				"kind": "user",
				"methods": {},
				"version": 1
			}
		}
	}
}