{
	"payable.sol": {
		"Payable": {
			"abi": [
				{
					"inputs": [],
					"stateMutability": "payable",
					"type": "constructor"
				},
				{
					"inputs": [],
					"name": "deposit",
					"outputs": [],
					"stateMutability": "payable",
					"type": "function"
				},
				{
					"inputs": [],
					"name": "notPayable",
					"outputs": [],
					"stateMutability": "nonpayable",
					"type": "function"
				},
				{
					"inputs": [],
					"name": "owner",
					"outputs": [
						{
							"internalType": "address payable",
							"name": "",
							"type": "address"
						}
					],
					"stateMutability": "view",
					"type": "function"
				},
				{
					"inputs": [
						{
							"internalType": "address payable",
							"name": "_to",
							"type": "address"
						},
						{
							"internalType": "uint256",
							"name": "_amount",
							"type": "uint256"
						}
					],
					"name": "transfer",
					"outputs": [],
					"stateMutability": "nonpayable",
					"type": "function"
				},
				{
					"inputs": [],
					"name": "withdraw",
					"outputs": [],
					"stateMutability": "nonpayable",
					"type": "function"
				}
			],
			"devdoc": {
				"kind": "dev",
				"methods": {},
				"version": 1
			},
			"evm": {
				"assembly": "    /* \"payable.sol\":60:835  contract Payable {... */\n  mstore(0x40, 0x80)\n    /* \"payable.sol\":172:182  msg.sender */\n  caller\n    /* \"payable.sol\":155:183  owner == payable(msg.sender) */\n  0xffffffffffffffffffffffffffffffffffffffff\n  and\n    /* \"payable.sol\":155:160  owner */\n  0x00\n  dup1\n  sload\n  swap1\n  0x0100\n  exp\n  swap1\n  pop\n  pop\n    /* \"payable.sol\":155:183  owner == payable(msg.sender) */\n  pop\n    /* \"payable.sol\":60:835  contract Payable {... */\n  dataSize(sub_0)\n  dup1\n  dataOffset(sub_0)\n  0x00\n  codecopy\n  0x00\n  return\nstop\n\nsub_0: assembly {\n        /* \"payable.sol\":60:835  contract Payable {... */\n      mstore(0x40, 0x80)\n      jumpi(tag_1, lt(calldatasize, 0x04))\n      shr(0xe0, calldataload(0x00))\n      dup1\n      0x273884bd\n      eq\n      tag_2\n      jumpi\n      dup1\n      0x3ccfd60b\n      eq\n      tag_3\n      jumpi\n      dup1\n      0x8da5cb5b\n      eq\n      tag_4\n      jumpi\n      dup1\n      0xa9059cbb\n      eq\n      tag_5\n      jumpi\n      dup1\n      0xd0e30db0\n      eq\n      tag_6\n      jumpi\n    tag_1:\n      0x00\n      dup1\n      revert\n        /* \"payable.sol\":243:274  function notPayable() public {} */\n    tag_2:\n      callvalue\n      dup1\n      iszero\n      tag_7\n      jumpi\n      0x00\n      dup1\n      revert\n    tag_7:\n      pop\n      tag_8\n      tag_9\n      jump\t// in\n    tag_8:\n      stop\n        /* \"payable.sol\":315:614  function withdraw() public {... */\n    tag_3:\n      callvalue\n      dup1\n      iszero\n      tag_10\n      jumpi\n      0x00\n      dup1\n      revert\n    tag_10:\n      pop\n      tag_11\n      tag_12\n      jump\t// in\n    tag_11:\n      stop\n        /* \"payable.sol\":84:112  address payable public owner */\n    tag_4:\n      callvalue\n      dup1\n      iszero\n      tag_13\n      jumpi\n      0x00\n      dup1\n      revert\n    tag_13:\n      pop\n      tag_14\n      tag_15\n      jump\t// in\n    tag_14:\n      mload(0x40)\n      tag_16\n      swap2\n      swap1\n      tag_17\n      jump\t// in\n    tag_16:\n      mload(0x40)\n      dup1\n      swap2\n      sub\n      swap1\n      return\n        /* \"payable.sol\":655:832  function transfer(address payable _to, uint _amount) public {... */\n    tag_5:\n      callvalue\n      dup1\n      iszero\n      tag_18\n      jumpi\n      0x00\n      dup1\n      revert\n    tag_18:\n      pop\n      tag_19\n      0x04\n      dup1\n      calldatasize\n      sub\n      dup2\n      add\n      swap1\n      tag_20\n      swap2\n      swap1\n      tag_21\n      jump\t// in\n    tag_20:\n      tag_22\n      jump\t// in\n    tag_19:\n      stop\n        /* \"payable.sol\":199:235  function deposit() public payable {} */\n    tag_6:\n      tag_23\n      tag_24\n      jump\t// in\n    tag_23:\n      stop\n        /* \"payable.sol\":243:274  function notPayable() public {} */\n    tag_9:\n      jump\t// out\n        /* \"payable.sol\":315:614  function withdraw() public {... */\n    tag_12:\n        /* \"payable.sol\":424:435  uint amount */\n      0x00\n        /* \"payable.sol\":438:459  address(this).balance */\n      selfbalance\n        /* \"payable.sol\":424:459  uint amount = address(this).balance */\n      swap1\n      pop\n        /* \"payable.sol\":508:520  bool success */\n      0x00\n        /* \"payable.sol\":526:531  owner */\n      dup1\n      0x00\n      swap1\n      sload\n      swap1\n      0x0100\n      exp\n      swap1\n      div\n      0xffffffffffffffffffffffffffffffffffffffff\n      and\n        /* \"payable.sol\":526:536  owner.call */\n      0xffffffffffffffffffffffffffffffffffffffff\n      and\n        /* \"payable.sol\":544:550  amount */\n      dup3\n        /* \"payable.sol\":526:555  owner.call{value: amount}(\"\") */\n      mload(0x40)\n      tag_27\n      swap1\n      tag_28\n      jump\t// in\n    tag_27:\n      0x00\n      mload(0x40)\n      dup1\n      dup4\n      sub\n      dup2\n      dup6\n      dup8\n      gas\n      call\n      swap3\n      pop\n      pop\n      pop\n      returndatasize\n      dup1\n      0x00\n      dup2\n      eq\n      tag_31\n      jumpi\n      mload(0x40)\n      swap2\n      pop\n      and(add(returndatasize, 0x3f), not(0x1f))\n      dup3\n      add\n      0x40\n      mstore\n      returndatasize\n      dup3\n      mstore\n      returndatasize\n      0x00\n      0x20\n      dup5\n      add\n      returndatacopy\n      jump(tag_30)\n    tag_31:\n      0x60\n      swap2\n      pop\n    tag_30:\n      pop\n        /* \"payable.sol\":507:555  (bool success, ) = owner.call{value: amount}(\"\") */\n      pop\n      swap1\n      pop\n        /* \"payable.sol\":574:581  success */\n      dup1\n        /* \"payable.sol\":566:606  require(success, \"Failed to send Ether\") */\n      tag_32\n      jumpi\n      mload(0x40)\n      0x08c379a000000000000000000000000000000000000000000000000000000000\n      dup2\n      mstore\n      0x04\n      add\n      tag_33\n      swap1\n      tag_34\n      jump\t// in\n    tag_33:\n      mload(0x40)\n      dup1\n      swap2\n      sub\n      swap1\n      revert\n    tag_32:\n        /* \"payable.sol\":342:614  {... */\n      pop\n      pop\n        /* \"payable.sol\":315:614  function withdraw() public {... */\n      jump\t// out\n        /* \"payable.sol\":84:112  address payable public owner */\n    tag_15:\n      0x00\n      dup1\n      sload\n      swap1\n      0x0100\n      exp\n      swap1\n      div\n      0xffffffffffffffffffffffffffffffffffffffff\n      and\n      dup2\n      jump\t// out\n        /* \"payable.sol\":655:832  function transfer(address payable _to, uint _amount) public {... */\n    tag_22:\n        /* \"payable.sol\":727:739  bool success */\n      0x00\n        /* \"payable.sol\":745:748  _to */\n      dup3\n        /* \"payable.sol\":745:753  _to.call */\n      0xffffffffffffffffffffffffffffffffffffffff\n      and\n        /* \"payable.sol\":761:768  _amount */\n      dup3\n        /* \"payable.sol\":745:773  _to.call{value: _amount}(\"\") */\n      mload(0x40)\n      tag_36\n      swap1\n      tag_28\n      jump\t// in\n    tag_36:\n      0x00\n      mload(0x40)\n      dup1\n      dup4\n      sub\n      dup2\n      dup6\n      dup8\n      gas\n      call\n      swap3\n      pop\n      pop\n      pop\n      returndatasize\n      dup1\n      0x00\n      dup2\n      eq\n      tag_39\n      jumpi\n      mload(0x40)\n      swap2\n      pop\n      and(add(returndatasize, 0x3f), not(0x1f))\n      dup3\n      add\n      0x40\n      mstore\n      returndatasize\n      dup3\n      mstore\n      returndatasize\n      0x00\n      0x20\n      dup5\n      add\n      returndatacopy\n      jump(tag_38)\n    tag_39:\n      0x60\n      swap2\n      pop\n    tag_38:\n      pop\n        /* \"payable.sol\":726:773  (bool success, ) = _to.call{value: _amount}(\"\") */\n      pop\n      swap1\n      pop\n        /* \"payable.sol\":792:799  success */\n      dup1\n        /* \"payable.sol\":784:824  require(success, \"Failed to send Ether\") */\n      tag_40\n      jumpi\n      mload(0x40)\n      0x08c379a000000000000000000000000000000000000000000000000000000000\n      dup2\n      mstore\n      0x04\n      add\n      tag_41\n      swap1\n      tag_34\n      jump\t// in\n    tag_41:\n      mload(0x40)\n      dup1\n      swap2\n      sub\n      swap1\n      revert\n    tag_40:\n        /* \"payable.sol\":715:832  {... */\n      pop\n        /* \"payable.sol\":655:832  function transfer(address payable _to, uint _amount) public {... */\n      pop\n      pop\n      jump\t// out\n        /* \"payable.sol\":199:235  function deposit() public payable {} */\n    tag_24:\n      jump\t// out\n        /* \"#utility.yul\":7:133   */\n    tag_43:\n        /* \"#utility.yul\":44:51   */\n      0x00\n        /* \"#utility.yul\":84:126   */\n      0xffffffffffffffffffffffffffffffffffffffff\n        /* \"#utility.yul\":77:82   */\n      dup3\n        /* \"#utility.yul\":73:127   */\n      and\n        /* \"#utility.yul\":62:127   */\n      swap1\n      pop\n        /* \"#utility.yul\":7:133   */\n      swap2\n      swap1\n      pop\n      jump\t// out\n        /* \"#utility.yul\":139:243   */\n    tag_44:\n        /* \"#utility.yul\":184:191   */\n      0x00\n        /* \"#utility.yul\":213:237   */\n      tag_63\n        /* \"#utility.yul\":231:236   */\n      dup3\n        /* \"#utility.yul\":213:237   */\n      tag_43\n      jump\t// in\n    tag_63:\n        /* \"#utility.yul\":202:237   */\n      swap1\n      pop\n        /* \"#utility.yul\":139:243   */\n      swap2\n      swap1\n      pop\n      jump\t// out\n        /* \"#utility.yul\":249:391   */\n    tag_45:\n        /* \"#utility.yul\":352:384   */\n      tag_65\n        /* \"#utility.yul\":378:383   */\n      dup2\n        /* \"#utility.yul\":352:384   */\n      tag_44\n      jump\t// in\n    tag_65:\n        /* \"#utility.yul\":347:350   */\n      dup3\n        /* \"#utility.yul\":340:385   */\n      mstore\n        /* \"#utility.yul\":249:391   */\n      pop\n      pop\n      jump\t// out\n        /* \"#utility.yul\":397:651   */\n    tag_17:\n        /* \"#utility.yul\":506:510   */\n      0x00\n        /* \"#utility.yul\":544:546   */\n      0x20\n        /* \"#utility.yul\":533:542   */\n      dup3\n        /* \"#utility.yul\":529:547   */\n      add\n        /* \"#utility.yul\":521:547   */\n      swap1\n      pop\n        /* \"#utility.yul\":557:644   */\n      tag_67\n        /* \"#utility.yul\":641:642   */\n      0x00\n        /* \"#utility.yul\":630:639   */\n      dup4\n        /* \"#utility.yul\":626:643   */\n      add\n        /* \"#utility.yul\":617:623   */\n      dup5\n        /* \"#utility.yul\":557:644   */\n      tag_45\n      jump\t// in\n    tag_67:\n        /* \"#utility.yul\":397:651   */\n      swap3\n      swap2\n      pop\n      pop\n      jump\t// out\n        /* \"#utility.yul\":738:855   */\n    tag_47:\n        /* \"#utility.yul\":847:848   */\n      0x00\n        /* \"#utility.yul\":844:845   */\n      dup1\n        /* \"#utility.yul\":837:849   */\n      revert\n        /* \"#utility.yul\":984:1122   */\n    tag_49:\n        /* \"#utility.yul\":1065:1097   */\n      tag_72\n        /* \"#utility.yul\":1091:1096   */\n      dup2\n        /* \"#utility.yul\":1065:1097   */\n      tag_44\n      jump\t// in\n    tag_72:\n        /* \"#utility.yul\":1058:1063   */\n      dup2\n        /* \"#utility.yul\":1055:1098   */\n      eq\n        /* \"#utility.yul\":1045:1116   */\n      tag_73\n      jumpi\n        /* \"#utility.yul\":1112:1113   */\n      0x00\n        /* \"#utility.yul\":1109:1110   */\n      dup1\n        /* \"#utility.yul\":1102:1114   */\n      revert\n        /* \"#utility.yul\":1045:1116   */\n    tag_73:\n        /* \"#utility.yul\":984:1122   */\n      pop\n      jump\t// out\n        /* \"#utility.yul\":1128:1283   */\n    tag_50:\n        /* \"#utility.yul\":1182:1187   */\n      0x00\n        /* \"#utility.yul\":1220:1226   */\n      dup2\n        /* \"#utility.yul\":1207:1227   */\n      calldataload\n        /* \"#utility.yul\":1198:1227   */\n      swap1\n      pop\n        /* \"#utility.yul\":1236:1277   */\n      tag_75\n        /* \"#utility.yul\":1271:1276   */\n      dup2\n        /* \"#utility.yul\":1236:1277   */\n      tag_49\n      jump\t// in\n    tag_75:\n        /* \"#utility.yul\":1128:1283   */\n      swap3\n      swap2\n      pop\n      pop\n      jump\t// out\n        /* \"#utility.yul\":1289:1366   */\n    tag_51:\n        /* \"#utility.yul\":1326:1333   */\n      0x00\n        /* \"#utility.yul\":1355:1360   */\n      dup2\n        /* \"#utility.yul\":1344:1360   */\n      swap1\n      pop\n        /* \"#utility.yul\":1289:1366   */\n      swap2\n      swap1\n      pop\n      jump\t// out\n        /* \"#utility.yul\":1372:1494   */\n    tag_52:\n        /* \"#utility.yul\":1445:1469   */\n      tag_78\n        /* \"#utility.yul\":1463:1468   */\n      dup2\n        /* \"#utility.yul\":1445:1469   */\n      tag_51\n      jump\t// in\n    tag_78:\n        /* \"#utility.yul\":1438:1443   */\n      dup2\n        /* \"#utility.yul\":1435:1470   */\n      eq\n        /* \"#utility.yul\":1425:1488   */\n      tag_79\n      jumpi\n        /* \"#utility.yul\":1484:1485   */\n      0x00\n        /* \"#utility.yul\":1481:1482   */\n      dup1\n        /* \"#utility.yul\":1474:1486   */\n      revert\n        /* \"#utility.yul\":1425:1488   */\n    tag_79:\n        /* \"#utility.yul\":1372:1494   */\n      pop\n      jump\t// out\n        /* \"#utility.yul\":1500:1639   */\n    tag_53:\n        /* \"#utility.yul\":1546:1551   */\n      0x00\n        /* \"#utility.yul\":1584:1590   */\n      dup2\n        /* \"#utility.yul\":1571:1591   */\n      calldataload\n        /* \"#utility.yul\":1562:1591   */\n      swap1\n      pop\n        /* \"#utility.yul\":1600:1633   */\n      tag_81\n        /* \"#utility.yul\":1627:1632   */\n      dup2\n        /* \"#utility.yul\":1600:1633   */\n      tag_52\n      jump\t// in\n    tag_81:\n        /* \"#utility.yul\":1500:1639   */\n      swap3\n      swap2\n      pop\n      pop\n      jump\t// out\n        /* \"#utility.yul\":1645:2135   */\n    tag_21:\n        /* \"#utility.yul\":1721:1727   */\n      0x00\n        /* \"#utility.yul\":1729:1735   */\n      dup1\n        /* \"#utility.yul\":1778:1780   */\n      0x40\n        /* \"#utility.yul\":1766:1775   */\n      dup4\n        /* \"#utility.yul\":1757:1764   */\n      dup6\n        /* \"#utility.yul\":1753:1776   */\n      sub\n        /* \"#utility.yul\":1749:1781   */\n      slt\n        /* \"#utility.yul\":1746:1865   */\n      iszero\n      tag_83\n      jumpi\n        /* \"#utility.yul\":1784:1863   */\n      tag_84\n      tag_47\n      jump\t// in\n    tag_84:\n        /* \"#utility.yul\":1746:1865   */\n    tag_83:\n        /* \"#utility.yul\":1904:1905   */\n      0x00\n        /* \"#utility.yul\":1929:1990   */\n      tag_85\n        /* \"#utility.yul\":1982:1989   */\n      dup6\n        /* \"#utility.yul\":1973:1979   */\n      dup3\n        /* \"#utility.yul\":1962:1971   */\n      dup7\n        /* \"#utility.yul\":1958:1980   */\n      add\n        /* \"#utility.yul\":1929:1990   */\n      tag_50\n      jump\t// in\n    tag_85:\n        /* \"#utility.yul\":1919:1990   */\n      swap3\n      pop\n        /* \"#utility.yul\":1875:2000   */\n      pop\n        /* \"#utility.yul\":2039:2041   */\n      0x20\n        /* \"#utility.yul\":2065:2118   */\n      tag_86\n        /* \"#utility.yul\":2110:2117   */\n      dup6\n        /* \"#utility.yul\":2101:2107   */\n      dup3\n        /* \"#utility.yul\":2090:2099   */\n      dup7\n        /* \"#utility.yul\":2086:2108   */\n      add\n        /* \"#utility.yul\":2065:2118   */\n      tag_53\n      jump\t// in\n    tag_86:\n        /* \"#utility.yul\":2055:2118   */\n      swap2\n      pop\n        /* \"#utility.yul\":2010:2128   */\n      pop\n        /* \"#utility.yul\":1645:2135   */\n      swap3\n      pop\n      swap3\n      swap1\n      pop\n      jump\t// out\n        /* \"#utility.yul\":2141:2288   */\n    tag_54:\n        /* \"#utility.yul\":2242:2253   */\n      0x00\n        /* \"#utility.yul\":2279:2282   */\n      dup2\n        /* \"#utility.yul\":2264:2282   */\n      swap1\n      pop\n        /* \"#utility.yul\":2141:2288   */\n      swap3\n      swap2\n      pop\n      pop\n      jump\t// out\n        /* \"#utility.yul\":2294:2408   */\n    tag_55:\n      pop\n      jump\t// out\n        /* \"#utility.yul\":2414:2812   */\n    tag_56:\n        /* \"#utility.yul\":2573:2576   */\n      0x00\n        /* \"#utility.yul\":2594:2677   */\n      tag_90\n        /* \"#utility.yul\":2675:2676   */\n      0x00\n        /* \"#utility.yul\":2670:2673   */\n      dup4\n        /* \"#utility.yul\":2594:2677   */\n      tag_54\n      jump\t// in\n    tag_90:\n        /* \"#utility.yul\":2587:2677   */\n      swap2\n      pop\n        /* \"#utility.yul\":2686:2779   */\n      tag_91\n        /* \"#utility.yul\":2775:2778   */\n      dup3\n        /* \"#utility.yul\":2686:2779   */\n      tag_55\n      jump\t// in\n    tag_91:\n        /* \"#utility.yul\":2804:2805   */\n      0x00\n        /* \"#utility.yul\":2799:2802   */\n      dup3\n        /* \"#utility.yul\":2795:2806   */\n      add\n        /* \"#utility.yul\":2788:2806   */\n      swap1\n      pop\n        /* \"#utility.yul\":2414:2812   */\n      swap2\n      swap1\n      pop\n      jump\t// out\n        /* \"#utility.yul\":2818:3197   */\n    tag_28:\n        /* \"#utility.yul\":3002:3005   */\n      0x00\n        /* \"#utility.yul\":3024:3171   */\n      tag_93\n        /* \"#utility.yul\":3167:3170   */\n      dup3\n        /* \"#utility.yul\":3024:3171   */\n      tag_56\n      jump\t// in\n    tag_93:\n        /* \"#utility.yul\":3017:3171   */\n      swap2\n      pop\n        /* \"#utility.yul\":3188:3191   */\n      dup2\n        /* \"#utility.yul\":3181:3191   */\n      swap1\n      pop\n        /* \"#utility.yul\":2818:3197   */\n      swap2\n      swap1\n      pop\n      jump\t// out\n        /* \"#utility.yul\":3203:3372   */\n    tag_57:\n        /* \"#utility.yul\":3287:3298   */\n      0x00\n        /* \"#utility.yul\":3321:3327   */\n      dup3\n        /* \"#utility.yul\":3316:3319   */\n      dup3\n        /* \"#utility.yul\":3309:3328   */\n      mstore\n        /* \"#utility.yul\":3361:3365   */\n      0x20\n        /* \"#utility.yul\":3356:3359   */\n      dup3\n        /* \"#utility.yul\":3352:3366   */\n      add\n        /* \"#utility.yul\":3337:3366   */\n      swap1\n      pop\n        /* \"#utility.yul\":3203:3372   */\n      swap3\n      swap2\n      pop\n      pop\n      jump\t// out\n        /* \"#utility.yul\":3378:3548   */\n    tag_58:\n        /* \"#utility.yul\":3518:3540   */\n      0x4661696c656420746f2073656e64204574686572000000000000000000000000\n        /* \"#utility.yul\":3514:3515   */\n      0x00\n        /* \"#utility.yul\":3506:3512   */\n      dup3\n        /* \"#utility.yul\":3502:3516   */\n      add\n        /* \"#utility.yul\":3495:3541   */\n      mstore\n        /* \"#utility.yul\":3378:3548   */\n      pop\n      jump\t// out\n        /* \"#utility.yul\":3554:3920   */\n    tag_59:\n        /* \"#utility.yul\":3696:3699   */\n      0x00\n        /* \"#utility.yul\":3717:3784   */\n      tag_97\n        /* \"#utility.yul\":3781:3783   */\n      0x14\n        /* \"#utility.yul\":3776:3779   */\n      dup4\n        /* \"#utility.yul\":3717:3784   */\n      tag_57\n      jump\t// in\n    tag_97:\n        /* \"#utility.yul\":3710:3784   */\n      swap2\n      pop\n        /* \"#utility.yul\":3793:3886   */\n      tag_98\n        /* \"#utility.yul\":3882:3885   */\n      dup3\n        /* \"#utility.yul\":3793:3886   */\n      tag_58\n      jump\t// in\n    tag_98:\n        /* \"#utility.yul\":3911:3913   */\n      0x20\n        /* \"#utility.yul\":3906:3909   */\n      dup3\n        /* \"#utility.yul\":3902:3914   */\n      add\n        /* \"#utility.yul\":3895:3914   */\n      swap1\n      pop\n        /* \"#utility.yul\":3554:3920   */\n      swap2\n      swap1\n      pop\n      jump\t// out\n        /* \"#utility.yul\":3926:4345   */\n    tag_34:\n        /* \"#utility.yul\":4092:4096   */\n      0x00\n        /* \"#utility.yul\":4130:4132   */\n      0x20\n        /* \"#utility.yul\":4119:4128   */\n      dup3\n        /* \"#utility.yul\":4115:4133   */\n      add\n        /* \"#utility.yul\":4107:4133   */\n      swap1\n      pop\n        /* \"#utility.yul\":4179:4188   */\n      dup2\n        /* \"#utility.yul\":4173:4177   */\n      dup2\n        /* \"#utility.yul\":4169:4189   */\n      sub\n        /* \"#utility.yul\":4165:4166   */\n      0x00\n        /* \"#utility.yul\":4154:4163   */\n      dup4\n        /* \"#utility.yul\":4150:4167   */\n      add\n        /* \"#utility.yul\":4143:4190   */\n      mstore\n        /* \"#utility.yul\":4207:4338   */\n      tag_100\n        /* \"#utility.yul\":4333:4337   */\n      dup2\n        /* \"#utility.yul\":4207:4338   */\n      tag_59\n      jump\t// in\n    tag_100:\n        /* \"#utility.yul\":4199:4338   */\n      swap1\n      pop\n        /* \"#utility.yul\":3926:4345   */\n      swap2\n      swap1\n      pop\n      jump\t// out\n\n    auxdata: 0xa2646970667358221220e45756c15a6d01855aa1cd3ca7e0152a20a6d30a062d722dca7d3413b13d985c64736f6c634300080d0033\n}\n",
				"bytecode": {
					"linkReferences": {},
					"object": "60806040523373ffffffffffffffffffffffffffffffffffffffff1660008054906101000a90505050610486806100376000396000f3fe60806040526004361061004a5760003560e01c8063273884bd1461004f5780633ccfd60b146100665780638da5cb5b1461007d578063a9059cbb146100a8578063d0e30db0146100d1575b600080fd5b34801561005b57600080fd5b506100646100db565b005b34801561007257600080fd5b5061007b6100dd565b005b34801561008957600080fd5b506100926101b3565b60405161009f91906102cb565b60405180910390f35b3480156100b457600080fd5b506100cf60048036038101906100ca919061034d565b6101d7565b005b6100d9610288565b005b565b600047905060008060009054906101000a900473ffffffffffffffffffffffffffffffffffffffff1673ffffffffffffffffffffffffffffffffffffffff1682604051610129906103be565b60006040518083038185875af1925050503d8060008114610166576040519150601f19603f3d011682016040523d82523d6000602084013e61016b565b606091505b50509050806101af576040517f08c379a00000000000000000000000000000000000000000000000000000000081526004016101a690610430565b60405180910390fd5b5050565b60008054906101000a900473ffffffffffffffffffffffffffffffffffffffff1681565b60008273ffffffffffffffffffffffffffffffffffffffff16826040516101fd906103be565b60006040518083038185875af1925050503d806000811461023a576040519150601f19603f3d011682016040523d82523d6000602084013e61023f565b606091505b5050905080610283576040517f08c379a000000000000000000000000000000000000000000000000000000000815260040161027a90610430565b60405180910390fd5b505050565b565b600073ffffffffffffffffffffffffffffffffffffffff82169050919050565b60006102b58261028a565b9050919050565b6102c5816102aa565b82525050565b60006020820190506102e060008301846102bc565b92915050565b600080fd5b6102f4816102aa565b81146102ff57600080fd5b50565b600081359050610311816102eb565b92915050565b6000819050919050565b61032a81610317565b811461033557600080fd5b50565b60008135905061034781610321565b92915050565b60008060408385031215610364576103636102e6565b5b600061037285828601610302565b925050602061038385828601610338565b9150509250929050565b600081905092915050565b50565b60006103a860008361038d565b91506103b382610398565b600082019050919050565b60006103c98261039b565b9150819050919050565b600082825260208201905092915050565b7f4661696c656420746f2073656e64204574686572000000000000000000000000600082015250565b600061041a6014836103d3565b9150610425826103e4565b602082019050919050565b600060208201905081810360008301526104498161040d565b905091905056fea2646970667358221220e45756c15a6d01855aa1cd3ca7e0152a20a6d30a062d722dca7d3413b13d985c64736f6c634300080d0033",
					"opcodes": "PUSH1 0x80 PUSH1 0x40 MSTORE CALLER PUSH20 0xFFFFFFFFFFFFFFFFFFFFFFFFFFFFFFFFFFFFFFFF AND PUSH1 0x0 DUP1 SLOAD SWAP1 PUSH2 0x100 EXP SWAP1 POP POP POP PUSH2 0x486 DUP1 PUSH2 0x37 PUSH1 0x0 CODECOPY PUSH1 0x0 RETURN INVALID PUSH1 0x80 PUSH1 0x40 MSTORE PUSH1 0x4 CALLDATASIZE LT PUSH2 0x4A JUMPI PUSH1 0x0 CALLDATALOAD PUSH1 0xE0 SHR DUP1 PUSH4 0x273884BD EQ PUSH2 0x4F JUMPI DUP1 PUSH4 0x3CCFD60B EQ PUSH2 0x66 JUMPI DUP1 PUSH4 0x8DA5CB5B EQ PUSH2 0x7D JUMPI DUP1 PUSH4 0xA9059CBB EQ PUSH2 0xA8 JUMPI DUP1 PUSH4 0xD0E30DB0 EQ PUSH2 0xD1 JUMPI JUMPDEST PUSH1 0x0 DUP1 REVERT JUMPDEST CALLVALUE DUP1 ISZERO PUSH2 0x5B JUMPI PUSH1 0x0 DUP1 REVERT JUMPDEST POP PUSH2 0x64 PUSH2 0xDB JUMP JUMPDEST STOP JUMPDEST CALLVALUE DUP1 ISZERO PUSH2 0x72 JUMPI PUSH1 0x0 DUP1 REVERT JUMPDEST POP PUSH2 0x7B PUSH2 0xDD JUMP JUMPDEST STOP JUMPDEST CALLVALUE DUP1 ISZERO PUSH2 0x89 JUMPI PUSH1 0x0 DUP1 REVERT JUMPDEST POP PUSH2 0x92 PUSH2 0x1B3 JUMP JUMPDEST PUSH1 0x40 MLOAD PUSH2 0x9F SWAP2 SWAP1 PUSH2 0x2CB JUMP JUMPDEST PUSH1 0x40 MLOAD DUP1 SWAP2 SUB SWAP1 RETURN JUMPDEST CALLVALUE DUP1 ISZERO PUSH2 0xB4 JUMPI PUSH1 0x0 DUP1 REVERT JUMPDEST POP PUSH2 0xCF PUSH1 0x4 DUP1 CALLDATASIZE SUB DUP2 ADD SWAP1 PUSH2 0xCA SWAP2 SWAP1 PUSH2 0x34D JUMP JUMPDEST PUSH2 0x1D7 JUMP JUMPDEST STOP JUMPDEST PUSH2 0xD9 PUSH2 0x288 JUMP JUMPDEST STOP JUMPDEST JUMP JUMPDEST PUSH1 0x0 SELFBALANCE SWAP1 POP PUSH1 0x0 DUP1 PUSH1 0x0 SWAP1 SLOAD SWAP1 PUSH2 0x100 EXP SWAP1 DIV PUSH20 0xFFFFFFFFFFFFFFFFFFFFFFFFFFFFFFFFFFFFFFFF AND PUSH20 0xFFFFFFFFFFFFFFFFFFFFFFFFFFFFFFFFFFFFFFFF AND DUP3 PUSH1 0x40 MLOAD PUSH2 0x129 SWAP1 PUSH2 0x3BE JUMP JUMPDEST PUSH1 0x0 PUSH1 0x40 MLOAD DUP1 DUP4 SUB DUP2 DUP6 DUP8 GAS CALL SWAP3 POP POP POP RETURNDATASIZE DUP1 PUSH1 0x0 DUP2 EQ PUSH2 0x166 JUMPI PUSH1 0x40 MLOAD SWAP2 POP PUSH1 0x1F NOT PUSH1 0x3F RETURNDATASIZE ADD AND DUP3 ADD PUSH1 0x40 MSTORE RETURNDATASIZE DUP3 MSTORE RETURNDATASIZE PUSH1 0x0 PUSH1 0x20 DUP5 ADD RETURNDATACOPY PUSH2 0x16B JUMP JUMPDEST PUSH1 0x60 SWAP2 POP JUMPDEST POP POP SWAP1 POP DUP1 PUSH2 0x1AF JUMPI PUSH1 0x40 MLOAD PUSH32 0x8C379A000000000000000000000000000000000000000000000000000000000 DUP2 MSTORE PUSH1 0x4 ADD PUSH2 0x1A6 SWAP1 PUSH2 0x430 JUMP JUMPDEST PUSH1 0x40 MLOAD DUP1 SWAP2 SUB SWAP1 REVERT JUMPDEST POP POP JUMP JUMPDEST PUSH1 0x0 DUP1 SLOAD SWAP1 PUSH2 0x100 EXP SWAP1 DIV PUSH20 0xFFFFFFFFFFFFFFFFFFFFFFFFFFFFFFFFFFFFFFFF AND DUP2 JUMP JUMPDEST PUSH1 0x0 DUP3 PUSH20 0xFFFFFFFFFFFFFFFFFFFFFFFFFFFFFFFFFFFFFFFF AND DUP3 PUSH1 0x40 MLOAD PUSH2 0x1FD SWAP1 PUSH2 0x3BE JUMP JUMPDEST PUSH1 0x0 PUSH1 0x40 MLOAD DUP1 DUP4 SUB DUP2 DUP6 DUP8 GAS CALL SWAP3 POP POP POP RETURNDATASIZE DUP1 PUSH1 0x0 DUP2 EQ PUSH2 0x23A JUMPI PUSH1 0x40 MLOAD SWAP2 POP PUSH1 0x1F NOT PUSH1 0x3F RETURNDATASIZE ADD AND DUP3 ADD PUSH1 0x40 MSTORE RETURNDATASIZE DUP3 MSTORE RETURNDATASIZE PUSH1 0x0 PUSH1 0x20 DUP5 ADD RETURNDATACOPY PUSH2 0x23F JUMP JUMPDEST PUSH1 0x60 SWAP2 POP JUMPDEST POP POP SWAP1 POP DUP1 PUSH2 0x283 JUMPI PUSH1 0x40 MLOAD PUSH32 0x8C379A000000000000000000000000000000000000000000000000000000000 DUP2 MSTORE PUSH1 0x4 ADD PUSH2 0x27A SWAP1 PUSH2 0x430 JUMP JUMPDEST PUSH1 0x40 MLOAD DUP1 SWAP2 SUB SWAP1 REVERT JUMPDEST POP POP POP JUMP JUMPDEST JUMP JUMPDEST PUSH1 0x0 PUSH20 0xFFFFFFFFFFFFFFFFFFFFFFFFFFFFFFFFFFFFFFFF DUP3 AND SWAP1 POP SWAP2 SWAP1 POP JUMP JUMPDEST PUSH1 0x0 PUSH2 0x2B5 DUP3 PUSH2 0x28A JUMP JUMPDEST SWAP1 POP SWAP2 SWAP1 POP JUMP JUMPDEST PUSH2 0x2C5 DUP2 PUSH2 0x2AA JUMP JUMPDEST DUP3 MSTORE POP POP JUMP JUMPDEST PUSH1 0x0 PUSH1 0x20 DUP3 ADD SWAP1 POP PUSH2 0x2E0 PUSH1 0x0 DUP4 ADD DUP5 PUSH2 0x2BC JUMP JUMPDEST SWAP3 SWAP2 POP POP JUMP JUMPDEST PUSH1 0x0 DUP1 REVERT JUMPDEST PUSH2 0x2F4 DUP2 PUSH2 0x2AA JUMP JUMPDEST DUP2 EQ PUSH2 0x2FF JUMPI PUSH1 0x0 DUP1 REVERT JUMPDEST POP JUMP JUMPDEST PUSH1 0x0 DUP2 CALLDATALOAD SWAP1 POP PUSH2 0x311 DUP2 PUSH2 0x2EB JUMP JUMPDEST SWAP3 SWAP2 POP POP JUMP JUMPDEST PUSH1 0x0 DUP2 SWAP1 POP SWAP2 SWAP1 POP JUMP JUMPDEST PUSH2 0x32A DUP2 PUSH2 0x317 JUMP JUMPDEST DUP2 EQ PUSH2 0x335 JUMPI PUSH1 0x0 DUP1 REVERT JUMPDEST POP JUMP JUMPDEST PUSH1 0x0 DUP2 CALLDATALOAD SWAP1 POP PUSH2 0x347 DUP2 PUSH2 0x321 JUMP JUMPDEST SWAP3 SWAP2 POP POP JUMP JUMPDEST PUSH1 0x0 DUP1 PUSH1 0x40 DUP4 DUP6 SUB SLT ISZERO PUSH2 0x364 JUMPI PUSH2 0x363 PUSH2 0x2E6 JUMP JUMPDEST JUMPDEST PUSH1 0x0 PUSH2 0x372 DUP6 DUP3 DUP7 ADD PUSH2 0x302 JUMP JUMPDEST SWAP3 POP POP PUSH1 0x20 PUSH2 0x383 DUP6 DUP3 DUP7 ADD PUSH2 0x338 JUMP JUMPDEST SWAP2 POP POP SWAP3 POP SWAP3 SWAP1 POP JUMP JUMPDEST PUSH1 0x0 DUP2 SWAP1 POP SWAP3 SWAP2 POP POP JUMP JUMPDEST POP JUMP JUMPDEST PUSH1 0x0 PUSH2 0x3A8 PUSH1 0x0 DUP4 PUSH2 0x38D JUMP JUMPDEST SWAP2 POP PUSH2 0x3B3 DUP3 PUSH2 0x398 JUMP JUMPDEST PUSH1 0x0 DUP3 ADD SWAP1 POP SWAP2 SWAP1 POP JUMP JUMPDEST PUSH1 0x0 PUSH2 0x3C9 DUP3 PUSH2 0x39B JUMP JUMPDEST SWAP2 POP DUP2 SWAP1 POP SWAP2 SWAP1 POP JUMP JUMPDEST PUSH1 0x0 DUP3 DUP3 MSTORE PUSH1 0x20 DUP3 ADD SWAP1 POP SWAP3 SWAP2 POP POP JUMP JUMPDEST PUSH32 0x4661696C656420746F2073656E64204574686572000000000000000000000000 PUSH1 0x0 DUP3 ADD MSTORE POP JUMP JUMPDEST PUSH1 0x0 PUSH2 0x41A PUSH1 0x14 DUP4 PUSH2 0x3D3 JUMP JUMPDEST SWAP2 POP PUSH2 0x425 DUP3 PUSH2 0x3E4 JUMP JUMPDEST PUSH1 0x20 DUP3 ADD SWAP1 POP SWAP2 SWAP1 POP JUMP JUMPDEST PUSH1 0x0 PUSH1 0x20 DUP3 ADD SWAP1 POP DUP2 DUP2 SUB PUSH1 0x0 DUP4 ADD MSTORE PUSH2 0x449 DUP2 PUSH2 0x40D JUMP JUMPDEST SWAP1 POP SWAP2 SWAP1 POP JUMP INVALID LOG2 PUSH5 0x6970667358 0x22 SLT KECCAK256 0xE4 JUMPI JUMP 0xC1 GAS PUSH14 0x1855AA1CD3CA7E0152A20A6D30A MOD 0x2D PUSH19 0x2DCA7D3413B13D985C64736F6C634300080D00 CALLER "
				},
				"gasEstimates": {
					"creation": {
						"codeDepositCost": "231600",
						"executionCost": "2390",
						"totalCost": "233990"
					},
					"external": {
						"deposit()": "186",
						"notPayable()": "122",
						"owner()": "2533",
						"transfer(address,uint256)": "infinite",
						"withdraw()": "infinite"
					}
				},
				"methodIdentifiers": {
					"deposit()": "d0e30db0",
					"notPayable()": "273884bd",
					"owner()": "8da5cb5b",
					"transfer(address,uint256)": "a9059cbb",
					"withdraw()": "3ccfd60b"
				}
			},
			"storageLayout": {
				"storage": [
					{
						"astId": 3,
						"contract": "payable.sol:Payable",
						"label": "owner",
						"offset": 0,
						"slot": "0",
						"type": "t_address_payable"
					}
				],
				"types": {
					"t_address_payable": {
						"encoding": "inplace",
						"label": "address payable",
						"numberOfBytes": "20"
					}
				}
			},
			"userdoc": {
				"kind": "user",
				"methods": {},
				"version": 1
			}
		}
	}
}