{
	"call.sol": {
		"Caller": {
			"abi": [
				{
					"anonymous": false,
					"inputs": [
						{
							"indexed": false,
							"internalType": "bool",
							"name": "success",
							"type": "bool"
						},
						{
							"indexed": false,
							"internalType": "bytes",
							"name": "data",
							"type": "bytes"
						}
					],
					"name": "Response",
					"type": "event"
				},
				{
					"inputs": [
						{
							"internalType": "address",
							"name": "_addr",
							"type": "address"
						}
					],
					"name": "testCalDoesNotExist",
					"outputs": [],
					"stateMutability": "nonpayable",
					"type": "function"
				},
				{
					"inputs": [
						{
							"internalType": "address payable",
							"name": "_addr",
							"type": "address"
						}
					],
					"name": "testCallFoo",
					"outputs": [],
					"stateMutability": "payable",
					"type": "function"
				}
			],
			"devdoc": {
				"kind": "dev",
				"methods": {},
				"version": 1
			},
			"evm": {
				"assembly": "    /* \"call.sol\":439:1019  contract Caller {... */\n  mstore(0x40, 0x80)\n  callvalue\n  dup1\n  iszero\n  tag_1\n  jumpi\n  0x00\n  dup1\n  revert\ntag_1:\n  pop\n  dataSize(sub_0)\n  dup1\n  dataOffset(sub_0)\n  0x00\n  codecopy\n  0x00\n  return\nstop\n\nsub_0: assembly {\n        /* \"call.sol\":439:1019  contract Caller {... */\n      mstore(0x40, 0x80)\n      jumpi(tag_1, lt(calldatasize, 0x04))\n      shr(0xe0, calldataload(0x00))\n      dup1\n      0x2c051234\n      eq\n      tag_2\n      jumpi\n      dup1\n      0x87ba6179\n      eq\n      tag_3\n      jumpi\n    tag_1:\n      0x00\n      dup1\n      revert\n        /* \"call.sol\":793:1016  function testCalDoesNotExist(address _addr) public  {... */\n    tag_2:\n      callvalue\n      dup1\n      iszero\n      tag_4\n      jumpi\n      0x00\n      dup1\n      revert\n    tag_4:\n      pop\n      tag_5\n      0x04\n      dup1\n      calldatasize\n      sub\n      dup2\n      add\n      swap1\n      tag_6\n      swap2\n      swap1\n      tag_7\n      jump\t// in\n    tag_6:\n      tag_8\n      jump\t// in\n    tag_5:\n      stop\n        /* \"call.sol\":512:785  function testCallFoo(address payable _addr) public payable  {... */\n    tag_3:\n      tag_9\n      0x04\n      dup1\n      calldatasize\n      sub\n      dup2\n      add\n      swap1\n      tag_10\n      swap2\n      swap1\n      tag_11\n      jump\t// in\n    tag_10:\n      tag_12\n      jump\t// in\n    tag_9:\n      stop\n        /* \"call.sol\":793:1016  function testCalDoesNotExist(address _addr) public  {... */\n    tag_8:\n        /* \"call.sol\":857:869  bool success */\n      0x00\n        /* \"call.sol\":871:888  bytes memory data */\n      dup1\n        /* \"call.sol\":892:897  _addr */\n      dup3\n        /* \"call.sol\":892:902  _addr.call */\n      0xffffffffffffffffffffffffffffffffffffffff\n      and\n        /* \"call.sol\":917:958  abi.encodeWithSignature(\"doesNotExist()\") */\n      add(0x24, mload(0x40))\n      mload(0x40)\n      0x20\n      dup2\n      dup4\n      sub\n      sub\n      dup2\n      mstore\n      swap1\n      0x40\n      mstore\n      and(not(0xffffffffffffffffffffffffffffffffffffffffffffffffffffffff), 0x1dcc85ae00000000000000000000000000000000000000000000000000000000)\n      0x20\n      dup3\n      add\n      dup1\n      mload\n      0xffffffffffffffffffffffffffffffffffffffffffffffffffffffff\n      dup4\n      dup2\n      dup4\n      and\n      or\n      dup4\n      mstore\n      pop\n      pop\n      pop\n      pop\n        /* \"call.sol\":892:969  _addr.call(... */\n      mload(0x40)\n      tag_14\n      swap2\n      swap1\n      tag_15\n      jump\t// in\n    tag_14:\n      0x00\n      mload(0x40)\n      dup1\n      dup4\n      sub\n      dup2\n      0x00\n      dup7\n      gas\n      call\n      swap2\n      pop\n      pop\n      returndatasize\n      dup1\n      0x00\n      dup2\n      eq\n      tag_18\n      jumpi\n      mload(0x40)\n      swap2\n      pop\n      and(add(returndatasize, 0x3f), not(0x1f))\n      dup3\n      add\n      0x40\n      mstore\n      returndatasize\n      dup3\n      mstore\n      returndatasize\n      0x00\n      0x20\n      dup5\n      add\n      returndatacopy\n      jump(tag_17)\n    tag_18:\n      0x60\n      swap2\n      pop\n    tag_17:\n      pop\n        /* \"call.sol\":856:969  (bool success, bytes memory data) = _addr.call(... */\n      swap2\n      pop\n      swap2\n      pop\n        /* \"call.sol\":985:1008  Response(success, data) */\n      0x13848c3e38f8886f3f5d2ad9dff80d8092c2bbb8efd5b887a99c2c6cfc09ac2a\n        /* \"call.sol\":994:1001  success */\n      dup3\n        /* \"call.sol\":1003:1007  data */\n      dup3\n        /* \"call.sol\":985:1008  Response(success, data) */\n      mload(0x40)\n      tag_19\n      swap3\n      swap2\n      swap1\n      tag_20\n      jump\t// in\n    tag_19:\n      mload(0x40)\n      dup1\n      swap2\n      sub\n      swap1\n      log1\n        /* \"call.sol\":845:1016  {... */\n      pop\n      pop\n        /* \"call.sol\":793:1016  function testCalDoesNotExist(address _addr) public  {... */\n      pop\n      jump\t// out\n        /* \"call.sol\":512:785  function testCallFoo(address payable _addr) public payable  {... */\n    tag_12:\n        /* \"call.sol\":584:596  bool success */\n      0x00\n        /* \"call.sol\":598:615  bytes memory data */\n      dup1\n        /* \"call.sol\":619:624  _addr */\n      dup3\n        /* \"call.sol\":619:629  _addr.call */\n      0xffffffffffffffffffffffffffffffffffffffff\n      and\n        /* \"call.sol\":637:646  msg.value */\n      callvalue\n        /* \"call.sol\":653:657  5000 */\n      0x1388\n        /* \"call.sol\":619:742  _addr.call{value: msg.value, gas: 5000} (... */\n      swap1\n        /* \"call.sol\":727:730  123 */\n      0x7b\n        /* \"call.sol\":670:731  abi.encodeWithSignature(\"foo(string, uint)\", \"call foo\", 123) */\n      add(0x24, mload(0x40))\n      tag_22\n      swap2\n      swap1\n      tag_23\n      jump\t// in\n    tag_22:\n      mload(0x40)\n      0x20\n      dup2\n      dup4\n      sub\n      sub\n      dup2\n      mstore\n      swap1\n      0x40\n      mstore\n      and(not(0xffffffffffffffffffffffffffffffffffffffffffffffffffffffff), 0xc21a268c00000000000000000000000000000000000000000000000000000000)\n      0x20\n      dup3\n      add\n      dup1\n      mload\n      0xffffffffffffffffffffffffffffffffffffffffffffffffffffffff\n      dup4\n      dup2\n      dup4\n      and\n      or\n      dup4\n      mstore\n      pop\n      pop\n      pop\n      pop\n        /* \"call.sol\":619:742  _addr.call{value: msg.value, gas: 5000} (... */\n      mload(0x40)\n      tag_24\n      swap2\n      swap1\n      tag_15\n      jump\t// in\n    tag_24:\n      0x00\n      mload(0x40)\n      dup1\n      dup4\n      sub\n      dup2\n      dup6\n      dup9\n      dup9\n      call\n      swap4\n      pop\n      pop\n      pop\n      pop\n      returndatasize\n      dup1\n      0x00\n      dup2\n      eq\n      tag_27\n      jumpi\n      mload(0x40)\n      swap2\n      pop\n      and(add(returndatasize, 0x3f), not(0x1f))\n      dup3\n      add\n      0x40\n      mstore\n      returndatasize\n      dup3\n      mstore\n      returndatasize\n      0x00\n      0x20\n      dup5\n      add\n      returndatacopy\n      jump(tag_26)\n    tag_27:\n      0x60\n      swap2\n      pop\n    tag_26:\n      pop\n        /* \"call.sol\":583:742  (bool success, bytes memory data) = _addr.call{value: msg.value, gas: 5000} (... */\n      swap2\n      pop\n      swap2\n      pop\n        /* \"call.sol\":754:777  Response(success, data) */\n      0x13848c3e38f8886f3f5d2ad9dff80d8092c2bbb8efd5b887a99c2c6cfc09ac2a\n        /* \"call.sol\":763:770  success */\n      dup3\n        /* \"call.sol\":772:776  data */\n      dup3\n        /* \"call.sol\":754:777  Response(success, data) */\n      mload(0x40)\n      tag_28\n      swap3\n      swap2\n      swap1\n      tag_20\n      jump\t// in\n    tag_28:\n      mload(0x40)\n      dup1\n      swap2\n      sub\n      swap1\n      log1\n        /* \"call.sol\":572:785  {... */\n      pop\n      pop\n        /* \"call.sol\":512:785  function testCallFoo(address payable _addr) public payable  {... */\n      pop\n      jump\t// out\n        /* \"#utility.yul\":88:205   */\n    tag_30:\n        /* \"#utility.yul\":197:198   */\n      0x00\n        /* \"#utility.yul\":194:195   */\n      dup1\n        /* \"#utility.yul\":187:199   */\n      revert\n        /* \"#utility.yul\":334:460   */\n    tag_32:\n        /* \"#utility.yul\":371:378   */\n      0x00\n        /* \"#utility.yul\":411:453   */\n      0xffffffffffffffffffffffffffffffffffffffff\n        /* \"#utility.yul\":404:409   */\n      dup3\n        /* \"#utility.yul\":400:454   */\n      and\n        /* \"#utility.yul\":389:454   */\n      swap1\n      pop\n        /* \"#utility.yul\":334:460   */\n      swap2\n      swap1\n      pop\n      jump\t// out\n        /* \"#utility.yul\":466:562   */\n    tag_33:\n        /* \"#utility.yul\":503:510   */\n      0x00\n        /* \"#utility.yul\":532:556   */\n      tag_62\n        /* \"#utility.yul\":550:555   */\n      dup3\n        /* \"#utility.yul\":532:556   */\n      tag_32\n      jump\t// in\n    tag_62:\n        /* \"#utility.yul\":521:556   */\n      swap1\n      pop\n        /* \"#utility.yul\":466:562   */\n      swap2\n      swap1\n      pop\n      jump\t// out\n        /* \"#utility.yul\":568:690   */\n    tag_34:\n        /* \"#utility.yul\":641:665   */\n      tag_64\n        /* \"#utility.yul\":659:664   */\n      dup2\n        /* \"#utility.yul\":641:665   */\n      tag_33\n      jump\t// in\n    tag_64:\n        /* \"#utility.yul\":634:639   */\n      dup2\n        /* \"#utility.yul\":631:666   */\n      eq\n        /* \"#utility.yul\":621:684   */\n      tag_65\n      jumpi\n        /* \"#utility.yul\":680:681   */\n      0x00\n        /* \"#utility.yul\":677:678   */\n      dup1\n        /* \"#utility.yul\":670:682   */\n      revert\n        /* \"#utility.yul\":621:684   */\n    tag_65:\n        /* \"#utility.yul\":568:690   */\n      pop\n      jump\t// out\n        /* \"#utility.yul\":696:835   */\n    tag_35:\n        /* \"#utility.yul\":742:747   */\n      0x00\n        /* \"#utility.yul\":780:786   */\n      dup2\n        /* \"#utility.yul\":767:787   */\n      calldataload\n        /* \"#utility.yul\":758:787   */\n      swap1\n      pop\n        /* \"#utility.yul\":796:829   */\n      tag_67\n        /* \"#utility.yul\":823:828   */\n      dup2\n        /* \"#utility.yul\":796:829   */\n      tag_34\n      jump\t// in\n    tag_67:\n        /* \"#utility.yul\":696:835   */\n      swap3\n      swap2\n      pop\n      pop\n      jump\t// out\n        /* \"#utility.yul\":841:1170   */\n    tag_7:\n        /* \"#utility.yul\":900:906   */\n      0x00\n        /* \"#utility.yul\":949:951   */\n      0x20\n        /* \"#utility.yul\":937:946   */\n      dup3\n        /* \"#utility.yul\":928:935   */\n      dup5\n        /* \"#utility.yul\":924:947   */\n      sub\n        /* \"#utility.yul\":920:952   */\n      slt\n        /* \"#utility.yul\":917:1036   */\n      iszero\n      tag_69\n      jumpi\n        /* \"#utility.yul\":955:1034   */\n      tag_70\n      tag_30\n      jump\t// in\n    tag_70:\n        /* \"#utility.yul\":917:1036   */\n    tag_69:\n        /* \"#utility.yul\":1075:1076   */\n      0x00\n        /* \"#utility.yul\":1100:1153   */\n      tag_71\n        /* \"#utility.yul\":1145:1152   */\n      dup5\n        /* \"#utility.yul\":1136:1142   */\n      dup3\n        /* \"#utility.yul\":1125:1134   */\n      dup6\n        /* \"#utility.yul\":1121:1143   */\n      add\n        /* \"#utility.yul\":1100:1153   */\n      tag_35\n      jump\t// in\n    tag_71:\n        /* \"#utility.yul\":1090:1153   */\n      swap2\n      pop\n        /* \"#utility.yul\":1046:1163   */\n      pop\n        /* \"#utility.yul\":841:1170   */\n      swap3\n      swap2\n      pop\n      pop\n      jump\t// out\n        /* \"#utility.yul\":1176:1280   */\n    tag_36:\n        /* \"#utility.yul\":1221:1228   */\n      0x00\n        /* \"#utility.yul\":1250:1274   */\n      tag_73\n        /* \"#utility.yul\":1268:1273   */\n      dup3\n        /* \"#utility.yul\":1250:1274   */\n      tag_32\n      jump\t// in\n    tag_73:\n        /* \"#utility.yul\":1239:1274   */\n      swap1\n      pop\n        /* \"#utility.yul\":1176:1280   */\n      swap2\n      swap1\n      pop\n      jump\t// out\n        /* \"#utility.yul\":1286:1424   */\n    tag_37:\n        /* \"#utility.yul\":1367:1399   */\n      tag_75\n        /* \"#utility.yul\":1393:1398   */\n      dup2\n        /* \"#utility.yul\":1367:1399   */\n      tag_36\n      jump\t// in\n    tag_75:\n        /* \"#utility.yul\":1360:1365   */\n      dup2\n        /* \"#utility.yul\":1357:1400   */\n      eq\n        /* \"#utility.yul\":1347:1418   */\n      tag_76\n      jumpi\n        /* \"#utility.yul\":1414:1415   */\n      0x00\n        /* \"#utility.yul\":1411:1412   */\n      dup1\n        /* \"#utility.yul\":1404:1416   */\n      revert\n        /* \"#utility.yul\":1347:1418   */\n    tag_76:\n        /* \"#utility.yul\":1286:1424   */\n      pop\n      jump\t// out\n        /* \"#utility.yul\":1430:1585   */\n    tag_38:\n        /* \"#utility.yul\":1484:1489   */\n      0x00\n        /* \"#utility.yul\":1522:1528   */\n      dup2\n        /* \"#utility.yul\":1509:1529   */\n      calldataload\n        /* \"#utility.yul\":1500:1529   */\n      swap1\n      pop\n        /* \"#utility.yul\":1538:1579   */\n      tag_78\n        /* \"#utility.yul\":1573:1578   */\n      dup2\n        /* \"#utility.yul\":1538:1579   */\n      tag_37\n      jump\t// in\n    tag_78:\n        /* \"#utility.yul\":1430:1585   */\n      swap3\n      swap2\n      pop\n      pop\n      jump\t// out\n        /* \"#utility.yul\":1591:1936   */\n    tag_11:\n        /* \"#utility.yul\":1658:1664   */\n      0x00\n        /* \"#utility.yul\":1707:1709   */\n      0x20\n        /* \"#utility.yul\":1695:1704   */\n      dup3\n        /* \"#utility.yul\":1686:1693   */\n      dup5\n        /* \"#utility.yul\":1682:1705   */\n      sub\n        /* \"#utility.yul\":1678:1710   */\n      slt\n        /* \"#utility.yul\":1675:1794   */\n      iszero\n      tag_80\n      jumpi\n        /* \"#utility.yul\":1713:1792   */\n      tag_81\n      tag_30\n      jump\t// in\n    tag_81:\n        /* \"#utility.yul\":1675:1794   */\n    tag_80:\n        /* \"#utility.yul\":1833:1834   */\n      0x00\n        /* \"#utility.yul\":1858:1919   */\n      tag_82\n        /* \"#utility.yul\":1911:1918   */\n      dup5\n        /* \"#utility.yul\":1902:1908   */\n      dup3\n        /* \"#utility.yul\":1891:1900   */\n      dup6\n        /* \"#utility.yul\":1887:1909   */\n      add\n        /* \"#utility.yul\":1858:1919   */\n      tag_38\n      jump\t// in\n    tag_82:\n        /* \"#utility.yul\":1848:1919   */\n      swap2\n      pop\n        /* \"#utility.yul\":1804:1929   */\n      pop\n        /* \"#utility.yul\":1591:1936   */\n      swap3\n      swap2\n      pop\n      pop\n      jump\t// out\n        /* \"#utility.yul\":1942:2040   */\n    tag_39:\n        /* \"#utility.yul\":1993:1999   */\n      0x00\n        /* \"#utility.yul\":2027:2032   */\n      dup2\n        /* \"#utility.yul\":2021:2033   */\n      mload\n        /* \"#utility.yul\":2011:2033   */\n      swap1\n      pop\n        /* \"#utility.yul\":1942:2040   */\n      swap2\n      swap1\n      pop\n      jump\t// out\n        /* \"#utility.yul\":2046:2193   */\n    tag_40:\n        /* \"#utility.yul\":2147:2158   */\n      0x00\n        /* \"#utility.yul\":2184:2187   */\n      dup2\n        /* \"#utility.yul\":2169:2187   */\n      swap1\n      pop\n        /* \"#utility.yul\":2046:2193   */\n      swap3\n      swap2\n      pop\n      pop\n      jump\t// out\n        /* \"#utility.yul\":2199:2506   */\n    tag_41:\n        /* \"#utility.yul\":2267:2268   */\n      0x00\n        /* \"#utility.yul\":2277:2390   */\n    tag_86:\n        /* \"#utility.yul\":2291:2297   */\n      dup4\n        /* \"#utility.yul\":2288:2289   */\n      dup2\n        /* \"#utility.yul\":2285:2298   */\n      lt\n        /* \"#utility.yul\":2277:2390   */\n      iszero\n      tag_88\n      jumpi\n        /* \"#utility.yul\":2376:2377   */\n      dup1\n        /* \"#utility.yul\":2371:2374   */\n      dup3\n        /* \"#utility.yul\":2367:2378   */\n      add\n        /* \"#utility.yul\":2361:2379   */\n      mload\n        /* \"#utility.yul\":2357:2358   */\n      dup2\n        /* \"#utility.yul\":2352:2355   */\n      dup5\n        /* \"#utility.yul\":2348:2359   */\n      add\n        /* \"#utility.yul\":2341:2380   */\n      mstore\n        /* \"#utility.yul\":2313:2315   */\n      0x20\n        /* \"#utility.yul\":2310:2311   */\n      dup2\n        /* \"#utility.yul\":2306:2316   */\n      add\n        /* \"#utility.yul\":2301:2316   */\n      swap1\n      pop\n        /* \"#utility.yul\":2277:2390   */\n      jump(tag_86)\n    tag_88:\n        /* \"#utility.yul\":2408:2414   */\n      dup4\n        /* \"#utility.yul\":2405:2406   */\n      dup2\n        /* \"#utility.yul\":2402:2415   */\n      gt\n        /* \"#utility.yul\":2399:2500   */\n      iszero\n      tag_89\n      jumpi\n        /* \"#utility.yul\":2488:2489   */\n      0x00\n        /* \"#utility.yul\":2479:2485   */\n      dup5\n        /* \"#utility.yul\":2474:2477   */\n      dup5\n        /* \"#utility.yul\":2470:2486   */\n      add\n        /* \"#utility.yul\":2463:2490   */\n      mstore\n        /* \"#utility.yul\":2399:2500   */\n    tag_89:\n        /* \"#utility.yul\":2248:2506   */\n      pop\n        /* \"#utility.yul\":2199:2506   */\n      pop\n      pop\n      pop\n      jump\t// out\n        /* \"#utility.yul\":2512:2885   */\n    tag_42:\n        /* \"#utility.yul\":2616:2619   */\n      0x00\n        /* \"#utility.yul\":2644:2682   */\n      tag_91\n        /* \"#utility.yul\":2676:2681   */\n      dup3\n        /* \"#utility.yul\":2644:2682   */\n      tag_39\n      jump\t// in\n    tag_91:\n        /* \"#utility.yul\":2698:2786   */\n      tag_92\n        /* \"#utility.yul\":2779:2785   */\n      dup2\n        /* \"#utility.yul\":2774:2777   */\n      dup6\n        /* \"#utility.yul\":2698:2786   */\n      tag_40\n      jump\t// in\n    tag_92:\n        /* \"#utility.yul\":2691:2786   */\n      swap4\n      pop\n        /* \"#utility.yul\":2795:2847   */\n      tag_93\n        /* \"#utility.yul\":2840:2846   */\n      dup2\n        /* \"#utility.yul\":2835:2838   */\n      dup6\n        /* \"#utility.yul\":2828:2832   */\n      0x20\n        /* \"#utility.yul\":2821:2826   */\n      dup7\n        /* \"#utility.yul\":2817:2833   */\n      add\n        /* \"#utility.yul\":2795:2847   */\n      tag_41\n      jump\t// in\n    tag_93:\n        /* \"#utility.yul\":2872:2878   */\n      dup1\n        /* \"#utility.yul\":2867:2870   */\n      dup5\n        /* \"#utility.yul\":2863:2879   */\n      add\n        /* \"#utility.yul\":2856:2879   */\n      swap2\n      pop\n        /* \"#utility.yul\":2620:2885   */\n      pop\n        /* \"#utility.yul\":2512:2885   */\n      swap3\n      swap2\n      pop\n      pop\n      jump\t// out\n        /* \"#utility.yul\":2891:3162   */\n    tag_15:\n        /* \"#utility.yul\":3021:3024   */\n      0x00\n        /* \"#utility.yul\":3043:3136   */\n      tag_95\n        /* \"#utility.yul\":3132:3135   */\n      dup3\n        /* \"#utility.yul\":3123:3129   */\n      dup5\n        /* \"#utility.yul\":3043:3136   */\n      tag_42\n      jump\t// in\n    tag_95:\n        /* \"#utility.yul\":3036:3136   */\n      swap2\n      pop\n        /* \"#utility.yul\":3153:3156   */\n      dup2\n        /* \"#utility.yul\":3146:3156   */\n      swap1\n      pop\n        /* \"#utility.yul\":2891:3162   */\n      swap3\n      swap2\n      pop\n      pop\n      jump\t// out\n        /* \"#utility.yul\":3168:3258   */\n    tag_43:\n        /* \"#utility.yul\":3202:3209   */\n      0x00\n        /* \"#utility.yul\":3245:3250   */\n      dup2\n        /* \"#utility.yul\":3238:3251   */\n      iszero\n        /* \"#utility.yul\":3231:3252   */\n      iszero\n        /* \"#utility.yul\":3220:3252   */\n      swap1\n      pop\n        /* \"#utility.yul\":3168:3258   */\n      swap2\n      swap1\n      pop\n      jump\t// out\n        /* \"#utility.yul\":3264:3373   */\n    tag_44:\n        /* \"#utility.yul\":3345:3366   */\n      tag_98\n        /* \"#utility.yul\":3360:3365   */\n      dup2\n        /* \"#utility.yul\":3345:3366   */\n      tag_43\n      jump\t// in\n    tag_98:\n        /* \"#utility.yul\":3340:3343   */\n      dup3\n        /* \"#utility.yul\":3333:3367   */\n      mstore\n        /* \"#utility.yul\":3264:3373   */\n      pop\n      pop\n      jump\t// out\n        /* \"#utility.yul\":3379:3547   */\n    tag_45:\n        /* \"#utility.yul\":3462:3473   */\n      0x00\n        /* \"#utility.yul\":3496:3502   */\n      dup3\n        /* \"#utility.yul\":3491:3494   */\n      dup3\n        /* \"#utility.yul\":3484:3503   */\n      mstore\n        /* \"#utility.yul\":3536:3540   */\n      0x20\n        /* \"#utility.yul\":3531:3534   */\n      dup3\n        /* \"#utility.yul\":3527:3541   */\n      add\n        /* \"#utility.yul\":3512:3541   */\n      swap1\n      pop\n        /* \"#utility.yul\":3379:3547   */\n      swap3\n      swap2\n      pop\n      pop\n      jump\t// out\n        /* \"#utility.yul\":3553:3655   */\n    tag_46:\n        /* \"#utility.yul\":3594:3600   */\n      0x00\n        /* \"#utility.yul\":3645:3647   */\n      0x1f\n        /* \"#utility.yul\":3641:3648   */\n      not\n        /* \"#utility.yul\":3636:3638   */\n      0x1f\n        /* \"#utility.yul\":3629:3634   */\n      dup4\n        /* \"#utility.yul\":3625:3639   */\n      add\n        /* \"#utility.yul\":3621:3649   */\n      and\n        /* \"#utility.yul\":3611:3649   */\n      swap1\n      pop\n        /* \"#utility.yul\":3553:3655   */\n      swap2\n      swap1\n      pop\n      jump\t// out\n        /* \"#utility.yul\":3661:4021   */\n    tag_47:\n        /* \"#utility.yul\":3747:3750   */\n      0x00\n        /* \"#utility.yul\":3775:3813   */\n      tag_102\n        /* \"#utility.yul\":3807:3812   */\n      dup3\n        /* \"#utility.yul\":3775:3813   */\n      tag_39\n      jump\t// in\n    tag_102:\n        /* \"#utility.yul\":3829:3899   */\n      tag_103\n        /* \"#utility.yul\":3892:3898   */\n      dup2\n        /* \"#utility.yul\":3887:3890   */\n      dup6\n        /* \"#utility.yul\":3829:3899   */\n      tag_45\n      jump\t// in\n    tag_103:\n        /* \"#utility.yul\":3822:3899   */\n      swap4\n      pop\n        /* \"#utility.yul\":3908:3960   */\n      tag_104\n        /* \"#utility.yul\":3953:3959   */\n      dup2\n        /* \"#utility.yul\":3948:3951   */\n      dup6\n        /* \"#utility.yul\":3941:3945   */\n      0x20\n        /* \"#utility.yul\":3934:3939   */\n      dup7\n        /* \"#utility.yul\":3930:3946   */\n      add\n        /* \"#utility.yul\":3908:3960   */\n      tag_41\n      jump\t// in\n    tag_104:\n        /* \"#utility.yul\":3985:4014   */\n      tag_105\n        /* \"#utility.yul\":4007:4013   */\n      dup2\n        /* \"#utility.yul\":3985:4014   */\n      tag_46\n      jump\t// in\n    tag_105:\n        /* \"#utility.yul\":3980:3983   */\n      dup5\n        /* \"#utility.yul\":3976:4015   */\n      add\n        /* \"#utility.yul\":3969:4015   */\n      swap2\n      pop\n        /* \"#utility.yul\":3751:4021   */\n      pop\n        /* \"#utility.yul\":3661:4021   */\n      swap3\n      swap2\n      pop\n      pop\n      jump\t// out\n        /* \"#utility.yul\":4027:4434   */\n    tag_20:\n        /* \"#utility.yul\":4160:4164   */\n      0x00\n        /* \"#utility.yul\":4198:4200   */\n      0x40\n        /* \"#utility.yul\":4187:4196   */\n      dup3\n        /* \"#utility.yul\":4183:4201   */\n      add\n        /* \"#utility.yul\":4175:4201   */\n      swap1\n      pop\n        /* \"#utility.yul\":4211:4276   */\n      tag_107\n        /* \"#utility.yul\":4273:4274   */\n      0x00\n        /* \"#utility.yul\":4262:4271   */\n      dup4\n        /* \"#utility.yul\":4258:4275   */\n      add\n        /* \"#utility.yul\":4249:4255   */\n      dup6\n        /* \"#utility.yul\":4211:4276   */\n      tag_44\n      jump\t// in\n    tag_107:\n        /* \"#utility.yul\":4323:4332   */\n      dup2\n        /* \"#utility.yul\":4317:4321   */\n      dup2\n        /* \"#utility.yul\":4313:4333   */\n      sub\n        /* \"#utility.yul\":4308:4310   */\n      0x20\n        /* \"#utility.yul\":4297:4306   */\n      dup4\n        /* \"#utility.yul\":4293:4311   */\n      add\n        /* \"#utility.yul\":4286:4334   */\n      mstore\n        /* \"#utility.yul\":4351:4427   */\n      tag_108\n        /* \"#utility.yul\":4422:4426   */\n      dup2\n        /* \"#utility.yul\":4413:4419   */\n      dup5\n        /* \"#utility.yul\":4351:4427   */\n      tag_47\n      jump\t// in\n    tag_108:\n        /* \"#utility.yul\":4343:4427   */\n      swap1\n      pop\n        /* \"#utility.yul\":4027:4434   */\n      swap4\n      swap3\n      pop\n      pop\n      pop\n      jump\t// out\n        /* \"#utility.yul\":4440:4609   */\n    tag_48:\n        /* \"#utility.yul\":4524:4535   */\n      0x00\n        /* \"#utility.yul\":4558:4564   */\n      dup3\n        /* \"#utility.yul\":4553:4556   */\n      dup3\n        /* \"#utility.yul\":4546:4565   */\n      mstore\n        /* \"#utility.yul\":4598:4602   */\n      0x20\n        /* \"#utility.yul\":4593:4596   */\n      dup3\n        /* \"#utility.yul\":4589:4603   */\n      add\n        /* \"#utility.yul\":4574:4603   */\n      swap1\n      pop\n        /* \"#utility.yul\":4440:4609   */\n      swap3\n      swap2\n      pop\n      pop\n      jump\t// out\n        /* \"#utility.yul\":4615:4773   */\n    tag_49:\n        /* \"#utility.yul\":4755:4765   */\n      0x63616c6c20666f6f000000000000000000000000000000000000000000000000\n        /* \"#utility.yul\":4751:4752   */\n      0x00\n        /* \"#utility.yul\":4743:4749   */\n      dup3\n        /* \"#utility.yul\":4739:4753   */\n      add\n        /* \"#utility.yul\":4732:4766   */\n      mstore\n        /* \"#utility.yul\":4615:4773   */\n      pop\n      jump\t// out\n        /* \"#utility.yul\":4779:5144   */\n    tag_50:\n        /* \"#utility.yul\":4921:4924   */\n      0x00\n        /* \"#utility.yul\":4942:5008   */\n      tag_112\n        /* \"#utility.yul\":5006:5007   */\n      0x08\n        /* \"#utility.yul\":5001:5004   */\n      dup4\n        /* \"#utility.yul\":4942:5008   */\n      tag_48\n      jump\t// in\n    tag_112:\n        /* \"#utility.yul\":4935:5008   */\n      swap2\n      pop\n        /* \"#utility.yul\":5017:5110   */\n      tag_113\n        /* \"#utility.yul\":5106:5109   */\n      dup3\n        /* \"#utility.yul\":5017:5110   */\n      tag_49\n      jump\t// in\n    tag_113:\n        /* \"#utility.yul\":5135:5137   */\n      0x20\n        /* \"#utility.yul\":5130:5133   */\n      dup3\n        /* \"#utility.yul\":5126:5138   */\n      add\n        /* \"#utility.yul\":5119:5138   */\n      swap1\n      pop\n        /* \"#utility.yul\":4779:5144   */\n      swap2\n      swap1\n      pop\n      jump\t// out\n        /* \"#utility.yul\":5150:5237   */\n    tag_51:\n        /* \"#utility.yul\":5197:5204   */\n      0x00\n        /* \"#utility.yul\":5226:5231   */\n      dup2\n        /* \"#utility.yul\":5215:5231   */\n      swap1\n      pop\n        /* \"#utility.yul\":5150:5237   */\n      swap2\n      swap1\n      pop\n      jump\t// out\n        /* \"#utility.yul\":5243:5329   */\n    tag_52:\n        /* \"#utility.yul\":5278:5285   */\n      0x00\n        /* \"#utility.yul\":5318:5322   */\n      0xff\n        /* \"#utility.yul\":5311:5316   */\n      dup3\n        /* \"#utility.yul\":5307:5323   */\n      and\n        /* \"#utility.yul\":5296:5323   */\n      swap1\n      pop\n        /* \"#utility.yul\":5243:5329   */\n      swap2\n      swap1\n      pop\n      jump\t// out\n        /* \"#utility.yul\":5335:5395   */\n    tag_53:\n        /* \"#utility.yul\":5363:5366   */\n      0x00\n        /* \"#utility.yul\":5384:5389   */\n      dup2\n        /* \"#utility.yul\":5377:5389   */\n      swap1\n      pop\n        /* \"#utility.yul\":5335:5395   */\n      swap2\n      swap1\n      pop\n      jump\t// out\n        /* \"#utility.yul\":5401:5559   */\n    tag_54:\n        /* \"#utility.yul\":5459:5468   */\n      0x00\n        /* \"#utility.yul\":5492:5553   */\n      tag_118\n        /* \"#utility.yul\":5508:5552   */\n      tag_119\n        /* \"#utility.yul\":5517:5551   */\n      tag_120\n        /* \"#utility.yul\":5545:5550   */\n      dup5\n        /* \"#utility.yul\":5517:5551   */\n      tag_51\n      jump\t// in\n    tag_120:\n        /* \"#utility.yul\":5508:5552   */\n      tag_53\n      jump\t// in\n    tag_119:\n        /* \"#utility.yul\":5492:5553   */\n      tag_52\n      jump\t// in\n    tag_118:\n        /* \"#utility.yul\":5479:5553   */\n      swap1\n      pop\n        /* \"#utility.yul\":5401:5559   */\n      swap2\n      swap1\n      pop\n      jump\t// out\n        /* \"#utility.yul\":5565:5712   */\n    tag_55:\n        /* \"#utility.yul\":5660:5705   */\n      tag_122\n        /* \"#utility.yul\":5699:5704   */\n      dup2\n        /* \"#utility.yul\":5660:5705   */\n      tag_54\n      jump\t// in\n    tag_122:\n        /* \"#utility.yul\":5655:5658   */\n      dup3\n        /* \"#utility.yul\":5648:5706   */\n      mstore\n        /* \"#utility.yul\":5565:5712   */\n      pop\n      pop\n      jump\t// out\n        /* \"#utility.yul\":5718:6263   */\n    tag_23:\n        /* \"#utility.yul\":5920:5924   */\n      0x00\n        /* \"#utility.yul\":5958:5960   */\n      0x40\n        /* \"#utility.yul\":5947:5956   */\n      dup3\n        /* \"#utility.yul\":5943:5961   */\n      add\n        /* \"#utility.yul\":5935:5961   */\n      swap1\n      pop\n        /* \"#utility.yul\":6007:6016   */\n      dup2\n        /* \"#utility.yul\":6001:6005   */\n      dup2\n        /* \"#utility.yul\":5997:6017   */\n      sub\n        /* \"#utility.yul\":5993:5994   */\n      0x00\n        /* \"#utility.yul\":5982:5991   */\n      dup4\n        /* \"#utility.yul\":5978:5995   */\n      add\n        /* \"#utility.yul\":5971:6018   */\n      mstore\n        /* \"#utility.yul\":6035:6166   */\n      tag_124\n        /* \"#utility.yul\":6161:6165   */\n      dup2\n        /* \"#utility.yul\":6035:6166   */\n      tag_50\n      jump\t// in\n    tag_124:\n        /* \"#utility.yul\":6027:6166   */\n      swap1\n      pop\n        /* \"#utility.yul\":6176:6256   */\n      tag_125\n        /* \"#utility.yul\":6252:6254   */\n      0x20\n        /* \"#utility.yul\":6241:6250   */\n      dup4\n        /* \"#utility.yul\":6237:6255   */\n      add\n        /* \"#utility.yul\":6228:6234   */\n      dup5\n        /* \"#utility.yul\":6176:6256   */\n      tag_55\n      jump\t// in\n    tag_125:\n        /* \"#utility.yul\":5718:6263   */\n      swap3\n      swap2\n      pop\n      pop\n      jump\t// out\n\n    auxdata: 0xa264697066735822122075335d54301ed538f5f509e3dd11f97f10ac7a2fdebe7c59f69b2b8c9973ec4b64736f6c634300080d0033\n}\n",
				"bytecode": {
					"linkReferences": {},
					"object": "608060405234801561001057600080fd5b50610628806100206000396000f3fe6080604052600436106100295760003560e01c80632c0512341461002e57806387ba617914610057575b600080fd5b34801561003a57600080fd5b5061005560048036038101906100509190610346565b610073565b005b610071600480360381019061006c91906103b1565b6101a2565b005b6000808273ffffffffffffffffffffffffffffffffffffffff166040516024016040516020818303038152906040527f1dcc85ae000000000000000000000000000000000000000000000000000000007bffffffffffffffffffffffffffffffffffffffffffffffffffffffff19166020820180517bffffffffffffffffffffffffffffffffffffffffffffffffffffffff838183161783525050505060405161011d9190610458565b6000604051808303816000865af19150503d806000811461015a576040519150601f19603f3d011682016040523d82523d6000602084013e61015f565b606091505b50915091507f13848c3e38f8886f3f5d2ad9dff80d8092c2bbb8efd5b887a99c2c6cfc09ac2a82826040516101959291906104e5565b60405180910390a1505050565b6000808273ffffffffffffffffffffffffffffffffffffffff163461138890607b6040516024016101d391906105c4565b6040516020818303038152906040527fc21a268c000000000000000000000000000000000000000000000000000000007bffffffffffffffffffffffffffffffffffffffffffffffffffffffff19166020820180517bffffffffffffffffffffffffffffffffffffffffffffffffffffffff838183161783525050505060405161025d9190610458565b600060405180830381858888f193505050503d806000811461029b576040519150601f19603f3d011682016040523d82523d6000602084013e6102a0565b606091505b50915091507f13848c3e38f8886f3f5d2ad9dff80d8092c2bbb8efd5b887a99c2c6cfc09ac2a82826040516102d69291906104e5565b60405180910390a1505050565b600080fd5b600073ffffffffffffffffffffffffffffffffffffffff82169050919050565b6000610313826102e8565b9050919050565b61032381610308565b811461032e57600080fd5b50565b6000813590506103408161031a565b92915050565b60006020828403121561035c5761035b6102e3565b5b600061036a84828501610331565b91505092915050565b600061037e826102e8565b9050919050565b61038e81610373565b811461039957600080fd5b50565b6000813590506103ab81610385565b92915050565b6000602082840312156103c7576103c66102e3565b5b60006103d58482850161039c565b91505092915050565b600081519050919050565b600081905092915050565b60005b838110156104125780820151818401526020810190506103f7565b83811115610421576000848401525b50505050565b6000610432826103de565b61043c81856103e9565b935061044c8185602086016103f4565b80840191505092915050565b60006104648284610427565b915081905092915050565b60008115159050919050565b6104848161046f565b82525050565b600082825260208201905092915050565b6000601f19601f8301169050919050565b60006104b7826103de565b6104c1818561048a565b93506104d18185602086016103f4565b6104da8161049b565b840191505092915050565b60006040820190506104fa600083018561047b565b818103602083015261050c81846104ac565b90509392505050565b600082825260208201905092915050565b7f63616c6c20666f6f000000000000000000000000000000000000000000000000600082015250565b600061055c600883610515565b915061056782610526565b602082019050919050565b6000819050919050565b600060ff82169050919050565b6000819050919050565b60006105ae6105a96105a484610572565b610589565b61057c565b9050919050565b6105be81610593565b82525050565b600060408201905081810360008301526105dd8161054f565b90506105ec60208301846105b5565b9291505056fea264697066735822122075335d54301ed538f5f509e3dd11f97f10ac7a2fdebe7c59f69b2b8c9973ec4b64736f6c634300080d0033",
					"opcodes": "PUSH1 0x80 PUSH1 0x40 MSTORE CALLVALUE DUP1 ISZERO PUSH2 0x10 JUMPI PUSH1 0x0 DUP1 REVERT JUMPDEST POP PUSH2 0x628 DUP1 PUSH2 0x20 PUSH1 0x0 CODECOPY PUSH1 0x0 RETURN INVALID PUSH1 0x80 PUSH1 0x40 MSTORE PUSH1 0x4 CALLDATASIZE LT PUSH2 0x29 JUMPI PUSH1 0x0 CALLDATALOAD PUSH1 0xE0 SHR DUP1 PUSH4 0x2C051234 EQ PUSH2 0x2E JUMPI DUP1 PUSH4 0x87BA6179 EQ PUSH2 0x57 JUMPI JUMPDEST PUSH1 0x0 DUP1 REVERT JUMPDEST CALLVALUE DUP1 ISZERO PUSH2 0x3A JUMPI PUSH1 0x0 DUP1 REVERT JUMPDEST POP PUSH2 0x55 PUSH1 0x4 DUP1 CALLDATASIZE SUB DUP2 ADD SWAP1 PUSH2 0x50 SWAP2 SWAP1 PUSH2 0x346 JUMP JUMPDEST PUSH2 0x73 JUMP JUMPDEST STOP JUMPDEST PUSH2 0x71 PUSH1 0x4 DUP1 CALLDATASIZE SUB DUP2 ADD SWAP1 PUSH2 0x6C SWAP2 SWAP1 PUSH2 0x3B1 JUMP JUMPDEST PUSH2 0x1A2 JUMP JUMPDEST STOP JUMPDEST PUSH1 0x0 DUP1 DUP3 PUSH20 0xFFFFFFFFFFFFFFFFFFFFFFFFFFFFFFFFFFFFFFFF AND PUSH1 0x40 MLOAD PUSH1 0x24 ADD PUSH1 0x40 MLOAD PUSH1 0x20 DUP2 DUP4 SUB SUB DUP2 MSTORE SWAP1 PUSH1 0x40 MSTORE PUSH32 0x1DCC85AE00000000000000000000000000000000000000000000000000000000 PUSH28 0xFFFFFFFFFFFFFFFFFFFFFFFFFFFFFFFFFFFFFFFFFFFFFFFFFFFFFFFF NOT AND PUSH1 0x20 DUP3 ADD DUP1 MLOAD PUSH28 0xFFFFFFFFFFFFFFFFFFFFFFFFFFFFFFFFFFFFFFFFFFFFFFFFFFFFFFFF DUP4 DUP2 DUP4 AND OR DUP4 MSTORE POP POP POP POP PUSH1 0x40 MLOAD PUSH2 0x11D SWAP2 SWAP1 PUSH2 0x458 JUMP JUMPDEST PUSH1 0x0 PUSH1 0x40 MLOAD DUP1 DUP4 SUB DUP2 PUSH1 0x0 DUP7 GAS CALL SWAP2 POP POP RETURNDATASIZE DUP1 PUSH1 0x0 DUP2 EQ PUSH2 0x15A JUMPI PUSH1 0x40 MLOAD SWAP2 POP PUSH1 0x1F NOT PUSH1 0x3F RETURNDATASIZE ADD AND DUP3 ADD PUSH1 0x40 MSTORE RETURNDATASIZE DUP3 MSTORE RETURNDATASIZE PUSH1 0x0 PUSH1 0x20 DUP5 ADD RETURNDATACOPY PUSH2 0x15F JUMP JUMPDEST PUSH1 0x60 SWAP2 POP JUMPDEST POP SWAP2 POP SWAP2 POP PUSH32 0x13848C3E38F8886F3F5D2AD9DFF80D8092C2BBB8EFD5B887A99C2C6CFC09AC2A DUP3 DUP3 PUSH1 0x40 MLOAD PUSH2 0x195 SWAP3 SWAP2 SWAP1 PUSH2 0x4E5 JUMP JUMPDEST PUSH1 0x40 MLOAD DUP1 SWAP2 SUB SWAP1 LOG1 POP POP POP JUMP JUMPDEST PUSH1 0x0 DUP1 DUP3 PUSH20 0xFFFFFFFFFFFFFFFFFFFFFFFFFFFFFFFFFFFFFFFF AND CALLVALUE PUSH2 0x1388 SWAP1 PUSH1 0x7B PUSH1 0x40 MLOAD PUSH1 0x24 ADD PUSH2 0x1D3 SWAP2 SWAP1 PUSH2 0x5C4 JUMP JUMPDEST PUSH1 0x40 MLOAD PUSH1 0x20 DUP2 DUP4 SUB SUB DUP2 MSTORE SWAP1 PUSH1 0x40 MSTORE PUSH32 0xC21A268C00000000000000000000000000000000000000000000000000000000 PUSH28 0xFFFFFFFFFFFFFFFFFFFFFFFFFFFFFFFFFFFFFFFFFFFFFFFFFFFFFFFF NOT AND PUSH1 0x20 DUP3 ADD DUP1 MLOAD PUSH28 0xFFFFFFFFFFFFFFFFFFFFFFFFFFFFFFFFFFFFFFFFFFFFFFFFFFFFFFFF DUP4 DUP2 DUP4 AND OR DUP4 MSTORE POP POP POP POP PUSH1 0x40 MLOAD PUSH2 0x25D SWAP2 SWAP1 PUSH2 0x458 JUMP JUMPDEST PUSH1 0x0 PUSH1 0x40 MLOAD DUP1 DUP4 SUB DUP2 DUP6 DUP9 DUP9 CALL SWAP4 POP POP POP POP RETURNDATASIZE DUP1 PUSH1 0x0 DUP2 EQ PUSH2 0x29B JUMPI PUSH1 0x40 MLOAD SWAP2 POP PUSH1 0x1F NOT PUSH1 0x3F RETURNDATASIZE ADD AND DUP3 ADD PUSH1 0x40 MSTORE RETURNDATASIZE DUP3 MSTORE RETURNDATASIZE PUSH1 0x0 PUSH1 0x20 DUP5 ADD RETURNDATACOPY PUSH2 0x2A0 JUMP JUMPDEST PUSH1 0x60 SWAP2 POP JUMPDEST POP SWAP2 POP SWAP2 POP PUSH32 0x13848C3E38F8886F3F5D2AD9DFF80D8092C2BBB8EFD5B887A99C2C6CFC09AC2A DUP3 DUP3 PUSH1 0x40 MLOAD PUSH2 0x2D6 SWAP3 SWAP2 SWAP1 PUSH2 0x4E5 JUMP JUMPDEST PUSH1 0x40 MLOAD DUP1 SWAP2 SUB SWAP1 LOG1 POP POP POP JUMP JUMPDEST PUSH1 0x0 DUP1 REVERT JUMPDEST PUSH1 0x0 PUSH20 0xFFFFFFFFFFFFFFFFFFFFFFFFFFFFFFFFFFFFFFFF DUP3 AND SWAP1 POP SWAP2 SWAP1 POP JUMP JUMPDEST PUSH1 0x0 PUSH2 0x313 DUP3 PUSH2 0x2E8 JUMP JUMPDEST SWAP1 POP SWAP2 SWAP1 POP JUMP JUMPDEST PUSH2 0x323 DUP2 PUSH2 0x308 JUMP JUMPDEST DUP2 EQ PUSH2 0x32E JUMPI PUSH1 0x0 DUP1 REVERT JUMPDEST POP JUMP JUMPDEST PUSH1 0x0 DUP2 CALLDATALOAD SWAP1 POP PUSH2 0x340 DUP2 PUSH2 0x31A JUMP JUMPDEST SWAP3 SWAP2 POP POP JUMP JUMPDEST PUSH1 0x0 PUSH1 0x20 DUP3 DUP5 SUB SLT ISZERO PUSH2 0x35C JUMPI PUSH2 0x35B PUSH2 0x2E3 JUMP JUMPDEST JUMPDEST PUSH1 0x0 PUSH2 0x36A DUP5 DUP3 DUP6 ADD PUSH2 0x331 JUMP JUMPDEST SWAP2 POP POP SWAP3 SWAP2 POP POP JUMP JUMPDEST PUSH1 0x0 PUSH2 0x37E DUP3 PUSH2 0x2E8 JUMP JUMPDEST SWAP1 POP SWAP2 SWAP1 POP JUMP JUMPDEST PUSH2 0x38E DUP2 PUSH2 0x373 JUMP JUMPDEST DUP2 EQ PUSH2 0x399 JUMPI PUSH1 0x0 DUP1 REVERT JUMPDEST POP JUMP JUMPDEST PUSH1 0x0 DUP2 CALLDATALOAD SWAP1 POP PUSH2 0x3AB DUP2 PUSH2 0x385 JUMP JUMPDEST SWAP3 SWAP2 POP POP JUMP JUMPDEST PUSH1 0x0 PUSH1 0x20 DUP3 DUP5 SUB SLT ISZERO PUSH2 0x3C7 JUMPI PUSH2 0x3C6 PUSH2 0x2E3 JUMP JUMPDEST JUMPDEST PUSH1 0x0 PUSH2 0x3D5 DUP5 DUP3 DUP6 ADD PUSH2 0x39C JUMP JUMPDEST SWAP2 POP POP SWAP3 SWAP2 POP POP JUMP JUMPDEST PUSH1 0x0 DUP2 MLOAD SWAP1 POP SWAP2 SWAP1 POP JUMP JUMPDEST PUSH1 0x0 DUP2 SWAP1 POP SWAP3 SWAP2 POP POP JUMP JUMPDEST PUSH1 0x0 JUMPDEST DUP4 DUP2 LT ISZERO PUSH2 0x412 JUMPI DUP1 DUP3 ADD MLOAD DUP2 DUP5 ADD MSTORE PUSH1 0x20 DUP2 ADD SWAP1 POP PUSH2 0x3F7 JUMP JUMPDEST DUP4 DUP2 GT ISZERO PUSH2 0x421 JUMPI PUSH1 0x0 DUP5 DUP5 ADD MSTORE JUMPDEST POP POP POP POP JUMP JUMPDEST PUSH1 0x0 PUSH2 0x432 DUP3 PUSH2 0x3DE JUMP JUMPDEST PUSH2 0x43C DUP2 DUP6 PUSH2 0x3E9 JUMP JUMPDEST SWAP4 POP PUSH2 0x44C DUP2 DUP6 PUSH1 0x20 DUP7 ADD PUSH2 0x3F4 JUMP JUMPDEST DUP1 DUP5 ADD SWAP2 POP POP SWAP3 SWAP2 POP POP JUMP JUMPDEST PUSH1 0x0 PUSH2 0x464 DUP3 DUP5 PUSH2 0x427 JUMP JUMPDEST SWAP2 POP DUP2 SWAP1 POP SWAP3 SWAP2 POP POP JUMP JUMPDEST PUSH1 0x0 DUP2 ISZERO ISZERO SWAP1 POP SWAP2 SWAP1 POP JUMP JUMPDEST PUSH2 0x484 DUP2 PUSH2 0x46F JUMP JUMPDEST DUP3 MSTORE POP POP JUMP JUMPDEST PUSH1 0x0 DUP3 DUP3 MSTORE PUSH1 0x20 DUP3 ADD SWAP1 POP SWAP3 SWAP2 POP POP JUMP JUMPDEST PUSH1 0x0 PUSH1 0x1F NOT PUSH1 0x1F DUP4 ADD AND SWAP1 POP SWAP2 SWAP1 POP JUMP JUMPDEST PUSH1 0x0 PUSH2 0x4B7 DUP3 PUSH2 0x3DE JUMP JUMPDEST PUSH2 0x4C1 DUP2 DUP6 PUSH2 0x48A JUMP JUMPDEST SWAP4 POP PUSH2 0x4D1 DUP2 DUP6 PUSH1 0x20 DUP7 ADD PUSH2 0x3F4 JUMP JUMPDEST PUSH2 0x4DA DUP2 PUSH2 0x49B JUMP JUMPDEST DUP5 ADD SWAP2 POP POP SWAP3 SWAP2 POP POP JUMP JUMPDEST PUSH1 0x0 PUSH1 0x40 DUP3 ADD SWAP1 POP PUSH2 0x4FA PUSH1 0x0 DUP4 ADD DUP6 PUSH2 0x47B JUMP JUMPDEST DUP2 DUP2 SUB PUSH1 0x20 DUP4 ADD MSTORE PUSH2 0x50C DUP2 DUP5 PUSH2 0x4AC JUMP JUMPDEST SWAP1 POP SWAP4 SWAP3 POP POP POP JUMP JUMPDEST PUSH1 0x0 DUP3 DUP3 MSTORE PUSH1 0x20 DUP3 ADD SWAP1 POP SWAP3 SWAP2 POP POP JUMP JUMPDEST PUSH32 0x63616C6C20666F6F000000000000000000000000000000000000000000000000 PUSH1 0x0 DUP3 ADD MSTORE POP JUMP JUMPDEST PUSH1 0x0 PUSH2 0x55C PUSH1 0x8 DUP4 PUSH2 0x515 JUMP JUMPDEST SWAP2 POP PUSH2 0x567 DUP3 PUSH2 0x526 JUMP JUMPDEST PUSH1 0x20 DUP3 ADD SWAP1 POP SWAP2 SWAP1 POP JUMP JUMPDEST PUSH1 0x0 DUP2 SWAP1 POP SWAP2 SWAP1 POP JUMP JUMPDEST PUSH1 0x0 PUSH1 0xFF DUP3 AND SWAP1 POP SWAP2 SWAP1 POP JUMP JUMPDEST PUSH1 0x0 DUP2 SWAP1 POP SWAP2 SWAP1 POP JUMP JUMPDEST PUSH1 0x0 PUSH2 0x5AE PUSH2 0x5A9 PUSH2 0x5A4 DUP5 PUSH2 0x572 JUMP JUMPDEST PUSH2 0x589 JUMP JUMPDEST PUSH2 0x57C JUMP JUMPDEST SWAP1 POP SWAP2 SWAP1 POP JUMP JUMPDEST PUSH2 0x5BE DUP2 PUSH2 0x593 JUMP JUMPDEST DUP3 MSTORE POP POP JUMP JUMPDEST PUSH1 0x0 PUSH1 0x40 DUP3 ADD SWAP1 POP DUP2 DUP2 SUB PUSH1 0x0 DUP4 ADD MSTORE PUSH2 0x5DD DUP2 PUSH2 0x54F JUMP JUMPDEST SWAP1 POP PUSH2 0x5EC PUSH1 0x20 DUP4 ADD DUP5 PUSH2 0x5B5 JUMP JUMPDEST SWAP3 SWAP2 POP POP JUMP INVALID LOG2 PUSH5 0x6970667358 0x22 SLT KECCAK256 PUSH22 0x335D54301ED538F5F509E3DD11F97F10AC7A2FDEBE7C MSIZE 0xF6 SWAP12 0x2B DUP13 SWAP10 PUSH20 0xEC4B64736F6C634300080D003300000000000000 "
				},
				"gasEstimates": {
					"creation": {
						"codeDepositCost": "315200",
						"executionCost": "355",
						"totalCost": "315555"
					},
					"external": {
						"testCalDoesNotExist(address)": "infinite",
						"testCallFoo(address)": "infinite"
					}
				},
				"methodIdentifiers": {
					"testCalDoesNotExist(address)": "2c051234",
					"testCallFoo(address)": "87ba6179"
				}
			},
			"storageLayout": {
				"storage": [],
				"types": null
			},
			"userdoc": {
				"kind": "user",
				"methods": {},
				"version": 1
			}
		}
	}
}