{
	"enum.sol": {
		"Enum": {
			"abi": [
				{
					"inputs": [],
					"name": "cancel",
					"outputs": [],
					"stateMutability": "nonpayable",
					"type": "function"
				},
				{
					"inputs": [],
					"name": "get",
					"outputs": [
						{
							"internalType": "enum Enum.Status",
							"name": "",
							"type": "uint8"
						}
					],
					"stateMutability": "view",
					"type": "function"
				},
				{
					"inputs": [
						{
							"internalType": "enum Enum.Status",
							"name": "newStatus",
							"type": "uint8"
						}
					],
					"name": "set",
					"outputs": [],
					"stateMutability": "nonpayable",
					"type": "function"
				},
				{
					"inputs": [],
					"name": "status",
					"outputs": [
						{
							"internalType": "enum Enum.Status",
							"name": "",
							"type": "uint8"
						}
					],
					"stateMutability": "view",
					"type": "function"
				}
			],
			"devdoc": {
				"kind": "dev",
				"methods": {},
				"version": 1
			},
			"evm": {
				"assembly": "    /* \"enum.sol\":61:663  contract Enum {... */\n  mstore(0x40, 0x80)\n  callvalue\n  dup1\n  iszero\n  tag_1\n  jumpi\n  0x00\n  dup1\n  revert\ntag_1:\n  pop\n  dataSize(sub_0)\n  dup1\n  dataOffset(sub_0)\n  0x00\n  codecopy\n  0x00\n  return\nstop\n\nsub_0: assembly {\n        /* \"enum.sol\":61:663  contract Enum {... */\n      mstore(0x40, 0x80)\n      callvalue\n      dup1\n      iszero\n      tag_1\n      jumpi\n      0x00\n      dup1\n      revert\n    tag_1:\n      pop\n      jumpi(tag_2, lt(calldatasize, 0x04))\n      shr(0xe0, calldataload(0x00))\n      dup1\n      0x200d2ed2\n      eq\n      tag_3\n      jumpi\n      dup1\n      0x24b8ba5f\n      eq\n      tag_4\n      jumpi\n      dup1\n      0x6d4ce63c\n      eq\n      tag_5\n      jumpi\n      dup1\n      0xea8a1af0\n      eq\n      tag_6\n      jumpi\n    tag_2:\n      0x00\n      dup1\n      revert\n        /* \"enum.sol\":153:173  Status public status */\n    tag_3:\n      tag_7\n      tag_8\n      jump\t// in\n    tag_7:\n      mload(0x40)\n      tag_9\n      swap2\n      swap1\n      tag_10\n      jump\t// in\n    tag_9:\n      mload(0x40)\n      dup1\n      swap2\n      sub\n      swap1\n      return\n        /* \"enum.sol\":442:518  function set(Status newStatus) public  {... */\n    tag_4:\n      tag_11\n      0x04\n      dup1\n      calldatasize\n      sub\n      dup2\n      add\n      swap1\n      tag_12\n      swap2\n      swap1\n      tag_13\n      jump\t// in\n    tag_12:\n      tag_14\n      jump\t// in\n    tag_11:\n      stop\n        /* \"enum.sol\":320:396  function get() public view returns (Status) {... */\n    tag_5:\n      tag_15\n      tag_16\n      jump\t// in\n    tag_15:\n      mload(0x40)\n      tag_17\n      swap2\n      swap1\n      tag_10\n      jump\t// in\n    tag_17:\n      mload(0x40)\n      dup1\n      swap2\n      sub\n      swap1\n      return\n        /* \"enum.sol\":589:659  function cancel() public  {... */\n    tag_6:\n      tag_18\n      tag_19\n      jump\t// in\n    tag_18:\n      stop\n        /* \"enum.sol\":153:173  Status public status */\n    tag_8:\n      0x00\n      dup1\n      sload\n      swap1\n      0x0100\n      exp\n      swap1\n      div\n      0xff\n      and\n      dup2\n      jump\t// out\n        /* \"enum.sol\":442:518  function set(Status newStatus) public  {... */\n    tag_14:\n        /* \"enum.sol\":501:510  newStatus */\n      dup1\n        /* \"enum.sol\":492:498  status */\n      0x00\n      dup1\n        /* \"enum.sol\":492:510  status = newStatus */\n      0x0100\n      exp\n      dup2\n      sload\n      dup2\n      0xff\n      mul\n      not\n      and\n      swap1\n      dup4\n      0x04\n      dup2\n      gt\n      iszero\n      tag_21\n      jumpi\n      tag_22\n      tag_23\n      jump\t// in\n    tag_22:\n    tag_21:\n      mul\n      or\n      swap1\n      sstore\n      pop\n        /* \"enum.sol\":442:518  function set(Status newStatus) public  {... */\n      pop\n      jump\t// out\n        /* \"enum.sol\":320:396  function get() public view returns (Status) {... */\n    tag_16:\n        /* \"enum.sol\":356:362  Status */\n      0x00\n        /* \"enum.sol\":382:388  status */\n      dup1\n      0x00\n      swap1\n      sload\n      swap1\n      0x0100\n      exp\n      swap1\n      div\n      0xff\n      and\n        /* \"enum.sol\":375:388  return status */\n      swap1\n      pop\n        /* \"enum.sol\":320:396  function get() public view returns (Status) {... */\n      swap1\n      jump\t// out\n        /* \"enum.sol\":589:659  function cancel() public  {... */\n    tag_19:\n        /* \"enum.sol\":635:651  Status.Cancelled */\n      0x04\n        /* \"enum.sol\":626:632  status */\n      0x00\n      dup1\n        /* \"enum.sol\":626:651  status = Status.Cancelled */\n      0x0100\n      exp\n      dup2\n      sload\n      dup2\n      0xff\n      mul\n      not\n      and\n      swap1\n      dup4\n      0x04\n      dup2\n      gt\n      iszero\n      tag_26\n      jumpi\n      tag_27\n      tag_23\n      jump\t// in\n    tag_27:\n    tag_26:\n      mul\n      or\n      swap1\n      sstore\n      pop\n        /* \"enum.sol\":589:659  function cancel() public  {... */\n      jump\t// out\n        /* \"#utility.yul\":7:187   */\n    tag_23:\n        /* \"#utility.yul\":55:132   */\n      0x4e487b7100000000000000000000000000000000000000000000000000000000\n        /* \"#utility.yul\":52:53   */\n      0x00\n        /* \"#utility.yul\":45:133   */\n      mstore\n        /* \"#utility.yul\":152:156   */\n      0x21\n        /* \"#utility.yul\":149:150   */\n      0x04\n        /* \"#utility.yul\":142:157   */\n      mstore\n        /* \"#utility.yul\":176:180   */\n      0x24\n        /* \"#utility.yul\":173:174   */\n      0x00\n        /* \"#utility.yul\":166:181   */\n      revert\n        /* \"#utility.yul\":193:306   */\n    tag_28:\n        /* \"#utility.yul\":274:275   */\n      0x05\n        /* \"#utility.yul\":267:272   */\n      dup2\n        /* \"#utility.yul\":264:276   */\n      lt\n        /* \"#utility.yul\":254:300   */\n      tag_40\n      jumpi\n        /* \"#utility.yul\":280:298   */\n      tag_41\n      tag_23\n      jump\t// in\n    tag_41:\n        /* \"#utility.yul\":254:300   */\n    tag_40:\n        /* \"#utility.yul\":193:306   */\n      pop\n      jump\t// out\n        /* \"#utility.yul\":312:439   */\n    tag_29:\n        /* \"#utility.yul\":357:364   */\n      0x00\n        /* \"#utility.yul\":386:391   */\n      dup2\n        /* \"#utility.yul\":375:391   */\n      swap1\n      pop\n        /* \"#utility.yul\":392:433   */\n      tag_43\n        /* \"#utility.yul\":427:432   */\n      dup3\n        /* \"#utility.yul\":392:433   */\n      tag_28\n      jump\t// in\n    tag_43:\n        /* \"#utility.yul\":312:439   */\n      swap2\n      swap1\n      pop\n      jump\t// out\n        /* \"#utility.yul\":445:572   */\n    tag_30:\n        /* \"#utility.yul\":501:510   */\n      0x00\n        /* \"#utility.yul\":534:566   */\n      tag_45\n        /* \"#utility.yul\":560:565   */\n      dup3\n        /* \"#utility.yul\":534:566   */\n      tag_29\n      jump\t// in\n    tag_45:\n        /* \"#utility.yul\":521:566   */\n      swap1\n      pop\n        /* \"#utility.yul\":445:572   */\n      swap2\n      swap1\n      pop\n      jump\t// out\n        /* \"#utility.yul\":578:721   */\n    tag_31:\n        /* \"#utility.yul\":671:714   */\n      tag_47\n        /* \"#utility.yul\":708:713   */\n      dup2\n        /* \"#utility.yul\":671:714   */\n      tag_30\n      jump\t// in\n    tag_47:\n        /* \"#utility.yul\":666:669   */\n      dup3\n        /* \"#utility.yul\":659:715   */\n      mstore\n        /* \"#utility.yul\":578:721   */\n      pop\n      pop\n      jump\t// out\n        /* \"#utility.yul\":727:961   */\n    tag_10:\n        /* \"#utility.yul\":826:830   */\n      0x00\n        /* \"#utility.yul\":864:866   */\n      0x20\n        /* \"#utility.yul\":853:862   */\n      dup3\n        /* \"#utility.yul\":849:867   */\n      add\n        /* \"#utility.yul\":841:867   */\n      swap1\n      pop\n        /* \"#utility.yul\":877:954   */\n      tag_49\n        /* \"#utility.yul\":951:952   */\n      0x00\n        /* \"#utility.yul\":940:949   */\n      dup4\n        /* \"#utility.yul\":936:953   */\n      add\n        /* \"#utility.yul\":927:933   */\n      dup5\n        /* \"#utility.yul\":877:954   */\n      tag_31\n      jump\t// in\n    tag_49:\n        /* \"#utility.yul\":727:961   */\n      swap3\n      swap2\n      pop\n      pop\n      jump\t// out\n        /* \"#utility.yul\":1048:1165   */\n    tag_33:\n        /* \"#utility.yul\":1157:1158   */\n      0x00\n        /* \"#utility.yul\":1154:1155   */\n      dup1\n        /* \"#utility.yul\":1147:1159   */\n      revert\n        /* \"#utility.yul\":1294:1401   */\n    tag_35:\n        /* \"#utility.yul\":1375:1376   */\n      0x05\n        /* \"#utility.yul\":1368:1373   */\n      dup2\n        /* \"#utility.yul\":1365:1377   */\n      lt\n        /* \"#utility.yul\":1355:1395   */\n      tag_54\n      jumpi\n        /* \"#utility.yul\":1391:1392   */\n      0x00\n        /* \"#utility.yul\":1388:1389   */\n      dup1\n        /* \"#utility.yul\":1381:1393   */\n      revert\n        /* \"#utility.yul\":1355:1395   */\n    tag_54:\n        /* \"#utility.yul\":1294:1401   */\n      pop\n      jump\t// out\n        /* \"#utility.yul\":1407:1562   */\n    tag_36:\n        /* \"#utility.yul\":1461:1466   */\n      0x00\n        /* \"#utility.yul\":1499:1505   */\n      dup2\n        /* \"#utility.yul\":1486:1506   */\n      calldataload\n        /* \"#utility.yul\":1477:1506   */\n      swap1\n      pop\n        /* \"#utility.yul\":1515:1556   */\n      tag_56\n        /* \"#utility.yul\":1550:1555   */\n      dup2\n        /* \"#utility.yul\":1515:1556   */\n      tag_35\n      jump\t// in\n    tag_56:\n        /* \"#utility.yul\":1407:1562   */\n      swap3\n      swap2\n      pop\n      pop\n      jump\t// out\n        /* \"#utility.yul\":1568:1913   */\n    tag_13:\n        /* \"#utility.yul\":1635:1641   */\n      0x00\n        /* \"#utility.yul\":1684:1686   */\n      0x20\n        /* \"#utility.yul\":1672:1681   */\n      dup3\n        /* \"#utility.yul\":1663:1670   */\n      dup5\n        /* \"#utility.yul\":1659:1682   */\n      sub\n        /* \"#utility.yul\":1655:1687   */\n      slt\n        /* \"#utility.yul\":1652:1771   */\n      iszero\n      tag_58\n      jumpi\n        /* \"#utility.yul\":1690:1769   */\n      tag_59\n      tag_33\n      jump\t// in\n    tag_59:\n        /* \"#utility.yul\":1652:1771   */\n    tag_58:\n        /* \"#utility.yul\":1810:1811   */\n      0x00\n        /* \"#utility.yul\":1835:1896   */\n      tag_60\n        /* \"#utility.yul\":1888:1895   */\n      dup5\n        /* \"#utility.yul\":1879:1885   */\n      dup3\n        /* \"#utility.yul\":1868:1877   */\n      dup6\n        /* \"#utility.yul\":1864:1886   */\n      add\n        /* \"#utility.yul\":1835:1896   */\n      tag_36\n      jump\t// in\n    tag_60:\n        /* \"#utility.yul\":1825:1896   */\n      swap2\n      pop\n        /* \"#utility.yul\":1781:1906   */\n      pop\n        /* \"#utility.yul\":1568:1913   */\n      swap3\n      swap2\n      pop\n      pop\n      jump\t// out\n\n    auxdata: 0xa2646970667358221220560d534bfb4bd7a9dea8b4e040852f0475dde997780cebc1fd9321d007aadcf264736f6c634300080d0033\n}\n",
				"bytecode": {
					"linkReferences": {},
					"object": "608060405234801561001057600080fd5b50610251806100206000396000f3fe608060405234801561001057600080fd5b506004361061004c5760003560e01c8063200d2ed21461005157806324b8ba5f1461006f5780636d4ce63c1461008b578063ea8a1af0146100a9575b600080fd5b6100596100b3565b60405161006691906101a9565b60405180910390f35b610089600480360381019061008491906101ee565b6100c4565b005b6100936100f0565b6040516100a091906101a9565b60405180910390f35b6100b1610106565b005b60008054906101000a900460ff1681565b806000806101000a81548160ff021916908360048111156100e8576100e7610132565b5b021790555050565b60008060009054906101000a900460ff16905090565b60046000806101000a81548160ff0219169083600481111561012b5761012a610132565b5b0217905550565b7f4e487b7100000000000000000000000000000000000000000000000000000000600052602160045260246000fd5b6005811061017257610171610132565b5b50565b600081905061018382610161565b919050565b600061019382610175565b9050919050565b6101a381610188565b82525050565b60006020820190506101be600083018461019a565b92915050565b600080fd5b600581106101d657600080fd5b50565b6000813590506101e8816101c9565b92915050565b600060208284031215610204576102036101c4565b5b6000610212848285016101d9565b9150509291505056fea2646970667358221220560d534bfb4bd7a9dea8b4e040852f0475dde997780cebc1fd9321d007aadcf264736f6c634300080d0033",
					"opcodes": "PUSH1 0x80 PUSH1 0x40 MSTORE CALLVALUE DUP1 ISZERO PUSH2 0x10 JUMPI PUSH1 0x0 DUP1 REVERT JUMPDEST POP PUSH2 0x251 DUP1 PUSH2 0x20 PUSH1 0x0 CODECOPY PUSH1 0x0 RETURN INVALID PUSH1 0x80 PUSH1 0x40 MSTORE CALLVALUE DUP1 ISZERO PUSH2 0x10 JUMPI PUSH1 0x0 DUP1 REVERT JUMPDEST POP PUSH1 0x4 CALLDATASIZE LT PUSH2 0x4C JUMPI PUSH1 0x0 CALLDATALOAD PUSH1 0xE0 SHR DUP1 PUSH4 0x200D2ED2 EQ PUSH2 0x51 JUMPI DUP1 PUSH4 0x24B8BA5F EQ PUSH2 0x6F JUMPI DUP1 PUSH4 0x6D4CE63C EQ PUSH2 0x8B JUMPI DUP1 PUSH4 0xEA8A1AF0 EQ PUSH2 0xA9 JUMPI JUMPDEST PUSH1 0x0 DUP1 REVERT JUMPDEST PUSH2 0x59 PUSH2 0xB3 JUMP JUMPDEST PUSH1 0x40 MLOAD PUSH2 0x66 SWAP2 SWAP1 PUSH2 0x1A9 JUMP JUMPDEST PUSH1 0x40 MLOAD DUP1 SWAP2 SUB SWAP1 RETURN JUMPDEST PUSH2 0x89 PUSH1 0x4 DUP1 CALLDATASIZE SUB DUP2 ADD SWAP1 PUSH2 0x84 SWAP2 SWAP1 PUSH2 0x1EE JUMP JUMPDEST PUSH2 0xC4 JUMP JUMPDEST STOP JUMPDEST PUSH2 0x93 PUSH2 0xF0 JUMP JUMPDEST PUSH1 0x40 MLOAD PUSH2 0xA0 SWAP2 SWAP1 PUSH2 0x1A9 JUMP JUMPDEST PUSH1 0x40 MLOAD DUP1 SWAP2 SUB SWAP1 RETURN JUMPDEST PUSH2 0xB1 PUSH2 0x106 JUMP JUMPDEST STOP JUMPDEST PUSH1 0x0 DUP1 SLOAD SWAP1 PUSH2 0x100 EXP SWAP1 DIV PUSH1 0xFF AND DUP2 JUMP JUMPDEST DUP1 PUSH1 0x0 DUP1 PUSH2 0x100 EXP DUP2 SLOAD DUP2 PUSH1 0xFF MUL NOT AND SWAP1 DUP4 PUSH1 0x4 DUP2 GT ISZERO PUSH2 0xE8 JUMPI PUSH2 0xE7 PUSH2 0x132 JUMP JUMPDEST JUMPDEST MUL OR SWAP1 SSTORE POP POP JUMP JUMPDEST PUSH1 0x0 DUP1 PUSH1 0x0 SWAP1 SLOAD SWAP1 PUSH2 0x100 EXP SWAP1 DIV PUSH1 0xFF AND SWAP1 POP SWAP1 JUMP JUMPDEST PUSH1 0x4 PUSH1 0x0 DUP1 PUSH2 0x100 EXP DUP2 SLOAD DUP2 PUSH1 0xFF MUL NOT AND SWAP1 DUP4 PUSH1 0x4 DUP2 GT ISZERO PUSH2 0x12B JUMPI PUSH2 0x12A PUSH2 0x132 JUMP JUMPDEST JUMPDEST MUL OR SWAP1 SSTORE POP JUMP JUMPDEST PUSH32 0x4E487B7100000000000000000000000000000000000000000000000000000000 PUSH1 0x0 MSTORE PUSH1 0x21 PUSH1 0x4 MSTORE PUSH1 0x24 PUSH1 0x0 REVERT JUMPDEST PUSH1 0x5 DUP2 LT PUSH2 0x172 JUMPI PUSH2 0x171 PUSH2 0x132 JUMP JUMPDEST JUMPDEST POP JUMP JUMPDEST PUSH1 0x0 DUP2 SWAP1 POP PUSH2 0x183 DUP3 PUSH2 0x161 JUMP JUMPDEST SWAP2 SWAP1 POP JUMP JUMPDEST PUSH1 0x0 PUSH2 0x193 DUP3 PUSH2 0x175 JUMP JUMPDEST SWAP1 POP SWAP2 SWAP1 POP JUMP JUMPDEST PUSH2 0x1A3 DUP2 PUSH2 0x188 JUMP JUMPDEST DUP3 MSTORE POP POP JUMP JUMPDEST PUSH1 0x0 PUSH1 0x20 DUP3 ADD SWAP1 POP PUSH2 0x1BE PUSH1 0x0 DUP4 ADD DUP5 PUSH2 0x19A JUMP JUMPDEST SWAP3 SWAP2 POP POP JUMP JUMPDEST PUSH1 0x0 DUP1 REVERT JUMPDEST PUSH1 0x5 DUP2 LT PUSH2 0x1D6 JUMPI PUSH1 0x0 DUP1 REVERT JUMPDEST POP JUMP JUMPDEST PUSH1 0x0 DUP2 CALLDATALOAD SWAP1 POP PUSH2 0x1E8 DUP2 PUSH2 0x1C9 JUMP JUMPDEST SWAP3 SWAP2 POP POP JUMP JUMPDEST PUSH1 0x0 PUSH1 0x20 DUP3 DUP5 SUB SLT ISZERO PUSH2 0x204 JUMPI PUSH2 0x203 PUSH2 0x1C4 JUMP JUMPDEST JUMPDEST PUSH1 0x0 PUSH2 0x212 DUP5 DUP3 DUP6 ADD PUSH2 0x1D9 JUMP JUMPDEST SWAP2 POP POP SWAP3 SWAP2 POP POP JUMP INVALID LOG2 PUSH5 0x6970667358 0x22 SLT KECCAK256 JUMP 0xD MSTORE8 0x4B 0xFB 0x4B 0xD7 0xA9 0xDE 0xA8 0xB4 0xE0 BLOCKHASH DUP6 0x2F DIV PUSH22 0xDDE997780CEBC1FD9321D007AADCF264736F6C634300 ADDMOD 0xD STOP CALLER "
				},
				"gasEstimates": {
					"creation": {
						"codeDepositCost": "118600",
						"executionCost": "165",
						"totalCost": "118765"
					},
					"external": {
						"cancel()": "24475",
						"get()": "2590",
						"set(uint8)": "24650",
						"status()": "2535"
					}
				},
				"methodIdentifiers": {
					"cancel()": "ea8a1af0",
					"get()": "6d4ce63c",
					"set(uint8)": "24b8ba5f",
					"status()": "200d2ed2"
				}
			},
			"storageLayout": {
				"storage": [
					{
						"astId": 10,
						"contract": "enum.sol:Enum",
						"label": "status",
						"offset": 0,
						"slot": "0",
						"type": "t_enum(Status)7"
					}
				],
				"types": {
					"t_enum(Status)7": {
						"encoding": "inplace",
						"label": "enum Enum.Status",
						"numberOfBytes": "1"
					}
				}
			},
			"userdoc": {
				"kind": "user",
				"methods": {},
				"version": 1
			}
		}
	}
}