{
	"view.sol": {
		"View": {
			"abi": [
				{
					"inputs": [],
					"name": "TotalSum",
					"outputs": [
						{
							"internalType": "uint256",
							"name": "",
							"type": "uint256"
						},
						{
							"internalType": "uint256",
							"name": "",
							"type": "uint256"
						}
					],
					"stateMutability": "view",
					"type": "function"
				}
			],
			"devdoc": {
				"kind": "dev",
				"methods": {},
				"version": 1
			},
			"evm": {
				"assembly": "    /* \"view.sol\":57:314  contract View {... */\n  mstore(0x40, 0x80)\n    /* \"view.sol\":97:99  10 */\n  0x0a\n    /* \"view.sol\":82:99  uint256 Num1 = 10 */\n  0x00\n  sstore\n    /* \"view.sol\":124:126  12 */\n  0x0c\n    /* \"view.sol\":109:126  uint256 Num2 = 12 */\n  0x01\n  sstore\n    /* \"view.sol\":57:314  contract View {... */\n  callvalue\n  dup1\n  iszero\n  tag_1\n  jumpi\n  0x00\n  dup1\n  revert\ntag_1:\n  pop\n  dataSize(sub_0)\n  dup1\n  dataOffset(sub_0)\n  0x00\n  codecopy\n  0x00\n  return\nstop\n\nsub_0: assembly {\n        /* \"view.sol\":57:314  contract View {... */\n      mstore(0x40, 0x80)\n      callvalue\n      dup1\n      iszero\n      tag_1\n      jumpi\n      0x00\n      dup1\n      revert\n    tag_1:\n      pop\n      jumpi(tag_2, lt(calldatasize, 0x04))\n      shr(0xe0, calldataload(0x00))\n      dup1\n      0x175f1d24\n      eq\n      tag_3\n      jumpi\n    tag_2:\n      0x00\n      dup1\n      revert\n        /* \"view.sol\":133:312  function TotalSum() public view returns (uint256, uint256) {... */\n    tag_3:\n      tag_4\n      tag_5\n      jump\t// in\n    tag_4:\n      mload(0x40)\n      tag_6\n      swap3\n      swap2\n      swap1\n      tag_7\n      jump\t// in\n    tag_6:\n      mload(0x40)\n      dup1\n      swap2\n      sub\n      swap1\n      return\n    tag_5:\n        /* \"view.sol\":174:181  uint256 */\n      0x00\n        /* \"view.sol\":183:190  uint256 */\n      dup1\n        /* \"view.sol\":210:223  uint256 total */\n      0x00\n        /* \"view.sol\":233:237  Num2 */\n      sload(0x01)\n        /* \"view.sol\":226:230  Num1 */\n      sload(0x00)\n        /* \"view.sol\":226:237  Num1 + Num2 */\n      tag_9\n      swap2\n      swap1\n      tag_10\n      jump\t// in\n    tag_9:\n        /* \"view.sol\":210:237  uint256 total = Num1 + Num2 */\n      swap1\n      pop\n        /* \"view.sol\":247:260  uint256 times */\n      0x00\n        /* \"view.sol\":270:274  Num2 */\n      sload(0x01)\n        /* \"view.sol\":263:267  Num1 */\n      sload(0x00)\n        /* \"view.sol\":263:274  Num1 * Num2 */\n      tag_11\n      swap2\n      swap1\n      tag_12\n      jump\t// in\n    tag_11:\n        /* \"view.sol\":247:274  uint256 times = Num1 * Num2 */\n      swap1\n      pop\n        /* \"view.sol\":292:297  total */\n      dup2\n        /* \"view.sol\":299:304  times */\n      dup2\n        /* \"view.sol\":284:305  return (total, times) */\n      swap4\n      pop\n      swap4\n      pop\n      pop\n      pop\n        /* \"view.sol\":133:312  function TotalSum() public view returns (uint256, uint256) {... */\n      swap1\n      swap2\n      jump\t// out\n        /* \"#utility.yul\":7:84   */\n    tag_13:\n        /* \"#utility.yul\":44:51   */\n      0x00\n        /* \"#utility.yul\":73:78   */\n      dup2\n        /* \"#utility.yul\":62:78   */\n      swap1\n      pop\n        /* \"#utility.yul\":7:84   */\n      swap2\n      swap1\n      pop\n      jump\t// out\n        /* \"#utility.yul\":90:208   */\n    tag_14:\n        /* \"#utility.yul\":177:201   */\n      tag_19\n        /* \"#utility.yul\":195:200   */\n      dup2\n        /* \"#utility.yul\":177:201   */\n      tag_13\n      jump\t// in\n    tag_19:\n        /* \"#utility.yul\":172:175   */\n      dup3\n        /* \"#utility.yul\":165:202   */\n      mstore\n        /* \"#utility.yul\":90:208   */\n      pop\n      pop\n      jump\t// out\n        /* \"#utility.yul\":214:546   */\n    tag_7:\n        /* \"#utility.yul\":335:339   */\n      0x00\n        /* \"#utility.yul\":373:375   */\n      0x40\n        /* \"#utility.yul\":362:371   */\n      dup3\n        /* \"#utility.yul\":358:376   */\n      add\n        /* \"#utility.yul\":350:376   */\n      swap1\n      pop\n        /* \"#utility.yul\":386:457   */\n      tag_21\n        /* \"#utility.yul\":454:455   */\n      0x00\n        /* \"#utility.yul\":443:452   */\n      dup4\n        /* \"#utility.yul\":439:456   */\n      add\n        /* \"#utility.yul\":430:436   */\n      dup6\n        /* \"#utility.yul\":386:457   */\n      tag_14\n      jump\t// in\n    tag_21:\n        /* \"#utility.yul\":467:539   */\n      tag_22\n        /* \"#utility.yul\":535:537   */\n      0x20\n        /* \"#utility.yul\":524:533   */\n      dup4\n        /* \"#utility.yul\":520:538   */\n      add\n        /* \"#utility.yul\":511:517   */\n      dup5\n        /* \"#utility.yul\":467:539   */\n      tag_14\n      jump\t// in\n    tag_22:\n        /* \"#utility.yul\":214:546   */\n      swap4\n      swap3\n      pop\n      pop\n      pop\n      jump\t// out\n        /* \"#utility.yul\":552:732   */\n    tag_15:\n        /* \"#utility.yul\":600:677   */\n      0x4e487b7100000000000000000000000000000000000000000000000000000000\n        /* \"#utility.yul\":597:598   */\n      0x00\n        /* \"#utility.yul\":590:678   */\n      mstore\n        /* \"#utility.yul\":697:701   */\n      0x11\n        /* \"#utility.yul\":694:695   */\n      0x04\n        /* \"#utility.yul\":687:702   */\n      mstore\n        /* \"#utility.yul\":721:725   */\n      0x24\n        /* \"#utility.yul\":718:719   */\n      0x00\n        /* \"#utility.yul\":711:726   */\n      revert\n        /* \"#utility.yul\":738:1043   */\n    tag_10:\n        /* \"#utility.yul\":778:781   */\n      0x00\n        /* \"#utility.yul\":797:817   */\n      tag_25\n        /* \"#utility.yul\":815:816   */\n      dup3\n        /* \"#utility.yul\":797:817   */\n      tag_13\n      jump\t// in\n    tag_25:\n        /* \"#utility.yul\":792:817   */\n      swap2\n      pop\n        /* \"#utility.yul\":831:851   */\n      tag_26\n        /* \"#utility.yul\":849:850   */\n      dup4\n        /* \"#utility.yul\":831:851   */\n      tag_13\n      jump\t// in\n    tag_26:\n        /* \"#utility.yul\":826:851   */\n      swap3\n      pop\n        /* \"#utility.yul\":985:986   */\n      dup3\n        /* \"#utility.yul\":917:983   */\n      0xffffffffffffffffffffffffffffffffffffffffffffffffffffffffffffffff\n        /* \"#utility.yul\":913:987   */\n      sub\n        /* \"#utility.yul\":910:911   */\n      dup3\n        /* \"#utility.yul\":907:988   */\n      gt\n        /* \"#utility.yul\":904:1011   */\n      iszero\n      tag_27\n      jumpi\n        /* \"#utility.yul\":991:1009   */\n      tag_28\n      tag_15\n      jump\t// in\n    tag_28:\n        /* \"#utility.yul\":904:1011   */\n    tag_27:\n        /* \"#utility.yul\":1035:1036   */\n      dup3\n        /* \"#utility.yul\":1032:1033   */\n      dup3\n        /* \"#utility.yul\":1028:1037   */\n      add\n        /* \"#utility.yul\":1021:1037   */\n      swap1\n      pop\n        /* \"#utility.yul\":738:1043   */\n      swap3\n      swap2\n      pop\n      pop\n      jump\t// out\n        /* \"#utility.yul\":1049:1397   */\n    tag_12:\n        /* \"#utility.yul\":1089:1096   */\n      0x00\n        /* \"#utility.yul\":1112:1132   */\n      tag_30\n        /* \"#utility.yul\":1130:1131   */\n      dup3\n        /* \"#utility.yul\":1112:1132   */\n      tag_13\n      jump\t// in\n    tag_30:\n        /* \"#utility.yul\":1107:1132   */\n      swap2\n      pop\n        /* \"#utility.yul\":1146:1166   */\n      tag_31\n        /* \"#utility.yul\":1164:1165   */\n      dup4\n        /* \"#utility.yul\":1146:1166   */\n      tag_13\n      jump\t// in\n    tag_31:\n        /* \"#utility.yul\":1141:1166   */\n      swap3\n      pop\n        /* \"#utility.yul\":1334:1335   */\n      dup2\n        /* \"#utility.yul\":1266:1332   */\n      0xffffffffffffffffffffffffffffffffffffffffffffffffffffffffffffffff\n        /* \"#utility.yul\":1262:1336   */\n      div\n        /* \"#utility.yul\":1259:1260   */\n      dup4\n        /* \"#utility.yul\":1256:1337   */\n      gt\n        /* \"#utility.yul\":1251:1252   */\n      dup3\n        /* \"#utility.yul\":1244:1253   */\n      iszero\n        /* \"#utility.yul\":1237:1254   */\n      iszero\n        /* \"#utility.yul\":1233:1338   */\n      and\n        /* \"#utility.yul\":1230:1361   */\n      iszero\n      tag_32\n      jumpi\n        /* \"#utility.yul\":1341:1359   */\n      tag_33\n      tag_15\n      jump\t// in\n    tag_33:\n        /* \"#utility.yul\":1230:1361   */\n    tag_32:\n        /* \"#utility.yul\":1389:1390   */\n      dup3\n        /* \"#utility.yul\":1386:1387   */\n      dup3\n        /* \"#utility.yul\":1382:1391   */\n      mul\n        /* \"#utility.yul\":1371:1391   */\n      swap1\n      pop\n        /* \"#utility.yul\":1049:1397   */\n      swap3\n      swap2\n      pop\n      pop\n      jump\t// out\n\n    auxdata: 0xa26469706673582212200ab514a8408914a7b9d93205302e71d16483d51a813f2d7ff4aa396986e1328e64736f6c634300080d0033\n}\n",
				"bytecode": {
					"linkReferences": {},
					"object": "6080604052600a600055600c60015534801561001a57600080fd5b506101dd8061002a6000396000f3fe608060405234801561001057600080fd5b506004361061002b5760003560e01c8063175f1d2414610030575b600080fd5b61003861004f565b60405161004692919061009f565b60405180910390f35b600080600060015460005461006491906100f7565b90506000600154600054610078919061014d565b905081819350935050509091565b6000819050919050565b61009981610086565b82525050565b60006040820190506100b46000830185610090565b6100c16020830184610090565b9392505050565b7f4e487b7100000000000000000000000000000000000000000000000000000000600052601160045260246000fd5b600061010282610086565b915061010d83610086565b9250827fffffffffffffffffffffffffffffffffffffffffffffffffffffffffffffffff03821115610142576101416100c8565b5b828201905092915050565b600061015882610086565b915061016383610086565b9250817fffffffffffffffffffffffffffffffffffffffffffffffffffffffffffffffff048311821515161561019c5761019b6100c8565b5b82820290509291505056fea26469706673582212200ab514a8408914a7b9d93205302e71d16483d51a813f2d7ff4aa396986e1328e64736f6c634300080d0033",
					"opcodes": "PUSH1 0x80 PUSH1 0x40 MSTORE PUSH1 0xA PUSH1 0x0 SSTORE PUSH1 0xC PUSH1 0x1 SSTORE CALLVALUE DUP1 ISZERO PUSH2 0x1A JUMPI PUSH1 0x0 DUP1 REVERT JUMPDEST POP PUSH2 0x1DD DUP1 PUSH2 0x2A PUSH1 0x0 CODECOPY PUSH1 0x0 RETURN INVALID PUSH1 0x80 PUSH1 0x40 MSTORE CALLVALUE DUP1 ISZERO PUSH2 0x10 JUMPI PUSH1 0x0 DUP1 REVERT JUMPDEST POP PUSH1 0x4 CALLDATASIZE LT PUSH2 0x2B JUMPI PUSH1 0x0 CALLDATALOAD PUSH1 0xE0 SHR DUP1 PUSH4 0x175F1D24 EQ PUSH2 0x30 JUMPI JUMPDEST PUSH1 0x0 DUP1 REVERT JUMPDEST PUSH2 0x38 PUSH2 0x4F JUMP JUMPDEST PUSH1 0x40 MLOAD PUSH2 0x46 SWAP3 SWAP2 SWAP1 PUSH2 0x9F JUMP JUMPDEST PUSH1 0x40 MLOAD DUP1 SWAP2 SUB SWAP1 RETURN JUMPDEST PUSH1 0x0 DUP1 PUSH1 0x0 PUSH1 0x1 SLOAD PUSH1 0x0 SLOAD PUSH2 0x64 SWAP2 SWAP1 PUSH2 0xF7 JUMP JUMPDEST SWAP1 POP PUSH1 0x0 PUSH1 0x1 SLOAD PUSH1 0x0 SLOAD PUSH2 0x78 SWAP2 SWAP1 PUSH2 0x14D JUMP JUMPDEST SWAP1 POP DUP2 DUP2 SWAP4 POP SWAP4 POP POP POP SWAP1 SWAP2 JUMP JUMPDEST PUSH1 0x0 DUP2 SWAP1 POP SWAP2 SWAP1 POP JUMP JUMPDEST PUSH2 0x99 DUP2 PUSH2 0x86 JUMP JUMPDEST DUP3 MSTORE POP POP JUMP JUMPDEST PUSH1 0x0 PUSH1 0x40 DUP3 ADD SWAP1 POP PUSH2 0xB4 PUSH1 0x0 DUP4 ADD DUP6 PUSH2 0x90 JUMP JUMPDEST PUSH2 0xC1 PUSH1 0x20 DUP4 ADD DUP5 PUSH2 0x90 JUMP JUMPDEST SWAP4 SWAP3 POP POP POP JUMP JUMPDEST PUSH32 0x4E487B7100000000000000000000000000000000000000000000000000000000 PUSH1 0x0 MSTORE PUSH1 0x11 PUSH1 0x4 MSTORE PUSH1 0x24 PUSH1 0x0 REVERT JUMPDEST PUSH1 0x0 PUSH2 0x102 DUP3 PUSH2 0x86 JUMP JUMPDEST SWAP2 POP PUSH2 0x10D DUP4 PUSH2 0x86 JUMP JUMPDEST SWAP3 POP DUP3 PUSH32 0xFFFFFFFFFFFFFFFFFFFFFFFFFFFFFFFFFFFFFFFFFFFFFFFFFFFFFFFFFFFFFFFF SUB DUP3 GT ISZERO PUSH2 0x142 JUMPI PUSH2 0x141 PUSH2 0xC8 JUMP JUMPDEST JUMPDEST DUP3 DUP3 ADD SWAP1 POP SWAP3 SWAP2 POP POP JUMP JUMPDEST PUSH1 0x0 PUSH2 0x158 DUP3 PUSH2 0x86 JUMP JUMPDEST SWAP2 POP PUSH2 0x163 DUP4 PUSH2 0x86 JUMP JUMPDEST SWAP3 POP DUP2 PUSH32 0xFFFFFFFFFFFFFFFFFFFFFFFFFFFFFFFFFFFFFFFFFFFFFFFFFFFFFFFFFFFFFFFF DIV DUP4 GT DUP3 ISZERO ISZERO AND ISZERO PUSH2 0x19C JUMPI PUSH2 0x19B PUSH2 0xC8 JUMP JUMPDEST JUMPDEST DUP3 DUP3 MUL SWAP1 POP SWAP3 SWAP2 POP POP JUMP INVALID LOG2 PUSH5 0x6970667358 0x22 SLT KECCAK256 EXP 0xB5 EQ 0xA8 BLOCKHASH DUP10 EQ 0xA7 0xB9 0xD9 ORIGIN SDIV ADDRESS 0x2E PUSH18 0xD16483D51A813F2D7FF4AA396986E1328E64 PUSH20 0x6F6C634300080D00330000000000000000000000 "
				},
				"gasEstimates": {
					"creation": {
						"codeDepositCost": "95400",
						"executionCost": "44353",
						"totalCost": "139753"
					},
					"external": {
						"TotalSum()": "infinite"
					}
				},
				"methodIdentifiers": {
					"TotalSum()": "175f1d24"
				}
			},
			"storageLayout": {
				"storage": [
					{
						"astId": 4,
						"contract": "view.sol:View",
						"label": "Num1",
						"offset": 0,
						"slot": "0",
						"type": "t_uint256"
					},
					{
						"astId": 7,
						"contract": "view.sol:View",
						"label": "Num2",
						"offset": 0,
						"slot": "1",
						"type": "t_uint256"
					}
				],
				"types": {
					"t_uint256": {
						"encoding": "inplace",
						"label": "uint256",
						"numberOfBytes": "32"
					}
				}
			},
			"userdoc": {
				"kind": "user",
				"methods": {},
				"version": 1
			}
		}
	}
}