{
	"checkpointGame.sol": {
		"CheckpointGame": {
			"abi": [
				{
					"anonymous": false,
					"inputs": [
						{
							"indexed": true,
							"internalType": "address",
							"name": "player",
							"type": "address"
						},
						{
							"indexed": false,
							"internalType": "uint256",
							"name": "amountDeposited",
							"type": "uint256"
						}
					],
					"name": "GamePlayed",
					"type": "event"
				},
				{
					"anonymous": false,
					"inputs": [
						{
							"indexed": true,
							"internalType": "address",
							"name": "player",
							"type": "address"
						},
						{
							"indexed": false,
							"internalType": "uint256",
							"name": "rewardAmount",
							"type": "uint256"
						}
					],
					"name": "RewardClaimed",
					"type": "event"
				},
				{
					"inputs": [],
					"name": "claimReward",
					"outputs": [],
					"stateMutability": "nonpayable",
					"type": "function"
				},
				{
					"inputs": [],
					"name": "depositedEther",
					"outputs": [
						{
							"internalType": "uint256",
							"name": "",
							"type": "uint256"
						}
					],
					"stateMutability": "view",
					"type": "function"
				},
				{
					"inputs": [],
					"name": "mileStoneReward1",
					"outputs": [
						{
							"internalType": "uint256",
							"name": "",
							"type": "uint256"
						}
					],
					"stateMutability": "view",
					"type": "function"
				},
				{
					"inputs": [],
					"name": "mileStoneReward2",
					"outputs": [
						{
							"internalType": "uint256",
							"name": "",
							"type": "uint256"
						}
					],
					"stateMutability": "view",
					"type": "function"
				},
				{
					"inputs": [],
					"name": "mileStoneReward3",
					"outputs": [
						{
							"internalType": "uint256",
							"name": "",
							"type": "uint256"
						}
					],
					"stateMutability": "view",
					"type": "function"
				},
				{
					"inputs": [],
					"name": "payoutMileStone1",
					"outputs": [
						{
							"internalType": "uint256",
							"name": "",
							"type": "uint256"
						}
					],
					"stateMutability": "view",
					"type": "function"
				},
				{
					"inputs": [],
					"name": "payoutMileStone2",
					"outputs": [
						{
							"internalType": "uint256",
							"name": "",
							"type": "uint256"
						}
					],
					"stateMutability": "view",
					"type": "function"
				},
				{
					"inputs": [],
					"name": "payoutMileStone3",
					"outputs": [
						{
							"internalType": "uint256",
							"name": "",
							"type": "uint256"
						}
					],
					"stateMutability": "view",
					"type": "function"
				},
				{
					"inputs": [],
					"name": "play",
					"outputs": [],
					"stateMutability": "payable",
					"type": "function"
				},
				{
					"inputs": [
						{
							"internalType": "address",
							"name": "",
							"type": "address"
						}
					],
					"name": "redeemableEther",
					"outputs": [
						{
							"internalType": "uint256",
							"name": "",
							"type": "uint256"
						}
					],
					"stateMutability": "view",
					"type": "function"
				}
			],
			"devdoc": {
				"details": "A simple contract where players deposit Ether to reach certain milestones and earn rewards.",
				"kind": "dev",
				"methods": {
					"claimReward()": {
						"details": "Allows a player to claim their reward after the final milestone is reached. Emits a {RewardClaimed} event."
					},
					"play()": {
						"details": "Allows a player to play the game by depositing exactly 0.5 Ether. If the deposited amount reaches any of the milestones, the player is credited with the respective reward. Emits a {GamePlayed} event."
					}
				},
				"title": "CheckpointGame",
				"version": 1
			},
			"evm": {
				"assembly": "    /* \"checkpointGame.sol\":197:2946  contract CheckpointGame {... */\n  mstore(0x40, 0x80)\n    /* \"checkpointGame.sol\":309:316  3 ether */\n  0x29a2241af62c0000\n    /* \"checkpointGame.sol\":275:316  uint256 public payoutMileStone1 = 3 ether */\n  0x00\n  sstore\n    /* \"checkpointGame.sol\":357:364  2 ether */\n  0x1bc16d674ec80000\n    /* \"checkpointGame.sol\":323:364  uint256 public mileStoneReward1 = 2 ether */\n  0x01\n  sstore\n    /* \"checkpointGame.sol\":405:412  5 ether */\n  0x4563918244f40000\n    /* \"checkpointGame.sol\":371:412  uint256 public payoutMileStone2 = 5 ether */\n  0x02\n  sstore\n    /* \"checkpointGame.sol\":453:460  3 ether */\n  0x29a2241af62c0000\n    /* \"checkpointGame.sol\":419:460  uint256 public mileStoneReward2 = 3 ether */\n  0x03\n  sstore\n    /* \"checkpointGame.sol\":501:509  10 ether */\n  0x8ac7230489e80000\n    /* \"checkpointGame.sol\":467:509  uint256 public payoutMileStone3 = 10 ether */\n  0x04\n  sstore\n    /* \"checkpointGame.sol\":550:557  5 ether */\n  0x4563918244f40000\n    /* \"checkpointGame.sol\":516:557  uint256 public mileStoneReward3 = 5 ether */\n  0x05\n  sstore\n    /* \"checkpointGame.sol\":197:2946  contract CheckpointGame {... */\n  callvalue\n  dup1\n  iszero\n  tag_1\n  jumpi\n  0x00\n  dup1\n  revert\ntag_1:\n  pop\n  dataSize(sub_0)\n  dup1\n  dataOffset(sub_0)\n  0x00\n  codecopy\n  0x00\n  return\nstop\n\nsub_0: assembly {\n        /* \"checkpointGame.sol\":197:2946  contract CheckpointGame {... */\n      mstore(0x40, 0x80)\n      jumpi(tag_1, lt(calldatasize, 0x04))\n      shr(0xe0, calldataload(0x00))\n      dup1\n      0x71bfa5b2\n      gt\n      tag_12\n      jumpi\n      dup1\n      0x71bfa5b2\n      eq\n      tag_7\n      jumpi\n      dup1\n      0x8d103cde\n      eq\n      tag_8\n      jumpi\n      dup1\n      0x93e84cd9\n      eq\n      tag_9\n      jumpi\n      dup1\n      0xb88a802f\n      eq\n      tag_10\n      jumpi\n      dup1\n      0xdae1edf4\n      eq\n      tag_11\n      jumpi\n      jump(tag_1)\n    tag_12:\n      dup1\n      0x024d3a33\n      eq\n      tag_2\n      jumpi\n      dup1\n      0x0c598f43\n      eq\n      tag_3\n      jumpi\n      dup1\n      0x1ae5fe88\n      eq\n      tag_4\n      jumpi\n      dup1\n      0x1c95cfc1\n      eq\n      tag_5\n      jumpi\n      dup1\n      0x33c2a9f8\n      eq\n      tag_6\n      jumpi\n    tag_1:\n      0x00\n      dup1\n      revert\n        /* \"checkpointGame.sol\":516:557  uint256 public mileStoneReward3 = 5 ether */\n    tag_2:\n      callvalue\n      dup1\n      iszero\n      tag_13\n      jumpi\n      0x00\n      dup1\n      revert\n    tag_13:\n      pop\n      tag_14\n      tag_15\n      jump\t// in\n    tag_14:\n      mload(0x40)\n      tag_16\n      swap2\n      swap1\n      tag_17\n      jump\t// in\n    tag_16:\n      mload(0x40)\n      dup1\n      swap2\n      sub\n      swap1\n      return\n        /* \"checkpointGame.sol\":419:460  uint256 public mileStoneReward2 = 3 ether */\n    tag_3:\n      callvalue\n      dup1\n      iszero\n      tag_18\n      jumpi\n      0x00\n      dup1\n      revert\n    tag_18:\n      pop\n      tag_19\n      tag_20\n      jump\t// in\n    tag_19:\n      mload(0x40)\n      tag_21\n      swap2\n      swap1\n      tag_17\n      jump\t// in\n    tag_21:\n      mload(0x40)\n      dup1\n      swap2\n      sub\n      swap1\n      return\n        /* \"checkpointGame.sol\":710:760  mapping(address => uint256) public redeemableEther */\n    tag_4:\n      callvalue\n      dup1\n      iszero\n      tag_22\n      jumpi\n      0x00\n      dup1\n      revert\n    tag_22:\n      pop\n      tag_23\n      0x04\n      dup1\n      calldatasize\n      sub\n      dup2\n      add\n      swap1\n      tag_24\n      swap2\n      swap1\n      tag_25\n      jump\t// in\n    tag_24:\n      tag_26\n      jump\t// in\n    tag_23:\n      mload(0x40)\n      tag_27\n      swap2\n      swap1\n      tag_17\n      jump\t// in\n    tag_27:\n      mload(0x40)\n      dup1\n      swap2\n      sub\n      swap1\n      return\n        /* \"checkpointGame.sol\":371:412  uint256 public payoutMileStone2 = 5 ether */\n    tag_5:\n      callvalue\n      dup1\n      iszero\n      tag_28\n      jumpi\n      0x00\n      dup1\n      revert\n    tag_28:\n      pop\n      tag_29\n      tag_30\n      jump\t// in\n    tag_29:\n      mload(0x40)\n      tag_31\n      swap2\n      swap1\n      tag_17\n      jump\t// in\n    tag_31:\n      mload(0x40)\n      dup1\n      swap2\n      sub\n      swap1\n      return\n        /* \"checkpointGame.sol\":275:316  uint256 public payoutMileStone1 = 3 ether */\n    tag_6:\n      callvalue\n      dup1\n      iszero\n      tag_32\n      jumpi\n      0x00\n      dup1\n      revert\n    tag_32:\n      pop\n      tag_33\n      tag_34\n      jump\t// in\n    tag_33:\n      mload(0x40)\n      tag_35\n      swap2\n      swap1\n      tag_17\n      jump\t// in\n    tag_35:\n      mload(0x40)\n      dup1\n      swap2\n      sub\n      swap1\n      return\n        /* \"checkpointGame.sol\":467:509  uint256 public payoutMileStone3 = 10 ether */\n    tag_7:\n      callvalue\n      dup1\n      iszero\n      tag_36\n      jumpi\n      0x00\n      dup1\n      revert\n    tag_36:\n      pop\n      tag_37\n      tag_38\n      jump\t// in\n    tag_37:\n      mload(0x40)\n      tag_39\n      swap2\n      swap1\n      tag_17\n      jump\t// in\n    tag_39:\n      mload(0x40)\n      dup1\n      swap2\n      sub\n      swap1\n      return\n        /* \"checkpointGame.sol\":612:641  uint256 public depositedEther */\n    tag_8:\n      callvalue\n      dup1\n      iszero\n      tag_40\n      jumpi\n      0x00\n      dup1\n      revert\n    tag_40:\n      pop\n      tag_41\n      tag_42\n      jump\t// in\n    tag_41:\n      mload(0x40)\n      tag_43\n      swap2\n      swap1\n      tag_17\n      jump\t// in\n    tag_43:\n      mload(0x40)\n      dup1\n      swap2\n      sub\n      swap1\n      return\n        /* \"checkpointGame.sol\":1235:2174  function play() public payable {... */\n    tag_9:\n      tag_44\n      tag_45\n      jump\t// in\n    tag_44:\n      stop\n        /* \"checkpointGame.sol\":2328:2943  function claimReward() public {... */\n    tag_10:\n      callvalue\n      dup1\n      iszero\n      tag_46\n      jumpi\n      0x00\n      dup1\n      revert\n    tag_46:\n      pop\n      tag_47\n      tag_48\n      jump\t// in\n    tag_47:\n      stop\n        /* \"checkpointGame.sol\":323:364  uint256 public mileStoneReward1 = 2 ether */\n    tag_11:\n      callvalue\n      dup1\n      iszero\n      tag_49\n      jumpi\n      0x00\n      dup1\n      revert\n    tag_49:\n      pop\n      tag_50\n      tag_51\n      jump\t// in\n    tag_50:\n      mload(0x40)\n      tag_52\n      swap2\n      swap1\n      tag_17\n      jump\t// in\n    tag_52:\n      mload(0x40)\n      dup1\n      swap2\n      sub\n      swap1\n      return\n        /* \"checkpointGame.sol\":516:557  uint256 public mileStoneReward3 = 5 ether */\n    tag_15:\n      sload(0x05)\n      dup2\n      jump\t// out\n        /* \"checkpointGame.sol\":419:460  uint256 public mileStoneReward2 = 3 ether */\n    tag_20:\n      sload(0x03)\n      dup2\n      jump\t// out\n        /* \"checkpointGame.sol\":710:760  mapping(address => uint256) public redeemableEther */\n    tag_26:\n      mstore(0x20, 0x07)\n      dup1\n      0x00\n      mstore\n      keccak256(0x00, 0x40)\n      0x00\n      swap2\n      pop\n      swap1\n      pop\n      sload\n      dup2\n      jump\t// out\n        /* \"checkpointGame.sol\":371:412  uint256 public payoutMileStone2 = 5 ether */\n    tag_30:\n      sload(0x02)\n      dup2\n      jump\t// out\n        /* \"checkpointGame.sol\":275:316  uint256 public payoutMileStone1 = 3 ether */\n    tag_34:\n      sload(0x00)\n      dup2\n      jump\t// out\n        /* \"checkpointGame.sol\":467:509  uint256 public payoutMileStone3 = 10 ether */\n    tag_38:\n      sload(0x04)\n      dup2\n      jump\t// out\n        /* \"checkpointGame.sol\":612:641  uint256 public depositedEther */\n    tag_42:\n      sload(0x06)\n      dup2\n      jump\t// out\n        /* \"checkpointGame.sol\":1235:2174  function play() public payable {... */\n    tag_45:\n        /* \"checkpointGame.sol\":1352:1361  0.5 ether */\n      0x06f05b59d3b20000\n        /* \"checkpointGame.sol\":1339:1348  msg.value */\n      callvalue\n        /* \"checkpointGame.sol\":1339:1361  msg.value == 0.5 ether */\n      eq\n        /* \"checkpointGame.sol\":1331:1405  require(msg.value == 0.5 ether, \"You must send exactly 0.5 ether to play\") */\n      tag_54\n      jumpi\n      mload(0x40)\n      0x08c379a000000000000000000000000000000000000000000000000000000000\n      dup2\n      mstore\n      0x04\n      add\n      tag_55\n      swap1\n      tag_56\n      jump\t// in\n    tag_55:\n      mload(0x40)\n      dup1\n      swap2\n      sub\n      swap1\n      revert\n    tag_54:\n        /* \"checkpointGame.sol\":1482:1504  uint256 currentBalance */\n      0x00\n        /* \"checkpointGame.sol\":1524:1533  msg.value */\n      callvalue\n        /* \"checkpointGame.sol\":1507:1521  depositedEther */\n      sload(0x06)\n        /* \"checkpointGame.sol\":1507:1533  depositedEther + msg.value */\n      tag_57\n      swap2\n      swap1\n      tag_58\n      jump\t// in\n    tag_57:\n        /* \"checkpointGame.sol\":1482:1533  uint256 currentBalance = depositedEther + msg.value */\n      swap1\n      pop\n        /* \"checkpointGame.sol\":1661:1677  payoutMileStone1 */\n      sload(0x00)\n        /* \"checkpointGame.sol\":1643:1657  currentBalance */\n      dup2\n        /* \"checkpointGame.sol\":1643:1677  currentBalance == payoutMileStone1 */\n      sub\n        /* \"checkpointGame.sol\":1639:1993  if (currentBalance == payoutMileStone1) {... */\n      tag_59\n      jumpi\n        /* \"checkpointGame.sol\":1725:1741  mileStoneReward1 */\n      sload(0x01)\n        /* \"checkpointGame.sol\":1694:1709  redeemableEther */\n      0x07\n        /* \"checkpointGame.sol\":1694:1721  redeemableEther[msg.sender] */\n      0x00\n        /* \"checkpointGame.sol\":1710:1720  msg.sender */\n      caller\n        /* \"checkpointGame.sol\":1694:1721  redeemableEther[msg.sender] */\n      0xffffffffffffffffffffffffffffffffffffffff\n      and\n      0xffffffffffffffffffffffffffffffffffffffff\n      and\n      dup2\n      mstore\n      0x20\n      add\n      swap1\n      dup2\n      mstore\n      0x20\n      add\n      0x00\n      keccak256\n      0x00\n        /* \"checkpointGame.sol\":1694:1741  redeemableEther[msg.sender] += mileStoneReward1 */\n      dup3\n      dup3\n      sload\n      tag_60\n      swap2\n      swap1\n      tag_58\n      jump\t// in\n    tag_60:\n      swap3\n      pop\n      pop\n      dup2\n      swap1\n      sstore\n      pop\n        /* \"checkpointGame.sol\":1639:1993  if (currentBalance == payoutMileStone1) {... */\n      jump(tag_61)\n    tag_59:\n        /* \"checkpointGame.sol\":1781:1797  payoutMileStone2 */\n      sload(0x02)\n        /* \"checkpointGame.sol\":1763:1777  currentBalance */\n      dup2\n        /* \"checkpointGame.sol\":1763:1797  currentBalance == payoutMileStone2 */\n      sub\n        /* \"checkpointGame.sol\":1759:1993  if (currentBalance == payoutMileStone2) {... */\n      tag_62\n      jumpi\n        /* \"checkpointGame.sol\":1845:1861  mileStoneReward2 */\n      sload(0x03)\n        /* \"checkpointGame.sol\":1814:1829  redeemableEther */\n      0x07\n        /* \"checkpointGame.sol\":1814:1841  redeemableEther[msg.sender] */\n      0x00\n        /* \"checkpointGame.sol\":1830:1840  msg.sender */\n      caller\n        /* \"checkpointGame.sol\":1814:1841  redeemableEther[msg.sender] */\n      0xffffffffffffffffffffffffffffffffffffffff\n      and\n      0xffffffffffffffffffffffffffffffffffffffff\n      and\n      dup2\n      mstore\n      0x20\n      add\n      swap1\n      dup2\n      mstore\n      0x20\n      add\n      0x00\n      keccak256\n      0x00\n        /* \"checkpointGame.sol\":1814:1861  redeemableEther[msg.sender] += mileStoneReward2 */\n      dup3\n      dup3\n      sload\n      tag_63\n      swap2\n      swap1\n      tag_58\n      jump\t// in\n    tag_63:\n      swap3\n      pop\n      pop\n      dup2\n      swap1\n      sstore\n      pop\n        /* \"checkpointGame.sol\":1759:1993  if (currentBalance == payoutMileStone2) {... */\n      jump(tag_64)\n    tag_62:\n        /* \"checkpointGame.sol\":1901:1917  payoutMileStone3 */\n      sload(0x04)\n        /* \"checkpointGame.sol\":1883:1897  currentBalance */\n      dup2\n        /* \"checkpointGame.sol\":1883:1917  currentBalance == payoutMileStone3 */\n      sub\n        /* \"checkpointGame.sol\":1879:1993  if (currentBalance == payoutMileStone3) {... */\n      tag_65\n      jumpi\n        /* \"checkpointGame.sol\":1965:1981  mileStoneReward3 */\n      sload(0x05)\n        /* \"checkpointGame.sol\":1934:1949  redeemableEther */\n      0x07\n        /* \"checkpointGame.sol\":1934:1961  redeemableEther[msg.sender] */\n      0x00\n        /* \"checkpointGame.sol\":1950:1960  msg.sender */\n      caller\n        /* \"checkpointGame.sol\":1934:1961  redeemableEther[msg.sender] */\n      0xffffffffffffffffffffffffffffffffffffffff\n      and\n      0xffffffffffffffffffffffffffffffffffffffff\n      and\n      dup2\n      mstore\n      0x20\n      add\n      swap1\n      dup2\n      mstore\n      0x20\n      add\n      0x00\n      keccak256\n      0x00\n        /* \"checkpointGame.sol\":1934:1981  redeemableEther[msg.sender] += mileStoneReward3 */\n      dup3\n      dup3\n      sload\n      tag_66\n      swap2\n      swap1\n      tag_58\n      jump\t// in\n    tag_66:\n      swap3\n      pop\n      pop\n      dup2\n      swap1\n      sstore\n      pop\n        /* \"checkpointGame.sol\":1879:1993  if (currentBalance == payoutMileStone3) {... */\n    tag_65:\n        /* \"checkpointGame.sol\":1759:1993  if (currentBalance == payoutMileStone2) {... */\n    tag_64:\n        /* \"checkpointGame.sol\":1639:1993  if (currentBalance == payoutMileStone1) {... */\n    tag_61:\n        /* \"checkpointGame.sol\":2068:2077  msg.value */\n      callvalue\n        /* \"checkpointGame.sol\":2050:2064  depositedEther */\n      0x06\n      0x00\n        /* \"checkpointGame.sol\":2050:2077  depositedEther += msg.value */\n      dup3\n      dup3\n      sload\n      tag_67\n      swap2\n      swap1\n      tag_58\n      jump\t// in\n    tag_67:\n      swap3\n      pop\n      pop\n      dup2\n      swap1\n      sstore\n      pop\n        /* \"checkpointGame.sol\":2144:2154  msg.sender */\n      caller\n        /* \"checkpointGame.sol\":2133:2166  GamePlayed(msg.sender, msg.value) */\n      0xffffffffffffffffffffffffffffffffffffffff\n      and\n      0x5cf252cfe7d6524b0fd4e37008a2aa681dd2af06b44df112e00da3835515a311\n        /* \"checkpointGame.sol\":2156:2165  msg.value */\n      callvalue\n        /* \"checkpointGame.sol\":2133:2166  GamePlayed(msg.sender, msg.value) */\n      mload(0x40)\n      tag_68\n      swap2\n      swap1\n      tag_17\n      jump\t// in\n    tag_68:\n      mload(0x40)\n      dup1\n      swap2\n      sub\n      swap1\n      log2\n        /* \"checkpointGame.sol\":1266:2174  {... */\n      pop\n        /* \"checkpointGame.sol\":1235:2174  function play() public payable {... */\n      jump\t// out\n        /* \"checkpointGame.sol\":2328:2943  function claimReward() public {... */\n    tag_48:\n        /* \"checkpointGame.sol\":2451:2467  payoutMileStone3 */\n      sload(0x04)\n        /* \"checkpointGame.sol\":2433:2447  depositedEther */\n      sload(0x06)\n        /* \"checkpointGame.sol\":2433:2467  depositedEther >= payoutMileStone3 */\n      lt\n      iszero\n        /* \"checkpointGame.sol\":2425:2500  require(depositedEther >= payoutMileStone3, \"The game is not complete yet\") */\n      tag_70\n      jumpi\n      mload(0x40)\n      0x08c379a000000000000000000000000000000000000000000000000000000000\n      dup2\n      mstore\n      0x04\n      add\n      tag_71\n      swap1\n      tag_72\n      jump\t// in\n    tag_71:\n      mload(0x40)\n      dup1\n      swap2\n      sub\n      swap1\n      revert\n    tag_70:\n        /* \"checkpointGame.sol\":2603:2604  0 */\n      0x00\n        /* \"checkpointGame.sol\":2573:2588  redeemableEther */\n      0x07\n        /* \"checkpointGame.sol\":2573:2600  redeemableEther[msg.sender] */\n      0x00\n        /* \"checkpointGame.sol\":2589:2599  msg.sender */\n      caller\n        /* \"checkpointGame.sol\":2573:2600  redeemableEther[msg.sender] */\n      0xffffffffffffffffffffffffffffffffffffffff\n      and\n      0xffffffffffffffffffffffffffffffffffffffff\n      and\n      dup2\n      mstore\n      0x20\n      add\n      swap1\n      dup2\n      mstore\n      0x20\n      add\n      0x00\n      keccak256\n      sload\n        /* \"checkpointGame.sol\":2573:2604  redeemableEther[msg.sender] > 0 */\n      gt\n        /* \"checkpointGame.sol\":2565:2627  require(redeemableEther[msg.sender] > 0, \"No reward to claim\") */\n      tag_73\n      jumpi\n      mload(0x40)\n      0x08c379a000000000000000000000000000000000000000000000000000000000\n      dup2\n      mstore\n      0x04\n      add\n      tag_74\n      swap1\n      tag_75\n      jump\t// in\n    tag_74:\n      mload(0x40)\n      dup1\n      swap2\n      sub\n      swap1\n      revert\n    tag_73:\n        /* \"checkpointGame.sol\":2686:2708  uint256 transferAmount */\n      0x00\n        /* \"checkpointGame.sol\":2711:2726  redeemableEther */\n      0x07\n        /* \"checkpointGame.sol\":2711:2738  redeemableEther[msg.sender] */\n      0x00\n        /* \"checkpointGame.sol\":2727:2737  msg.sender */\n      caller\n        /* \"checkpointGame.sol\":2711:2738  redeemableEther[msg.sender] */\n      0xffffffffffffffffffffffffffffffffffffffff\n      and\n      0xffffffffffffffffffffffffffffffffffffffff\n      and\n      dup2\n      mstore\n      0x20\n      add\n      swap1\n      dup2\n      mstore\n      0x20\n      add\n      0x00\n      keccak256\n      sload\n        /* \"checkpointGame.sol\":2686:2738  uint256 transferAmount = redeemableEther[msg.sender] */\n      swap1\n      pop\n        /* \"checkpointGame.sol\":2779:2780  0 */\n      0x00\n        /* \"checkpointGame.sol\":2749:2764  redeemableEther */\n      0x07\n        /* \"checkpointGame.sol\":2749:2776  redeemableEther[msg.sender] */\n      0x00\n        /* \"checkpointGame.sol\":2765:2775  msg.sender */\n      caller\n        /* \"checkpointGame.sol\":2749:2776  redeemableEther[msg.sender] */\n      0xffffffffffffffffffffffffffffffffffffffff\n      and\n      0xffffffffffffffffffffffffffffffffffffffff\n      and\n      dup2\n      mstore\n      0x20\n      add\n      swap1\n      dup2\n      mstore\n      0x20\n      add\n      0x00\n      keccak256\n        /* \"checkpointGame.sol\":2749:2780  redeemableEther[msg.sender] = 0 */\n      dup2\n      swap1\n      sstore\n      pop\n        /* \"checkpointGame.sol\":2799:2809  msg.sender */\n      caller\n        /* \"checkpointGame.sol\":2791:2819  payable(msg.sender).transfer */\n      0xffffffffffffffffffffffffffffffffffffffff\n      and\n        /* \"checkpointGame.sol\":2791:2835  payable(msg.sender).transfer(transferAmount) */\n      0x08fc\n        /* \"checkpointGame.sol\":2820:2834  transferAmount */\n      dup3\n        /* \"checkpointGame.sol\":2791:2835  payable(msg.sender).transfer(transferAmount) */\n      swap1\n      dup2\n      iszero\n      mul\n      swap1\n      mload(0x40)\n      0x00\n      mload(0x40)\n      dup1\n      dup4\n      sub\n      dup2\n      dup6\n      dup9\n      dup9\n      call\n      swap4\n      pop\n      pop\n      pop\n      pop\n      iszero\n      dup1\n      iszero\n      tag_77\n      jumpi\n      returndatasize\n      0x00\n      dup1\n      returndatacopy\n      revert(0x00, returndatasize)\n    tag_77:\n      pop\n        /* \"checkpointGame.sol\":2908:2918  msg.sender */\n      caller\n        /* \"checkpointGame.sol\":2894:2935  RewardClaimed(msg.sender, transferAmount) */\n      0xffffffffffffffffffffffffffffffffffffffff\n      and\n      0x106f923f993c2149d49b4255ff723acafa1f2d94393f561d3eda32ae348f7241\n        /* \"checkpointGame.sol\":2920:2934  transferAmount */\n      dup3\n        /* \"checkpointGame.sol\":2894:2935  RewardClaimed(msg.sender, transferAmount) */\n      mload(0x40)\n      tag_78\n      swap2\n      swap1\n      tag_17\n      jump\t// in\n    tag_78:\n      mload(0x40)\n      dup1\n      swap2\n      sub\n      swap1\n      log2\n        /* \"checkpointGame.sol\":2358:2943  {... */\n      pop\n        /* \"checkpointGame.sol\":2328:2943  function claimReward() public {... */\n      jump\t// out\n        /* \"checkpointGame.sol\":323:364  uint256 public mileStoneReward1 = 2 ether */\n    tag_51:\n      sload(0x01)\n      dup2\n      jump\t// out\n        /* \"#utility.yul\":7:84   */\n    tag_79:\n        /* \"#utility.yul\":44:51   */\n      0x00\n        /* \"#utility.yul\":73:78   */\n      dup2\n        /* \"#utility.yul\":62:78   */\n      swap1\n      pop\n        /* \"#utility.yul\":7:84   */\n      swap2\n      swap1\n      pop\n      jump\t// out\n        /* \"#utility.yul\":90:208   */\n    tag_80:\n        /* \"#utility.yul\":177:201   */\n      tag_99\n        /* \"#utility.yul\":195:200   */\n      dup2\n        /* \"#utility.yul\":177:201   */\n      tag_79\n      jump\t// in\n    tag_99:\n        /* \"#utility.yul\":172:175   */\n      dup3\n        /* \"#utility.yul\":165:202   */\n      mstore\n        /* \"#utility.yul\":90:208   */\n      pop\n      pop\n      jump\t// out\n        /* \"#utility.yul\":214:436   */\n    tag_17:\n        /* \"#utility.yul\":307:311   */\n      0x00\n        /* \"#utility.yul\":345:347   */\n      0x20\n        /* \"#utility.yul\":334:343   */\n      dup3\n        /* \"#utility.yul\":330:348   */\n      add\n        /* \"#utility.yul\":322:348   */\n      swap1\n      pop\n        /* \"#utility.yul\":358:429   */\n      tag_101\n        /* \"#utility.yul\":426:427   */\n      0x00\n        /* \"#utility.yul\":415:424   */\n      dup4\n        /* \"#utility.yul\":411:428   */\n      add\n        /* \"#utility.yul\":402:408   */\n      dup5\n        /* \"#utility.yul\":358:429   */\n      tag_80\n      jump\t// in\n    tag_101:\n        /* \"#utility.yul\":214:436   */\n      swap3\n      swap2\n      pop\n      pop\n      jump\t// out\n        /* \"#utility.yul\":523:640   */\n    tag_82:\n        /* \"#utility.yul\":632:633   */\n      0x00\n        /* \"#utility.yul\":629:630   */\n      dup1\n        /* \"#utility.yul\":622:634   */\n      revert\n        /* \"#utility.yul\":769:895   */\n    tag_84:\n        /* \"#utility.yul\":806:813   */\n      0x00\n        /* \"#utility.yul\":846:888   */\n      0xffffffffffffffffffffffffffffffffffffffff\n        /* \"#utility.yul\":839:844   */\n      dup3\n        /* \"#utility.yul\":835:889   */\n      and\n        /* \"#utility.yul\":824:889   */\n      swap1\n      pop\n        /* \"#utility.yul\":769:895   */\n      swap2\n      swap1\n      pop\n      jump\t// out\n        /* \"#utility.yul\":901:997   */\n    tag_85:\n        /* \"#utility.yul\":938:945   */\n      0x00\n        /* \"#utility.yul\":967:991   */\n      tag_107\n        /* \"#utility.yul\":985:990   */\n      dup3\n        /* \"#utility.yul\":967:991   */\n      tag_84\n      jump\t// in\n    tag_107:\n        /* \"#utility.yul\":956:991   */\n      swap1\n      pop\n        /* \"#utility.yul\":901:997   */\n      swap2\n      swap1\n      pop\n      jump\t// out\n        /* \"#utility.yul\":1003:1125   */\n    tag_86:\n        /* \"#utility.yul\":1076:1100   */\n      tag_109\n        /* \"#utility.yul\":1094:1099   */\n      dup2\n        /* \"#utility.yul\":1076:1100   */\n      tag_85\n      jump\t// in\n    tag_109:\n        /* \"#utility.yul\":1069:1074   */\n      dup2\n        /* \"#utility.yul\":1066:1101   */\n      eq\n        /* \"#utility.yul\":1056:1119   */\n      tag_110\n      jumpi\n        /* \"#utility.yul\":1115:1116   */\n      0x00\n        /* \"#utility.yul\":1112:1113   */\n      dup1\n        /* \"#utility.yul\":1105:1117   */\n      revert\n        /* \"#utility.yul\":1056:1119   */\n    tag_110:\n        /* \"#utility.yul\":1003:1125   */\n      pop\n      jump\t// out\n        /* \"#utility.yul\":1131:1270   */\n    tag_87:\n        /* \"#utility.yul\":1177:1182   */\n      0x00\n        /* \"#utility.yul\":1215:1221   */\n      dup2\n        /* \"#utility.yul\":1202:1222   */\n      calldataload\n        /* \"#utility.yul\":1193:1222   */\n      swap1\n      pop\n        /* \"#utility.yul\":1231:1264   */\n      tag_112\n        /* \"#utility.yul\":1258:1263   */\n      dup2\n        /* \"#utility.yul\":1231:1264   */\n      tag_86\n      jump\t// in\n    tag_112:\n        /* \"#utility.yul\":1131:1270   */\n      swap3\n      swap2\n      pop\n      pop\n      jump\t// out\n        /* \"#utility.yul\":1276:1605   */\n    tag_25:\n        /* \"#utility.yul\":1335:1341   */\n      0x00\n        /* \"#utility.yul\":1384:1386   */\n      0x20\n        /* \"#utility.yul\":1372:1381   */\n      dup3\n        /* \"#utility.yul\":1363:1370   */\n      dup5\n        /* \"#utility.yul\":1359:1382   */\n      sub\n        /* \"#utility.yul\":1355:1387   */\n      slt\n        /* \"#utility.yul\":1352:1471   */\n      iszero\n      tag_114\n      jumpi\n        /* \"#utility.yul\":1390:1469   */\n      tag_115\n      tag_82\n      jump\t// in\n    tag_115:\n        /* \"#utility.yul\":1352:1471   */\n    tag_114:\n        /* \"#utility.yul\":1510:1511   */\n      0x00\n        /* \"#utility.yul\":1535:1588   */\n      tag_116\n        /* \"#utility.yul\":1580:1587   */\n      dup5\n        /* \"#utility.yul\":1571:1577   */\n      dup3\n        /* \"#utility.yul\":1560:1569   */\n      dup6\n        /* \"#utility.yul\":1556:1578   */\n      add\n        /* \"#utility.yul\":1535:1588   */\n      tag_87\n      jump\t// in\n    tag_116:\n        /* \"#utility.yul\":1525:1588   */\n      swap2\n      pop\n        /* \"#utility.yul\":1481:1598   */\n      pop\n        /* \"#utility.yul\":1276:1605   */\n      swap3\n      swap2\n      pop\n      pop\n      jump\t// out\n        /* \"#utility.yul\":1611:1780   */\n    tag_88:\n        /* \"#utility.yul\":1695:1706   */\n      0x00\n        /* \"#utility.yul\":1729:1735   */\n      dup3\n        /* \"#utility.yul\":1724:1727   */\n      dup3\n        /* \"#utility.yul\":1717:1736   */\n      mstore\n        /* \"#utility.yul\":1769:1773   */\n      0x20\n        /* \"#utility.yul\":1764:1767   */\n      dup3\n        /* \"#utility.yul\":1760:1774   */\n      add\n        /* \"#utility.yul\":1745:1774   */\n      swap1\n      pop\n        /* \"#utility.yul\":1611:1780   */\n      swap3\n      swap2\n      pop\n      pop\n      jump\t// out\n        /* \"#utility.yul\":1786:2012   */\n    tag_89:\n        /* \"#utility.yul\":1926:1960   */\n      0x596f75206d7573742073656e642065786163746c7920302e3520657468657220\n        /* \"#utility.yul\":1922:1923   */\n      0x00\n        /* \"#utility.yul\":1914:1920   */\n      dup3\n        /* \"#utility.yul\":1910:1924   */\n      add\n        /* \"#utility.yul\":1903:1961   */\n      mstore\n        /* \"#utility.yul\":1995:2004   */\n      0x746f20706c617900000000000000000000000000000000000000000000000000\n        /* \"#utility.yul\":1990:1992   */\n      0x20\n        /* \"#utility.yul\":1982:1988   */\n      dup3\n        /* \"#utility.yul\":1978:1993   */\n      add\n        /* \"#utility.yul\":1971:2005   */\n      mstore\n        /* \"#utility.yul\":1786:2012   */\n      pop\n      jump\t// out\n        /* \"#utility.yul\":2018:2384   */\n    tag_90:\n        /* \"#utility.yul\":2160:2163   */\n      0x00\n        /* \"#utility.yul\":2181:2248   */\n      tag_120\n        /* \"#utility.yul\":2245:2247   */\n      0x27\n        /* \"#utility.yul\":2240:2243   */\n      dup4\n        /* \"#utility.yul\":2181:2248   */\n      tag_88\n      jump\t// in\n    tag_120:\n        /* \"#utility.yul\":2174:2248   */\n      swap2\n      pop\n        /* \"#utility.yul\":2257:2350   */\n      tag_121\n        /* \"#utility.yul\":2346:2349   */\n      dup3\n        /* \"#utility.yul\":2257:2350   */\n      tag_89\n      jump\t// in\n    tag_121:\n        /* \"#utility.yul\":2375:2377   */\n      0x40\n        /* \"#utility.yul\":2370:2373   */\n      dup3\n        /* \"#utility.yul\":2366:2378   */\n      add\n        /* \"#utility.yul\":2359:2378   */\n      swap1\n      pop\n        /* \"#utility.yul\":2018:2384   */\n      swap2\n      swap1\n      pop\n      jump\t// out\n        /* \"#utility.yul\":2390:2809   */\n    tag_56:\n        /* \"#utility.yul\":2556:2560   */\n      0x00\n        /* \"#utility.yul\":2594:2596   */\n      0x20\n        /* \"#utility.yul\":2583:2592   */\n      dup3\n        /* \"#utility.yul\":2579:2597   */\n      add\n        /* \"#utility.yul\":2571:2597   */\n      swap1\n      pop\n        /* \"#utility.yul\":2643:2652   */\n      dup2\n        /* \"#utility.yul\":2637:2641   */\n      dup2\n        /* \"#utility.yul\":2633:2653   */\n      sub\n        /* \"#utility.yul\":2629:2630   */\n      0x00\n        /* \"#utility.yul\":2618:2627   */\n      dup4\n        /* \"#utility.yul\":2614:2631   */\n      add\n        /* \"#utility.yul\":2607:2654   */\n      mstore\n        /* \"#utility.yul\":2671:2802   */\n      tag_123\n        /* \"#utility.yul\":2797:2801   */\n      dup2\n        /* \"#utility.yul\":2671:2802   */\n      tag_90\n      jump\t// in\n    tag_123:\n        /* \"#utility.yul\":2663:2802   */\n      swap1\n      pop\n        /* \"#utility.yul\":2390:2809   */\n      swap2\n      swap1\n      pop\n      jump\t// out\n        /* \"#utility.yul\":2815:2995   */\n    tag_91:\n        /* \"#utility.yul\":2863:2940   */\n      0x4e487b7100000000000000000000000000000000000000000000000000000000\n        /* \"#utility.yul\":2860:2861   */\n      0x00\n        /* \"#utility.yul\":2853:2941   */\n      mstore\n        /* \"#utility.yul\":2960:2964   */\n      0x11\n        /* \"#utility.yul\":2957:2958   */\n      0x04\n        /* \"#utility.yul\":2950:2965   */\n      mstore\n        /* \"#utility.yul\":2984:2988   */\n      0x24\n        /* \"#utility.yul\":2981:2982   */\n      0x00\n        /* \"#utility.yul\":2974:2989   */\n      revert\n        /* \"#utility.yul\":3001:3306   */\n    tag_58:\n        /* \"#utility.yul\":3041:3044   */\n      0x00\n        /* \"#utility.yul\":3060:3080   */\n      tag_126\n        /* \"#utility.yul\":3078:3079   */\n      dup3\n        /* \"#utility.yul\":3060:3080   */\n      tag_79\n      jump\t// in\n    tag_126:\n        /* \"#utility.yul\":3055:3080   */\n      swap2\n      pop\n        /* \"#utility.yul\":3094:3114   */\n      tag_127\n        /* \"#utility.yul\":3112:3113   */\n      dup4\n        /* \"#utility.yul\":3094:3114   */\n      tag_79\n      jump\t// in\n    tag_127:\n        /* \"#utility.yul\":3089:3114   */\n      swap3\n      pop\n        /* \"#utility.yul\":3248:3249   */\n      dup3\n        /* \"#utility.yul\":3180:3246   */\n      0xffffffffffffffffffffffffffffffffffffffffffffffffffffffffffffffff\n        /* \"#utility.yul\":3176:3250   */\n      sub\n        /* \"#utility.yul\":3173:3174   */\n      dup3\n        /* \"#utility.yul\":3170:3251   */\n      gt\n        /* \"#utility.yul\":3167:3274   */\n      iszero\n      tag_128\n      jumpi\n        /* \"#utility.yul\":3254:3272   */\n      tag_129\n      tag_91\n      jump\t// in\n    tag_129:\n        /* \"#utility.yul\":3167:3274   */\n    tag_128:\n        /* \"#utility.yul\":3298:3299   */\n      dup3\n        /* \"#utility.yul\":3295:3296   */\n      dup3\n        /* \"#utility.yul\":3291:3300   */\n      add\n        /* \"#utility.yul\":3284:3300   */\n      swap1\n      pop\n        /* \"#utility.yul\":3001:3306   */\n      swap3\n      swap2\n      pop\n      pop\n      jump\t// out\n        /* \"#utility.yul\":3312:3490   */\n    tag_92:\n        /* \"#utility.yul\":3452:3482   */\n      0x5468652067616d65206973206e6f7420636f6d706c6574652079657400000000\n        /* \"#utility.yul\":3448:3449   */\n      0x00\n        /* \"#utility.yul\":3440:3446   */\n      dup3\n        /* \"#utility.yul\":3436:3450   */\n      add\n        /* \"#utility.yul\":3429:3483   */\n      mstore\n        /* \"#utility.yul\":3312:3490   */\n      pop\n      jump\t// out\n        /* \"#utility.yul\":3496:3862   */\n    tag_93:\n        /* \"#utility.yul\":3638:3641   */\n      0x00\n        /* \"#utility.yul\":3659:3726   */\n      tag_132\n        /* \"#utility.yul\":3723:3725   */\n      0x1c\n        /* \"#utility.yul\":3718:3721   */\n      dup4\n        /* \"#utility.yul\":3659:3726   */\n      tag_88\n      jump\t// in\n    tag_132:\n        /* \"#utility.yul\":3652:3726   */\n      swap2\n      pop\n        /* \"#utility.yul\":3735:3828   */\n      tag_133\n        /* \"#utility.yul\":3824:3827   */\n      dup3\n        /* \"#utility.yul\":3735:3828   */\n      tag_92\n      jump\t// in\n    tag_133:\n        /* \"#utility.yul\":3853:3855   */\n      0x20\n        /* \"#utility.yul\":3848:3851   */\n      dup3\n        /* \"#utility.yul\":3844:3856   */\n      add\n        /* \"#utility.yul\":3837:3856   */\n      swap1\n      pop\n        /* \"#utility.yul\":3496:3862   */\n      swap2\n      swap1\n      pop\n      jump\t// out\n        /* \"#utility.yul\":3868:4287   */\n    tag_72:\n        /* \"#utility.yul\":4034:4038   */\n      0x00\n        /* \"#utility.yul\":4072:4074   */\n      0x20\n        /* \"#utility.yul\":4061:4070   */\n      dup3\n        /* \"#utility.yul\":4057:4075   */\n      add\n        /* \"#utility.yul\":4049:4075   */\n      swap1\n      pop\n        /* \"#utility.yul\":4121:4130   */\n      dup2\n        /* \"#utility.yul\":4115:4119   */\n      dup2\n        /* \"#utility.yul\":4111:4131   */\n      sub\n        /* \"#utility.yul\":4107:4108   */\n      0x00\n        /* \"#utility.yul\":4096:4105   */\n      dup4\n        /* \"#utility.yul\":4092:4109   */\n      add\n        /* \"#utility.yul\":4085:4132   */\n      mstore\n        /* \"#utility.yul\":4149:4280   */\n      tag_135\n        /* \"#utility.yul\":4275:4279   */\n      dup2\n        /* \"#utility.yul\":4149:4280   */\n      tag_93\n      jump\t// in\n    tag_135:\n        /* \"#utility.yul\":4141:4280   */\n      swap1\n      pop\n        /* \"#utility.yul\":3868:4287   */\n      swap2\n      swap1\n      pop\n      jump\t// out\n        /* \"#utility.yul\":4293:4461   */\n    tag_94:\n        /* \"#utility.yul\":4433:4453   */\n      0x4e6f2072657761726420746f20636c61696d0000000000000000000000000000\n        /* \"#utility.yul\":4429:4430   */\n      0x00\n        /* \"#utility.yul\":4421:4427   */\n      dup3\n        /* \"#utility.yul\":4417:4431   */\n      add\n        /* \"#utility.yul\":4410:4454   */\n      mstore\n        /* \"#utility.yul\":4293:4461   */\n      pop\n      jump\t// out\n        /* \"#utility.yul\":4467:4833   */\n    tag_95:\n        /* \"#utility.yul\":4609:4612   */\n      0x00\n        /* \"#utility.yul\":4630:4697   */\n      tag_138\n        /* \"#utility.yul\":4694:4696   */\n      0x12\n        /* \"#utility.yul\":4689:4692   */\n      dup4\n        /* \"#utility.yul\":4630:4697   */\n      tag_88\n      jump\t// in\n    tag_138:\n        /* \"#utility.yul\":4623:4697   */\n      swap2\n      pop\n        /* \"#utility.yul\":4706:4799   */\n      tag_139\n        /* \"#utility.yul\":4795:4798   */\n      dup3\n        /* \"#utility.yul\":4706:4799   */\n      tag_94\n      jump\t// in\n    tag_139:\n        /* \"#utility.yul\":4824:4826   */\n      0x20\n        /* \"#utility.yul\":4819:4822   */\n      dup3\n        /* \"#utility.yul\":4815:4827   */\n      add\n        /* \"#utility.yul\":4808:4827   */\n      swap1\n      pop\n        /* \"#utility.yul\":4467:4833   */\n      swap2\n      swap1\n      pop\n      jump\t// out\n        /* \"#utility.yul\":4839:5258   */\n    tag_75:\n        /* \"#utility.yul\":5005:5009   */\n      0x00\n        /* \"#utility.yul\":5043:5045   */\n      0x20\n        /* \"#utility.yul\":5032:5041   */\n      dup3\n        /* \"#utility.yul\":5028:5046   */\n      add\n        /* \"#utility.yul\":5020:5046   */\n      swap1\n      pop\n        /* \"#utility.yul\":5092:5101   */\n      dup2\n        /* \"#utility.yul\":5086:5090   */\n      dup2\n        /* \"#utility.yul\":5082:5102   */\n      sub\n        /* \"#utility.yul\":5078:5079   */\n      0x00\n        /* \"#utility.yul\":5067:5076   */\n      dup4\n        /* \"#utility.yul\":5063:5080   */\n      add\n        /* \"#utility.yul\":5056:5103   */\n      mstore\n        /* \"#utility.yul\":5120:5251   */\n      tag_141\n        /* \"#utility.yul\":5246:5250   */\n      dup2\n        /* \"#utility.yul\":5120:5251   */\n      tag_95\n      jump\t// in\n    tag_141:\n        /* \"#utility.yul\":5112:5251   */\n      swap1\n      pop\n        /* \"#utility.yul\":4839:5258   */\n      swap2\n      swap1\n      pop\n      jump\t// out\n\n    auxdata: 0xa2646970667358221220fd7558cdc4bde113ade352c3d0a15ce4eedd7dfbd88ae9a108a3cc1506e994e364736f6c634300080d0033\n}\n",
				"bytecode": {
					"linkReferences": {},
					"object": "60806040526729a2241af62c0000600055671bc16d674ec80000600155674563918244f400006002556729a2241af62c0000600355678ac7230489e80000600455674563918244f4000060055534801561005857600080fd5b5061093d806100686000396000f3fe6080604052600436106100915760003560e01c806371bfa5b21161005957806371bfa5b21461017f5780638d103cde146101aa57806393e84cd9146101d5578063b88a802f146101df578063dae1edf4146101f657610091565b8063024d3a33146100965780630c598f43146100c15780631ae5fe88146100ec5780631c95cfc11461012957806333c2a9f814610154575b600080fd5b3480156100a257600080fd5b506100ab610221565b6040516100b8919061065c565b60405180910390f35b3480156100cd57600080fd5b506100d6610227565b6040516100e3919061065c565b60405180910390f35b3480156100f857600080fd5b50610113600480360381019061010e91906106da565b61022d565b604051610120919061065c565b60405180910390f35b34801561013557600080fd5b5061013e610245565b60405161014b919061065c565b60405180910390f35b34801561016057600080fd5b5061016961024b565b604051610176919061065c565b60405180910390f35b34801561018b57600080fd5b50610194610251565b6040516101a1919061065c565b60405180910390f35b3480156101b657600080fd5b506101bf610257565b6040516101cc919061065c565b60405180910390f35b6101dd61025d565b005b3480156101eb57600080fd5b506101f4610453565b005b34801561020257600080fd5b5061020b61063d565b604051610218919061065c565b60405180910390f35b60055481565b60035481565b60076020528060005260406000206000915090505481565b60025481565b60005481565b60045481565b60065481565b6706f05b59d3b2000034146102a7576040517f08c379a000000000000000000000000000000000000000000000000000000000815260040161029e9061078a565b60405180910390fd5b6000346006546102b791906107d9565b9050600054810361031f57600154600760003373ffffffffffffffffffffffffffffffffffffffff1673ffffffffffffffffffffffffffffffffffffffff168152602001908152602001600020600082825461031391906107d9565b925050819055506103e9565b600254810361038557600354600760003373ffffffffffffffffffffffffffffffffffffffff1673ffffffffffffffffffffffffffffffffffffffff168152602001908152602001600020600082825461037991906107d9565b925050819055506103e8565b60045481036103e757600554600760003373ffffffffffffffffffffffffffffffffffffffff1673ffffffffffffffffffffffffffffffffffffffff16815260200190815260200160002060008282546103df91906107d9565b925050819055505b5b5b34600660008282546103fb91906107d9565b925050819055503373ffffffffffffffffffffffffffffffffffffffff167f5cf252cfe7d6524b0fd4e37008a2aa681dd2af06b44df112e00da3835515a31134604051610448919061065c565b60405180910390a250565b600454600654101561049a576040517f08c379a00000000000000000000000000000000000000000000000000000000081526004016104919061087b565b60405180910390fd5b6000600760003373ffffffffffffffffffffffffffffffffffffffff1673ffffffffffffffffffffffffffffffffffffffff168152602001908152602001600020541161051c576040517f08c379a0000000000000000000000000000000000000000000000000000000008152600401610513906108e7565b60405180910390fd5b6000600760003373ffffffffffffffffffffffffffffffffffffffff1673ffffffffffffffffffffffffffffffffffffffff1681526020019081526020016000205490506000600760003373ffffffffffffffffffffffffffffffffffffffff1673ffffffffffffffffffffffffffffffffffffffff168152602001908152602001600020819055503373ffffffffffffffffffffffffffffffffffffffff166108fc829081150290604051600060405180830381858888f193505050501580156105eb573d6000803e3d6000fd5b503373ffffffffffffffffffffffffffffffffffffffff167f106f923f993c2149d49b4255ff723acafa1f2d94393f561d3eda32ae348f724182604051610632919061065c565b60405180910390a250565b60015481565b6000819050919050565b61065681610643565b82525050565b6000602082019050610671600083018461064d565b92915050565b600080fd5b600073ffffffffffffffffffffffffffffffffffffffff82169050919050565b60006106a78261067c565b9050919050565b6106b78161069c565b81146106c257600080fd5b50565b6000813590506106d4816106ae565b92915050565b6000602082840312156106f0576106ef610677565b5b60006106fe848285016106c5565b91505092915050565b600082825260208201905092915050565b7f596f75206d7573742073656e642065786163746c7920302e352065746865722060008201527f746f20706c617900000000000000000000000000000000000000000000000000602082015250565b6000610774602783610707565b915061077f82610718565b604082019050919050565b600060208201905081810360008301526107a381610767565b9050919050565b7f4e487b7100000000000000000000000000000000000000000000000000000000600052601160045260246000fd5b60006107e482610643565b91506107ef83610643565b9250827fffffffffffffffffffffffffffffffffffffffffffffffffffffffffffffffff03821115610824576108236107aa565b5b828201905092915050565b7f5468652067616d65206973206e6f7420636f6d706c6574652079657400000000600082015250565b6000610865601c83610707565b91506108708261082f565b602082019050919050565b6000602082019050818103600083015261089481610858565b9050919050565b7f4e6f2072657761726420746f20636c61696d0000000000000000000000000000600082015250565b60006108d1601283610707565b91506108dc8261089b565b602082019050919050565b60006020820190508181036000830152610900816108c4565b905091905056fea2646970667358221220fd7558cdc4bde113ade352c3d0a15ce4eedd7dfbd88ae9a108a3cc1506e994e364736f6c634300080d0033",
					"opcodes": "PUSH1 0x80 PUSH1 0x40 MSTORE PUSH8 0x29A2241AF62C0000 PUSH1 0x0 SSTORE PUSH8 0x1BC16D674EC80000 PUSH1 0x1 SSTORE PUSH8 0x4563918244F40000 PUSH1 0x2 SSTORE PUSH8 0x29A2241AF62C0000 PUSH1 0x3 SSTORE PUSH8 0x8AC7230489E80000 PUSH1 0x4 SSTORE PUSH8 0x4563918244F40000 PUSH1 0x5 SSTORE CALLVALUE DUP1 ISZERO PUSH2 0x58 JUMPI PUSH1 0x0 DUP1 REVERT JUMPDEST POP PUSH2 0x93D DUP1 PUSH2 0x68 PUSH1 0x0 CODECOPY PUSH1 0x0 RETURN INVALID PUSH1 0x80 PUSH1 0x40 MSTORE PUSH1 0x4 CALLDATASIZE LT PUSH2 0x91 JUMPI PUSH1 0x0 CALLDATALOAD PUSH1 0xE0 SHR DUP1 PUSH4 0x71BFA5B2 GT PUSH2 0x59 JUMPI DUP1 PUSH4 0x71BFA5B2 EQ PUSH2 0x17F JUMPI DUP1 PUSH4 0x8D103CDE EQ PUSH2 0x1AA JUMPI DUP1 PUSH4 0x93E84CD9 EQ PUSH2 0x1D5 JUMPI DUP1 PUSH4 0xB88A802F EQ PUSH2 0x1DF JUMPI DUP1 PUSH4 0xDAE1EDF4 EQ PUSH2 0x1F6 JUMPI PUSH2 0x91 JUMP JUMPDEST DUP1 PUSH4 0x24D3A33 EQ PUSH2 0x96 JUMPI DUP1 PUSH4 0xC598F43 EQ PUSH2 0xC1 JUMPI DUP1 PUSH4 0x1AE5FE88 EQ PUSH2 0xEC JUMPI DUP1 PUSH4 0x1C95CFC1 EQ PUSH2 0x129 JUMPI DUP1 PUSH4 0x33C2A9F8 EQ PUSH2 0x154 JUMPI JUMPDEST PUSH1 0x0 DUP1 REVERT JUMPDEST CALLVALUE DUP1 ISZERO PUSH2 0xA2 JUMPI PUSH1 0x0 DUP1 REVERT JUMPDEST POP PUSH2 0xAB PUSH2 0x221 JUMP JUMPDEST PUSH1 0x40 MLOAD PUSH2 0xB8 SWAP2 SWAP1 PUSH2 0x65C JUMP JUMPDEST PUSH1 0x40 MLOAD DUP1 SWAP2 SUB SWAP1 RETURN JUMPDEST CALLVALUE DUP1 ISZERO PUSH2 0xCD JUMPI PUSH1 0x0 DUP1 REVERT JUMPDEST POP PUSH2 0xD6 PUSH2 0x227 JUMP JUMPDEST PUSH1 0x40 MLOAD PUSH2 0xE3 SWAP2 SWAP1 PUSH2 0x65C JUMP JUMPDEST PUSH1 0x40 MLOAD DUP1 SWAP2 SUB SWAP1 RETURN JUMPDEST CALLVALUE DUP1 ISZERO PUSH2 0xF8 JUMPI PUSH1 0x0 DUP1 REVERT JUMPDEST POP PUSH2 0x113 PUSH1 0x4 DUP1 CALLDATASIZE SUB DUP2 ADD SWAP1 PUSH2 0x10E SWAP2 SWAP1 PUSH2 0x6DA JUMP JUMPDEST PUSH2 0x22D JUMP JUMPDEST PUSH1 0x40 MLOAD PUSH2 0x120 SWAP2 SWAP1 PUSH2 0x65C JUMP JUMPDEST PUSH1 0x40 MLOAD DUP1 SWAP2 SUB SWAP1 RETURN JUMPDEST CALLVALUE DUP1 ISZERO PUSH2 0x135 JUMPI PUSH1 0x0 DUP1 REVERT JUMPDEST POP PUSH2 0x13E PUSH2 0x245 JUMP JUMPDEST PUSH1 0x40 MLOAD PUSH2 0x14B SWAP2 SWAP1 PUSH2 0x65C JUMP JUMPDEST PUSH1 0x40 MLOAD DUP1 SWAP2 SUB SWAP1 RETURN JUMPDEST CALLVALUE DUP1 ISZERO PUSH2 0x160 JUMPI PUSH1 0x0 DUP1 REVERT JUMPDEST POP PUSH2 0x169 PUSH2 0x24B JUMP JUMPDEST PUSH1 0x40 MLOAD PUSH2 0x176 SWAP2 SWAP1 PUSH2 0x65C JUMP JUMPDEST PUSH1 0x40 MLOAD DUP1 SWAP2 SUB SWAP1 RETURN JUMPDEST CALLVALUE DUP1 ISZERO PUSH2 0x18B JUMPI PUSH1 0x0 DUP1 REVERT JUMPDEST POP PUSH2 0x194 PUSH2 0x251 JUMP JUMPDEST PUSH1 0x40 MLOAD PUSH2 0x1A1 SWAP2 SWAP1 PUSH2 0x65C JUMP JUMPDEST PUSH1 0x40 MLOAD DUP1 SWAP2 SUB SWAP1 RETURN JUMPDEST CALLVALUE DUP1 ISZERO PUSH2 0x1B6 JUMPI PUSH1 0x0 DUP1 REVERT JUMPDEST POP PUSH2 0x1BF PUSH2 0x257 JUMP JUMPDEST PUSH1 0x40 MLOAD PUSH2 0x1CC SWAP2 SWAP1 PUSH2 0x65C JUMP JUMPDEST PUSH1 0x40 MLOAD DUP1 SWAP2 SUB SWAP1 RETURN JUMPDEST PUSH2 0x1DD PUSH2 0x25D JUMP JUMPDEST STOP JUMPDEST CALLVALUE DUP1 ISZERO PUSH2 0x1EB JUMPI PUSH1 0x0 DUP1 REVERT JUMPDEST POP PUSH2 0x1F4 PUSH2 0x453 JUMP JUMPDEST STOP JUMPDEST CALLVALUE DUP1 ISZERO PUSH2 0x202 JUMPI PUSH1 0x0 DUP1 REVERT JUMPDEST POP PUSH2 0x20B PUSH2 0x63D JUMP JUMPDEST PUSH1 0x40 MLOAD PUSH2 0x218 SWAP2 SWAP1 PUSH2 0x65C JUMP JUMPDEST PUSH1 0x40 MLOAD DUP1 SWAP2 SUB SWAP1 RETURN JUMPDEST PUSH1 0x5 SLOAD DUP2 JUMP JUMPDEST PUSH1 0x3 SLOAD DUP2 JUMP JUMPDEST PUSH1 0x7 PUSH1 0x20 MSTORE DUP1 PUSH1 0x0 MSTORE PUSH1 0x40 PUSH1 0x0 KECCAK256 PUSH1 0x0 SWAP2 POP SWAP1 POP SLOAD DUP2 JUMP JUMPDEST PUSH1 0x2 SLOAD DUP2 JUMP JUMPDEST PUSH1 0x0 SLOAD DUP2 JUMP JUMPDEST PUSH1 0x4 SLOAD DUP2 JUMP JUMPDEST PUSH1 0x6 SLOAD DUP2 JUMP JUMPDEST PUSH8 0x6F05B59D3B20000 CALLVALUE EQ PUSH2 0x2A7 JUMPI PUSH1 0x40 MLOAD PUSH32 0x8C379A000000000000000000000000000000000000000000000000000000000 DUP2 MSTORE PUSH1 0x4 ADD PUSH2 0x29E SWAP1 PUSH2 0x78A JUMP JUMPDEST PUSH1 0x40 MLOAD DUP1 SWAP2 SUB SWAP1 REVERT JUMPDEST PUSH1 0x0 CALLVALUE PUSH1 0x6 SLOAD PUSH2 0x2B7 SWAP2 SWAP1 PUSH2 0x7D9 JUMP JUMPDEST SWAP1 POP PUSH1 0x0 SLOAD DUP2 SUB PUSH2 0x31F JUMPI PUSH1 0x1 SLOAD PUSH1 0x7 PUSH1 0x0 CALLER PUSH20 0xFFFFFFFFFFFFFFFFFFFFFFFFFFFFFFFFFFFFFFFF AND PUSH20 0xFFFFFFFFFFFFFFFFFFFFFFFFFFFFFFFFFFFFFFFF AND DUP2 MSTORE PUSH1 0x20 ADD SWAP1 DUP2 MSTORE PUSH1 0x20 ADD PUSH1 0x0 KECCAK256 PUSH1 0x0 DUP3 DUP3 SLOAD PUSH2 0x313 SWAP2 SWAP1 PUSH2 0x7D9 JUMP JUMPDEST SWAP3 POP POP DUP2 SWAP1 SSTORE POP PUSH2 0x3E9 JUMP JUMPDEST PUSH1 0x2 SLOAD DUP2 SUB PUSH2 0x385 JUMPI PUSH1 0x3 SLOAD PUSH1 0x7 PUSH1 0x0 CALLER PUSH20 0xFFFFFFFFFFFFFFFFFFFFFFFFFFFFFFFFFFFFFFFF AND PUSH20 0xFFFFFFFFFFFFFFFFFFFFFFFFFFFFFFFFFFFFFFFF AND DUP2 MSTORE PUSH1 0x20 ADD SWAP1 DUP2 MSTORE PUSH1 0x20 ADD PUSH1 0x0 KECCAK256 PUSH1 0x0 DUP3 DUP3 SLOAD PUSH2 0x379 SWAP2 SWAP1 PUSH2 0x7D9 JUMP JUMPDEST SWAP3 POP POP DUP2 SWAP1 SSTORE POP PUSH2 0x3E8 JUMP JUMPDEST PUSH1 0x4 SLOAD DUP2 SUB PUSH2 0x3E7 JUMPI PUSH1 0x5 SLOAD PUSH1 0x7 PUSH1 0x0 CALLER PUSH20 0xFFFFFFFFFFFFFFFFFFFFFFFFFFFFFFFFFFFFFFFF AND PUSH20 0xFFFFFFFFFFFFFFFFFFFFFFFFFFFFFFFFFFFFFFFF AND DUP2 MSTORE PUSH1 0x20 ADD SWAP1 DUP2 MSTORE PUSH1 0x20 ADD PUSH1 0x0 KECCAK256 PUSH1 0x0 DUP3 DUP3 SLOAD PUSH2 0x3DF SWAP2 SWAP1 PUSH2 0x7D9 JUMP JUMPDEST SWAP3 POP POP DUP2 SWAP1 SSTORE POP JUMPDEST JUMPDEST JUMPDEST CALLVALUE PUSH1 0x6 PUSH1 0x0 DUP3 DUP3 SLOAD PUSH2 0x3FB SWAP2 SWAP1 PUSH2 0x7D9 JUMP JUMPDEST SWAP3 POP POP DUP2 SWAP1 SSTORE POP CALLER PUSH20 0xFFFFFFFFFFFFFFFFFFFFFFFFFFFFFFFFFFFFFFFF AND PUSH32 0x5CF252CFE7D6524B0FD4E37008A2AA681DD2AF06B44DF112E00DA3835515A311 CALLVALUE PUSH1 0x40 MLOAD PUSH2 0x448 SWAP2 SWAP1 PUSH2 0x65C JUMP JUMPDEST PUSH1 0x40 MLOAD DUP1 SWAP2 SUB SWAP1 LOG2 POP JUMP JUMPDEST PUSH1 0x4 SLOAD PUSH1 0x6 SLOAD LT ISZERO PUSH2 0x49A JUMPI PUSH1 0x40 MLOAD PUSH32 0x8C379A000000000000000000000000000000000000000000000000000000000 DUP2 MSTORE PUSH1 0x4 ADD PUSH2 0x491 SWAP1 PUSH2 0x87B JUMP JUMPDEST PUSH1 0x40 MLOAD DUP1 SWAP2 SUB SWAP1 REVERT JUMPDEST PUSH1 0x0 PUSH1 0x7 PUSH1 0x0 CALLER PUSH20 0xFFFFFFFFFFFFFFFFFFFFFFFFFFFFFFFFFFFFFFFF AND PUSH20 0xFFFFFFFFFFFFFFFFFFFFFFFFFFFFFFFFFFFFFFFF AND DUP2 MSTORE PUSH1 0x20 ADD SWAP1 DUP2 MSTORE PUSH1 0x20 ADD PUSH1 0x0 KECCAK256 SLOAD GT PUSH2 0x51C JUMPI PUSH1 0x40 MLOAD PUSH32 0x8C379A000000000000000000000000000000000000000000000000000000000 DUP2 MSTORE PUSH1 0x4 ADD PUSH2 0x513 SWAP1 PUSH2 0x8E7 JUMP JUMPDEST PUSH1 0x40 MLOAD DUP1 SWAP2 SUB SWAP1 REVERT JUMPDEST PUSH1 0x0 PUSH1 0x7 PUSH1 0x0 CALLER PUSH20 0xFFFFFFFFFFFFFFFFFFFFFFFFFFFFFFFFFFFFFFFF AND PUSH20 0xFFFFFFFFFFFFFFFFFFFFFFFFFFFFFFFFFFFFFFFF AND DUP2 MSTORE PUSH1 0x20 ADD SWAP1 DUP2 MSTORE PUSH1 0x20 ADD PUSH1 0x0 KECCAK256 SLOAD SWAP1 POP PUSH1 0x0 PUSH1 0x7 PUSH1 0x0 CALLER PUSH20 0xFFFFFFFFFFFFFFFFFFFFFFFFFFFFFFFFFFFFFFFF AND PUSH20 0xFFFFFFFFFFFFFFFFFFFFFFFFFFFFFFFFFFFFFFFF AND DUP2 MSTORE PUSH1 0x20 ADD SWAP1 DUP2 MSTORE PUSH1 0x20 ADD PUSH1 0x0 KECCAK256 DUP2 SWAP1 SSTORE POP CALLER PUSH20 0xFFFFFFFFFFFFFFFFFFFFFFFFFFFFFFFFFFFFFFFF AND PUSH2 0x8FC DUP3 SWAP1 DUP2 ISZERO MUL SWAP1 PUSH1 0x40 MLOAD PUSH1 0x0 PUSH1 0x40 MLOAD DUP1 DUP4 SUB DUP2 DUP6 DUP9 DUP9 CALL SWAP4 POP POP POP POP ISZERO DUP1 ISZERO PUSH2 0x5EB JUMPI RETURNDATASIZE PUSH1 0x0 DUP1 RETURNDATACOPY RETURNDATASIZE PUSH1 0x0 REVERT JUMPDEST POP CALLER PUSH20 0xFFFFFFFFFFFFFFFFFFFFFFFFFFFFFFFFFFFFFFFF AND PUSH32 0x106F923F993C2149D49B4255FF723ACAFA1F2D94393F561D3EDA32AE348F7241 DUP3 PUSH1 0x40 MLOAD PUSH2 0x632 SWAP2 SWAP1 PUSH2 0x65C JUMP JUMPDEST PUSH1 0x40 MLOAD DUP1 SWAP2 SUB SWAP1 LOG2 POP JUMP JUMPDEST PUSH1 0x1 SLOAD DUP2 JUMP JUMPDEST PUSH1 0x0 DUP2 SWAP1 POP SWAP2 SWAP1 POP JUMP JUMPDEST PUSH2 0x656 DUP2 PUSH2 0x643 JUMP JUMPDEST DUP3 MSTORE POP POP JUMP JUMPDEST PUSH1 0x0 PUSH1 0x20 DUP3 ADD SWAP1 POP PUSH2 0x671 PUSH1 0x0 DUP4 ADD DUP5 PUSH2 0x64D JUMP JUMPDEST SWAP3 SWAP2 POP POP JUMP JUMPDEST PUSH1 0x0 DUP1 REVERT JUMPDEST PUSH1 0x0 PUSH20 0xFFFFFFFFFFFFFFFFFFFFFFFFFFFFFFFFFFFFFFFF DUP3 AND SWAP1 POP SWAP2 SWAP1 POP JUMP JUMPDEST PUSH1 0x0 PUSH2 0x6A7 DUP3 PUSH2 0x67C JUMP JUMPDEST SWAP1 POP SWAP2 SWAP1 POP JUMP JUMPDEST PUSH2 0x6B7 DUP2 PUSH2 0x69C JUMP JUMPDEST DUP2 EQ PUSH2 0x6C2 JUMPI PUSH1 0x0 DUP1 REVERT JUMPDEST POP JUMP JUMPDEST PUSH1 0x0 DUP2 CALLDATALOAD SWAP1 POP PUSH2 0x6D4 DUP2 PUSH2 0x6AE JUMP JUMPDEST SWAP3 SWAP2 POP POP JUMP JUMPDEST PUSH1 0x0 PUSH1 0x20 DUP3 DUP5 SUB SLT ISZERO PUSH2 0x6F0 JUMPI PUSH2 0x6EF PUSH2 0x677 JUMP JUMPDEST JUMPDEST PUSH1 0x0 PUSH2 0x6FE DUP5 DUP3 DUP6 ADD PUSH2 0x6C5 JUMP JUMPDEST SWAP2 POP POP SWAP3 SWAP2 POP POP JUMP JUMPDEST PUSH1 0x0 DUP3 DUP3 MSTORE PUSH1 0x20 DUP3 ADD SWAP1 POP SWAP3 SWAP2 POP POP JUMP JUMPDEST PUSH32 0x596F75206D7573742073656E642065786163746C7920302E3520657468657220 PUSH1 0x0 DUP3 ADD MSTORE PUSH32 0x746F20706C617900000000000000000000000000000000000000000000000000 PUSH1 0x20 DUP3 ADD MSTORE POP JUMP JUMPDEST PUSH1 0x0 PUSH2 0x774 PUSH1 0x27 DUP4 PUSH2 0x707 JUMP JUMPDEST SWAP2 POP PUSH2 0x77F DUP3 PUSH2 0x718 JUMP JUMPDEST PUSH1 0x40 DUP3 ADD SWAP1 POP SWAP2 SWAP1 POP JUMP JUMPDEST PUSH1 0x0 PUSH1 0x20 DUP3 ADD SWAP1 POP DUP2 DUP2 SUB PUSH1 0x0 DUP4 ADD MSTORE PUSH2 0x7A3 DUP2 PUSH2 0x767 JUMP JUMPDEST SWAP1 POP SWAP2 SWAP1 POP JUMP JUMPDEST PUSH32 0x4E487B7100000000000000000000000000000000000000000000000000000000 PUSH1 0x0 MSTORE PUSH1 0x11 PUSH1 0x4 MSTORE PUSH1 0x24 PUSH1 0x0 REVERT JUMPDEST PUSH1 0x0 PUSH2 0x7E4 DUP3 PUSH2 0x643 JUMP JUMPDEST SWAP2 POP PUSH2 0x7EF DUP4 PUSH2 0x643 JUMP JUMPDEST SWAP3 POP DUP3 PUSH32 0xFFFFFFFFFFFFFFFFFFFFFFFFFFFFFFFFFFFFFFFFFFFFFFFFFFFFFFFFFFFFFFFF SUB DUP3 GT ISZERO PUSH2 0x824 JUMPI PUSH2 0x823 PUSH2 0x7AA JUMP JUMPDEST JUMPDEST DUP3 DUP3 ADD SWAP1 POP SWAP3 SWAP2 POP POP JUMP JUMPDEST PUSH32 0x5468652067616D65206973206E6F7420636F6D706C6574652079657400000000 PUSH1 0x0 DUP3 ADD MSTORE POP JUMP JUMPDEST PUSH1 0x0 PUSH2 0x865 PUSH1 0x1C DUP4 PUSH2 0x707 JUMP JUMPDEST SWAP2 POP PUSH2 0x870 DUP3 PUSH2 0x82F JUMP JUMPDEST PUSH1 0x20 DUP3 ADD SWAP1 POP SWAP2 SWAP1 POP JUMP JUMPDEST PUSH1 0x0 PUSH1 0x20 DUP3 ADD SWAP1 POP DUP2 DUP2 SUB PUSH1 0x0 DUP4 ADD MSTORE PUSH2 0x894 DUP2 PUSH2 0x858 JUMP JUMPDEST SWAP1 POP SWAP2 SWAP1 POP JUMP JUMPDEST PUSH32 0x4E6F2072657761726420746F20636C61696D0000000000000000000000000000 PUSH1 0x0 DUP3 ADD MSTORE POP JUMP JUMPDEST PUSH1 0x0 PUSH2 0x8D1 PUSH1 0x12 DUP4 PUSH2 0x707 JUMP JUMPDEST SWAP2 POP PUSH2 0x8DC DUP3 PUSH2 0x89B JUMP JUMPDEST PUSH1 0x20 DUP3 ADD SWAP1 POP SWAP2 SWAP1 POP JUMP JUMPDEST PUSH1 0x0 PUSH1 0x20 DUP3 ADD SWAP1 POP DUP2 DUP2 SUB PUSH1 0x0 DUP4 ADD MSTORE PUSH2 0x900 DUP2 PUSH2 0x8C4 JUMP JUMPDEST SWAP1 POP SWAP2 SWAP1 POP JUMP INVALID LOG2 PUSH5 0x6970667358 0x22 SLT KECCAK256 REVERT PUSH22 0x58CDC4BDE113ADE352C3D0A15CE4EEDD7DFBD88AE9A1 ADDMOD LOG3 0xCC ISZERO MOD 0xE9 SWAP5 0xE3 PUSH5 0x736F6C6343 STOP ADDMOD 0xD STOP CALLER "
				},
				"gasEstimates": {
					"creation": {
						"codeDepositCost": "473000",
						"executionCost": "133141",
						"totalCost": "606141"
					},
					"external": {
						"claimReward()": "infinite",
						"depositedEther()": "2451",
						"mileStoneReward1()": "2517",
						"mileStoneReward2()": "2452",
						"mileStoneReward3()": "2430",
						"payoutMileStone1()": "2518",
						"payoutMileStone2()": "2496",
						"payoutMileStone3()": "2429",
						"play()": "infinite",
						"redeemableEther(address)": "2859"
					}
				},
				"methodIdentifiers": {
					"claimReward()": "b88a802f",
					"depositedEther()": "8d103cde",
					"mileStoneReward1()": "dae1edf4",
					"mileStoneReward2()": "0c598f43",
					"mileStoneReward3()": "024d3a33",
					"payoutMileStone1()": "33c2a9f8",
					"payoutMileStone2()": "1c95cfc1",
					"payoutMileStone3()": "71bfa5b2",
					"play()": "93e84cd9",
					"redeemableEther(address)": "1ae5fe88"
				}
			},
			"storageLayout": {
				"storage": [
					{
						"astId": 5,
						"contract": "checkpointGame.sol:CheckpointGame",
						"label": "payoutMileStone1",
						"offset": 0,
						"slot": "0",
						"type": "t_uint256"
					},
					{
						"astId": 8,
						"contract": "checkpointGame.sol:CheckpointGame",
						"label": "mileStoneReward1",
						"offset": 0,
						"slot": "1",
						"type": "t_uint256"
					},
					{
						"astId": 11,
						"contract": "checkpointGame.sol:CheckpointGame",
						"label": "payoutMileStone2",
						"offset": 0,
						"slot": "2",
						"type": "t_uint256"
					},
					{
						"astId": 14,
						"contract": "checkpointGame.sol:CheckpointGame",
						"label": "mileStoneReward2",
						"offset": 0,
						"slot": "3",
						"type": "t_uint256"
					},
					{
						"astId": 17,
						"contract": "checkpointGame.sol:CheckpointGame",
						"label": "payoutMileStone3",
						"offset": 0,
						"slot": "4",
						"type": "t_uint256"
					},
					{
						"astId": 20,
						"contract": "checkpointGame.sol:CheckpointGame",
						"label": "mileStoneReward3",
						"offset": 0,
						"slot": "5",
						"type": "t_uint256"
					},
					{
						"astId": 22,
						"contract": "checkpointGame.sol:CheckpointGame",
						"label": "depositedEther",
						"offset": 0,
						"slot": "6",
						"type": "t_uint256"
					},
					{
						"astId": 26,
						"contract": "checkpointGame.sol:CheckpointGame",
						"label": "redeemableEther",
						"offset": 0,
						"slot": "7",
						"type": "t_mapping(t_address,t_uint256)"
					}
				],
				"types": {
					"t_address": {
						"encoding": "inplace",
						"label": "address",
						"numberOfBytes": "20"
					},
					"t_mapping(t_address,t_uint256)": {
						"encoding": "mapping",
						"key": "t_address",
						"label": "mapping(address => uint256)",
						"numberOfBytes": "32",
						"value": "t_uint256"
					},
					"t_uint256": {
						"encoding": "inplace",
						"label": "uint256",
						"numberOfBytes": "32"
					}
				}
			},
			"userdoc": {
				"kind": "user",
				"methods": {},
				"version": 1
			}
		}
	}
}