{
	"pure.sol": {
		"Pure": {
			"abi": [
				{
					"inputs": [],
					"name": "getData",
					"outputs": [
						{
							"internalType": "uint256",
							"name": "",
							"type": "uint256"
						},
						{
							"internalType": "uint256",
							"name": "",
							"type": "uint256"
						}
					],
					"stateMutability": "pure",
					"type": "function"
				}
			],
			"devdoc": {
				"kind": "dev",
				"methods": {},
				"version": 1
			},
			"evm": {
				"assembly": "    /* \"pure.sol\":57:308  contract Pure {... */\n  mstore(0x40, 0x80)\n  callvalue\n  dup1\n  iszero\n  tag_1\n  jumpi\n  0x00\n  dup1\n  revert\ntag_1:\n  pop\n  dataSize(sub_0)\n  dup1\n  dataOffset(sub_0)\n  0x00\n  codecopy\n  0x00\n  return\nstop\n\nsub_0: assembly {\n        /* \"pure.sol\":57:308  contract Pure {... */\n      mstore(0x40, 0x80)\n      callvalue\n      dup1\n      iszero\n      tag_1\n      jumpi\n      0x00\n      dup1\n      revert\n    tag_1:\n      pop\n      jumpi(tag_2, lt(calldatasize, 0x04))\n      shr(0xe0, calldataload(0x00))\n      dup1\n      0x3bc5de30\n      eq\n      tag_3\n      jumpi\n    tag_2:\n      0x00\n      dup1\n      revert\n        /* \"pure.sol\":77:306  function getData() public pure returns (uint256, uint256) {... */\n    tag_3:\n      tag_4\n      tag_5\n      jump\t// in\n    tag_4:\n      mload(0x40)\n      tag_6\n      swap3\n      swap2\n      swap1\n      tag_7\n      jump\t// in\n    tag_6:\n      mload(0x40)\n      dup1\n      swap2\n      sub\n      swap1\n      return\n    tag_5:\n        /* \"pure.sol\":117:124  uint256 */\n      0x00\n        /* \"pure.sol\":126:133  uint256 */\n      dup1\n        /* \"pure.sol\":145:157  uint256 Num1 */\n      0x00\n        /* \"pure.sol\":160:162  20 */\n      0x14\n        /* \"pure.sol\":145:162  uint256 Num1 = 20 */\n      swap1\n      pop\n        /* \"pure.sol\":172:184  uint256 Num2 */\n      0x00\n        /* \"pure.sol\":187:189  10 */\n      0x0a\n        /* \"pure.sol\":172:189  uint256 Num2 = 10 */\n      swap1\n      pop\n        /* \"pure.sol\":200:215  uint256 product */\n      0x00\n        /* \"pure.sol\":225:229  Num2 */\n      dup2\n        /* \"pure.sol\":218:222  Num1 */\n      dup4\n        /* \"pure.sol\":218:229  Num1 * Num2 */\n      tag_9\n      swap2\n      swap1\n      tag_10\n      jump\t// in\n    tag_9:\n        /* \"pure.sol\":200:229  uint256 product = Num1 * Num2 */\n      swap1\n      pop\n        /* \"pure.sol\":239:252  uint256 total */\n      0x00\n        /* \"pure.sol\":262:266  Num2 */\n      dup3\n        /* \"pure.sol\":255:259  Num1 */\n      dup5\n        /* \"pure.sol\":255:266  Num1 + Num2 */\n      tag_11\n      swap2\n      swap1\n      tag_12\n      jump\t// in\n    tag_11:\n        /* \"pure.sol\":239:266  uint256 total = Num1 + Num2 */\n      swap1\n      pop\n        /* \"pure.sol\":284:291  product */\n      dup2\n        /* \"pure.sol\":293:298  total */\n      dup2\n        /* \"pure.sol\":276:299  return (product, total) */\n      swap6\n      pop\n      swap6\n      pop\n      pop\n      pop\n      pop\n      pop\n        /* \"pure.sol\":77:306  function getData() public pure returns (uint256, uint256) {... */\n      swap1\n      swap2\n      jump\t// out\n        /* \"#utility.yul\":7:84   */\n    tag_13:\n        /* \"#utility.yul\":44:51   */\n      0x00\n        /* \"#utility.yul\":73:78   */\n      dup2\n        /* \"#utility.yul\":62:78   */\n      swap1\n      pop\n        /* \"#utility.yul\":7:84   */\n      swap2\n      swap1\n      pop\n      jump\t// out\n        /* \"#utility.yul\":90:208   */\n    tag_14:\n        /* \"#utility.yul\":177:201   */\n      tag_19\n        /* \"#utility.yul\":195:200   */\n      dup2\n        /* \"#utility.yul\":177:201   */\n      tag_13\n      jump\t// in\n    tag_19:\n        /* \"#utility.yul\":172:175   */\n      dup3\n        /* \"#utility.yul\":165:202   */\n      mstore\n        /* \"#utility.yul\":90:208   */\n      pop\n      pop\n      jump\t// out\n        /* \"#utility.yul\":214:546   */\n    tag_7:\n        /* \"#utility.yul\":335:339   */\n      0x00\n        /* \"#utility.yul\":373:375   */\n      0x40\n        /* \"#utility.yul\":362:371   */\n      dup3\n        /* \"#utility.yul\":358:376   */\n      add\n        /* \"#utility.yul\":350:376   */\n      swap1\n      pop\n        /* \"#utility.yul\":386:457   */\n      tag_21\n        /* \"#utility.yul\":454:455   */\n      0x00\n        /* \"#utility.yul\":443:452   */\n      dup4\n        /* \"#utility.yul\":439:456   */\n      add\n        /* \"#utility.yul\":430:436   */\n      dup6\n        /* \"#utility.yul\":386:457   */\n      tag_14\n      jump\t// in\n    tag_21:\n        /* \"#utility.yul\":467:539   */\n      tag_22\n        /* \"#utility.yul\":535:537   */\n      0x20\n        /* \"#utility.yul\":524:533   */\n      dup4\n        /* \"#utility.yul\":520:538   */\n      add\n        /* \"#utility.yul\":511:517   */\n      dup5\n        /* \"#utility.yul\":467:539   */\n      tag_14\n      jump\t// in\n    tag_22:\n        /* \"#utility.yul\":214:546   */\n      swap4\n      swap3\n      pop\n      pop\n      pop\n      jump\t// out\n        /* \"#utility.yul\":552:732   */\n    tag_15:\n        /* \"#utility.yul\":600:677   */\n      0x4e487b7100000000000000000000000000000000000000000000000000000000\n        /* \"#utility.yul\":597:598   */\n      0x00\n        /* \"#utility.yul\":590:678   */\n      mstore\n        /* \"#utility.yul\":697:701   */\n      0x11\n        /* \"#utility.yul\":694:695   */\n      0x04\n        /* \"#utility.yul\":687:702   */\n      mstore\n        /* \"#utility.yul\":721:725   */\n      0x24\n        /* \"#utility.yul\":718:719   */\n      0x00\n        /* \"#utility.yul\":711:726   */\n      revert\n        /* \"#utility.yul\":738:1086   */\n    tag_10:\n        /* \"#utility.yul\":778:785   */\n      0x00\n        /* \"#utility.yul\":801:821   */\n      tag_25\n        /* \"#utility.yul\":819:820   */\n      dup3\n        /* \"#utility.yul\":801:821   */\n      tag_13\n      jump\t// in\n    tag_25:\n        /* \"#utility.yul\":796:821   */\n      swap2\n      pop\n        /* \"#utility.yul\":835:855   */\n      tag_26\n        /* \"#utility.yul\":853:854   */\n      dup4\n        /* \"#utility.yul\":835:855   */\n      tag_13\n      jump\t// in\n    tag_26:\n        /* \"#utility.yul\":830:855   */\n      swap3\n      pop\n        /* \"#utility.yul\":1023:1024   */\n      dup2\n        /* \"#utility.yul\":955:1021   */\n      0xffffffffffffffffffffffffffffffffffffffffffffffffffffffffffffffff\n        /* \"#utility.yul\":951:1025   */\n      div\n        /* \"#utility.yul\":948:949   */\n      dup4\n        /* \"#utility.yul\":945:1026   */\n      gt\n        /* \"#utility.yul\":940:941   */\n      dup3\n        /* \"#utility.yul\":933:942   */\n      iszero\n        /* \"#utility.yul\":926:943   */\n      iszero\n        /* \"#utility.yul\":922:1027   */\n      and\n        /* \"#utility.yul\":919:1050   */\n      iszero\n      tag_27\n      jumpi\n        /* \"#utility.yul\":1030:1048   */\n      tag_28\n      tag_15\n      jump\t// in\n    tag_28:\n        /* \"#utility.yul\":919:1050   */\n    tag_27:\n        /* \"#utility.yul\":1078:1079   */\n      dup3\n        /* \"#utility.yul\":1075:1076   */\n      dup3\n        /* \"#utility.yul\":1071:1080   */\n      mul\n        /* \"#utility.yul\":1060:1080   */\n      swap1\n      pop\n        /* \"#utility.yul\":738:1086   */\n      swap3\n      swap2\n      pop\n      pop\n      jump\t// out\n        /* \"#utility.yul\":1092:1397   */\n    tag_12:\n        /* \"#utility.yul\":1132:1135   */\n      0x00\n        /* \"#utility.yul\":1151:1171   */\n      tag_30\n        /* \"#utility.yul\":1169:1170   */\n      dup3\n        /* \"#utility.yul\":1151:1171   */\n      tag_13\n      jump\t// in\n    tag_30:\n        /* \"#utility.yul\":1146:1171   */\n      swap2\n      pop\n        /* \"#utility.yul\":1185:1205   */\n      tag_31\n        /* \"#utility.yul\":1203:1204   */\n      dup4\n        /* \"#utility.yul\":1185:1205   */\n      tag_13\n      jump\t// in\n    tag_31:\n        /* \"#utility.yul\":1180:1205   */\n      swap3\n      pop\n        /* \"#utility.yul\":1339:1340   */\n      dup3\n        /* \"#utility.yul\":1271:1337   */\n      0xffffffffffffffffffffffffffffffffffffffffffffffffffffffffffffffff\n        /* \"#utility.yul\":1267:1341   */\n      sub\n        /* \"#utility.yul\":1264:1265   */\n      dup3\n        /* \"#utility.yul\":1261:1342   */\n      gt\n        /* \"#utility.yul\":1258:1365   */\n      iszero\n      tag_32\n      jumpi\n        /* \"#utility.yul\":1345:1363   */\n      tag_33\n      tag_15\n      jump\t// in\n    tag_33:\n        /* \"#utility.yul\":1258:1365   */\n    tag_32:\n        /* \"#utility.yul\":1389:1390   */\n      dup3\n        /* \"#utility.yul\":1386:1387   */\n      dup3\n        /* \"#utility.yul\":1382:1391   */\n      add\n        /* \"#utility.yul\":1375:1391   */\n      swap1\n      pop\n        /* \"#utility.yul\":1092:1397   */\n      swap3\n      swap2\n      pop\n      pop\n      jump\t// out\n\n    auxdata: 0xa264697066735822122073742a961495f010a166306f55baa502dcc335f1d77a63549503ad4299fbd09f64736f6c634300080d0033\n}\n",
				"bytecode": {
					"linkReferences": {},
					"object": "608060405234801561001057600080fd5b506101e3806100206000396000f3fe608060405234801561001057600080fd5b506004361061002b5760003560e01c80633bc5de3014610030575b600080fd5b61003861004f565b6040516100469291906100a5565b60405180910390f35b6000806000601490506000600a90506000818361006c91906100fd565b90506000828461007c9190610157565b9050818195509550505050509091565b6000819050919050565b61009f8161008c565b82525050565b60006040820190506100ba6000830185610096565b6100c76020830184610096565b9392505050565b7f4e487b7100000000000000000000000000000000000000000000000000000000600052601160045260246000fd5b60006101088261008c565b91506101138361008c565b9250817fffffffffffffffffffffffffffffffffffffffffffffffffffffffffffffffff048311821515161561014c5761014b6100ce565b5b828202905092915050565b60006101628261008c565b915061016d8361008c565b9250827fffffffffffffffffffffffffffffffffffffffffffffffffffffffffffffffff038211156101a2576101a16100ce565b5b82820190509291505056fea264697066735822122073742a961495f010a166306f55baa502dcc335f1d77a63549503ad4299fbd09f64736f6c634300080d0033",
					"opcodes": "PUSH1 0x80 PUSH1 0x40 MSTORE CALLVALUE DUP1 ISZERO PUSH2 0x10 JUMPI PUSH1 0x0 DUP1 REVERT JUMPDEST POP PUSH2 0x1E3 DUP1 PUSH2 0x20 PUSH1 0x0 CODECOPY PUSH1 0x0 RETURN INVALID PUSH1 0x80 PUSH1 0x40 MSTORE CALLVALUE DUP1 ISZERO PUSH2 0x10 JUMPI PUSH1 0x0 DUP1 REVERT JUMPDEST POP PUSH1 0x4 CALLDATASIZE LT PUSH2 0x2B JUMPI PUSH1 0x0 CALLDATALOAD PUSH1 0xE0 SHR DUP1 PUSH4 0x3BC5DE30 EQ PUSH2 0x30 JUMPI JUMPDEST PUSH1 0x0 DUP1 REVERT JUMPDEST PUSH2 0x38 PUSH2 0x4F JUMP JUMPDEST PUSH1 0x40 MLOAD PUSH2 0x46 SWAP3 SWAP2 SWAP1 PUSH2 0xA5 JUMP JUMPDEST PUSH1 0x40 MLOAD DUP1 SWAP2 SUB SWAP1 RETURN JUMPDEST PUSH1 0x0 DUP1 PUSH1 0x0 PUSH1 0x14 SWAP1 POP PUSH1 0x0 PUSH1 0xA SWAP1 POP PUSH1 0x0 DUP2 DUP4 PUSH2 0x6C SWAP2 SWAP1 PUSH2 0xFD JUMP JUMPDEST SWAP1 POP PUSH1 0x0 DUP3 DUP5 PUSH2 0x7C SWAP2 SWAP1 PUSH2 0x157 JUMP JUMPDEST SWAP1 POP DUP2 DUP2 SWAP6 POP SWAP6 POP POP POP POP POP SWAP1 SWAP2 JUMP JUMPDEST PUSH1 0x0 DUP2 SWAP1 POP SWAP2 SWAP1 POP JUMP JUMPDEST PUSH2 0x9F DUP2 PUSH2 0x8C JUMP JUMPDEST DUP3 MSTORE POP POP JUMP JUMPDEST PUSH1 0x0 PUSH1 0x40 DUP3 ADD SWAP1 POP PUSH2 0xBA PUSH1 0x0 DUP4 ADD DUP6 PUSH2 0x96 JUMP JUMPDEST PUSH2 0xC7 PUSH1 0x20 DUP4 ADD DUP5 PUSH2 0x96 JUMP JUMPDEST SWAP4 SWAP3 POP POP POP JUMP JUMPDEST PUSH32 0x4E487B7100000000000000000000000000000000000000000000000000000000 PUSH1 0x0 MSTORE PUSH1 0x11 PUSH1 0x4 MSTORE PUSH1 0x24 PUSH1 0x0 REVERT JUMPDEST PUSH1 0x0 PUSH2 0x108 DUP3 PUSH2 0x8C JUMP JUMPDEST SWAP2 POP PUSH2 0x113 DUP4 PUSH2 0x8C JUMP JUMPDEST SWAP3 POP DUP2 PUSH32 0xFFFFFFFFFFFFFFFFFFFFFFFFFFFFFFFFFFFFFFFFFFFFFFFFFFFFFFFFFFFFFFFF DIV DUP4 GT DUP3 ISZERO ISZERO AND ISZERO PUSH2 0x14C JUMPI PUSH2 0x14B PUSH2 0xCE JUMP JUMPDEST JUMPDEST DUP3 DUP3 MUL SWAP1 POP SWAP3 SWAP2 POP POP JUMP JUMPDEST PUSH1 0x0 PUSH2 0x162 DUP3 PUSH2 0x8C JUMP JUMPDEST SWAP2 POP PUSH2 0x16D DUP4 PUSH2 0x8C JUMP JUMPDEST SWAP3 POP DUP3 PUSH32 0xFFFFFFFFFFFFFFFFFFFFFFFFFFFFFFFFFFFFFFFFFFFFFFFFFFFFFFFFFFFFFFFF SUB DUP3 GT ISZERO PUSH2 0x1A2 JUMPI PUSH2 0x1A1 PUSH2 0xCE JUMP JUMPDEST JUMPDEST DUP3 DUP3 ADD SWAP1 POP SWAP3 SWAP2 POP POP JUMP INVALID LOG2 PUSH5 0x6970667358 0x22 SLT KECCAK256 PUSH20 0x742A961495F010A166306F55BAA502DCC335F1D7 PUSH27 0x63549503AD4299FBD09F64736F6C634300080D0033000000000000 "
				},
				"gasEstimates": {
					"creation": {
						"codeDepositCost": "96600",
						"executionCost": "147",
						"totalCost": "96747"
					},
					"external": {
						"getData()": "infinite"
					}
				},
				"methodIdentifiers": {
					"getData()": "3bc5de30"
				}
			},
			"storageLayout": {
				"storage": [],
				"types": null
			},
			"userdoc": {
				"kind": "user",
				"methods": {},
				"version": 1
			}
		}
	}
}