{
	"project.sol": {
		"ChatApp": {
			"abi": [
				{
					"inputs": [
						{
							"internalType": "address",
							"name": "friend_key",
							"type": "address"
						},
						{
							"internalType": "string",
							"name": "name",
							"type": "string"
						}
					],
					"name": "addFriend",
					"outputs": [],
					"stateMutability": "nonpayable",
					"type": "function"
				},
				{
					"inputs": [
						{
							"internalType": "address",
							"name": "pubkey",
							"type": "address"
						}
					],
					"name": "checkUserExists",
					"outputs": [
						{
							"internalType": "bool",
							"name": "",
							"type": "bool"
						}
					],
					"stateMutability": "view",
					"type": "function"
				},
				{
					"inputs": [
						{
							"internalType": "string",
							"name": "name",
							"type": "string"
						}
					],
					"name": "createAccount",
					"outputs": [],
					"stateMutability": "nonpayable",
					"type": "function"
				},
				{
					"inputs": [],
					"name": "getMyFriendList",
					"outputs": [
						{
							"components": [
								{
									"internalType": "address",
									"name": "pubkey",
									"type": "address"
								},
								{
									"internalType": "string",
									"name": "name",
									"type": "string"
								}
							],
							"internalType": "struct ChatApp.friend[]",
							"name": "",
							"type": "tuple[]"
						}
					],
					"stateMutability": "view",
					"type": "function"
				},
				{
					"inputs": [
						{
							"internalType": "address",
							"name": "pubkey",
							"type": "address"
						}
					],
					"name": "getUsername",
					"outputs": [
						{
							"internalType": "string",
							"name": "",
							"type": "string"
						}
					],
					"stateMutability": "view",
					"type": "function"
				}
			],
			"devdoc": {
				"kind": "dev",
				"methods": {},
				"version": 1
			},
			"evm": {
				"assembly": "    /* \"project.sol\":88:3047  contract ChatApp {... */\n  mstore(0x40, 0x80)\n  callvalue\n  dup1\n  iszero\n  tag_1\n  jumpi\n  0x00\n  dup1\n  revert\ntag_1:\n  pop\n  dataSize(sub_0)\n  dup1\n  dataOffset(sub_0)\n  0x00\n  codecopy\n  0x00\n  return\nstop\n\nsub_0: assembly {\n        /* \"project.sol\":88:3047  contract ChatApp {... */\n      mstore(0x40, 0x80)\n      callvalue\n      dup1\n      iszero\n      tag_1\n      jumpi\n      0x00\n      dup1\n      revert\n    tag_1:\n      pop\n      jumpi(tag_2, lt(calldatasize, 0x04))\n      shr(0xe0, calldataload(0x00))\n      dup1\n      0x133f50f5\n      eq\n      tag_3\n      jumpi\n      dup1\n      0x298daf5b\n      eq\n      tag_4\n      jumpi\n      dup1\n      0x3b9f708d\n      eq\n      tag_5\n      jumpi\n      dup1\n      0xbd0f4d0d\n      eq\n      tag_6\n      jumpi\n      dup1\n      0xce43c032\n      eq\n      tag_7\n      jumpi\n    tag_2:\n      0x00\n      dup1\n      revert\n        /* \"project.sol\":491:624  function checkUserExists(address pubkey) public view returns (bool) {... */\n    tag_3:\n      tag_8\n      0x04\n      dup1\n      calldatasize\n      sub\n      dup2\n      add\n      swap1\n      tag_9\n      swap2\n      swap1\n      tag_10\n      jump\t// in\n    tag_9:\n      tag_11\n      jump\t// in\n    tag_8:\n      mload(0x40)\n      tag_12\n      swap2\n      swap1\n      tag_13\n      jump\t// in\n    tag_12:\n      mload(0x40)\n      dup1\n      swap2\n      sub\n      swap1\n      return\n        /* \"project.sol\":654:909  function createAccount(string calldata name) external {... */\n    tag_4:\n      tag_14\n      0x04\n      dup1\n      calldatasize\n      sub\n      dup2\n      add\n      swap1\n      tag_15\n      swap2\n      swap1\n      tag_16\n      jump\t// in\n    tag_15:\n      tag_17\n      jump\t// in\n    tag_14:\n      stop\n        /* \"project.sol\":1154:1727  function addFriend(address friend_key, string calldata name) external {... */\n    tag_5:\n      tag_18\n      0x04\n      dup1\n      calldatasize\n      sub\n      dup2\n      add\n      swap1\n      tag_19\n      swap2\n      swap1\n      tag_20\n      jump\t// in\n    tag_19:\n      tag_21\n      jump\t// in\n    tag_18:\n      stop\n        /* \"project.sol\":2597:2721  function getMyFriendList() external view returns (friend[] memory) {... */\n    tag_6:\n      tag_22\n      tag_23\n      jump\t// in\n    tag_22:\n      mload(0x40)\n      tag_24\n      swap2\n      swap1\n      tag_25\n      jump\t// in\n    tag_24:\n      mload(0x40)\n      dup1\n      swap2\n      sub\n      swap1\n      return\n        /* \"project.sol\":937:1128  function getUsername(address pubkey) external view returns (string memory) {... */\n    tag_7:\n      tag_26\n      0x04\n      dup1\n      calldatasize\n      sub\n      dup2\n      add\n      swap1\n      tag_27\n      swap2\n      swap1\n      tag_10\n      jump\t// in\n    tag_27:\n      tag_28\n      jump\t// in\n    tag_26:\n      mload(0x40)\n      tag_29\n      swap2\n      swap1\n      tag_30\n      jump\t// in\n    tag_29:\n      mload(0x40)\n      dup1\n      swap2\n      sub\n      swap1\n      return\n        /* \"project.sol\":491:624  function checkUserExists(address pubkey) public view returns (bool) {... */\n    tag_11:\n        /* \"project.sol\":553:557  bool */\n      0x00\n        /* \"project.sol\":615:616  0 */\n      dup1\n        /* \"project.sol\":583:591  userList */\n      0x00\n        /* \"project.sol\":583:599  userList[pubkey] */\n      dup1\n        /* \"project.sol\":592:598  pubkey */\n      dup5\n        /* \"project.sol\":583:599  userList[pubkey] */\n      0xffffffffffffffffffffffffffffffffffffffff\n      and\n      0xffffffffffffffffffffffffffffffffffffffff\n      and\n      dup2\n      mstore\n      0x20\n      add\n      swap1\n      dup2\n      mstore\n      0x20\n      add\n      0x00\n      keccak256\n        /* \"project.sol\":583:604  userList[pubkey].name */\n      0x00\n      add\n        /* \"project.sol\":577:612  bytes(userList[pubkey].name).length */\n      dup1\n      sload\n      tag_32\n      swap1\n      tag_33\n      jump\t// in\n    tag_32:\n      swap1\n      pop\n        /* \"project.sol\":577:616  bytes(userList[pubkey].name).length > 0 */\n      gt\n        /* \"project.sol\":570:616  return bytes(userList[pubkey].name).length > 0 */\n      swap1\n      pop\n        /* \"project.sol\":491:624  function checkUserExists(address pubkey) public view returns (bool) {... */\n      swap2\n      swap1\n      pop\n      jump\t// out\n        /* \"project.sol\":654:909  function createAccount(string calldata name) external {... */\n    tag_17:\n        /* \"project.sol\":758:763  false */\n      0x00\n        /* \"project.sol\":727:763  checkUserExists(msg.sender) == false */\n      iszero\n      iszero\n        /* \"project.sol\":727:754  checkUserExists(msg.sender) */\n      tag_35\n        /* \"project.sol\":743:753  msg.sender */\n      caller\n        /* \"project.sol\":727:742  checkUserExists */\n      tag_11\n        /* \"project.sol\":727:754  checkUserExists(msg.sender) */\n      jump\t// in\n    tag_35:\n        /* \"project.sol\":727:763  checkUserExists(msg.sender) == false */\n      iszero\n      iszero\n      eq\n        /* \"project.sol\":719:786  require(checkUserExists(msg.sender) == false, \"User Already Exist\") */\n      tag_36\n      jumpi\n      mload(0x40)\n      0x08c379a000000000000000000000000000000000000000000000000000000000\n      dup2\n      mstore\n      0x04\n      add\n      tag_37\n      swap1\n      tag_38\n      jump\t// in\n    tag_37:\n      mload(0x40)\n      dup1\n      swap2\n      sub\n      swap1\n      revert\n    tag_36:\n        /* \"project.sol\":826:827  0 */\n      0x00\n        /* \"project.sol\":811:815  name */\n      dup3\n      dup3\n        /* \"project.sol\":805:823  bytes(name).length */\n      swap1\n      pop\n        /* \"project.sol\":805:827  bytes(name).length > 0 */\n      gt\n        /* \"project.sol\":797:856  require(bytes(name).length > 0, \"Username cannot be empty\") */\n      tag_39\n      jumpi\n      mload(0x40)\n      0x08c379a000000000000000000000000000000000000000000000000000000000\n      dup2\n      mstore\n      0x04\n      add\n      tag_40\n      swap1\n      tag_41\n      jump\t// in\n    tag_40:\n      mload(0x40)\n      dup1\n      swap2\n      sub\n      swap1\n      revert\n    tag_39:\n        /* \"project.sol\":897:901  name */\n      dup2\n      dup2\n        /* \"project.sol\":869:877  userList */\n      0x00\n        /* \"project.sol\":869:889  userList[msg.sender] */\n      dup1\n        /* \"project.sol\":878:888  msg.sender */\n      caller\n        /* \"project.sol\":869:889  userList[msg.sender] */\n      0xffffffffffffffffffffffffffffffffffffffff\n      and\n      0xffffffffffffffffffffffffffffffffffffffff\n      and\n      dup2\n      mstore\n      0x20\n      add\n      swap1\n      dup2\n      mstore\n      0x20\n      add\n      0x00\n      keccak256\n        /* \"project.sol\":869:894  userList[msg.sender].name */\n      0x00\n      add\n        /* \"project.sol\":869:901  userList[msg.sender].name = name */\n      swap2\n      swap1\n      tag_42\n      swap3\n      swap2\n      swap1\n      tag_43\n      jump\t// in\n    tag_42:\n      pop\n        /* \"project.sol\":654:909  function createAccount(string calldata name) external {... */\n      pop\n      pop\n      jump\t// out\n        /* \"project.sol\":1154:1727  function addFriend(address friend_key, string calldata name) external {... */\n    tag_21:\n        /* \"project.sol\":1243:1270  checkUserExists(msg.sender) */\n      tag_45\n        /* \"project.sol\":1259:1269  msg.sender */\n      caller\n        /* \"project.sol\":1243:1258  checkUserExists */\n      tag_11\n        /* \"project.sol\":1243:1270  checkUserExists(msg.sender) */\n      jump\t// in\n    tag_45:\n        /* \"project.sol\":1235:1299  require(checkUserExists(msg.sender), \"Please create an account\") */\n      tag_46\n      jumpi\n      mload(0x40)\n      0x08c379a000000000000000000000000000000000000000000000000000000000\n      dup2\n      mstore\n      0x04\n      add\n      tag_47\n      swap1\n      tag_48\n      jump\t// in\n    tag_47:\n      mload(0x40)\n      dup1\n      swap2\n      sub\n      swap1\n      revert\n    tag_46:\n        /* \"project.sol\":1318:1345  checkUserExists(friend_key) */\n      tag_49\n        /* \"project.sol\":1334:1344  friend_key */\n      dup4\n        /* \"project.sol\":1318:1333  checkUserExists */\n      tag_11\n        /* \"project.sol\":1318:1345  checkUserExists(friend_key) */\n      jump\t// in\n    tag_49:\n        /* \"project.sol\":1310:1372  require(checkUserExists(friend_key), \"User is not registered\") */\n      tag_50\n      jumpi\n      mload(0x40)\n      0x08c379a000000000000000000000000000000000000000000000000000000000\n      dup2\n      mstore\n      0x04\n      add\n      tag_51\n      swap1\n      tag_52\n      jump\t// in\n    tag_51:\n      mload(0x40)\n      dup1\n      swap2\n      sub\n      swap1\n      revert\n    tag_50:\n        /* \"project.sol\":1405:1415  friend_key */\n      dup3\n        /* \"project.sol\":1391:1415  msg.sender != friend_key */\n      0xffffffffffffffffffffffffffffffffffffffff\n      and\n        /* \"project.sol\":1391:1401  msg.sender */\n      caller\n        /* \"project.sol\":1391:1415  msg.sender != friend_key */\n      0xffffffffffffffffffffffffffffffffffffffff\n      and\n      sub\n        /* \"project.sol\":1383:1453  require(msg.sender != friend_key, \"user can not themselves as friend\") */\n      tag_53\n      jumpi\n      mload(0x40)\n      0x08c379a000000000000000000000000000000000000000000000000000000000\n      dup2\n      mstore\n      0x04\n      add\n      tag_54\n      swap1\n      tag_55\n      jump\t// in\n    tag_54:\n      mload(0x40)\n      dup1\n      swap2\n      sub\n      swap1\n      revert\n    tag_53:\n        /* \"project.sol\":1531:1536  false */\n      0x00\n        /* \"project.sol\":1486:1536  checkAlredyFriend(msg.sender, friend_key) == false */\n      iszero\n      iszero\n        /* \"project.sol\":1486:1527  checkAlredyFriend(msg.sender, friend_key) */\n      tag_56\n        /* \"project.sol\":1504:1514  msg.sender */\n      caller\n        /* \"project.sol\":1516:1526  friend_key */\n      dup6\n        /* \"project.sol\":1486:1503  checkAlredyFriend */\n      tag_57\n        /* \"project.sol\":1486:1527  checkAlredyFriend(msg.sender, friend_key) */\n      jump\t// in\n    tag_56:\n        /* \"project.sol\":1486:1536  checkAlredyFriend(msg.sender, friend_key) == false */\n      iszero\n      iszero\n      eq\n        /* \"project.sol\":1464:1594  require(... */\n      tag_58\n      jumpi\n      mload(0x40)\n      0x08c379a000000000000000000000000000000000000000000000000000000000\n      dup2\n      mstore\n      0x04\n      add\n      tag_59\n      swap1\n      tag_60\n      jump\t// in\n    tag_59:\n      mload(0x40)\n      dup1\n      swap2\n      sub\n      swap1\n      revert\n    tag_58:\n        /* \"project.sol\":1607:1647  _addFriend(msg.sender, friend_key, name) */\n      tag_61\n        /* \"project.sol\":1618:1628  msg.sender */\n      caller\n        /* \"project.sol\":1630:1640  friend_key */\n      dup5\n        /* \"project.sol\":1642:1646  name */\n      dup5\n      dup5\n        /* \"project.sol\":1607:1647  _addFriend(msg.sender, friend_key, name) */\n      dup1\n      dup1\n      0x1f\n      add\n      0x20\n      dup1\n      swap2\n      div\n      mul\n      0x20\n      add\n      mload(0x40)\n      swap1\n      dup2\n      add\n      0x40\n      mstore\n      dup1\n      swap4\n      swap3\n      swap2\n      swap1\n      dup2\n      dup2\n      mstore\n      0x20\n      add\n      dup4\n      dup4\n      dup1\n      dup3\n      dup5\n      calldatacopy\n      0x00\n      dup2\n      dup5\n      add\n      mstore\n      not(0x1f)\n      0x1f\n      dup3\n      add\n      and\n      swap1\n      pop\n      dup1\n      dup4\n      add\n      swap3\n      pop\n      pop\n      pop\n      pop\n      pop\n      pop\n      pop\n        /* \"project.sol\":1607:1617  _addFriend */\n      tag_62\n        /* \"project.sol\":1607:1647  _addFriend(msg.sender, friend_key, name) */\n      jump\t// in\n    tag_61:\n        /* \"project.sol\":1658:1719  _addFriend(friend_key, msg.sender, userList[msg.sender].name) */\n      tag_63\n        /* \"project.sol\":1669:1679  friend_key */\n      dup4\n        /* \"project.sol\":1681:1691  msg.sender */\n      caller\n        /* \"project.sol\":1693:1701  userList */\n      0x00\n        /* \"project.sol\":1693:1713  userList[msg.sender] */\n      dup1\n        /* \"project.sol\":1702:1712  msg.sender */\n      caller\n        /* \"project.sol\":1693:1713  userList[msg.sender] */\n      0xffffffffffffffffffffffffffffffffffffffff\n      and\n      0xffffffffffffffffffffffffffffffffffffffff\n      and\n      dup2\n      mstore\n      0x20\n      add\n      swap1\n      dup2\n      mstore\n      0x20\n      add\n      0x00\n      keccak256\n        /* \"project.sol\":1693:1718  userList[msg.sender].name */\n      0x00\n      add\n        /* \"project.sol\":1658:1719  _addFriend(friend_key, msg.sender, userList[msg.sender].name) */\n      dup1\n      sload\n      tag_64\n      swap1\n      tag_33\n      jump\t// in\n    tag_64:\n      dup1\n      0x1f\n      add\n      0x20\n      dup1\n      swap2\n      div\n      mul\n      0x20\n      add\n      mload(0x40)\n      swap1\n      dup2\n      add\n      0x40\n      mstore\n      dup1\n      swap3\n      swap2\n      swap1\n      dup2\n      dup2\n      mstore\n      0x20\n      add\n      dup3\n      dup1\n      sload\n      tag_65\n      swap1\n      tag_33\n      jump\t// in\n    tag_65:\n      dup1\n      iszero\n      tag_66\n      jumpi\n      dup1\n      0x1f\n      lt\n      tag_67\n      jumpi\n      0x0100\n      dup1\n      dup4\n      sload\n      div\n      mul\n      dup4\n      mstore\n      swap2\n      0x20\n      add\n      swap2\n      jump(tag_66)\n    tag_67:\n      dup3\n      add\n      swap2\n      swap1\n      0x00\n      mstore\n      keccak256(0x00, 0x20)\n      swap1\n    tag_68:\n      dup2\n      sload\n      dup2\n      mstore\n      swap1\n      0x01\n      add\n      swap1\n      0x20\n      add\n      dup1\n      dup4\n      gt\n      tag_68\n      jumpi\n      dup3\n      swap1\n      sub\n      0x1f\n      and\n      dup3\n      add\n      swap2\n    tag_66:\n      pop\n      pop\n      pop\n      pop\n      pop\n        /* \"project.sol\":1658:1668  _addFriend */\n      tag_62\n        /* \"project.sol\":1658:1719  _addFriend(friend_key, msg.sender, userList[msg.sender].name) */\n      jump\t// in\n    tag_63:\n        /* \"project.sol\":1154:1727  function addFriend(address friend_key, string calldata name) external {... */\n      pop\n      pop\n      pop\n      jump\t// out\n        /* \"project.sol\":2597:2721  function getMyFriendList() external view returns (friend[] memory) {... */\n    tag_23:\n        /* \"project.sol\":2647:2662  friend[] memory */\n      0x60\n        /* \"project.sol\":2682:2690  userList */\n      0x00\n        /* \"project.sol\":2682:2702  userList[msg.sender] */\n      dup1\n        /* \"project.sol\":2691:2701  msg.sender */\n      caller\n        /* \"project.sol\":2682:2702  userList[msg.sender] */\n      0xffffffffffffffffffffffffffffffffffffffff\n      and\n      0xffffffffffffffffffffffffffffffffffffffff\n      and\n      dup2\n      mstore\n      0x20\n      add\n      swap1\n      dup2\n      mstore\n      0x20\n      add\n      0x00\n      keccak256\n        /* \"project.sol\":2682:2713  userList[msg.sender].friendList */\n      0x01\n      add\n        /* \"project.sol\":2675:2713  return userList[msg.sender].friendList */\n      dup1\n      sload\n      dup1\n      0x20\n      mul\n      0x20\n      add\n      mload(0x40)\n      swap1\n      dup2\n      add\n      0x40\n      mstore\n      dup1\n      swap3\n      swap2\n      swap1\n      dup2\n      dup2\n      mstore\n      0x20\n      add\n      0x00\n      swap1\n    tag_70:\n      dup3\n      dup3\n      lt\n      iszero\n      tag_71\n      jumpi\n      dup4\n      dup3\n      swap1\n      0x00\n      mstore\n      keccak256(0x00, 0x20)\n      swap1\n      0x02\n      mul\n      add\n      mload(0x40)\n      dup1\n      0x40\n      add\n      0x40\n      mstore\n      swap1\n      dup2\n      0x00\n      dup3\n      add\n      0x00\n      swap1\n      sload\n      swap1\n      0x0100\n      exp\n      swap1\n      div\n      0xffffffffffffffffffffffffffffffffffffffff\n      and\n      0xffffffffffffffffffffffffffffffffffffffff\n      and\n      0xffffffffffffffffffffffffffffffffffffffff\n      and\n      dup2\n      mstore\n      0x20\n      add\n      0x01\n      dup3\n      add\n      dup1\n      sload\n      tag_73\n      swap1\n      tag_33\n      jump\t// in\n    tag_73:\n      dup1\n      0x1f\n      add\n      0x20\n      dup1\n      swap2\n      div\n      mul\n      0x20\n      add\n      mload(0x40)\n      swap1\n      dup2\n      add\n      0x40\n      mstore\n      dup1\n      swap3\n      swap2\n      swap1\n      dup2\n      dup2\n      mstore\n      0x20\n      add\n      dup3\n      dup1\n      sload\n      tag_74\n      swap1\n      tag_33\n      jump\t// in\n    tag_74:\n      dup1\n      iszero\n      tag_75\n      jumpi\n      dup1\n      0x1f\n      lt\n      tag_76\n      jumpi\n      0x0100\n      dup1\n      dup4\n      sload\n      div\n      mul\n      dup4\n      mstore\n      swap2\n      0x20\n      add\n      swap2\n      jump(tag_75)\n    tag_76:\n      dup3\n      add\n      swap2\n      swap1\n      0x00\n      mstore\n      keccak256(0x00, 0x20)\n      swap1\n    tag_77:\n      dup2\n      sload\n      dup2\n      mstore\n      swap1\n      0x01\n      add\n      swap1\n      0x20\n      add\n      dup1\n      dup4\n      gt\n      tag_77\n      jumpi\n      dup3\n      swap1\n      sub\n      0x1f\n      and\n      dup3\n      add\n      swap2\n    tag_75:\n      pop\n      pop\n      pop\n      pop\n      pop\n      dup2\n      mstore\n      pop\n      pop\n      dup2\n      mstore\n      0x20\n      add\n      swap1\n      0x01\n      add\n      swap1\n      jump(tag_70)\n    tag_71:\n      pop\n      pop\n      pop\n      pop\n      swap1\n      pop\n        /* \"project.sol\":2597:2721  function getMyFriendList() external view returns (friend[] memory) {... */\n      swap1\n      jump\t// out\n        /* \"project.sol\":937:1128  function getUsername(address pubkey) external view returns (string memory) {... */\n    tag_28:\n        /* \"project.sol\":997:1010  string memory */\n      0x60\n        /* \"project.sol\":1031:1054  checkUserExists(pubkey) */\n      tag_79\n        /* \"project.sol\":1047:1053  pubkey */\n      dup3\n        /* \"project.sol\":1031:1046  checkUserExists */\n      tag_11\n        /* \"project.sol\":1031:1054  checkUserExists(pubkey) */\n      jump\t// in\n    tag_79:\n        /* \"project.sol\":1023:1081  require(checkUserExists(pubkey), \"User is not registered\") */\n      tag_80\n      jumpi\n      mload(0x40)\n      0x08c379a000000000000000000000000000000000000000000000000000000000\n      dup2\n      mstore\n      0x04\n      add\n      tag_81\n      swap1\n      tag_52\n      jump\t// in\n    tag_81:\n      mload(0x40)\n      dup1\n      swap2\n      sub\n      swap1\n      revert\n    tag_80:\n        /* \"project.sol\":1099:1107  userList */\n      0x00\n        /* \"project.sol\":1099:1115  userList[pubkey] */\n      dup1\n        /* \"project.sol\":1108:1114  pubkey */\n      dup4\n        /* \"project.sol\":1099:1115  userList[pubkey] */\n      0xffffffffffffffffffffffffffffffffffffffff\n      and\n      0xffffffffffffffffffffffffffffffffffffffff\n      and\n      dup2\n      mstore\n      0x20\n      add\n      swap1\n      dup2\n      mstore\n      0x20\n      add\n      0x00\n      keccak256\n        /* \"project.sol\":1099:1120  userList[pubkey].name */\n      0x00\n      add\n        /* \"project.sol\":1092:1120  return userList[pubkey].name */\n      dup1\n      sload\n      tag_82\n      swap1\n      tag_33\n      jump\t// in\n    tag_82:\n      dup1\n      0x1f\n      add\n      0x20\n      dup1\n      swap2\n      div\n      mul\n      0x20\n      add\n      mload(0x40)\n      swap1\n      dup2\n      add\n      0x40\n      mstore\n      dup1\n      swap3\n      swap2\n      swap1\n      dup2\n      dup2\n      mstore\n      0x20\n      add\n      dup3\n      dup1\n      sload\n      tag_83\n      swap1\n      tag_33\n      jump\t// in\n    tag_83:\n      dup1\n      iszero\n      tag_84\n      jumpi\n      dup1\n      0x1f\n      lt\n      tag_85\n      jumpi\n      0x0100\n      dup1\n      dup4\n      sload\n      div\n      mul\n      dup4\n      mstore\n      swap2\n      0x20\n      add\n      swap2\n      jump(tag_84)\n    tag_85:\n      dup3\n      add\n      swap2\n      swap1\n      0x00\n      mstore\n      keccak256(0x00, 0x20)\n      swap1\n    tag_86:\n      dup2\n      sload\n      dup2\n      mstore\n      swap1\n      0x01\n      add\n      swap1\n      0x20\n      add\n      dup1\n      dup4\n      gt\n      tag_86\n      jumpi\n      dup3\n      swap1\n      sub\n      0x1f\n      and\n      dup3\n      add\n      swap2\n    tag_84:\n      pop\n      pop\n      pop\n      pop\n      pop\n      swap1\n      pop\n        /* \"project.sol\":937:1128  function getUsername(address pubkey) external view returns (string memory) {... */\n      swap2\n      swap1\n      pop\n      jump\t// out\n        /* \"project.sol\":1773:2324  function checkAlredyFriend(... */\n    tag_57:\n        /* \"project.sol\":1882:1886  bool */\n      0x00\n        /* \"project.sol\":1968:1976  userList */\n      dup1\n        /* \"project.sol\":1968:1985  userList[pubkey2] */\n      0x00\n        /* \"project.sol\":1977:1984  pubkey2 */\n      dup4\n        /* \"project.sol\":1968:1985  userList[pubkey2] */\n      0xffffffffffffffffffffffffffffffffffffffff\n      and\n      0xffffffffffffffffffffffffffffffffffffffff\n      and\n      dup2\n      mstore\n      0x20\n      add\n      swap1\n      dup2\n      mstore\n      0x20\n      add\n      0x00\n      keccak256\n        /* \"project.sol\":1968:1996  userList[pubkey2].friendList */\n      0x01\n      add\n        /* \"project.sol\":1968:2003  userList[pubkey2].friendList.length */\n      dup1\n      sload\n      swap1\n      pop\n        /* \"project.sol\":1917:1925  userList */\n      0x00\n        /* \"project.sol\":1917:1934  userList[pubkey1] */\n      dup1\n        /* \"project.sol\":1926:1933  pubkey1 */\n      dup6\n        /* \"project.sol\":1917:1934  userList[pubkey1] */\n      0xffffffffffffffffffffffffffffffffffffffff\n      and\n      0xffffffffffffffffffffffffffffffffffffffff\n      and\n      dup2\n      mstore\n      0x20\n      add\n      swap1\n      dup2\n      mstore\n      0x20\n      add\n      0x00\n      keccak256\n        /* \"project.sol\":1917:1945  userList[pubkey1].friendList */\n      0x01\n      add\n        /* \"project.sol\":1917:1952  userList[pubkey1].friendList.length */\n      dup1\n      sload\n      swap1\n      pop\n        /* \"project.sol\":1917:2003  userList[pubkey1].friendList.length >... */\n      gt\n        /* \"project.sol\":1899:2123  if (... */\n      iszero\n      tag_88\n      jumpi\n        /* \"project.sol\":2030:2041  address tmp */\n      0x00\n        /* \"project.sol\":2044:2051  pubkey1 */\n      dup4\n        /* \"project.sol\":2030:2051  address tmp = pubkey1 */\n      swap1\n      pop\n        /* \"project.sol\":2076:2083  pubkey2 */\n      dup3\n        /* \"project.sol\":2066:2083  pubkey1 = pubkey2 */\n      swap4\n      pop\n        /* \"project.sol\":2108:2111  tmp */\n      dup1\n        /* \"project.sol\":2098:2111  pubkey2 = tmp */\n      swap3\n      pop\n        /* \"project.sol\":2015:2123  {... */\n      pop\n        /* \"project.sol\":1899:2123  if (... */\n    tag_88:\n        /* \"project.sol\":2140:2149  uint256 i */\n      0x00\n        /* \"project.sol\":2135:2294  for (uint256 i = 0; i < userList[pubkey1].friendList.length; i++) {... */\n    tag_89:\n        /* \"project.sol\":2159:2167  userList */\n      0x00\n        /* \"project.sol\":2159:2176  userList[pubkey1] */\n      dup1\n        /* \"project.sol\":2168:2175  pubkey1 */\n      dup6\n        /* \"project.sol\":2159:2176  userList[pubkey1] */\n      0xffffffffffffffffffffffffffffffffffffffff\n      and\n      0xffffffffffffffffffffffffffffffffffffffff\n      and\n      dup2\n      mstore\n      0x20\n      add\n      swap1\n      dup2\n      mstore\n      0x20\n      add\n      0x00\n      keccak256\n        /* \"project.sol\":2159:2187  userList[pubkey1].friendList */\n      0x01\n      add\n        /* \"project.sol\":2159:2194  userList[pubkey1].friendList.length */\n      dup1\n      sload\n      swap1\n      pop\n        /* \"project.sol\":2155:2156  i */\n      dup2\n        /* \"project.sol\":2155:2194  i < userList[pubkey1].friendList.length */\n      lt\n        /* \"project.sol\":2135:2294  for (uint256 i = 0; i < userList[pubkey1].friendList.length; i++) {... */\n      iszero\n      tag_90\n      jumpi\n        /* \"project.sol\":2262:2269  pubkey2 */\n      dup3\n        /* \"project.sol\":2220:2269  userList[pubkey1].friendList[i].pubkey == pubkey2 */\n      0xffffffffffffffffffffffffffffffffffffffff\n      and\n        /* \"project.sol\":2220:2228  userList */\n      0x00\n        /* \"project.sol\":2220:2237  userList[pubkey1] */\n      dup1\n        /* \"project.sol\":2229:2236  pubkey1 */\n      dup7\n        /* \"project.sol\":2220:2237  userList[pubkey1] */\n      0xffffffffffffffffffffffffffffffffffffffff\n      and\n      0xffffffffffffffffffffffffffffffffffffffff\n      and\n      dup2\n      mstore\n      0x20\n      add\n      swap1\n      dup2\n      mstore\n      0x20\n      add\n      0x00\n      keccak256\n        /* \"project.sol\":2220:2248  userList[pubkey1].friendList */\n      0x01\n      add\n        /* \"project.sol\":2249:2250  i */\n      dup3\n        /* \"project.sol\":2220:2251  userList[pubkey1].friendList[i] */\n      dup2\n      sload\n      dup2\n      lt\n      tag_92\n      jumpi\n      tag_93\n      tag_94\n      jump\t// in\n    tag_93:\n    tag_92:\n      swap1\n      0x00\n      mstore\n      keccak256(0x00, 0x20)\n      swap1\n      0x02\n      mul\n      add\n        /* \"project.sol\":2220:2258  userList[pubkey1].friendList[i].pubkey */\n      0x00\n      add\n      0x00\n      swap1\n      sload\n      swap1\n      0x0100\n      exp\n      swap1\n      div\n      0xffffffffffffffffffffffffffffffffffffffff\n      and\n        /* \"project.sol\":2220:2269  userList[pubkey1].friendList[i].pubkey == pubkey2 */\n      0xffffffffffffffffffffffffffffffffffffffff\n      and\n      sub\n        /* \"project.sol\":2216:2282  if (userList[pubkey1].friendList[i].pubkey == pubkey2) return true */\n      tag_96\n      jumpi\n        /* \"project.sol\":2278:2282  true */\n      0x01\n        /* \"project.sol\":2271:2282  return true */\n      swap2\n      pop\n      pop\n      jump(tag_87)\n        /* \"project.sol\":2216:2282  if (userList[pubkey1].friendList[i].pubkey == pubkey2) return true */\n    tag_96:\n        /* \"project.sol\":2196:2199  i++ */\n      dup1\n      dup1\n      tag_97\n      swap1\n      tag_98\n      jump\t// in\n    tag_97:\n      swap2\n      pop\n      pop\n        /* \"project.sol\":2135:2294  for (uint256 i = 0; i < userList[pubkey1].friendList.length; i++) {... */\n      jump(tag_89)\n    tag_90:\n      pop\n        /* \"project.sol\":2311:2316  false */\n      0x00\n        /* \"project.sol\":2304:2316  return false */\n      swap1\n      pop\n        /* \"project.sol\":1773:2324  function checkAlredyFriend(... */\n    tag_87:\n      swap3\n      swap2\n      pop\n      pop\n      jump\t// out\n        /* \"project.sol\":2332:2566  function _addFriend(... */\n    tag_62:\n        /* \"project.sol\":2458:2481  friend memory newFriend */\n      0x00\n        /* \"project.sol\":2484:2508  friend(friend_key, name) */\n      mload(0x40)\n      dup1\n      0x40\n      add\n      0x40\n      mstore\n      dup1\n        /* \"project.sol\":2491:2501  friend_key */\n      dup5\n        /* \"project.sol\":2484:2508  friend(friend_key, name) */\n      0xffffffffffffffffffffffffffffffffffffffff\n      and\n      dup2\n      mstore\n      0x20\n      add\n        /* \"project.sol\":2503:2507  name */\n      dup4\n        /* \"project.sol\":2484:2508  friend(friend_key, name) */\n      dup2\n      mstore\n      pop\n        /* \"project.sol\":2458:2508  friend memory newFriend = friend(friend_key, name) */\n      swap1\n      pop\n        /* \"project.sol\":2519:2527  userList */\n      0x00\n        /* \"project.sol\":2519:2531  userList[me] */\n      dup1\n        /* \"project.sol\":2528:2530  me */\n      dup6\n        /* \"project.sol\":2519:2531  userList[me] */\n      0xffffffffffffffffffffffffffffffffffffffff\n      and\n      0xffffffffffffffffffffffffffffffffffffffff\n      and\n      dup2\n      mstore\n      0x20\n      add\n      swap1\n      dup2\n      mstore\n      0x20\n      add\n      0x00\n      keccak256\n        /* \"project.sol\":2519:2542  userList[me].friendList */\n      0x01\n      add\n        /* \"project.sol\":2548:2557  newFriend */\n      dup2\n        /* \"project.sol\":2519:2558  userList[me].friendList.push(newFriend) */\n      swap1\n      dup1\n      0x01\n      dup2\n      sload\n      add\n      dup1\n      dup3\n      sstore\n      dup1\n      swap2\n      pop\n      pop\n      0x01\n      swap1\n      sub\n      swap1\n      0x00\n      mstore\n      keccak256(0x00, 0x20)\n      swap1\n      0x02\n      mul\n      add\n      0x00\n      swap1\n      swap2\n      swap1\n      swap2\n      swap1\n      swap2\n      pop\n      0x00\n      dup3\n      add\n      mload\n      dup2\n      0x00\n      add\n      exp(0x0100, 0x00)\n      dup2\n      sload\n      dup2\n      0xffffffffffffffffffffffffffffffffffffffff\n      mul\n      not\n      and\n      swap1\n      dup4\n      0xffffffffffffffffffffffffffffffffffffffff\n      and\n      mul\n      or\n      swap1\n      sstore\n      pop\n      0x20\n      dup3\n      add\n      mload\n      dup2\n      0x01\n      add\n      swap1\n      dup1\n      mload\n      swap1\n      0x20\n      add\n      swap1\n      tag_101\n      swap3\n      swap2\n      swap1\n      tag_102\n      jump\t// in\n    tag_101:\n      pop\n      pop\n      pop\n        /* \"project.sol\":2447:2566  {... */\n      pop\n        /* \"project.sol\":2332:2566  function _addFriend(... */\n      pop\n      pop\n      pop\n      jump\t// out\n    tag_43:\n      dup3\n      dup1\n      sload\n      tag_103\n      swap1\n      tag_33\n      jump\t// in\n    tag_103:\n      swap1\n      0x00\n      mstore\n      keccak256(0x00, 0x20)\n      swap1\n      0x1f\n      add\n      0x20\n      swap1\n      div\n      dup2\n      add\n      swap3\n      dup3\n      tag_105\n      jumpi\n      0x00\n      dup6\n      sstore\n      jump(tag_104)\n    tag_105:\n      dup3\n      0x1f\n      lt\n      tag_106\n      jumpi\n      dup1\n      calldataload\n      not(0xff)\n      and\n      dup4\n      dup1\n      add\n      or\n      dup6\n      sstore\n      jump(tag_104)\n    tag_106:\n      dup3\n      dup1\n      add\n      0x01\n      add\n      dup6\n      sstore\n      dup3\n      iszero\n      tag_104\n      jumpi\n      swap2\n      dup3\n      add\n    tag_107:\n      dup3\n      dup2\n      gt\n      iszero\n      tag_108\n      jumpi\n      dup3\n      calldataload\n      dup3\n      sstore\n      swap2\n      0x20\n      add\n      swap2\n      swap1\n      0x01\n      add\n      swap1\n      jump(tag_107)\n    tag_108:\n    tag_104:\n      pop\n      swap1\n      pop\n      tag_109\n      swap2\n      swap1\n      tag_110\n      jump\t// in\n    tag_109:\n      pop\n      swap1\n      jump\t// out\n    tag_102:\n      dup3\n      dup1\n      sload\n      tag_111\n      swap1\n      tag_33\n      jump\t// in\n    tag_111:\n      swap1\n      0x00\n      mstore\n      keccak256(0x00, 0x20)\n      swap1\n      0x1f\n      add\n      0x20\n      swap1\n      div\n      dup2\n      add\n      swap3\n      dup3\n      tag_113\n      jumpi\n      0x00\n      dup6\n      sstore\n      jump(tag_112)\n    tag_113:\n      dup3\n      0x1f\n      lt\n      tag_114\n      jumpi\n      dup1\n      mload\n      not(0xff)\n      and\n      dup4\n      dup1\n      add\n      or\n      dup6\n      sstore\n      jump(tag_112)\n    tag_114:\n      dup3\n      dup1\n      add\n      0x01\n      add\n      dup6\n      sstore\n      dup3\n      iszero\n      tag_112\n      jumpi\n      swap2\n      dup3\n      add\n    tag_115:\n      dup3\n      dup2\n      gt\n      iszero\n      tag_116\n      jumpi\n      dup3\n      mload\n      dup3\n      sstore\n      swap2\n      0x20\n      add\n      swap2\n      swap1\n      0x01\n      add\n      swap1\n      jump(tag_115)\n    tag_116:\n    tag_112:\n      pop\n      swap1\n      pop\n      tag_117\n      swap2\n      swap1\n      tag_110\n      jump\t// in\n    tag_117:\n      pop\n      swap1\n      jump\t// out\n    tag_110:\n    tag_118:\n      dup1\n      dup3\n      gt\n      iszero\n      tag_119\n      jumpi\n      0x00\n      dup2\n      0x00\n      swap1\n      sstore\n      pop\n      0x01\n      add\n      jump(tag_118)\n    tag_119:\n      pop\n      swap1\n      jump\t// out\n        /* \"#utility.yul\":88:205   */\n    tag_121:\n        /* \"#utility.yul\":197:198   */\n      0x00\n        /* \"#utility.yul\":194:195   */\n      dup1\n        /* \"#utility.yul\":187:199   */\n      revert\n        /* \"#utility.yul\":211:328   */\n    tag_122:\n        /* \"#utility.yul\":320:321   */\n      0x00\n        /* \"#utility.yul\":317:318   */\n      dup1\n        /* \"#utility.yul\":310:322   */\n      revert\n        /* \"#utility.yul\":334:460   */\n    tag_123:\n        /* \"#utility.yul\":371:378   */\n      0x00\n        /* \"#utility.yul\":411:453   */\n      0xffffffffffffffffffffffffffffffffffffffff\n        /* \"#utility.yul\":404:409   */\n      dup3\n        /* \"#utility.yul\":400:454   */\n      and\n        /* \"#utility.yul\":389:454   */\n      swap1\n      pop\n        /* \"#utility.yul\":334:460   */\n      swap2\n      swap1\n      pop\n      jump\t// out\n        /* \"#utility.yul\":466:562   */\n    tag_124:\n        /* \"#utility.yul\":503:510   */\n      0x00\n        /* \"#utility.yul\":532:556   */\n      tag_169\n        /* \"#utility.yul\":550:555   */\n      dup3\n        /* \"#utility.yul\":532:556   */\n      tag_123\n      jump\t// in\n    tag_169:\n        /* \"#utility.yul\":521:556   */\n      swap1\n      pop\n        /* \"#utility.yul\":466:562   */\n      swap2\n      swap1\n      pop\n      jump\t// out\n        /* \"#utility.yul\":568:690   */\n    tag_125:\n        /* \"#utility.yul\":641:665   */\n      tag_171\n        /* \"#utility.yul\":659:664   */\n      dup2\n        /* \"#utility.yul\":641:665   */\n      tag_124\n      jump\t// in\n    tag_171:\n        /* \"#utility.yul\":634:639   */\n      dup2\n        /* \"#utility.yul\":631:666   */\n      eq\n        /* \"#utility.yul\":621:684   */\n      tag_172\n      jumpi\n        /* \"#utility.yul\":680:681   */\n      0x00\n        /* \"#utility.yul\":677:678   */\n      dup1\n        /* \"#utility.yul\":670:682   */\n      revert\n        /* \"#utility.yul\":621:684   */\n    tag_172:\n        /* \"#utility.yul\":568:690   */\n      pop\n      jump\t// out\n        /* \"#utility.yul\":696:835   */\n    tag_126:\n        /* \"#utility.yul\":742:747   */\n      0x00\n        /* \"#utility.yul\":780:786   */\n      dup2\n        /* \"#utility.yul\":767:787   */\n      calldataload\n        /* \"#utility.yul\":758:787   */\n      swap1\n      pop\n        /* \"#utility.yul\":796:829   */\n      tag_174\n        /* \"#utility.yul\":823:828   */\n      dup2\n        /* \"#utility.yul\":796:829   */\n      tag_125\n      jump\t// in\n    tag_174:\n        /* \"#utility.yul\":696:835   */\n      swap3\n      swap2\n      pop\n      pop\n      jump\t// out\n        /* \"#utility.yul\":841:1170   */\n    tag_10:\n        /* \"#utility.yul\":900:906   */\n      0x00\n        /* \"#utility.yul\":949:951   */\n      0x20\n        /* \"#utility.yul\":937:946   */\n      dup3\n        /* \"#utility.yul\":928:935   */\n      dup5\n        /* \"#utility.yul\":924:947   */\n      sub\n        /* \"#utility.yul\":920:952   */\n      slt\n        /* \"#utility.yul\":917:1036   */\n      iszero\n      tag_176\n      jumpi\n        /* \"#utility.yul\":955:1034   */\n      tag_177\n      tag_121\n      jump\t// in\n    tag_177:\n        /* \"#utility.yul\":917:1036   */\n    tag_176:\n        /* \"#utility.yul\":1075:1076   */\n      0x00\n        /* \"#utility.yul\":1100:1153   */\n      tag_178\n        /* \"#utility.yul\":1145:1152   */\n      dup5\n        /* \"#utility.yul\":1136:1142   */\n      dup3\n        /* \"#utility.yul\":1125:1134   */\n      dup6\n        /* \"#utility.yul\":1121:1143   */\n      add\n        /* \"#utility.yul\":1100:1153   */\n      tag_126\n      jump\t// in\n    tag_178:\n        /* \"#utility.yul\":1090:1153   */\n      swap2\n      pop\n        /* \"#utility.yul\":1046:1163   */\n      pop\n        /* \"#utility.yul\":841:1170   */\n      swap3\n      swap2\n      pop\n      pop\n      jump\t// out\n        /* \"#utility.yul\":1176:1266   */\n    tag_127:\n        /* \"#utility.yul\":1210:1217   */\n      0x00\n        /* \"#utility.yul\":1253:1258   */\n      dup2\n        /* \"#utility.yul\":1246:1259   */\n      iszero\n        /* \"#utility.yul\":1239:1260   */\n      iszero\n        /* \"#utility.yul\":1228:1260   */\n      swap1\n      pop\n        /* \"#utility.yul\":1176:1266   */\n      swap2\n      swap1\n      pop\n      jump\t// out\n        /* \"#utility.yul\":1272:1381   */\n    tag_128:\n        /* \"#utility.yul\":1353:1374   */\n      tag_181\n        /* \"#utility.yul\":1368:1373   */\n      dup2\n        /* \"#utility.yul\":1353:1374   */\n      tag_127\n      jump\t// in\n    tag_181:\n        /* \"#utility.yul\":1348:1351   */\n      dup3\n        /* \"#utility.yul\":1341:1375   */\n      mstore\n        /* \"#utility.yul\":1272:1381   */\n      pop\n      pop\n      jump\t// out\n        /* \"#utility.yul\":1387:1597   */\n    tag_13:\n        /* \"#utility.yul\":1474:1478   */\n      0x00\n        /* \"#utility.yul\":1512:1514   */\n      0x20\n        /* \"#utility.yul\":1501:1510   */\n      dup3\n        /* \"#utility.yul\":1497:1515   */\n      add\n        /* \"#utility.yul\":1489:1515   */\n      swap1\n      pop\n        /* \"#utility.yul\":1525:1590   */\n      tag_183\n        /* \"#utility.yul\":1587:1588   */\n      0x00\n        /* \"#utility.yul\":1576:1585   */\n      dup4\n        /* \"#utility.yul\":1572:1589   */\n      add\n        /* \"#utility.yul\":1563:1569   */\n      dup5\n        /* \"#utility.yul\":1525:1590   */\n      tag_128\n      jump\t// in\n    tag_183:\n        /* \"#utility.yul\":1387:1597   */\n      swap3\n      swap2\n      pop\n      pop\n      jump\t// out\n        /* \"#utility.yul\":1603:1720   */\n    tag_129:\n        /* \"#utility.yul\":1712:1713   */\n      0x00\n        /* \"#utility.yul\":1709:1710   */\n      dup1\n        /* \"#utility.yul\":1702:1714   */\n      revert\n        /* \"#utility.yul\":1726:1843   */\n    tag_130:\n        /* \"#utility.yul\":1835:1836   */\n      0x00\n        /* \"#utility.yul\":1832:1833   */\n      dup1\n        /* \"#utility.yul\":1825:1837   */\n      revert\n        /* \"#utility.yul\":1849:1966   */\n    tag_131:\n        /* \"#utility.yul\":1958:1959   */\n      0x00\n        /* \"#utility.yul\":1955:1956   */\n      dup1\n        /* \"#utility.yul\":1948:1960   */\n      revert\n        /* \"#utility.yul\":1986:2539   */\n    tag_132:\n        /* \"#utility.yul\":2044:2052   */\n      0x00\n        /* \"#utility.yul\":2054:2060   */\n      dup1\n        /* \"#utility.yul\":2104:2107   */\n      dup4\n        /* \"#utility.yul\":2097:2101   */\n      0x1f\n        /* \"#utility.yul\":2089:2095   */\n      dup5\n        /* \"#utility.yul\":2085:2102   */\n      add\n        /* \"#utility.yul\":2081:2108   */\n      slt\n        /* \"#utility.yul\":2071:2193   */\n      tag_188\n      jumpi\n        /* \"#utility.yul\":2112:2191   */\n      tag_189\n      tag_129\n      jump\t// in\n    tag_189:\n        /* \"#utility.yul\":2071:2193   */\n    tag_188:\n        /* \"#utility.yul\":2225:2231   */\n      dup3\n        /* \"#utility.yul\":2212:2232   */\n      calldataload\n        /* \"#utility.yul\":2202:2232   */\n      swap1\n      pop\n        /* \"#utility.yul\":2255:2273   */\n      0xffffffffffffffff\n        /* \"#utility.yul\":2247:2253   */\n      dup2\n        /* \"#utility.yul\":2244:2274   */\n      gt\n        /* \"#utility.yul\":2241:2358   */\n      iszero\n      tag_190\n      jumpi\n        /* \"#utility.yul\":2277:2356   */\n      tag_191\n      tag_130\n      jump\t// in\n    tag_191:\n        /* \"#utility.yul\":2241:2358   */\n    tag_190:\n        /* \"#utility.yul\":2391:2395   */\n      0x20\n        /* \"#utility.yul\":2383:2389   */\n      dup4\n        /* \"#utility.yul\":2379:2396   */\n      add\n        /* \"#utility.yul\":2367:2396   */\n      swap2\n      pop\n        /* \"#utility.yul\":2445:2448   */\n      dup4\n        /* \"#utility.yul\":2437:2441   */\n      0x01\n        /* \"#utility.yul\":2429:2435   */\n      dup3\n        /* \"#utility.yul\":2425:2442   */\n      mul\n        /* \"#utility.yul\":2415:2423   */\n      dup4\n        /* \"#utility.yul\":2411:2443   */\n      add\n        /* \"#utility.yul\":2408:2449   */\n      gt\n        /* \"#utility.yul\":2405:2533   */\n      iszero\n      tag_192\n      jumpi\n        /* \"#utility.yul\":2452:2531   */\n      tag_193\n      tag_131\n      jump\t// in\n    tag_193:\n        /* \"#utility.yul\":2405:2533   */\n    tag_192:\n        /* \"#utility.yul\":1986:2539   */\n      swap3\n      pop\n      swap3\n      swap1\n      pop\n      jump\t// out\n        /* \"#utility.yul\":2545:3074   */\n    tag_16:\n        /* \"#utility.yul\":2616:2622   */\n      0x00\n        /* \"#utility.yul\":2624:2630   */\n      dup1\n        /* \"#utility.yul\":2673:2675   */\n      0x20\n        /* \"#utility.yul\":2661:2670   */\n      dup4\n        /* \"#utility.yul\":2652:2659   */\n      dup6\n        /* \"#utility.yul\":2648:2671   */\n      sub\n        /* \"#utility.yul\":2644:2676   */\n      slt\n        /* \"#utility.yul\":2641:2760   */\n      iszero\n      tag_195\n      jumpi\n        /* \"#utility.yul\":2679:2758   */\n      tag_196\n      tag_121\n      jump\t// in\n    tag_196:\n        /* \"#utility.yul\":2641:2760   */\n    tag_195:\n        /* \"#utility.yul\":2827:2828   */\n      0x00\n        /* \"#utility.yul\":2816:2825   */\n      dup4\n        /* \"#utility.yul\":2812:2829   */\n      add\n        /* \"#utility.yul\":2799:2830   */\n      calldataload\n        /* \"#utility.yul\":2857:2875   */\n      0xffffffffffffffff\n        /* \"#utility.yul\":2849:2855   */\n      dup2\n        /* \"#utility.yul\":2846:2876   */\n      gt\n        /* \"#utility.yul\":2843:2960   */\n      iszero\n      tag_197\n      jumpi\n        /* \"#utility.yul\":2879:2958   */\n      tag_198\n      tag_122\n      jump\t// in\n    tag_198:\n        /* \"#utility.yul\":2843:2960   */\n    tag_197:\n        /* \"#utility.yul\":2992:3057   */\n      tag_199\n        /* \"#utility.yul\":3049:3056   */\n      dup6\n        /* \"#utility.yul\":3040:3046   */\n      dup3\n        /* \"#utility.yul\":3029:3038   */\n      dup7\n        /* \"#utility.yul\":3025:3047   */\n      add\n        /* \"#utility.yul\":2992:3057   */\n      tag_132\n      jump\t// in\n    tag_199:\n        /* \"#utility.yul\":2974:3057   */\n      swap3\n      pop\n      swap3\n      pop\n        /* \"#utility.yul\":2770:3067   */\n      pop\n        /* \"#utility.yul\":2545:3074   */\n      swap3\n      pop\n      swap3\n      swap1\n      pop\n      jump\t// out\n        /* \"#utility.yul\":3080:3754   */\n    tag_20:\n        /* \"#utility.yul\":3160:3166   */\n      0x00\n        /* \"#utility.yul\":3168:3174   */\n      dup1\n        /* \"#utility.yul\":3176:3182   */\n      0x00\n        /* \"#utility.yul\":3225:3227   */\n      0x40\n        /* \"#utility.yul\":3213:3222   */\n      dup5\n        /* \"#utility.yul\":3204:3211   */\n      dup7\n        /* \"#utility.yul\":3200:3223   */\n      sub\n        /* \"#utility.yul\":3196:3228   */\n      slt\n        /* \"#utility.yul\":3193:3312   */\n      iszero\n      tag_201\n      jumpi\n        /* \"#utility.yul\":3231:3310   */\n      tag_202\n      tag_121\n      jump\t// in\n    tag_202:\n        /* \"#utility.yul\":3193:3312   */\n    tag_201:\n        /* \"#utility.yul\":3351:3352   */\n      0x00\n        /* \"#utility.yul\":3376:3429   */\n      tag_203\n        /* \"#utility.yul\":3421:3428   */\n      dup7\n        /* \"#utility.yul\":3412:3418   */\n      dup3\n        /* \"#utility.yul\":3401:3410   */\n      dup8\n        /* \"#utility.yul\":3397:3419   */\n      add\n        /* \"#utility.yul\":3376:3429   */\n      tag_126\n      jump\t// in\n    tag_203:\n        /* \"#utility.yul\":3366:3429   */\n      swap4\n      pop\n        /* \"#utility.yul\":3322:3439   */\n      pop\n        /* \"#utility.yul\":3506:3508   */\n      0x20\n        /* \"#utility.yul\":3495:3504   */\n      dup5\n        /* \"#utility.yul\":3491:3509   */\n      add\n        /* \"#utility.yul\":3478:3510   */\n      calldataload\n        /* \"#utility.yul\":3537:3555   */\n      0xffffffffffffffff\n        /* \"#utility.yul\":3529:3535   */\n      dup2\n        /* \"#utility.yul\":3526:3556   */\n      gt\n        /* \"#utility.yul\":3523:3640   */\n      iszero\n      tag_204\n      jumpi\n        /* \"#utility.yul\":3559:3638   */\n      tag_205\n      tag_122\n      jump\t// in\n    tag_205:\n        /* \"#utility.yul\":3523:3640   */\n    tag_204:\n        /* \"#utility.yul\":3672:3737   */\n      tag_206\n        /* \"#utility.yul\":3729:3736   */\n      dup7\n        /* \"#utility.yul\":3720:3726   */\n      dup3\n        /* \"#utility.yul\":3709:3718   */\n      dup8\n        /* \"#utility.yul\":3705:3727   */\n      add\n        /* \"#utility.yul\":3672:3737   */\n      tag_132\n      jump\t// in\n    tag_206:\n        /* \"#utility.yul\":3654:3737   */\n      swap3\n      pop\n      swap3\n      pop\n        /* \"#utility.yul\":3449:3747   */\n      pop\n        /* \"#utility.yul\":3080:3754   */\n      swap3\n      pop\n      swap3\n      pop\n      swap3\n      jump\t// out\n        /* \"#utility.yul\":3760:3896   */\n    tag_133:\n        /* \"#utility.yul\":3849:3855   */\n      0x00\n        /* \"#utility.yul\":3883:3888   */\n      dup2\n        /* \"#utility.yul\":3877:3889   */\n      mload\n        /* \"#utility.yul\":3867:3889   */\n      swap1\n      pop\n        /* \"#utility.yul\":3760:3896   */\n      swap2\n      swap1\n      pop\n      jump\t// out\n        /* \"#utility.yul\":3902:4108   */\n    tag_134:\n        /* \"#utility.yul\":4023:4034   */\n      0x00\n        /* \"#utility.yul\":4057:4063   */\n      dup3\n        /* \"#utility.yul\":4052:4055   */\n      dup3\n        /* \"#utility.yul\":4045:4064   */\n      mstore\n        /* \"#utility.yul\":4097:4101   */\n      0x20\n        /* \"#utility.yul\":4092:4095   */\n      dup3\n        /* \"#utility.yul\":4088:4102   */\n      add\n        /* \"#utility.yul\":4073:4102   */\n      swap1\n      pop\n        /* \"#utility.yul\":3902:4108   */\n      swap3\n      swap2\n      pop\n      pop\n      jump\t// out\n        /* \"#utility.yul\":4114:4268   */\n    tag_135:\n        /* \"#utility.yul\":4203:4207   */\n      0x00\n        /* \"#utility.yul\":4226:4229   */\n      dup2\n        /* \"#utility.yul\":4218:4229   */\n      swap1\n      pop\n        /* \"#utility.yul\":4256:4260   */\n      0x20\n        /* \"#utility.yul\":4251:4254   */\n      dup3\n        /* \"#utility.yul\":4247:4261   */\n      add\n        /* \"#utility.yul\":4239:4261   */\n      swap1\n      pop\n        /* \"#utility.yul\":4114:4268   */\n      swap2\n      swap1\n      pop\n      jump\t// out\n        /* \"#utility.yul\":4274:4382   */\n    tag_136:\n        /* \"#utility.yul\":4351:4375   */\n      tag_211\n        /* \"#utility.yul\":4369:4374   */\n      dup2\n        /* \"#utility.yul\":4351:4375   */\n      tag_124\n      jump\t// in\n    tag_211:\n        /* \"#utility.yul\":4346:4349   */\n      dup3\n        /* \"#utility.yul\":4339:4376   */\n      mstore\n        /* \"#utility.yul\":4274:4382   */\n      pop\n      pop\n      jump\t// out\n        /* \"#utility.yul\":4388:4487   */\n    tag_137:\n        /* \"#utility.yul\":4440:4446   */\n      0x00\n        /* \"#utility.yul\":4474:4479   */\n      dup2\n        /* \"#utility.yul\":4468:4480   */\n      mload\n        /* \"#utility.yul\":4458:4480   */\n      swap1\n      pop\n        /* \"#utility.yul\":4388:4487   */\n      swap2\n      swap1\n      pop\n      jump\t// out\n        /* \"#utility.yul\":4493:4652   */\n    tag_138:\n        /* \"#utility.yul\":4567:4578   */\n      0x00\n        /* \"#utility.yul\":4601:4607   */\n      dup3\n        /* \"#utility.yul\":4596:4599   */\n      dup3\n        /* \"#utility.yul\":4589:4608   */\n      mstore\n        /* \"#utility.yul\":4641:4645   */\n      0x20\n        /* \"#utility.yul\":4636:4639   */\n      dup3\n        /* \"#utility.yul\":4632:4646   */\n      add\n        /* \"#utility.yul\":4617:4646   */\n      swap1\n      pop\n        /* \"#utility.yul\":4493:4652   */\n      swap3\n      swap2\n      pop\n      pop\n      jump\t// out\n        /* \"#utility.yul\":4658:4965   */\n    tag_139:\n        /* \"#utility.yul\":4726:4727   */\n      0x00\n        /* \"#utility.yul\":4736:4849   */\n    tag_215:\n        /* \"#utility.yul\":4750:4756   */\n      dup4\n        /* \"#utility.yul\":4747:4748   */\n      dup2\n        /* \"#utility.yul\":4744:4757   */\n      lt\n        /* \"#utility.yul\":4736:4849   */\n      iszero\n      tag_217\n      jumpi\n        /* \"#utility.yul\":4835:4836   */\n      dup1\n        /* \"#utility.yul\":4830:4833   */\n      dup3\n        /* \"#utility.yul\":4826:4837   */\n      add\n        /* \"#utility.yul\":4820:4838   */\n      mload\n        /* \"#utility.yul\":4816:4817   */\n      dup2\n        /* \"#utility.yul\":4811:4814   */\n      dup5\n        /* \"#utility.yul\":4807:4818   */\n      add\n        /* \"#utility.yul\":4800:4839   */\n      mstore\n        /* \"#utility.yul\":4772:4774   */\n      0x20\n        /* \"#utility.yul\":4769:4770   */\n      dup2\n        /* \"#utility.yul\":4765:4775   */\n      add\n        /* \"#utility.yul\":4760:4775   */\n      swap1\n      pop\n        /* \"#utility.yul\":4736:4849   */\n      jump(tag_215)\n    tag_217:\n        /* \"#utility.yul\":4867:4873   */\n      dup4\n        /* \"#utility.yul\":4864:4865   */\n      dup2\n        /* \"#utility.yul\":4861:4874   */\n      gt\n        /* \"#utility.yul\":4858:4959   */\n      iszero\n      tag_218\n      jumpi\n        /* \"#utility.yul\":4947:4948   */\n      0x00\n        /* \"#utility.yul\":4938:4944   */\n      dup5\n        /* \"#utility.yul\":4933:4936   */\n      dup5\n        /* \"#utility.yul\":4929:4945   */\n      add\n        /* \"#utility.yul\":4922:4949   */\n      mstore\n        /* \"#utility.yul\":4858:4959   */\n    tag_218:\n        /* \"#utility.yul\":4707:4965   */\n      pop\n        /* \"#utility.yul\":4658:4965   */\n      pop\n      pop\n      pop\n      jump\t// out\n        /* \"#utility.yul\":4971:5073   */\n    tag_140:\n        /* \"#utility.yul\":5012:5018   */\n      0x00\n        /* \"#utility.yul\":5063:5065   */\n      0x1f\n        /* \"#utility.yul\":5059:5066   */\n      not\n        /* \"#utility.yul\":5054:5056   */\n      0x1f\n        /* \"#utility.yul\":5047:5052   */\n      dup4\n        /* \"#utility.yul\":5043:5057   */\n      add\n        /* \"#utility.yul\":5039:5067   */\n      and\n        /* \"#utility.yul\":5029:5067   */\n      swap1\n      pop\n        /* \"#utility.yul\":4971:5073   */\n      swap2\n      swap1\n      pop\n      jump\t// out\n        /* \"#utility.yul\":5079:5423   */\n    tag_141:\n        /* \"#utility.yul\":5157:5160   */\n      0x00\n        /* \"#utility.yul\":5185:5224   */\n      tag_221\n        /* \"#utility.yul\":5218:5223   */\n      dup3\n        /* \"#utility.yul\":5185:5224   */\n      tag_137\n      jump\t// in\n    tag_221:\n        /* \"#utility.yul\":5240:5301   */\n      tag_222\n        /* \"#utility.yul\":5294:5300   */\n      dup2\n        /* \"#utility.yul\":5289:5292   */\n      dup6\n        /* \"#utility.yul\":5240:5301   */\n      tag_138\n      jump\t// in\n    tag_222:\n        /* \"#utility.yul\":5233:5301   */\n      swap4\n      pop\n        /* \"#utility.yul\":5310:5362   */\n      tag_223\n        /* \"#utility.yul\":5355:5361   */\n      dup2\n        /* \"#utility.yul\":5350:5353   */\n      dup6\n        /* \"#utility.yul\":5343:5347   */\n      0x20\n        /* \"#utility.yul\":5336:5341   */\n      dup7\n        /* \"#utility.yul\":5332:5348   */\n      add\n        /* \"#utility.yul\":5310:5362   */\n      tag_139\n      jump\t// in\n    tag_223:\n        /* \"#utility.yul\":5387:5416   */\n      tag_224\n        /* \"#utility.yul\":5409:5415   */\n      dup2\n        /* \"#utility.yul\":5387:5416   */\n      tag_140\n      jump\t// in\n    tag_224:\n        /* \"#utility.yul\":5382:5385   */\n      dup5\n        /* \"#utility.yul\":5378:5417   */\n      add\n        /* \"#utility.yul\":5371:5417   */\n      swap2\n      pop\n        /* \"#utility.yul\":5161:5423   */\n      pop\n        /* \"#utility.yul\":5079:5423   */\n      swap3\n      swap2\n      pop\n      pop\n      jump\t// out\n        /* \"#utility.yul\":5483:6075   */\n    tag_142:\n        /* \"#utility.yul\":5586:5589   */\n      0x00\n        /* \"#utility.yul\":5622:5626   */\n      0x40\n        /* \"#utility.yul\":5617:5620   */\n      dup4\n        /* \"#utility.yul\":5613:5627   */\n      add\n        /* \"#utility.yul\":5711:5715   */\n      0x00\n        /* \"#utility.yul\":5704:5709   */\n      dup4\n        /* \"#utility.yul\":5700:5716   */\n      add\n        /* \"#utility.yul\":5694:5717   */\n      mload\n        /* \"#utility.yul\":5730:5793   */\n      tag_226\n        /* \"#utility.yul\":5787:5791   */\n      0x00\n        /* \"#utility.yul\":5782:5785   */\n      dup7\n        /* \"#utility.yul\":5778:5792   */\n      add\n        /* \"#utility.yul\":5764:5776   */\n      dup3\n        /* \"#utility.yul\":5730:5793   */\n      tag_136\n      jump\t// in\n    tag_226:\n        /* \"#utility.yul\":5637:5803   */\n      pop\n        /* \"#utility.yul\":5885:5889   */\n      0x20\n        /* \"#utility.yul\":5878:5883   */\n      dup4\n        /* \"#utility.yul\":5874:5890   */\n      add\n        /* \"#utility.yul\":5868:5891   */\n      mload\n        /* \"#utility.yul\":5938:5941   */\n      dup5\n        /* \"#utility.yul\":5932:5936   */\n      dup3\n        /* \"#utility.yul\":5928:5942   */\n      sub\n        /* \"#utility.yul\":5921:5925   */\n      0x20\n        /* \"#utility.yul\":5916:5919   */\n      dup7\n        /* \"#utility.yul\":5912:5926   */\n      add\n        /* \"#utility.yul\":5905:5943   */\n      mstore\n        /* \"#utility.yul\":5964:6037   */\n      tag_227\n        /* \"#utility.yul\":6032:6036   */\n      dup3\n        /* \"#utility.yul\":6018:6030   */\n      dup3\n        /* \"#utility.yul\":5964:6037   */\n      tag_141\n      jump\t// in\n    tag_227:\n        /* \"#utility.yul\":5956:6037   */\n      swap2\n      pop\n        /* \"#utility.yul\":5813:6048   */\n      pop\n        /* \"#utility.yul\":6065:6069   */\n      dup1\n        /* \"#utility.yul\":6058:6069   */\n      swap2\n      pop\n        /* \"#utility.yul\":5591:6075   */\n      pop\n        /* \"#utility.yul\":5483:6075   */\n      swap3\n      swap2\n      pop\n      pop\n      jump\t// out\n        /* \"#utility.yul\":6081:6325   */\n    tag_143:\n        /* \"#utility.yul\":6194:6204   */\n      0x00\n        /* \"#utility.yul\":6229:6319   */\n      tag_229\n        /* \"#utility.yul\":6315:6318   */\n      dup4\n        /* \"#utility.yul\":6307:6313   */\n      dup4\n        /* \"#utility.yul\":6229:6319   */\n      tag_142\n      jump\t// in\n    tag_229:\n        /* \"#utility.yul\":6215:6319   */\n      swap1\n      pop\n        /* \"#utility.yul\":6081:6325   */\n      swap3\n      swap2\n      pop\n      pop\n      jump\t// out\n        /* \"#utility.yul\":6331:6466   */\n    tag_144:\n        /* \"#utility.yul\":6423:6427   */\n      0x00\n        /* \"#utility.yul\":6455:6459   */\n      0x20\n        /* \"#utility.yul\":6450:6453   */\n      dup3\n        /* \"#utility.yul\":6446:6460   */\n      add\n        /* \"#utility.yul\":6438:6460   */\n      swap1\n      pop\n        /* \"#utility.yul\":6331:6466   */\n      swap2\n      swap1\n      pop\n      jump\t// out\n        /* \"#utility.yul\":6530:7617   */\n    tag_145:\n        /* \"#utility.yul\":6693:6696   */\n      0x00\n        /* \"#utility.yul\":6722:6798   */\n      tag_232\n        /* \"#utility.yul\":6792:6797   */\n      dup3\n        /* \"#utility.yul\":6722:6798   */\n      tag_133\n      jump\t// in\n    tag_232:\n        /* \"#utility.yul\":6814:6922   */\n      tag_233\n        /* \"#utility.yul\":6915:6921   */\n      dup2\n        /* \"#utility.yul\":6910:6913   */\n      dup6\n        /* \"#utility.yul\":6814:6922   */\n      tag_134\n      jump\t// in\n    tag_233:\n        /* \"#utility.yul\":6807:6922   */\n      swap4\n      pop\n        /* \"#utility.yul\":6948:6951   */\n      dup4\n        /* \"#utility.yul\":6993:6997   */\n      0x20\n        /* \"#utility.yul\":6985:6991   */\n      dup3\n        /* \"#utility.yul\":6981:6998   */\n      mul\n        /* \"#utility.yul\":6976:6979   */\n      dup6\n        /* \"#utility.yul\":6972:6999   */\n      add\n        /* \"#utility.yul\":7023:7101   */\n      tag_234\n        /* \"#utility.yul\":7095:7100   */\n      dup6\n        /* \"#utility.yul\":7023:7101   */\n      tag_135\n      jump\t// in\n    tag_234:\n        /* \"#utility.yul\":7124:7131   */\n      dup1\n        /* \"#utility.yul\":7155:7156   */\n      0x00\n        /* \"#utility.yul\":7140:7572   */\n    tag_235:\n        /* \"#utility.yul\":7165:7171   */\n      dup6\n        /* \"#utility.yul\":7162:7163   */\n      dup2\n        /* \"#utility.yul\":7159:7172   */\n      lt\n        /* \"#utility.yul\":7140:7572   */\n      iszero\n      tag_237\n      jumpi\n        /* \"#utility.yul\":7236:7245   */\n      dup5\n        /* \"#utility.yul\":7230:7234   */\n      dup5\n        /* \"#utility.yul\":7226:7246   */\n      sub\n        /* \"#utility.yul\":7221:7224   */\n      dup10\n        /* \"#utility.yul\":7214:7247   */\n      mstore\n        /* \"#utility.yul\":7287:7293   */\n      dup2\n        /* \"#utility.yul\":7281:7294   */\n      mload\n        /* \"#utility.yul\":7315:7423   */\n      tag_238\n        /* \"#utility.yul\":7418:7422   */\n      dup6\n        /* \"#utility.yul\":7403:7416   */\n      dup3\n        /* \"#utility.yul\":7315:7423   */\n      tag_143\n      jump\t// in\n    tag_238:\n        /* \"#utility.yul\":7307:7423   */\n      swap5\n      pop\n        /* \"#utility.yul\":7446:7528   */\n      tag_239\n        /* \"#utility.yul\":7521:7527   */\n      dup4\n        /* \"#utility.yul\":7446:7528   */\n      tag_144\n      jump\t// in\n    tag_239:\n        /* \"#utility.yul\":7436:7528   */\n      swap3\n      pop\n        /* \"#utility.yul\":7557:7561   */\n      0x20\n        /* \"#utility.yul\":7552:7555   */\n      dup11\n        /* \"#utility.yul\":7548:7562   */\n      add\n        /* \"#utility.yul\":7541:7562   */\n      swap10\n      pop\n        /* \"#utility.yul\":7200:7572   */\n      pop\n        /* \"#utility.yul\":7187:7188   */\n      0x01\n        /* \"#utility.yul\":7184:7185   */\n      dup2\n        /* \"#utility.yul\":7180:7189   */\n      add\n        /* \"#utility.yul\":7175:7189   */\n      swap1\n      pop\n        /* \"#utility.yul\":7140:7572   */\n      jump(tag_235)\n    tag_237:\n        /* \"#utility.yul\":7144:7158   */\n      pop\n        /* \"#utility.yul\":7588:7592   */\n      dup3\n        /* \"#utility.yul\":7581:7592   */\n      swap8\n      pop\n        /* \"#utility.yul\":7608:7611   */\n      dup8\n        /* \"#utility.yul\":7601:7611   */\n      swap6\n      pop\n        /* \"#utility.yul\":6698:7617   */\n      pop\n      pop\n      pop\n      pop\n      pop\n        /* \"#utility.yul\":6530:7617   */\n      swap3\n      swap2\n      pop\n      pop\n      jump\t// out\n        /* \"#utility.yul\":7623:8084   */\n    tag_25:\n        /* \"#utility.yul\":7810:7814   */\n      0x00\n        /* \"#utility.yul\":7848:7850   */\n      0x20\n        /* \"#utility.yul\":7837:7846   */\n      dup3\n        /* \"#utility.yul\":7833:7851   */\n      add\n        /* \"#utility.yul\":7825:7851   */\n      swap1\n      pop\n        /* \"#utility.yul\":7897:7906   */\n      dup2\n        /* \"#utility.yul\":7891:7895   */\n      dup2\n        /* \"#utility.yul\":7887:7907   */\n      sub\n        /* \"#utility.yul\":7883:7884   */\n      0x00\n        /* \"#utility.yul\":7872:7881   */\n      dup4\n        /* \"#utility.yul\":7868:7885   */\n      add\n        /* \"#utility.yul\":7861:7908   */\n      mstore\n        /* \"#utility.yul\":7925:8077   */\n      tag_241\n        /* \"#utility.yul\":8072:8076   */\n      dup2\n        /* \"#utility.yul\":8063:8069   */\n      dup5\n        /* \"#utility.yul\":7925:8077   */\n      tag_145\n      jump\t// in\n    tag_241:\n        /* \"#utility.yul\":7917:8077   */\n      swap1\n      pop\n        /* \"#utility.yul\":7623:8084   */\n      swap3\n      swap2\n      pop\n      pop\n      jump\t// out\n        /* \"#utility.yul\":8090:8259   */\n    tag_146:\n        /* \"#utility.yul\":8174:8185   */\n      0x00\n        /* \"#utility.yul\":8208:8214   */\n      dup3\n        /* \"#utility.yul\":8203:8206   */\n      dup3\n        /* \"#utility.yul\":8196:8215   */\n      mstore\n        /* \"#utility.yul\":8248:8252   */\n      0x20\n        /* \"#utility.yul\":8243:8246   */\n      dup3\n        /* \"#utility.yul\":8239:8253   */\n      add\n        /* \"#utility.yul\":8224:8253   */\n      swap1\n      pop\n        /* \"#utility.yul\":8090:8259   */\n      swap3\n      swap2\n      pop\n      pop\n      jump\t// out\n        /* \"#utility.yul\":8265:8629   */\n    tag_147:\n        /* \"#utility.yul\":8353:8356   */\n      0x00\n        /* \"#utility.yul\":8381:8420   */\n      tag_244\n        /* \"#utility.yul\":8414:8419   */\n      dup3\n        /* \"#utility.yul\":8381:8420   */\n      tag_137\n      jump\t// in\n    tag_244:\n        /* \"#utility.yul\":8436:8507   */\n      tag_245\n        /* \"#utility.yul\":8500:8506   */\n      dup2\n        /* \"#utility.yul\":8495:8498   */\n      dup6\n        /* \"#utility.yul\":8436:8507   */\n      tag_146\n      jump\t// in\n    tag_245:\n        /* \"#utility.yul\":8429:8507   */\n      swap4\n      pop\n        /* \"#utility.yul\":8516:8568   */\n      tag_246\n        /* \"#utility.yul\":8561:8567   */\n      dup2\n        /* \"#utility.yul\":8556:8559   */\n      dup6\n        /* \"#utility.yul\":8549:8553   */\n      0x20\n        /* \"#utility.yul\":8542:8547   */\n      dup7\n        /* \"#utility.yul\":8538:8554   */\n      add\n        /* \"#utility.yul\":8516:8568   */\n      tag_139\n      jump\t// in\n    tag_246:\n        /* \"#utility.yul\":8593:8622   */\n      tag_247\n        /* \"#utility.yul\":8615:8621   */\n      dup2\n        /* \"#utility.yul\":8593:8622   */\n      tag_140\n      jump\t// in\n    tag_247:\n        /* \"#utility.yul\":8588:8591   */\n      dup5\n        /* \"#utility.yul\":8584:8623   */\n      add\n        /* \"#utility.yul\":8577:8623   */\n      swap2\n      pop\n        /* \"#utility.yul\":8357:8629   */\n      pop\n        /* \"#utility.yul\":8265:8629   */\n      swap3\n      swap2\n      pop\n      pop\n      jump\t// out\n        /* \"#utility.yul\":8635:8948   */\n    tag_30:\n        /* \"#utility.yul\":8748:8752   */\n      0x00\n        /* \"#utility.yul\":8786:8788   */\n      0x20\n        /* \"#utility.yul\":8775:8784   */\n      dup3\n        /* \"#utility.yul\":8771:8789   */\n      add\n        /* \"#utility.yul\":8763:8789   */\n      swap1\n      pop\n        /* \"#utility.yul\":8835:8844   */\n      dup2\n        /* \"#utility.yul\":8829:8833   */\n      dup2\n        /* \"#utility.yul\":8825:8845   */\n      sub\n        /* \"#utility.yul\":8821:8822   */\n      0x00\n        /* \"#utility.yul\":8810:8819   */\n      dup4\n        /* \"#utility.yul\":8806:8823   */\n      add\n        /* \"#utility.yul\":8799:8846   */\n      mstore\n        /* \"#utility.yul\":8863:8941   */\n      tag_249\n        /* \"#utility.yul\":8936:8940   */\n      dup2\n        /* \"#utility.yul\":8927:8933   */\n      dup5\n        /* \"#utility.yul\":8863:8941   */\n      tag_147\n      jump\t// in\n    tag_249:\n        /* \"#utility.yul\":8855:8941   */\n      swap1\n      pop\n        /* \"#utility.yul\":8635:8948   */\n      swap3\n      swap2\n      pop\n      pop\n      jump\t// out\n        /* \"#utility.yul\":8954:9134   */\n    tag_148:\n        /* \"#utility.yul\":9002:9079   */\n      0x4e487b7100000000000000000000000000000000000000000000000000000000\n        /* \"#utility.yul\":8999:9000   */\n      0x00\n        /* \"#utility.yul\":8992:9080   */\n      mstore\n        /* \"#utility.yul\":9099:9103   */\n      0x22\n        /* \"#utility.yul\":9096:9097   */\n      0x04\n        /* \"#utility.yul\":9089:9104   */\n      mstore\n        /* \"#utility.yul\":9123:9127   */\n      0x24\n        /* \"#utility.yul\":9120:9121   */\n      0x00\n        /* \"#utility.yul\":9113:9128   */\n      revert\n        /* \"#utility.yul\":9140:9460   */\n    tag_33:\n        /* \"#utility.yul\":9184:9190   */\n      0x00\n        /* \"#utility.yul\":9221:9222   */\n      0x02\n        /* \"#utility.yul\":9215:9219   */\n      dup3\n        /* \"#utility.yul\":9211:9223   */\n      div\n        /* \"#utility.yul\":9201:9223   */\n      swap1\n      pop\n        /* \"#utility.yul\":9268:9269   */\n      0x01\n        /* \"#utility.yul\":9262:9266   */\n      dup3\n        /* \"#utility.yul\":9258:9270   */\n      and\n        /* \"#utility.yul\":9289:9307   */\n      dup1\n        /* \"#utility.yul\":9279:9360   */\n      tag_252\n      jumpi\n        /* \"#utility.yul\":9345:9349   */\n      0x7f\n        /* \"#utility.yul\":9337:9343   */\n      dup3\n        /* \"#utility.yul\":9333:9350   */\n      and\n        /* \"#utility.yul\":9323:9350   */\n      swap2\n      pop\n        /* \"#utility.yul\":9279:9360   */\n    tag_252:\n        /* \"#utility.yul\":9407:9409   */\n      0x20\n        /* \"#utility.yul\":9399:9405   */\n      dup3\n        /* \"#utility.yul\":9396:9410   */\n      lt\n        /* \"#utility.yul\":9376:9394   */\n      dup2\n        /* \"#utility.yul\":9373:9411   */\n      sub\n        /* \"#utility.yul\":9370:9454   */\n      tag_253\n      jumpi\n        /* \"#utility.yul\":9426:9444   */\n      tag_254\n      tag_148\n      jump\t// in\n    tag_254:\n        /* \"#utility.yul\":9370:9454   */\n    tag_253:\n        /* \"#utility.yul\":9191:9460   */\n      pop\n        /* \"#utility.yul\":9140:9460   */\n      swap2\n      swap1\n      pop\n      jump\t// out\n        /* \"#utility.yul\":9466:9634   */\n    tag_149:\n        /* \"#utility.yul\":9606:9626   */\n      0x5573657220416c72656164792045786973740000000000000000000000000000\n        /* \"#utility.yul\":9602:9603   */\n      0x00\n        /* \"#utility.yul\":9594:9600   */\n      dup3\n        /* \"#utility.yul\":9590:9604   */\n      add\n        /* \"#utility.yul\":9583:9627   */\n      mstore\n        /* \"#utility.yul\":9466:9634   */\n      pop\n      jump\t// out\n        /* \"#utility.yul\":9640:10006   */\n    tag_150:\n        /* \"#utility.yul\":9782:9785   */\n      0x00\n        /* \"#utility.yul\":9803:9870   */\n      tag_257\n        /* \"#utility.yul\":9867:9869   */\n      0x12\n        /* \"#utility.yul\":9862:9865   */\n      dup4\n        /* \"#utility.yul\":9803:9870   */\n      tag_146\n      jump\t// in\n    tag_257:\n        /* \"#utility.yul\":9796:9870   */\n      swap2\n      pop\n        /* \"#utility.yul\":9879:9972   */\n      tag_258\n        /* \"#utility.yul\":9968:9971   */\n      dup3\n        /* \"#utility.yul\":9879:9972   */\n      tag_149\n      jump\t// in\n    tag_258:\n        /* \"#utility.yul\":9997:9999   */\n      0x20\n        /* \"#utility.yul\":9992:9995   */\n      dup3\n        /* \"#utility.yul\":9988:10000   */\n      add\n        /* \"#utility.yul\":9981:10000   */\n      swap1\n      pop\n        /* \"#utility.yul\":9640:10006   */\n      swap2\n      swap1\n      pop\n      jump\t// out\n        /* \"#utility.yul\":10012:10431   */\n    tag_38:\n        /* \"#utility.yul\":10178:10182   */\n      0x00\n        /* \"#utility.yul\":10216:10218   */\n      0x20\n        /* \"#utility.yul\":10205:10214   */\n      dup3\n        /* \"#utility.yul\":10201:10219   */\n      add\n        /* \"#utility.yul\":10193:10219   */\n      swap1\n      pop\n        /* \"#utility.yul\":10265:10274   */\n      dup2\n        /* \"#utility.yul\":10259:10263   */\n      dup2\n        /* \"#utility.yul\":10255:10275   */\n      sub\n        /* \"#utility.yul\":10251:10252   */\n      0x00\n        /* \"#utility.yul\":10240:10249   */\n      dup4\n        /* \"#utility.yul\":10236:10253   */\n      add\n        /* \"#utility.yul\":10229:10276   */\n      mstore\n        /* \"#utility.yul\":10293:10424   */\n      tag_260\n        /* \"#utility.yul\":10419:10423   */\n      dup2\n        /* \"#utility.yul\":10293:10424   */\n      tag_150\n      jump\t// in\n    tag_260:\n        /* \"#utility.yul\":10285:10424   */\n      swap1\n      pop\n        /* \"#utility.yul\":10012:10431   */\n      swap2\n      swap1\n      pop\n      jump\t// out\n        /* \"#utility.yul\":10437:10611   */\n    tag_151:\n        /* \"#utility.yul\":10577:10603   */\n      0x557365726e616d652063616e6e6f7420626520656d7074790000000000000000\n        /* \"#utility.yul\":10573:10574   */\n      0x00\n        /* \"#utility.yul\":10565:10571   */\n      dup3\n        /* \"#utility.yul\":10561:10575   */\n      add\n        /* \"#utility.yul\":10554:10604   */\n      mstore\n        /* \"#utility.yul\":10437:10611   */\n      pop\n      jump\t// out\n        /* \"#utility.yul\":10617:10983   */\n    tag_152:\n        /* \"#utility.yul\":10759:10762   */\n      0x00\n        /* \"#utility.yul\":10780:10847   */\n      tag_263\n        /* \"#utility.yul\":10844:10846   */\n      0x18\n        /* \"#utility.yul\":10839:10842   */\n      dup4\n        /* \"#utility.yul\":10780:10847   */\n      tag_146\n      jump\t// in\n    tag_263:\n        /* \"#utility.yul\":10773:10847   */\n      swap2\n      pop\n        /* \"#utility.yul\":10856:10949   */\n      tag_264\n        /* \"#utility.yul\":10945:10948   */\n      dup3\n        /* \"#utility.yul\":10856:10949   */\n      tag_151\n      jump\t// in\n    tag_264:\n        /* \"#utility.yul\":10974:10976   */\n      0x20\n        /* \"#utility.yul\":10969:10972   */\n      dup3\n        /* \"#utility.yul\":10965:10977   */\n      add\n        /* \"#utility.yul\":10958:10977   */\n      swap1\n      pop\n        /* \"#utility.yul\":10617:10983   */\n      swap2\n      swap1\n      pop\n      jump\t// out\n        /* \"#utility.yul\":10989:11408   */\n    tag_41:\n        /* \"#utility.yul\":11155:11159   */\n      0x00\n        /* \"#utility.yul\":11193:11195   */\n      0x20\n        /* \"#utility.yul\":11182:11191   */\n      dup3\n        /* \"#utility.yul\":11178:11196   */\n      add\n        /* \"#utility.yul\":11170:11196   */\n      swap1\n      pop\n        /* \"#utility.yul\":11242:11251   */\n      dup2\n        /* \"#utility.yul\":11236:11240   */\n      dup2\n        /* \"#utility.yul\":11232:11252   */\n      sub\n        /* \"#utility.yul\":11228:11229   */\n      0x00\n        /* \"#utility.yul\":11217:11226   */\n      dup4\n        /* \"#utility.yul\":11213:11230   */\n      add\n        /* \"#utility.yul\":11206:11253   */\n      mstore\n        /* \"#utility.yul\":11270:11401   */\n      tag_266\n        /* \"#utility.yul\":11396:11400   */\n      dup2\n        /* \"#utility.yul\":11270:11401   */\n      tag_152\n      jump\t// in\n    tag_266:\n        /* \"#utility.yul\":11262:11401   */\n      swap1\n      pop\n        /* \"#utility.yul\":10989:11408   */\n      swap2\n      swap1\n      pop\n      jump\t// out\n        /* \"#utility.yul\":11414:11588   */\n    tag_153:\n        /* \"#utility.yul\":11554:11580   */\n      0x506c656173652063726561746520616e206163636f756e740000000000000000\n        /* \"#utility.yul\":11550:11551   */\n      0x00\n        /* \"#utility.yul\":11542:11548   */\n      dup3\n        /* \"#utility.yul\":11538:11552   */\n      add\n        /* \"#utility.yul\":11531:11581   */\n      mstore\n        /* \"#utility.yul\":11414:11588   */\n      pop\n      jump\t// out\n        /* \"#utility.yul\":11594:11960   */\n    tag_154:\n        /* \"#utility.yul\":11736:11739   */\n      0x00\n        /* \"#utility.yul\":11757:11824   */\n      tag_269\n        /* \"#utility.yul\":11821:11823   */\n      0x18\n        /* \"#utility.yul\":11816:11819   */\n      dup4\n        /* \"#utility.yul\":11757:11824   */\n      tag_146\n      jump\t// in\n    tag_269:\n        /* \"#utility.yul\":11750:11824   */\n      swap2\n      pop\n        /* \"#utility.yul\":11833:11926   */\n      tag_270\n        /* \"#utility.yul\":11922:11925   */\n      dup3\n        /* \"#utility.yul\":11833:11926   */\n      tag_153\n      jump\t// in\n    tag_270:\n        /* \"#utility.yul\":11951:11953   */\n      0x20\n        /* \"#utility.yul\":11946:11949   */\n      dup3\n        /* \"#utility.yul\":11942:11954   */\n      add\n        /* \"#utility.yul\":11935:11954   */\n      swap1\n      pop\n        /* \"#utility.yul\":11594:11960   */\n      swap2\n      swap1\n      pop\n      jump\t// out\n        /* \"#utility.yul\":11966:12385   */\n    tag_48:\n        /* \"#utility.yul\":12132:12136   */\n      0x00\n        /* \"#utility.yul\":12170:12172   */\n      0x20\n        /* \"#utility.yul\":12159:12168   */\n      dup3\n        /* \"#utility.yul\":12155:12173   */\n      add\n        /* \"#utility.yul\":12147:12173   */\n      swap1\n      pop\n        /* \"#utility.yul\":12219:12228   */\n      dup2\n        /* \"#utility.yul\":12213:12217   */\n      dup2\n        /* \"#utility.yul\":12209:12229   */\n      sub\n        /* \"#utility.yul\":12205:12206   */\n      0x00\n        /* \"#utility.yul\":12194:12203   */\n      dup4\n        /* \"#utility.yul\":12190:12207   */\n      add\n        /* \"#utility.yul\":12183:12230   */\n      mstore\n        /* \"#utility.yul\":12247:12378   */\n      tag_272\n        /* \"#utility.yul\":12373:12377   */\n      dup2\n        /* \"#utility.yul\":12247:12378   */\n      tag_154\n      jump\t// in\n    tag_272:\n        /* \"#utility.yul\":12239:12378   */\n      swap1\n      pop\n        /* \"#utility.yul\":11966:12385   */\n      swap2\n      swap1\n      pop\n      jump\t// out\n        /* \"#utility.yul\":12391:12563   */\n    tag_155:\n        /* \"#utility.yul\":12531:12555   */\n      0x55736572206973206e6f74207265676973746572656400000000000000000000\n        /* \"#utility.yul\":12527:12528   */\n      0x00\n        /* \"#utility.yul\":12519:12525   */\n      dup3\n        /* \"#utility.yul\":12515:12529   */\n      add\n        /* \"#utility.yul\":12508:12556   */\n      mstore\n        /* \"#utility.yul\":12391:12563   */\n      pop\n      jump\t// out\n        /* \"#utility.yul\":12569:12935   */\n    tag_156:\n        /* \"#utility.yul\":12711:12714   */\n      0x00\n        /* \"#utility.yul\":12732:12799   */\n      tag_275\n        /* \"#utility.yul\":12796:12798   */\n      0x16\n        /* \"#utility.yul\":12791:12794   */\n      dup4\n        /* \"#utility.yul\":12732:12799   */\n      tag_146\n      jump\t// in\n    tag_275:\n        /* \"#utility.yul\":12725:12799   */\n      swap2\n      pop\n        /* \"#utility.yul\":12808:12901   */\n      tag_276\n        /* \"#utility.yul\":12897:12900   */\n      dup3\n        /* \"#utility.yul\":12808:12901   */\n      tag_155\n      jump\t// in\n    tag_276:\n        /* \"#utility.yul\":12926:12928   */\n      0x20\n        /* \"#utility.yul\":12921:12924   */\n      dup3\n        /* \"#utility.yul\":12917:12929   */\n      add\n        /* \"#utility.yul\":12910:12929   */\n      swap1\n      pop\n        /* \"#utility.yul\":12569:12935   */\n      swap2\n      swap1\n      pop\n      jump\t// out\n        /* \"#utility.yul\":12941:13360   */\n    tag_52:\n        /* \"#utility.yul\":13107:13111   */\n      0x00\n        /* \"#utility.yul\":13145:13147   */\n      0x20\n        /* \"#utility.yul\":13134:13143   */\n      dup3\n        /* \"#utility.yul\":13130:13148   */\n      add\n        /* \"#utility.yul\":13122:13148   */\n      swap1\n      pop\n        /* \"#utility.yul\":13194:13203   */\n      dup2\n        /* \"#utility.yul\":13188:13192   */\n      dup2\n        /* \"#utility.yul\":13184:13204   */\n      sub\n        /* \"#utility.yul\":13180:13181   */\n      0x00\n        /* \"#utility.yul\":13169:13178   */\n      dup4\n        /* \"#utility.yul\":13165:13182   */\n      add\n        /* \"#utility.yul\":13158:13205   */\n      mstore\n        /* \"#utility.yul\":13222:13353   */\n      tag_278\n        /* \"#utility.yul\":13348:13352   */\n      dup2\n        /* \"#utility.yul\":13222:13353   */\n      tag_156\n      jump\t// in\n    tag_278:\n        /* \"#utility.yul\":13214:13353   */\n      swap1\n      pop\n        /* \"#utility.yul\":12941:13360   */\n      swap2\n      swap1\n      pop\n      jump\t// out\n        /* \"#utility.yul\":13366:13586   */\n    tag_157:\n        /* \"#utility.yul\":13506:13540   */\n      0x757365722063616e206e6f74207468656d73656c76657320617320667269656e\n        /* \"#utility.yul\":13502:13503   */\n      0x00\n        /* \"#utility.yul\":13494:13500   */\n      dup3\n        /* \"#utility.yul\":13490:13504   */\n      add\n        /* \"#utility.yul\":13483:13541   */\n      mstore\n        /* \"#utility.yul\":13575:13578   */\n      0x6400000000000000000000000000000000000000000000000000000000000000\n        /* \"#utility.yul\":13570:13572   */\n      0x20\n        /* \"#utility.yul\":13562:13568   */\n      dup3\n        /* \"#utility.yul\":13558:13573   */\n      add\n        /* \"#utility.yul\":13551:13579   */\n      mstore\n        /* \"#utility.yul\":13366:13586   */\n      pop\n      jump\t// out\n        /* \"#utility.yul\":13592:13958   */\n    tag_158:\n        /* \"#utility.yul\":13734:13737   */\n      0x00\n        /* \"#utility.yul\":13755:13822   */\n      tag_281\n        /* \"#utility.yul\":13819:13821   */\n      0x21\n        /* \"#utility.yul\":13814:13817   */\n      dup4\n        /* \"#utility.yul\":13755:13822   */\n      tag_146\n      jump\t// in\n    tag_281:\n        /* \"#utility.yul\":13748:13822   */\n      swap2\n      pop\n        /* \"#utility.yul\":13831:13924   */\n      tag_282\n        /* \"#utility.yul\":13920:13923   */\n      dup3\n        /* \"#utility.yul\":13831:13924   */\n      tag_157\n      jump\t// in\n    tag_282:\n        /* \"#utility.yul\":13949:13951   */\n      0x40\n        /* \"#utility.yul\":13944:13947   */\n      dup3\n        /* \"#utility.yul\":13940:13952   */\n      add\n        /* \"#utility.yul\":13933:13952   */\n      swap1\n      pop\n        /* \"#utility.yul\":13592:13958   */\n      swap2\n      swap1\n      pop\n      jump\t// out\n        /* \"#utility.yul\":13964:14383   */\n    tag_55:\n        /* \"#utility.yul\":14130:14134   */\n      0x00\n        /* \"#utility.yul\":14168:14170   */\n      0x20\n        /* \"#utility.yul\":14157:14166   */\n      dup3\n        /* \"#utility.yul\":14153:14171   */\n      add\n        /* \"#utility.yul\":14145:14171   */\n      swap1\n      pop\n        /* \"#utility.yul\":14217:14226   */\n      dup2\n        /* \"#utility.yul\":14211:14215   */\n      dup2\n        /* \"#utility.yul\":14207:14227   */\n      sub\n        /* \"#utility.yul\":14203:14204   */\n      0x00\n        /* \"#utility.yul\":14192:14201   */\n      dup4\n        /* \"#utility.yul\":14188:14205   */\n      add\n        /* \"#utility.yul\":14181:14228   */\n      mstore\n        /* \"#utility.yul\":14245:14376   */\n      tag_284\n        /* \"#utility.yul\":14371:14375   */\n      dup2\n        /* \"#utility.yul\":14245:14376   */\n      tag_158\n      jump\t// in\n    tag_284:\n        /* \"#utility.yul\":14237:14376   */\n      swap1\n      pop\n        /* \"#utility.yul\":13964:14383   */\n      swap2\n      swap1\n      pop\n      jump\t// out\n        /* \"#utility.yul\":14389:14569   */\n    tag_159:\n        /* \"#utility.yul\":14529:14561   */\n      0x546869732075736572732061726520616c726561647920667269656e64730000\n        /* \"#utility.yul\":14525:14526   */\n      0x00\n        /* \"#utility.yul\":14517:14523   */\n      dup3\n        /* \"#utility.yul\":14513:14527   */\n      add\n        /* \"#utility.yul\":14506:14562   */\n      mstore\n        /* \"#utility.yul\":14389:14569   */\n      pop\n      jump\t// out\n        /* \"#utility.yul\":14575:14941   */\n    tag_160:\n        /* \"#utility.yul\":14717:14720   */\n      0x00\n        /* \"#utility.yul\":14738:14805   */\n      tag_287\n        /* \"#utility.yul\":14802:14804   */\n      0x1e\n        /* \"#utility.yul\":14797:14800   */\n      dup4\n        /* \"#utility.yul\":14738:14805   */\n      tag_146\n      jump\t// in\n    tag_287:\n        /* \"#utility.yul\":14731:14805   */\n      swap2\n      pop\n        /* \"#utility.yul\":14814:14907   */\n      tag_288\n        /* \"#utility.yul\":14903:14906   */\n      dup3\n        /* \"#utility.yul\":14814:14907   */\n      tag_159\n      jump\t// in\n    tag_288:\n        /* \"#utility.yul\":14932:14934   */\n      0x20\n        /* \"#utility.yul\":14927:14930   */\n      dup3\n        /* \"#utility.yul\":14923:14935   */\n      add\n        /* \"#utility.yul\":14916:14935   */\n      swap1\n      pop\n        /* \"#utility.yul\":14575:14941   */\n      swap2\n      swap1\n      pop\n      jump\t// out\n        /* \"#utility.yul\":14947:15366   */\n    tag_60:\n        /* \"#utility.yul\":15113:15117   */\n      0x00\n        /* \"#utility.yul\":15151:15153   */\n      0x20\n        /* \"#utility.yul\":15140:15149   */\n      dup3\n        /* \"#utility.yul\":15136:15154   */\n      add\n        /* \"#utility.yul\":15128:15154   */\n      swap1\n      pop\n        /* \"#utility.yul\":15200:15209   */\n      dup2\n        /* \"#utility.yul\":15194:15198   */\n      dup2\n        /* \"#utility.yul\":15190:15210   */\n      sub\n        /* \"#utility.yul\":15186:15187   */\n      0x00\n        /* \"#utility.yul\":15175:15184   */\n      dup4\n        /* \"#utility.yul\":15171:15188   */\n      add\n        /* \"#utility.yul\":15164:15211   */\n      mstore\n        /* \"#utility.yul\":15228:15359   */\n      tag_290\n        /* \"#utility.yul\":15354:15358   */\n      dup2\n        /* \"#utility.yul\":15228:15359   */\n      tag_160\n      jump\t// in\n    tag_290:\n        /* \"#utility.yul\":15220:15359   */\n      swap1\n      pop\n        /* \"#utility.yul\":14947:15366   */\n      swap2\n      swap1\n      pop\n      jump\t// out\n        /* \"#utility.yul\":15372:15552   */\n    tag_94:\n        /* \"#utility.yul\":15420:15497   */\n      0x4e487b7100000000000000000000000000000000000000000000000000000000\n        /* \"#utility.yul\":15417:15418   */\n      0x00\n        /* \"#utility.yul\":15410:15498   */\n      mstore\n        /* \"#utility.yul\":15517:15521   */\n      0x32\n        /* \"#utility.yul\":15514:15515   */\n      0x04\n        /* \"#utility.yul\":15507:15522   */\n      mstore\n        /* \"#utility.yul\":15541:15545   */\n      0x24\n        /* \"#utility.yul\":15538:15539   */\n      0x00\n        /* \"#utility.yul\":15531:15546   */\n      revert\n        /* \"#utility.yul\":15558:15738   */\n    tag_161:\n        /* \"#utility.yul\":15606:15683   */\n      0x4e487b7100000000000000000000000000000000000000000000000000000000\n        /* \"#utility.yul\":15603:15604   */\n      0x00\n        /* \"#utility.yul\":15596:15684   */\n      mstore\n        /* \"#utility.yul\":15703:15707   */\n      0x11\n        /* \"#utility.yul\":15700:15701   */\n      0x04\n        /* \"#utility.yul\":15693:15708   */\n      mstore\n        /* \"#utility.yul\":15727:15731   */\n      0x24\n        /* \"#utility.yul\":15724:15725   */\n      0x00\n        /* \"#utility.yul\":15717:15732   */\n      revert\n        /* \"#utility.yul\":15744:15821   */\n    tag_162:\n        /* \"#utility.yul\":15781:15788   */\n      0x00\n        /* \"#utility.yul\":15810:15815   */\n      dup2\n        /* \"#utility.yul\":15799:15815   */\n      swap1\n      pop\n        /* \"#utility.yul\":15744:15821   */\n      swap2\n      swap1\n      pop\n      jump\t// out\n        /* \"#utility.yul\":15827:16060   */\n    tag_98:\n        /* \"#utility.yul\":15866:15869   */\n      0x00\n        /* \"#utility.yul\":15889:15913   */\n      tag_295\n        /* \"#utility.yul\":15907:15912   */\n      dup3\n        /* \"#utility.yul\":15889:15913   */\n      tag_162\n      jump\t// in\n    tag_295:\n        /* \"#utility.yul\":15880:15913   */\n      swap2\n      pop\n        /* \"#utility.yul\":15935:16001   */\n      0xffffffffffffffffffffffffffffffffffffffffffffffffffffffffffffffff\n        /* \"#utility.yul\":15928:15933   */\n      dup3\n        /* \"#utility.yul\":15925:16002   */\n      sub\n        /* \"#utility.yul\":15922:16025   */\n      tag_296\n      jumpi\n        /* \"#utility.yul\":16005:16023   */\n      tag_297\n      tag_161\n      jump\t// in\n    tag_297:\n        /* \"#utility.yul\":15922:16025   */\n    tag_296:\n        /* \"#utility.yul\":16052:16053   */\n      0x01\n        /* \"#utility.yul\":16045:16050   */\n      dup3\n        /* \"#utility.yul\":16041:16054   */\n      add\n        /* \"#utility.yul\":16034:16054   */\n      swap1\n      pop\n        /* \"#utility.yul\":15827:16060   */\n      swap2\n      swap1\n      pop\n      jump\t// out\n\n    auxdata: 0xa26469706673582212208d7d5546ce2d2a03dbd094872c6297f4b018ae0cf674dfb0eeeeff96f80adb3664736f6c634300080d0033\n}\n",
				"bytecode": {
					"linkReferences": {},
					"object": "608060405234801561001057600080fd5b5061136f806100206000396000f3fe608060405234801561001057600080fd5b50600436106100575760003560e01c8063133f50f51461005c578063298daf5b1461008c5780633b9f708d146100a8578063bd0f4d0d146100c4578063ce43c032146100e2575b600080fd5b61007660048036038101906100719190610bd1565b610112565b6040516100839190610c19565b60405180910390f35b6100a660048036038101906100a19190610c99565b61016b565b005b6100c260048036038101906100bd9190610ce6565b610255565b005b6100cc6104cb565b6040516100d99190610eed565b60405180910390f35b6100fc60048036038101906100f79190610bd1565b610651565b6040516101099190610f59565b60405180910390f35b6000806000808473ffffffffffffffffffffffffffffffffffffffff1673ffffffffffffffffffffffffffffffffffffffff168152602001908152602001600020600001805461016190610faa565b9050119050919050565b6000151561017833610112565b1515146101ba576040517f08c379a00000000000000000000000000000000000000000000000000000000081526004016101b190611027565b60405180910390fd5b60008282905011610200576040517f08c379a00000000000000000000000000000000000000000000000000000000081526004016101f790611093565b60405180910390fd5b81816000803373ffffffffffffffffffffffffffffffffffffffff1673ffffffffffffffffffffffffffffffffffffffff1681526020019081526020016000206000019190610250929190610a40565b505050565b61025e33610112565b61029d576040517f08c379a0000000000000000000000000000000000000000000000000000000008152600401610294906110ff565b60405180910390fd5b6102a683610112565b6102e5576040517f08c379a00000000000000000000000000000000000000000000000000000000081526004016102dc9061116b565b60405180910390fd5b8273ffffffffffffffffffffffffffffffffffffffff163373ffffffffffffffffffffffffffffffffffffffff1603610353576040517f08c379a000000000000000000000000000000000000000000000000000000000815260040161034a906111fd565b60405180910390fd5b60001515610361338561076c565b1515146103a3576040517f08c379a000000000000000000000000000000000000000000000000000000000815260040161039a90611269565b60405180910390fd5b6103f2338484848080601f016020809104026020016040519081016040528093929190818152602001838380828437600081840152601f19601f8201169050808301925050505050505061093a565b6104c683336000803373ffffffffffffffffffffffffffffffffffffffff1673ffffffffffffffffffffffffffffffffffffffff168152602001908152602001600020600001805461044390610faa565b80601f016020809104026020016040519081016040528092919081815260200182805461046f90610faa565b80156104bc5780601f10610491576101008083540402835291602001916104bc565b820191906000526020600020905b81548152906001019060200180831161049f57829003601f168201915b505050505061093a565b505050565b60606000803373ffffffffffffffffffffffffffffffffffffffff1673ffffffffffffffffffffffffffffffffffffffff168152602001908152602001600020600101805480602002602001604051908101604052809291908181526020016000905b8282101561064857838290600052602060002090600202016040518060400160405290816000820160009054906101000a900473ffffffffffffffffffffffffffffffffffffffff1673ffffffffffffffffffffffffffffffffffffffff1673ffffffffffffffffffffffffffffffffffffffff1681526020016001820180546105b790610faa565b80601f01602080910402602001604051908101604052809291908181526020018280546105e390610faa565b80156106305780601f1061060557610100808354040283529160200191610630565b820191906000526020600020905b81548152906001019060200180831161061357829003601f168201915b5050505050815250508152602001906001019061052e565b50505050905090565b606061065c82610112565b61069b576040517f08c379a00000000000000000000000000000000000000000000000000000000081526004016106929061116b565b60405180910390fd5b6000808373ffffffffffffffffffffffffffffffffffffffff1673ffffffffffffffffffffffffffffffffffffffff16815260200190815260200160002060000180546106e790610faa565b80601f016020809104026020016040519081016040528092919081815260200182805461071390610faa565b80156107605780601f1061073557610100808354040283529160200191610760565b820191906000526020600020905b81548152906001019060200180831161074357829003601f168201915b50505050509050919050565b60008060008373ffffffffffffffffffffffffffffffffffffffff1673ffffffffffffffffffffffffffffffffffffffff168152602001908152602001600020600101805490506000808573ffffffffffffffffffffffffffffffffffffffff1673ffffffffffffffffffffffffffffffffffffffff16815260200190815260200160002060010180549050111561080b576000839050829350809250505b60005b6000808573ffffffffffffffffffffffffffffffffffffffff1673ffffffffffffffffffffffffffffffffffffffff1681526020019081526020016000206001018054905081101561092e578273ffffffffffffffffffffffffffffffffffffffff166000808673ffffffffffffffffffffffffffffffffffffffff1673ffffffffffffffffffffffffffffffffffffffff16815260200190815260200160002060010182815481106108c4576108c3611289565b5b906000526020600020906002020160000160009054906101000a900473ffffffffffffffffffffffffffffffffffffffff1673ffffffffffffffffffffffffffffffffffffffff160361091b576001915050610934565b8080610926906112f1565b91505061080e565b50600090505b92915050565b600060405180604001604052808473ffffffffffffffffffffffffffffffffffffffff1681526020018381525090506000808573ffffffffffffffffffffffffffffffffffffffff1673ffffffffffffffffffffffffffffffffffffffff16815260200190815260200160002060010181908060018154018082558091505060019003906000526020600020906002020160009091909190915060008201518160000160006101000a81548173ffffffffffffffffffffffffffffffffffffffff021916908373ffffffffffffffffffffffffffffffffffffffff1602179055506020820151816001019080519060200190610a37929190610ac6565b50505050505050565b828054610a4c90610faa565b90600052602060002090601f016020900481019282610a6e5760008555610ab5565b82601f10610a8757803560ff1916838001178555610ab5565b82800160010185558215610ab5579182015b82811115610ab4578235825591602001919060010190610a99565b5b509050610ac29190610b4c565b5090565b828054610ad290610faa565b90600052602060002090601f016020900481019282610af45760008555610b3b565b82601f10610b0d57805160ff1916838001178555610b3b565b82800160010185558215610b3b579182015b82811115610b3a578251825591602001919060010190610b1f565b5b509050610b489190610b4c565b5090565b5b80821115610b65576000816000905550600101610b4d565b5090565b600080fd5b600080fd5b600073ffffffffffffffffffffffffffffffffffffffff82169050919050565b6000610b9e82610b73565b9050919050565b610bae81610b93565b8114610bb957600080fd5b50565b600081359050610bcb81610ba5565b92915050565b600060208284031215610be757610be6610b69565b5b6000610bf584828501610bbc565b91505092915050565b60008115159050919050565b610c1381610bfe565b82525050565b6000602082019050610c2e6000830184610c0a565b92915050565b600080fd5b600080fd5b600080fd5b60008083601f840112610c5957610c58610c34565b5b8235905067ffffffffffffffff811115610c7657610c75610c39565b5b602083019150836001820283011115610c9257610c91610c3e565b5b9250929050565b60008060208385031215610cb057610caf610b69565b5b600083013567ffffffffffffffff811115610cce57610ccd610b6e565b5b610cda85828601610c43565b92509250509250929050565b600080600060408486031215610cff57610cfe610b69565b5b6000610d0d86828701610bbc565b935050602084013567ffffffffffffffff811115610d2e57610d2d610b6e565b5b610d3a86828701610c43565b92509250509250925092565b600081519050919050565b600082825260208201905092915050565b6000819050602082019050919050565b610d7b81610b93565b82525050565b600081519050919050565b600082825260208201905092915050565b60005b83811015610dbb578082015181840152602081019050610da0565b83811115610dca576000848401525b50505050565b6000601f19601f8301169050919050565b6000610dec82610d81565b610df68185610d8c565b9350610e06818560208601610d9d565b610e0f81610dd0565b840191505092915050565b6000604083016000830151610e326000860182610d72565b5060208301518482036020860152610e4a8282610de1565b9150508091505092915050565b6000610e638383610e1a565b905092915050565b6000602082019050919050565b6000610e8382610d46565b610e8d8185610d51565b935083602082028501610e9f85610d62565b8060005b85811015610edb5784840389528151610ebc8582610e57565b9450610ec783610e6b565b925060208a01995050600181019050610ea3565b50829750879550505050505092915050565b60006020820190508181036000830152610f078184610e78565b905092915050565b600082825260208201905092915050565b6000610f2b82610d81565b610f358185610f0f565b9350610f45818560208601610d9d565b610f4e81610dd0565b840191505092915050565b60006020820190508181036000830152610f738184610f20565b905092915050565b7f4e487b7100000000000000000000000000000000000000000000000000000000600052602260045260246000fd5b60006002820490506001821680610fc257607f821691505b602082108103610fd557610fd4610f7b565b5b50919050565b7f5573657220416c72656164792045786973740000000000000000000000000000600082015250565b6000611011601283610f0f565b915061101c82610fdb565b602082019050919050565b6000602082019050818103600083015261104081611004565b9050919050565b7f557365726e616d652063616e6e6f7420626520656d7074790000000000000000600082015250565b600061107d601883610f0f565b915061108882611047565b602082019050919050565b600060208201905081810360008301526110ac81611070565b9050919050565b7f506c656173652063726561746520616e206163636f756e740000000000000000600082015250565b60006110e9601883610f0f565b91506110f4826110b3565b602082019050919050565b60006020820190508181036000830152611118816110dc565b9050919050565b7f55736572206973206e6f74207265676973746572656400000000000000000000600082015250565b6000611155601683610f0f565b91506111608261111f565b602082019050919050565b6000602082019050818103600083015261118481611148565b9050919050565b7f757365722063616e206e6f74207468656d73656c76657320617320667269656e60008201527f6400000000000000000000000000000000000000000000000000000000000000602082015250565b60006111e7602183610f0f565b91506111f28261118b565b604082019050919050565b60006020820190508181036000830152611216816111da565b9050919050565b7f546869732075736572732061726520616c726561647920667269656e64730000600082015250565b6000611253601e83610f0f565b915061125e8261121d565b602082019050919050565b6000602082019050818103600083015261128281611246565b9050919050565b7f4e487b7100000000000000000000000000000000000000000000000000000000600052603260045260246000fd5b7f4e487b7100000000000000000000000000000000000000000000000000000000600052601160045260246000fd5b6000819050919050565b60006112fc826112e7565b91507fffffffffffffffffffffffffffffffffffffffffffffffffffffffffffffffff820361132e5761132d6112b8565b5b60018201905091905056fea26469706673582212208d7d5546ce2d2a03dbd094872c6297f4b018ae0cf674dfb0eeeeff96f80adb3664736f6c634300080d0033",
					"opcodes": "PUSH1 0x80 PUSH1 0x40 MSTORE CALLVALUE DUP1 ISZERO PUSH2 0x10 JUMPI PUSH1 0x0 DUP1 REVERT JUMPDEST POP PUSH2 0x136F DUP1 PUSH2 0x20 PUSH1 0x0 CODECOPY PUSH1 0x0 RETURN INVALID PUSH1 0x80 PUSH1 0x40 MSTORE CALLVALUE DUP1 ISZERO PUSH2 0x10 JUMPI PUSH1 0x0 DUP1 REVERT JUMPDEST POP PUSH1 0x4 CALLDATASIZE LT PUSH2 0x57 JUMPI PUSH1 0x0 CALLDATALOAD PUSH1 0xE0 SHR DUP1 PUSH4 0x133F50F5 EQ PUSH2 0x5C JUMPI DUP1 PUSH4 0x298DAF5B EQ PUSH2 0x8C JUMPI DUP1 PUSH4 0x3B9F708D EQ PUSH2 0xA8 JUMPI DUP1 PUSH4 0xBD0F4D0D EQ PUSH2 0xC4 JUMPI DUP1 PUSH4 0xCE43C032 EQ PUSH2 0xE2 JUMPI JUMPDEST PUSH1 0x0 DUP1 REVERT JUMPDEST PUSH2 0x76 PUSH1 0x4 DUP1 CALLDATASIZE SUB DUP2 ADD SWAP1 PUSH2 0x71 SWAP2 SWAP1 PUSH2 0xBD1 JUMP JUMPDEST PUSH2 0x112 JUMP JUMPDEST PUSH1 0x40 MLOAD PUSH2 0x83 SWAP2 SWAP1 PUSH2 0xC19 JUMP JUMPDEST PUSH1 0x40 MLOAD DUP1 SWAP2 SUB SWAP1 RETURN JUMPDEST PUSH2 0xA6 PUSH1 0x4 DUP1 CALLDATASIZE SUB DUP2 ADD SWAP1 PUSH2 0xA1 SWAP2 SWAP1 PUSH2 0xC99 JUMP JUMPDEST PUSH2 0x16B JUMP JUMPDEST STOP JUMPDEST PUSH2 0xC2 PUSH1 0x4 DUP1 CALLDATASIZE SUB DUP2 ADD SWAP1 PUSH2 0xBD SWAP2 SWAP1 PUSH2 0xCE6 JUMP JUMPDEST PUSH2 0x255 JUMP JUMPDEST STOP JUMPDEST PUSH2 0xCC PUSH2 0x4CB JUMP JUMPDEST PUSH1 0x40 MLOAD PUSH2 0xD9 SWAP2 SWAP1 PUSH2 0xEED JUMP JUMPDEST PUSH1 0x40 MLOAD DUP1 SWAP2 SUB SWAP1 RETURN JUMPDEST PUSH2 0xFC PUSH1 0x4 DUP1 CALLDATASIZE SUB DUP2 ADD SWAP1 PUSH2 0xF7 SWAP2 SWAP1 PUSH2 0xBD1 JUMP JUMPDEST PUSH2 0x651 JUMP JUMPDEST PUSH1 0x40 MLOAD PUSH2 0x109 SWAP2 SWAP1 PUSH2 0xF59 JUMP JUMPDEST PUSH1 0x40 MLOAD DUP1 SWAP2 SUB SWAP1 RETURN JUMPDEST PUSH1 0x0 DUP1 PUSH1 0x0 DUP1 DUP5 PUSH20 0xFFFFFFFFFFFFFFFFFFFFFFFFFFFFFFFFFFFFFFFF AND PUSH20 0xFFFFFFFFFFFFFFFFFFFFFFFFFFFFFFFFFFFFFFFF AND DUP2 MSTORE PUSH1 0x20 ADD SWAP1 DUP2 MSTORE PUSH1 0x20 ADD PUSH1 0x0 KECCAK256 PUSH1 0x0 ADD DUP1 SLOAD PUSH2 0x161 SWAP1 PUSH2 0xFAA JUMP JUMPDEST SWAP1 POP GT SWAP1 POP SWAP2 SWAP1 POP JUMP JUMPDEST PUSH1 0x0 ISZERO ISZERO PUSH2 0x178 CALLER PUSH2 0x112 JUMP JUMPDEST ISZERO ISZERO EQ PUSH2 0x1BA JUMPI PUSH1 0x40 MLOAD PUSH32 0x8C379A000000000000000000000000000000000000000000000000000000000 DUP2 MSTORE PUSH1 0x4 ADD PUSH2 0x1B1 SWAP1 PUSH2 0x1027 JUMP JUMPDEST PUSH1 0x40 MLOAD DUP1 SWAP2 SUB SWAP1 REVERT JUMPDEST PUSH1 0x0 DUP3 DUP3 SWAP1 POP GT PUSH2 0x200 JUMPI PUSH1 0x40 MLOAD PUSH32 0x8C379A000000000000000000000000000000000000000000000000000000000 DUP2 MSTORE PUSH1 0x4 ADD PUSH2 0x1F7 SWAP1 PUSH2 0x1093 JUMP JUMPDEST PUSH1 0x40 MLOAD DUP1 SWAP2 SUB SWAP1 REVERT JUMPDEST DUP2 DUP2 PUSH1 0x0 DUP1 CALLER PUSH20 0xFFFFFFFFFFFFFFFFFFFFFFFFFFFFFFFFFFFFFFFF AND PUSH20 0xFFFFFFFFFFFFFFFFFFFFFFFFFFFFFFFFFFFFFFFF AND DUP2 MSTORE PUSH1 0x20 ADD SWAP1 DUP2 MSTORE PUSH1 0x20 ADD PUSH1 0x0 KECCAK256 PUSH1 0x0 ADD SWAP2 SWAP1 PUSH2 0x250 SWAP3 SWAP2 SWAP1 PUSH2 0xA40 JUMP JUMPDEST POP POP POP JUMP JUMPDEST PUSH2 0x25E CALLER PUSH2 0x112 JUMP JUMPDEST PUSH2 0x29D JUMPI PUSH1 0x40 MLOAD PUSH32 0x8C379A000000000000000000000000000000000000000000000000000000000 DUP2 MSTORE PUSH1 0x4 ADD PUSH2 0x294 SWAP1 PUSH2 0x10FF JUMP JUMPDEST PUSH1 0x40 MLOAD DUP1 SWAP2 SUB SWAP1 REVERT JUMPDEST PUSH2 0x2A6 DUP4 PUSH2 0x112 JUMP JUMPDEST PUSH2 0x2E5 JUMPI PUSH1 0x40 MLOAD PUSH32 0x8C379A000000000000000000000000000000000000000000000000000000000 DUP2 MSTORE PUSH1 0x4 ADD PUSH2 0x2DC SWAP1 PUSH2 0x116B JUMP JUMPDEST PUSH1 0x40 MLOAD DUP1 SWAP2 SUB SWAP1 REVERT JUMPDEST DUP3 PUSH20 0xFFFFFFFFFFFFFFFFFFFFFFFFFFFFFFFFFFFFFFFF AND CALLER PUSH20 0xFFFFFFFFFFFFFFFFFFFFFFFFFFFFFFFFFFFFFFFF AND SUB PUSH2 0x353 JUMPI PUSH1 0x40 MLOAD PUSH32 0x8C379A000000000000000000000000000000000000000000000000000000000 DUP2 MSTORE PUSH1 0x4 ADD PUSH2 0x34A SWAP1 PUSH2 0x11FD JUMP JUMPDEST PUSH1 0x40 MLOAD DUP1 SWAP2 SUB SWAP1 REVERT JUMPDEST PUSH1 0x0 ISZERO ISZERO PUSH2 0x361 CALLER DUP6 PUSH2 0x76C JUMP JUMPDEST ISZERO ISZERO EQ PUSH2 0x3A3 JUMPI PUSH1 0x40 MLOAD PUSH32 0x8C379A000000000000000000000000000000000000000000000000000000000 DUP2 MSTORE PUSH1 0x4 ADD PUSH2 0x39A SWAP1 PUSH2 0x1269 JUMP JUMPDEST PUSH1 0x40 MLOAD DUP1 SWAP2 SUB SWAP1 REVERT JUMPDEST PUSH2 0x3F2 CALLER DUP5 DUP5 DUP5 DUP1 DUP1 PUSH1 0x1F ADD PUSH1 0x20 DUP1 SWAP2 DIV MUL PUSH1 0x20 ADD PUSH1 0x40 MLOAD SWAP1 DUP2 ADD PUSH1 0x40 MSTORE DUP1 SWAP4 SWAP3 SWAP2 SWAP1 DUP2 DUP2 MSTORE PUSH1 0x20 ADD DUP4 DUP4 DUP1 DUP3 DUP5 CALLDATACOPY PUSH1 0x0 DUP2 DUP5 ADD MSTORE PUSH1 0x1F NOT PUSH1 0x1F DUP3 ADD AND SWAP1 POP DUP1 DUP4 ADD SWAP3 POP POP POP POP POP POP POP PUSH2 0x93A JUMP JUMPDEST PUSH2 0x4C6 DUP4 CALLER PUSH1 0x0 DUP1 CALLER PUSH20 0xFFFFFFFFFFFFFFFFFFFFFFFFFFFFFFFFFFFFFFFF AND PUSH20 0xFFFFFFFFFFFFFFFFFFFFFFFFFFFFFFFFFFFFFFFF AND DUP2 MSTORE PUSH1 0x20 ADD SWAP1 DUP2 MSTORE PUSH1 0x20 ADD PUSH1 0x0 KECCAK256 PUSH1 0x0 ADD DUP1 SLOAD PUSH2 0x443 SWAP1 PUSH2 0xFAA JUMP JUMPDEST DUP1 PUSH1 0x1F ADD PUSH1 0x20 DUP1 SWAP2 DIV MUL PUSH1 0x20 ADD PUSH1 0x40 MLOAD SWAP1 DUP2 ADD PUSH1 0x40 MSTORE DUP1 SWAP3 SWAP2 SWAP1 DUP2 DUP2 MSTORE PUSH1 0x20 ADD DUP3 DUP1 SLOAD PUSH2 0x46F SWAP1 PUSH2 0xFAA JUMP JUMPDEST DUP1 ISZERO PUSH2 0x4BC JUMPI DUP1 PUSH1 0x1F LT PUSH2 0x491 JUMPI PUSH2 0x100 DUP1 DUP4 SLOAD DIV MUL DUP4 MSTORE SWAP2 PUSH1 0x20 ADD SWAP2 PUSH2 0x4BC JUMP JUMPDEST DUP3 ADD SWAP2 SWAP1 PUSH1 0x0 MSTORE PUSH1 0x20 PUSH1 0x0 KECCAK256 SWAP1 JUMPDEST DUP2 SLOAD DUP2 MSTORE SWAP1 PUSH1 0x1 ADD SWAP1 PUSH1 0x20 ADD DUP1 DUP4 GT PUSH2 0x49F JUMPI DUP3 SWAP1 SUB PUSH1 0x1F AND DUP3 ADD SWAP2 JUMPDEST POP POP POP POP POP PUSH2 0x93A JUMP JUMPDEST POP POP POP JUMP JUMPDEST PUSH1 0x60 PUSH1 0x0 DUP1 CALLER PUSH20 0xFFFFFFFFFFFFFFFFFFFFFFFFFFFFFFFFFFFFFFFF AND PUSH20 0xFFFFFFFFFFFFFFFFFFFFFFFFFFFFFFFFFFFFFFFF AND DUP2 MSTORE PUSH1 0x20 ADD SWAP1 DUP2 MSTORE PUSH1 0x20 ADD PUSH1 0x0 KECCAK256 PUSH1 0x1 ADD DUP1 SLOAD DUP1 PUSH1 0x20 MUL PUSH1 0x20 ADD PUSH1 0x40 MLOAD SWAP1 DUP2 ADD PUSH1 0x40 MSTORE DUP1 SWAP3 SWAP2 SWAP1 DUP2 DUP2 MSTORE PUSH1 0x20 ADD PUSH1 0x0 SWAP1 JUMPDEST DUP3 DUP3 LT ISZERO PUSH2 0x648 JUMPI DUP4 DUP3 SWAP1 PUSH1 0x0 MSTORE PUSH1 0x20 PUSH1 0x0 KECCAK256 SWAP1 PUSH1 0x2 MUL ADD PUSH1 0x40 MLOAD DUP1 PUSH1 0x40 ADD PUSH1 0x40 MSTORE SWAP1 DUP2 PUSH1 0x0 DUP3 ADD PUSH1 0x0 SWAP1 SLOAD SWAP1 PUSH2 0x100 EXP SWAP1 DIV PUSH20 0xFFFFFFFFFFFFFFFFFFFFFFFFFFFFFFFFFFFFFFFF AND PUSH20 0xFFFFFFFFFFFFFFFFFFFFFFFFFFFFFFFFFFFFFFFF AND PUSH20 0xFFFFFFFFFFFFFFFFFFFFFFFFFFFFFFFFFFFFFFFF AND DUP2 MSTORE PUSH1 0x20 ADD PUSH1 0x1 DUP3 ADD DUP1 SLOAD PUSH2 0x5B7 SWAP1 PUSH2 0xFAA JUMP JUMPDEST DUP1 PUSH1 0x1F ADD PUSH1 0x20 DUP1 SWAP2 DIV MUL PUSH1 0x20 ADD PUSH1 0x40 MLOAD SWAP1 DUP2 ADD PUSH1 0x40 MSTORE DUP1 SWAP3 SWAP2 SWAP1 DUP2 DUP2 MSTORE PUSH1 0x20 ADD DUP3 DUP1 SLOAD PUSH2 0x5E3 SWAP1 PUSH2 0xFAA JUMP JUMPDEST DUP1 ISZERO PUSH2 0x630 JUMPI DUP1 PUSH1 0x1F LT PUSH2 0x605 JUMPI PUSH2 0x100 DUP1 DUP4 SLOAD DIV MUL DUP4 MSTORE SWAP2 PUSH1 0x20 ADD SWAP2 PUSH2 0x630 JUMP JUMPDEST DUP3 ADD SWAP2 SWAP1 PUSH1 0x0 MSTORE PUSH1 0x20 PUSH1 0x0 KECCAK256 SWAP1 JUMPDEST DUP2 SLOAD DUP2 MSTORE SWAP1 PUSH1 0x1 ADD SWAP1 PUSH1 0x20 ADD DUP1 DUP4 GT PUSH2 0x613 JUMPI DUP3 SWAP1 SUB PUSH1 0x1F AND DUP3 ADD SWAP2 JUMPDEST POP POP POP POP POP DUP2 MSTORE POP POP DUP2 MSTORE PUSH1 0x20 ADD SWAP1 PUSH1 0x1 ADD SWAP1 PUSH2 0x52E JUMP JUMPDEST POP POP POP POP SWAP1 POP SWAP1 JUMP JUMPDEST PUSH1 0x60 PUSH2 0x65C DUP3 PUSH2 0x112 JUMP JUMPDEST PUSH2 0x69B JUMPI PUSH1 0x40 MLOAD PUSH32 0x8C379A000000000000000000000000000000000000000000000000000000000 DUP2 MSTORE PUSH1 0x4 ADD PUSH2 0x692 SWAP1 PUSH2 0x116B JUMP JUMPDEST PUSH1 0x40 MLOAD DUP1 SWAP2 SUB SWAP1 REVERT JUMPDEST PUSH1 0x0 DUP1 DUP4 PUSH20 0xFFFFFFFFFFFFFFFFFFFFFFFFFFFFFFFFFFFFFFFF AND PUSH20 0xFFFFFFFFFFFFFFFFFFFFFFFFFFFFFFFFFFFFFFFF AND DUP2 MSTORE PUSH1 0x20 ADD SWAP1 DUP2 MSTORE PUSH1 0x20 ADD PUSH1 0x0 KECCAK256 PUSH1 0x0 ADD DUP1 SLOAD PUSH2 0x6E7 SWAP1 PUSH2 0xFAA JUMP JUMPDEST DUP1 PUSH1 0x1F ADD PUSH1 0x20 DUP1 SWAP2 DIV MUL PUSH1 0x20 ADD PUSH1 0x40 MLOAD SWAP1 DUP2 ADD PUSH1 0x40 MSTORE DUP1 SWAP3 SWAP2 SWAP1 DUP2 DUP2 MSTORE PUSH1 0x20 ADD DUP3 DUP1 SLOAD PUSH2 0x713 SWAP1 PUSH2 0xFAA JUMP JUMPDEST DUP1 ISZERO PUSH2 0x760 JUMPI DUP1 PUSH1 0x1F LT PUSH2 0x735 JUMPI PUSH2 0x100 DUP1 DUP4 SLOAD DIV MUL DUP4 MSTORE SWAP2 PUSH1 0x20 ADD SWAP2 PUSH2 0x760 JUMP JUMPDEST DUP3 ADD SWAP2 SWAP1 PUSH1 0x0 MSTORE PUSH1 0x20 PUSH1 0x0 KECCAK256 SWAP1 JUMPDEST DUP2 SLOAD DUP2 MSTORE SWAP1 PUSH1 0x1 ADD SWAP1 PUSH1 0x20 ADD DUP1 DUP4 GT PUSH2 0x743 JUMPI DUP3 SWAP1 SUB PUSH1 0x1F AND DUP3 ADD SWAP2 JUMPDEST POP POP POP POP POP SWAP1 POP SWAP2 SWAP1 POP JUMP JUMPDEST PUSH1 0x0 DUP1 PUSH1 0x0 DUP4 PUSH20 0xFFFFFFFFFFFFFFFFFFFFFFFFFFFFFFFFFFFFFFFF AND PUSH20 0xFFFFFFFFFFFFFFFFFFFFFFFFFFFFFFFFFFFFFFFF AND DUP2 MSTORE PUSH1 0x20 ADD SWAP1 DUP2 MSTORE PUSH1 0x20 ADD PUSH1 0x0 KECCAK256 PUSH1 0x1 ADD DUP1 SLOAD SWAP1 POP PUSH1 0x0 DUP1 DUP6 PUSH20 0xFFFFFFFFFFFFFFFFFFFFFFFFFFFFFFFFFFFFFFFF AND PUSH20 0xFFFFFFFFFFFFFFFFFFFFFFFFFFFFFFFFFFFFFFFF AND DUP2 MSTORE PUSH1 0x20 ADD SWAP1 DUP2 MSTORE PUSH1 0x20 ADD PUSH1 0x0 KECCAK256 PUSH1 0x1 ADD DUP1 SLOAD SWAP1 POP GT ISZERO PUSH2 0x80B JUMPI PUSH1 0x0 DUP4 SWAP1 POP DUP3 SWAP4 POP DUP1 SWAP3 POP POP JUMPDEST PUSH1 0x0 JUMPDEST PUSH1 0x0 DUP1 DUP6 PUSH20 0xFFFFFFFFFFFFFFFFFFFFFFFFFFFFFFFFFFFFFFFF AND PUSH20 0xFFFFFFFFFFFFFFFFFFFFFFFFFFFFFFFFFFFFFFFF AND DUP2 MSTORE PUSH1 0x20 ADD SWAP1 DUP2 MSTORE PUSH1 0x20 ADD PUSH1 0x0 KECCAK256 PUSH1 0x1 ADD DUP1 SLOAD SWAP1 POP DUP2 LT ISZERO PUSH2 0x92E JUMPI DUP3 PUSH20 0xFFFFFFFFFFFFFFFFFFFFFFFFFFFFFFFFFFFFFFFF AND PUSH1 0x0 DUP1 DUP7 PUSH20 0xFFFFFFFFFFFFFFFFFFFFFFFFFFFFFFFFFFFFFFFF AND PUSH20 0xFFFFFFFFFFFFFFFFFFFFFFFFFFFFFFFFFFFFFFFF AND DUP2 MSTORE PUSH1 0x20 ADD SWAP1 DUP2 MSTORE PUSH1 0x20 ADD PUSH1 0x0 KECCAK256 PUSH1 0x1 ADD DUP3 DUP2 SLOAD DUP2 LT PUSH2 0x8C4 JUMPI PUSH2 0x8C3 PUSH2 0x1289 JUMP JUMPDEST JUMPDEST SWAP1 PUSH1 0x0 MSTORE PUSH1 0x20 PUSH1 0x0 KECCAK256 SWAP1 PUSH1 0x2 MUL ADD PUSH1 0x0 ADD PUSH1 0x0 SWAP1 SLOAD SWAP1 PUSH2 0x100 EXP SWAP1 DIV PUSH20 0xFFFFFFFFFFFFFFFFFFFFFFFFFFFFFFFFFFFFFFFF AND PUSH20 0xFFFFFFFFFFFFFFFFFFFFFFFFFFFFFFFFFFFFFFFF AND SUB PUSH2 0x91B JUMPI PUSH1 0x1 SWAP2 POP POP PUSH2 0x934 JUMP JUMPDEST DUP1 DUP1 PUSH2 0x926 SWAP1 PUSH2 0x12F1 JUMP JUMPDEST SWAP2 POP POP PUSH2 0x80E JUMP JUMPDEST POP PUSH1 0x0 SWAP1 POP JUMPDEST SWAP3 SWAP2 POP POP JUMP JUMPDEST PUSH1 0x0 PUSH1 0x40 MLOAD DUP1 PUSH1 0x40 ADD PUSH1 0x40 MSTORE DUP1 DUP5 PUSH20 0xFFFFFFFFFFFFFFFFFFFFFFFFFFFFFFFFFFFFFFFF AND DUP2 MSTORE PUSH1 0x20 ADD DUP4 DUP2 MSTORE POP SWAP1 POP PUSH1 0x0 DUP1 DUP6 PUSH20 0xFFFFFFFFFFFFFFFFFFFFFFFFFFFFFFFFFFFFFFFF AND PUSH20 0xFFFFFFFFFFFFFFFFFFFFFFFFFFFFFFFFFFFFFFFF AND DUP2 MSTORE PUSH1 0x20 ADD SWAP1 DUP2 MSTORE PUSH1 0x20 ADD PUSH1 0x0 KECCAK256 PUSH1 0x1 ADD DUP2 SWAP1 DUP1 PUSH1 0x1 DUP2 SLOAD ADD DUP1 DUP3 SSTORE DUP1 SWAP2 POP POP PUSH1 0x1 SWAP1 SUB SWAP1 PUSH1 0x0 MSTORE PUSH1 0x20 PUSH1 0x0 KECCAK256 SWAP1 PUSH1 0x2 MUL ADD PUSH1 0x0 SWAP1 SWAP2 SWAP1 SWAP2 SWAP1 SWAP2 POP PUSH1 0x0 DUP3 ADD MLOAD DUP2 PUSH1 0x0 ADD PUSH1 0x0 PUSH2 0x100 EXP DUP2 SLOAD DUP2 PUSH20 0xFFFFFFFFFFFFFFFFFFFFFFFFFFFFFFFFFFFFFFFF MUL NOT AND SWAP1 DUP4 PUSH20 0xFFFFFFFFFFFFFFFFFFFFFFFFFFFFFFFFFFFFFFFF AND MUL OR SWAP1 SSTORE POP PUSH1 0x20 DUP3 ADD MLOAD DUP2 PUSH1 0x1 ADD SWAP1 DUP1 MLOAD SWAP1 PUSH1 0x20 ADD SWAP1 PUSH2 0xA37 SWAP3 SWAP2 SWAP1 PUSH2 0xAC6 JUMP JUMPDEST POP POP POP POP POP POP POP JUMP JUMPDEST DUP3 DUP1 SLOAD PUSH2 0xA4C SWAP1 PUSH2 0xFAA JUMP JUMPDEST SWAP1 PUSH1 0x0 MSTORE PUSH1 0x20 PUSH1 0x0 KECCAK256 SWAP1 PUSH1 0x1F ADD PUSH1 0x20 SWAP1 DIV DUP2 ADD SWAP3 DUP3 PUSH2 0xA6E JUMPI PUSH1 0x0 DUP6 SSTORE PUSH2 0xAB5 JUMP JUMPDEST DUP3 PUSH1 0x1F LT PUSH2 0xA87 JUMPI DUP1 CALLDATALOAD PUSH1 0xFF NOT AND DUP4 DUP1 ADD OR DUP6 SSTORE PUSH2 0xAB5 JUMP JUMPDEST DUP3 DUP1 ADD PUSH1 0x1 ADD DUP6 SSTORE DUP3 ISZERO PUSH2 0xAB5 JUMPI SWAP2 DUP3 ADD JUMPDEST DUP3 DUP2 GT ISZERO PUSH2 0xAB4 JUMPI DUP3 CALLDATALOAD DUP3 SSTORE SWAP2 PUSH1 0x20 ADD SWAP2 SWAP1 PUSH1 0x1 ADD SWAP1 PUSH2 0xA99 JUMP JUMPDEST JUMPDEST POP SWAP1 POP PUSH2 0xAC2 SWAP2 SWAP1 PUSH2 0xB4C JUMP JUMPDEST POP SWAP1 JUMP JUMPDEST DUP3 DUP1 SLOAD PUSH2 0xAD2 SWAP1 PUSH2 0xFAA JUMP JUMPDEST SWAP1 PUSH1 0x0 MSTORE PUSH1 0x20 PUSH1 0x0 KECCAK256 SWAP1 PUSH1 0x1F ADD PUSH1 0x20 SWAP1 DIV DUP2 ADD SWAP3 DUP3 PUSH2 0xAF4 JUMPI PUSH1 0x0 DUP6 SSTORE PUSH2 0xB3B JUMP JUMPDEST DUP3 PUSH1 0x1F LT PUSH2 0xB0D JUMPI DUP1 MLOAD PUSH1 0xFF NOT AND DUP4 DUP1 ADD OR DUP6 SSTORE PUSH2 0xB3B JUMP JUMPDEST DUP3 DUP1 ADD PUSH1 0x1 ADD DUP6 SSTORE DUP3 ISZERO PUSH2 0xB3B JUMPI SWAP2 DUP3 ADD JUMPDEST DUP3 DUP2 GT ISZERO PUSH2 0xB3A JUMPI DUP3 MLOAD DUP3 SSTORE SWAP2 PUSH1 0x20 ADD SWAP2 SWAP1 PUSH1 0x1 ADD SWAP1 PUSH2 0xB1F JUMP JUMPDEST JUMPDEST POP SWAP1 POP PUSH2 0xB48 SWAP2 SWAP1 PUSH2 0xB4C JUMP JUMPDEST POP SWAP1 JUMP JUMPDEST JUMPDEST DUP1 DUP3 GT ISZERO PUSH2 0xB65 JUMPI PUSH1 0x0 DUP2 PUSH1 0x0 SWAP1 SSTORE POP PUSH1 0x1 ADD PUSH2 0xB4D JUMP JUMPDEST POP SWAP1 JUMP JUMPDEST PUSH1 0x0 DUP1 REVERT JUMPDEST PUSH1 0x0 DUP1 REVERT JUMPDEST PUSH1 0x0 PUSH20 0xFFFFFFFFFFFFFFFFFFFFFFFFFFFFFFFFFFFFFFFF DUP3 AND SWAP1 POP SWAP2 SWAP1 POP JUMP JUMPDEST PUSH1 0x0 PUSH2 0xB9E DUP3 PUSH2 0xB73 JUMP JUMPDEST SWAP1 POP SWAP2 SWAP1 POP JUMP JUMPDEST PUSH2 0xBAE DUP2 PUSH2 0xB93 JUMP JUMPDEST DUP2 EQ PUSH2 0xBB9 JUMPI PUSH1 0x0 DUP1 REVERT JUMPDEST POP JUMP JUMPDEST PUSH1 0x0 DUP2 CALLDATALOAD SWAP1 POP PUSH2 0xBCB DUP2 PUSH2 0xBA5 JUMP JUMPDEST SWAP3 SWAP2 POP POP JUMP JUMPDEST PUSH1 0x0 PUSH1 0x20 DUP3 DUP5 SUB SLT ISZERO PUSH2 0xBE7 JUMPI PUSH2 0xBE6 PUSH2 0xB69 JUMP JUMPDEST JUMPDEST PUSH1 0x0 PUSH2 0xBF5 DUP5 DUP3 DUP6 ADD PUSH2 0xBBC JUMP JUMPDEST SWAP2 POP POP SWAP3 SWAP2 POP POP JUMP JUMPDEST PUSH1 0x0 DUP2 ISZERO ISZERO SWAP1 POP SWAP2 SWAP1 POP JUMP JUMPDEST PUSH2 0xC13 DUP2 PUSH2 0xBFE JUMP JUMPDEST DUP3 MSTORE POP POP JUMP JUMPDEST PUSH1 0x0 PUSH1 0x20 DUP3 ADD SWAP1 POP PUSH2 0xC2E PUSH1 0x0 DUP4 ADD DUP5 PUSH2 0xC0A JUMP JUMPDEST SWAP3 SWAP2 POP POP JUMP JUMPDEST PUSH1 0x0 DUP1 REVERT JUMPDEST PUSH1 0x0 DUP1 REVERT JUMPDEST PUSH1 0x0 DUP1 REVERT JUMPDEST PUSH1 0x0 DUP1 DUP4 PUSH1 0x1F DUP5 ADD SLT PUSH2 0xC59 JUMPI PUSH2 0xC58 PUSH2 0xC34 JUMP JUMPDEST JUMPDEST DUP3 CALLDATALOAD SWAP1 POP PUSH8 0xFFFFFFFFFFFFFFFF DUP2 GT ISZERO PUSH2 0xC76 JUMPI PUSH2 0xC75 PUSH2 0xC39 JUMP JUMPDEST JUMPDEST PUSH1 0x20 DUP4 ADD SWAP2 POP DUP4 PUSH1 0x1 DUP3 MUL DUP4 ADD GT ISZERO PUSH2 0xC92 JUMPI PUSH2 0xC91 PUSH2 0xC3E JUMP JUMPDEST JUMPDEST SWAP3 POP SWAP3 SWAP1 POP JUMP JUMPDEST PUSH1 0x0 DUP1 PUSH1 0x20 DUP4 DUP6 SUB SLT ISZERO PUSH2 0xCB0 JUMPI PUSH2 0xCAF PUSH2 0xB69 JUMP JUMPDEST JUMPDEST PUSH1 0x0 DUP4 ADD CALLDATALOAD PUSH8 0xFFFFFFFFFFFFFFFF DUP2 GT ISZERO PUSH2 0xCCE JUMPI PUSH2 0xCCD PUSH2 0xB6E JUMP JUMPDEST JUMPDEST PUSH2 0xCDA DUP6 DUP3 DUP7 ADD PUSH2 0xC43 JUMP JUMPDEST SWAP3 POP SWAP3 POP POP SWAP3 POP SWAP3 SWAP1 POP JUMP JUMPDEST PUSH1 0x0 DUP1 PUSH1 0x0 PUSH1 0x40 DUP5 DUP7 SUB SLT ISZERO PUSH2 0xCFF JUMPI PUSH2 0xCFE PUSH2 0xB69 JUMP JUMPDEST JUMPDEST PUSH1 0x0 PUSH2 0xD0D DUP7 DUP3 DUP8 ADD PUSH2 0xBBC JUMP JUMPDEST SWAP4 POP POP PUSH1 0x20 DUP5 ADD CALLDATALOAD PUSH8 0xFFFFFFFFFFFFFFFF DUP2 GT ISZERO PUSH2 0xD2E JUMPI PUSH2 0xD2D PUSH2 0xB6E JUMP JUMPDEST JUMPDEST PUSH2 0xD3A DUP7 DUP3 DUP8 ADD PUSH2 0xC43 JUMP JUMPDEST SWAP3 POP SWAP3 POP POP SWAP3 POP SWAP3 POP SWAP3 JUMP JUMPDEST PUSH1 0x0 DUP2 MLOAD SWAP1 POP SWAP2 SWAP1 POP JUMP JUMPDEST PUSH1 0x0 DUP3 DUP3 MSTORE PUSH1 0x20 DUP3 ADD SWAP1 POP SWAP3 SWAP2 POP POP JUMP JUMPDEST PUSH1 0x0 DUP2 SWAP1 POP PUSH1 0x20 DUP3 ADD SWAP1 POP SWAP2 SWAP1 POP JUMP JUMPDEST PUSH2 0xD7B DUP2 PUSH2 0xB93 JUMP JUMPDEST DUP3 MSTORE POP POP JUMP JUMPDEST PUSH1 0x0 DUP2 MLOAD SWAP1 POP SWAP2 SWAP1 POP JUMP JUMPDEST PUSH1 0x0 DUP3 DUP3 MSTORE PUSH1 0x20 DUP3 ADD SWAP1 POP SWAP3 SWAP2 POP POP JUMP JUMPDEST PUSH1 0x0 JUMPDEST DUP4 DUP2 LT ISZERO PUSH2 0xDBB JUMPI DUP1 DUP3 ADD MLOAD DUP2 DUP5 ADD MSTORE PUSH1 0x20 DUP2 ADD SWAP1 POP PUSH2 0xDA0 JUMP JUMPDEST DUP4 DUP2 GT ISZERO PUSH2 0xDCA JUMPI PUSH1 0x0 DUP5 DUP5 ADD MSTORE JUMPDEST POP POP POP POP JUMP JUMPDEST PUSH1 0x0 PUSH1 0x1F NOT PUSH1 0x1F DUP4 ADD AND SWAP1 POP SWAP2 SWAP1 POP JUMP JUMPDEST PUSH1 0x0 PUSH2 0xDEC DUP3 PUSH2 0xD81 JUMP JUMPDEST PUSH2 0xDF6 DUP2 DUP6 PUSH2 0xD8C JUMP JUMPDEST SWAP4 POP PUSH2 0xE06 DUP2 DUP6 PUSH1 0x20 DUP7 ADD PUSH2 0xD9D JUMP JUMPDEST PUSH2 0xE0F DUP2 PUSH2 0xDD0 JUMP JUMPDEST DUP5 ADD SWAP2 POP POP SWAP3 SWAP2 POP POP JUMP JUMPDEST PUSH1 0x0 PUSH1 0x40 DUP4 ADD PUSH1 0x0 DUP4 ADD MLOAD PUSH2 0xE32 PUSH1 0x0 DUP7 ADD DUP3 PUSH2 0xD72 JUMP JUMPDEST POP PUSH1 0x20 DUP4 ADD MLOAD DUP5 DUP3 SUB PUSH1 0x20 DUP7 ADD MSTORE PUSH2 0xE4A DUP3 DUP3 PUSH2 0xDE1 JUMP JUMPDEST SWAP2 POP POP DUP1 SWAP2 POP POP SWAP3 SWAP2 POP POP JUMP JUMPDEST PUSH1 0x0 PUSH2 0xE63 DUP4 DUP4 PUSH2 0xE1A JUMP JUMPDEST SWAP1 POP SWAP3 SWAP2 POP POP JUMP JUMPDEST PUSH1 0x0 PUSH1 0x20 DUP3 ADD SWAP1 POP SWAP2 SWAP1 POP JUMP JUMPDEST PUSH1 0x0 PUSH2 0xE83 DUP3 PUSH2 0xD46 JUMP JUMPDEST PUSH2 0xE8D DUP2 DUP6 PUSH2 0xD51 JUMP JUMPDEST SWAP4 POP DUP4 PUSH1 0x20 DUP3 MUL DUP6 ADD PUSH2 0xE9F DUP6 PUSH2 0xD62 JUMP JUMPDEST DUP1 PUSH1 0x0 JUMPDEST DUP6 DUP2 LT ISZERO PUSH2 0xEDB JUMPI DUP5 DUP5 SUB DUP10 MSTORE DUP2 MLOAD PUSH2 0xEBC DUP6 DUP3 PUSH2 0xE57 JUMP JUMPDEST SWAP5 POP PUSH2 0xEC7 DUP4 PUSH2 0xE6B JUMP JUMPDEST SWAP3 POP PUSH1 0x20 DUP11 ADD SWAP10 POP POP PUSH1 0x1 DUP2 ADD SWAP1 POP PUSH2 0xEA3 JUMP JUMPDEST POP DUP3 SWAP8 POP DUP8 SWAP6 POP POP POP POP POP POP SWAP3 SWAP2 POP POP JUMP JUMPDEST PUSH1 0x0 PUSH1 0x20 DUP3 ADD SWAP1 POP DUP2 DUP2 SUB PUSH1 0x0 DUP4 ADD MSTORE PUSH2 0xF07 DUP2 DUP5 PUSH2 0xE78 JUMP JUMPDEST SWAP1 POP SWAP3 SWAP2 POP POP JUMP JUMPDEST PUSH1 0x0 DUP3 DUP3 MSTORE PUSH1 0x20 DUP3 ADD SWAP1 POP SWAP3 SWAP2 POP POP JUMP JUMPDEST PUSH1 0x0 PUSH2 0xF2B DUP3 PUSH2 0xD81 JUMP JUMPDEST PUSH2 0xF35 DUP2 DUP6 PUSH2 0xF0F JUMP JUMPDEST SWAP4 POP PUSH2 0xF45 DUP2 DUP6 PUSH1 0x20 DUP7 ADD PUSH2 0xD9D JUMP JUMPDEST PUSH2 0xF4E DUP2 PUSH2 0xDD0 JUMP JUMPDEST DUP5 ADD SWAP2 POP POP SWAP3 SWAP2 POP POP JUMP JUMPDEST PUSH1 0x0 PUSH1 0x20 DUP3 ADD SWAP1 POP DUP2 DUP2 SUB PUSH1 0x0 DUP4 ADD MSTORE PUSH2 0xF73 DUP2 DUP5 PUSH2 0xF20 JUMP JUMPDEST SWAP1 POP SWAP3 SWAP2 POP POP JUMP JUMPDEST PUSH32 0x4E487B7100000000000000000000000000000000000000000000000000000000 PUSH1 0x0 MSTORE PUSH1 0x22 PUSH1 0x4 MSTORE PUSH1 0x24 PUSH1 0x0 REVERT JUMPDEST PUSH1 0x0 PUSH1 0x2 DUP3 DIV SWAP1 POP PUSH1 0x1 DUP3 AND DUP1 PUSH2 0xFC2 JUMPI PUSH1 0x7F DUP3 AND SWAP2 POP JUMPDEST PUSH1 0x20 DUP3 LT DUP2 SUB PUSH2 0xFD5 JUMPI PUSH2 0xFD4 PUSH2 0xF7B JUMP JUMPDEST JUMPDEST POP SWAP2 SWAP1 POP JUMP JUMPDEST PUSH32 0x5573657220416C72656164792045786973740000000000000000000000000000 PUSH1 0x0 DUP3 ADD MSTORE POP JUMP JUMPDEST PUSH1 0x0 PUSH2 0x1011 PUSH1 0x12 DUP4 PUSH2 0xF0F JUMP JUMPDEST SWAP2 POP PUSH2 0x101C DUP3 PUSH2 0xFDB JUMP JUMPDEST PUSH1 0x20 DUP3 ADD SWAP1 POP SWAP2 SWAP1 POP JUMP JUMPDEST PUSH1 0x0 PUSH1 0x20 DUP3 ADD SWAP1 POP DUP2 DUP2 SUB PUSH1 0x0 DUP4 ADD MSTORE PUSH2 0x1040 DUP2 PUSH2 0x1004 JUMP JUMPDEST SWAP1 POP SWAP2 SWAP1 POP JUMP JUMPDEST PUSH32 0x557365726E616D652063616E6E6F7420626520656D7074790000000000000000 PUSH1 0x0 DUP3 ADD MSTORE POP JUMP JUMPDEST PUSH1 0x0 PUSH2 0x107D PUSH1 0x18 DUP4 PUSH2 0xF0F JUMP JUMPDEST SWAP2 POP PUSH2 0x1088 DUP3 PUSH2 0x1047 JUMP JUMPDEST PUSH1 0x20 DUP3 ADD SWAP1 POP SWAP2 SWAP1 POP JUMP JUMPDEST PUSH1 0x0 PUSH1 0x20 DUP3 ADD SWAP1 POP DUP2 DUP2 SUB PUSH1 0x0 DUP4 ADD MSTORE PUSH2 0x10AC DUP2 PUSH2 0x1070 JUMP JUMPDEST SWAP1 POP SWAP2 SWAP1 POP JUMP JUMPDEST PUSH32 0x506C656173652063726561746520616E206163636F756E740000000000000000 PUSH1 0x0 DUP3 ADD MSTORE POP JUMP JUMPDEST PUSH1 0x0 PUSH2 0x10E9 PUSH1 0x18 DUP4 PUSH2 0xF0F JUMP JUMPDEST SWAP2 POP PUSH2 0x10F4 DUP3 PUSH2 0x10B3 JUMP JUMPDEST PUSH1 0x20 DUP3 ADD SWAP1 POP SWAP2 SWAP1 POP JUMP JUMPDEST PUSH1 0x0 PUSH1 0x20 DUP3 ADD SWAP1 POP DUP2 DUP2 SUB PUSH1 0x0 DUP4 ADD MSTORE PUSH2 0x1118 DUP2 PUSH2 0x10DC JUMP JUMPDEST SWAP1 POP SWAP2 SWAP1 POP JUMP JUMPDEST PUSH32 0x55736572206973206E6F74207265676973746572656400000000000000000000 PUSH1 0x0 DUP3 ADD MSTORE POP JUMP JUMPDEST PUSH1 0x0 PUSH2 0x1155 PUSH1 0x16 DUP4 PUSH2 0xF0F JUMP JUMPDEST SWAP2 POP PUSH2 0x1160 DUP3 PUSH2 0x111F JUMP JUMPDEST PUSH1 0x20 DUP3 ADD SWAP1 POP SWAP2 SWAP1 POP JUMP JUMPDEST PUSH1 0x0 PUSH1 0x20 DUP3 ADD SWAP1 POP DUP2 DUP2 SUB PUSH1 0x0 DUP4 ADD MSTORE PUSH2 0x1184 DUP2 PUSH2 0x1148 JUMP JUMPDEST SWAP1 POP SWAP2 SWAP1 POP JUMP JUMPDEST PUSH32 0x757365722063616E206E6F74207468656D73656C76657320617320667269656E PUSH1 0x0 DUP3 ADD MSTORE PUSH32 0x6400000000000000000000000000000000000000000000000000000000000000 PUSH1 0x20 DUP3 ADD MSTORE POP JUMP JUMPDEST PUSH1 0x0 PUSH2 0x11E7 PUSH1 0x21 DUP4 PUSH2 0xF0F JUMP JUMPDEST SWAP2 POP PUSH2 0x11F2 DUP3 PUSH2 0x118B JUMP JUMPDEST PUSH1 0x40 DUP3 ADD SWAP1 POP SWAP2 SWAP1 POP JUMP JUMPDEST PUSH1 0x0 PUSH1 0x20 DUP3 ADD SWAP1 POP DUP2 DUP2 SUB PUSH1 0x0 DUP4 ADD MSTORE PUSH2 0x1216 DUP2 PUSH2 0x11DA JUMP JUMPDEST SWAP1 POP SWAP2 SWAP1 POP JUMP JUMPDEST PUSH32 0x546869732075736572732061726520616C726561647920667269656E64730000 PUSH1 0x0 DUP3 ADD MSTORE POP JUMP JUMPDEST PUSH1 0x0 PUSH2 0x1253 PUSH1 0x1E DUP4 PUSH2 0xF0F JUMP JUMPDEST SWAP2 POP PUSH2 0x125E DUP3 PUSH2 0x121D JUMP JUMPDEST PUSH1 0x20 DUP3 ADD SWAP1 POP SWAP2 SWAP1 POP JUMP JUMPDEST PUSH1 0x0 PUSH1 0x20 DUP3 ADD SWAP1 POP DUP2 DUP2 SUB PUSH1 0x0 DUP4 ADD MSTORE PUSH2 0x1282 DUP2 PUSH2 0x1246 JUMP JUMPDEST SWAP1 POP SWAP2 SWAP1 POP JUMP JUMPDEST PUSH32 0x4E487B7100000000000000000000000000000000000000000000000000000000 PUSH1 0x0 MSTORE PUSH1 0x32 PUSH1 0x4 MSTORE PUSH1 0x24 PUSH1 0x0 REVERT JUMPDEST PUSH32 0x4E487B7100000000000000000000000000000000000000000000000000000000 PUSH1 0x0 MSTORE PUSH1 0x11 PUSH1 0x4 MSTORE PUSH1 0x24 PUSH1 0x0 REVERT JUMPDEST PUSH1 0x0 DUP2 SWAP1 POP SWAP2 SWAP1 POP JUMP JUMPDEST PUSH1 0x0 PUSH2 0x12FC DUP3 PUSH2 0x12E7 JUMP JUMPDEST SWAP2 POP PUSH32 0xFFFFFFFFFFFFFFFFFFFFFFFFFFFFFFFFFFFFFFFFFFFFFFFFFFFFFFFFFFFFFFFF DUP3 SUB PUSH2 0x132E JUMPI PUSH2 0x132D PUSH2 0x12B8 JUMP JUMPDEST JUMPDEST PUSH1 0x1 DUP3 ADD SWAP1 POP SWAP2 SWAP1 POP JUMP INVALID LOG2 PUSH5 0x6970667358 0x22 SLT KECCAK256 DUP14 PUSH30 0x5546CE2D2A03DBD094872C6297F4B018AE0CF674DFB0EEEEFF96F80ADB36 PUSH5 0x736F6C6343 STOP ADDMOD 0xD STOP CALLER "
				},
				"gasEstimates": {
					"creation": {
						"codeDepositCost": "995000",
						"executionCost": "1034",
						"totalCost": "996034"
					},
					"external": {
						"addFriend(address,string)": "infinite",
						"checkUserExists(address)": "2970",
						"createAccount(string)": "infinite",
						"getMyFriendList()": "infinite",
						"getUsername(address)": "infinite"
					},
					"internal": {
						"_addFriend(address,address,string memory)": "infinite",
						"_getChatCode(address,address)": "infinite",
						"checkAlredyFriend(address,address)": "infinite"
					}
				},
				"methodIdentifiers": {
					"addFriend(address,string)": "3b9f708d",
					"checkUserExists(address)": "133f50f5",
					"createAccount(string)": "298daf5b",
					"getMyFriendList()": "bd0f4d0d",
					"getUsername(address)": "ce43c032"
				}
			},
			"storageLayout": {
				"storage": [
					{
						"astId": 25,
						"contract": "project.sol:ChatApp",
						"label": "userList",
						"offset": 0,
						"slot": "0",
						"type": "t_mapping(t_address,t_struct(user)8_storage)"
					},
					{
						"astId": 31,
						"contract": "project.sol:ChatApp",
						"label": "allMessages",
						"offset": 0,
						"slot": "1",
						"type": "t_mapping(t_bytes32,t_array(t_struct(message)20_storage)dyn_storage)"
					}
				],
				"types": {
					"t_address": {
						"encoding": "inplace",
						"label": "address",
						"numberOfBytes": "20"
					},
					"t_array(t_struct(friend)13_storage)dyn_storage": {
						"base": "t_struct(friend)13_storage",
						"encoding": "dynamic_array",
						"label": "struct ChatApp.friend[]",
						"numberOfBytes": "32"
					},
					"t_array(t_struct(message)20_storage)dyn_storage": {
						"base": "t_struct(message)20_storage",
						"encoding": "dynamic_array",
						"label": "struct ChatApp.message[]",
						"numberOfBytes": "32"
					},
					"t_bytes32": {
						"encoding": "inplace",
						"label": "bytes32",
						"numberOfBytes": "32"
					},
					"t_mapping(t_address,t_struct(user)8_storage)": {
						"encoding": "mapping",
						"key": "t_address",
						"label": "mapping(address => struct ChatApp.user)",
						"numberOfBytes": "32",
						"value": "t_struct(user)8_storage"
					},
					"t_mapping(t_bytes32,t_array(t_struct(message)20_storage)dyn_storage)": {
						"encoding": "mapping",
						"key": "t_bytes32",
						"label": "mapping(bytes32 => struct ChatApp.message[])",
						"numberOfBytes": "32",
						"value": "t_array(t_struct(message)20_storage)dyn_storage"
					},
					"t_string_storage": {
						"encoding": "bytes",
						"label": "string",
						"numberOfBytes": "32"
					},
					"t_struct(friend)13_storage": {
						"encoding": "inplace",
						"label": "struct ChatApp.friend",
						"members": [
							{
								"astId": 10,
								"contract": "project.sol:ChatApp",
								"label": "pubkey",
								"offset": 0,
								"slot": "0",
								"type": "t_address"
							},
							{
								"astId": 12,
								"contract": "project.sol:ChatApp",
								"label": "name",
								"offset": 0,
								"slot": "1",
								"type": "t_string_storage"
							}
						],
						"numberOfBytes": "64"
					},
					"t_struct(message)20_storage": {
						"encoding": "inplace",
						"label": "struct ChatApp.message",
						"members": [
							{
								"astId": 15,
								"contract": "project.sol:ChatApp",
								"label": "sender",
								"offset": 0,
								"slot": "0",
								"type": "t_address"
							},
							{
								"astId": 17,
								"contract": "project.sol:ChatApp",
								"label": "timestamp",
								"offset": 0,
								"slot": "1",
								"type": "t_uint256"
							},
							{
								"astId": 19,
								"contract": "project.sol:ChatApp",
								"label": "msg",
								"offset": 0,
								"slot": "2",
								"type": "t_string_storage"
							}
						],
						"numberOfBytes": "96"
					},
					"t_struct(user)8_storage": {
						"encoding": "inplace",
						"label": "struct ChatApp.user",
						"members": [
							{
								"astId": 3,
								"contract": "project.sol:ChatApp",
								"label": "name",
								"offset": 0,
								"slot": "0",
								"type": "t_string_storage"
							},
							{
								"astId": 7,
								"contract": "project.sol:ChatApp",
								"label": "friendList",
								"offset": 0,
								"slot": "1",
								"type": "t_array(t_struct(friend)13_storage)dyn_storage"
							}
						],
						"numberOfBytes": "64"
					},
					"t_uint256": {
						"encoding": "inplace",
						"label": "uint256",
						"numberOfBytes": "32"
					}
				}
			},
			"userdoc": {
				"kind": "user",
				"methods": {},
				"version": 1
			}
		}
	}
}