{
	"data": {
		"bytecode": {
			"linkReferences": {},
			"object": "608060405234801561001057600080fd5b506101d7806100206000396000f3fe608060405234801561001057600080fd5b506004361061002b5760003560e01c80634717f97c14610030575b600080fd5b61003861004f565b604051610046929190610099565b60405180910390f35b6000806000600b90506000600a9050808261006a91906100f1565b93508082610078919061014b565b925050509091565b6000819050919050565b61009381610080565b82525050565b60006040820190506100ae600083018561008a565b6100bb602083018461008a565b9392505050565b7f4e487b7100000000000000000000000000000000000000000000000000000000600052601160045260246000fd5b60006100fc82610080565b915061010783610080565b9250817fffffffffffffffffffffffffffffffffffffffffffffffffffffffffffffffff04831182151516156101405761013f6100c2565b5b828202905092915050565b600061015682610080565b915061016183610080565b9250827fffffffffffffffffffffffffffffffffffffffffffffffffffffffffffffffff03821115610196576101956100c2565b5b82820190509291505056fea26469706673582212206370e64b5b1026f635db143a5d6c2423b8e9ecf4654cc2f2d0bf6063b4beffe564736f6c634300080d0033",
			"opcodes": "PUSH1 0x80 PUSH1 0x40 MSTORE CALLVALUE DUP1 ISZERO PUSH2 0x10 JUMPI PUSH1 0x0 DUP1 REVERT JUMPDEST POP PUSH2 0x1D7 DUP1 PUSH2 0x20 PUSH1 0x0 CODECOPY PUSH1 0x0 RETURN INVALID PUSH1 0x80 PUSH1 0x40 MSTORE CALLVALUE DUP1 ISZERO PUSH2 0x10 JUMPI PUSH1 0x0 DUP1 REVERT JUMPDEST POP PUSH1 0x4 CALLDATASIZE LT PUSH2 0x2B JUMPI PUSH1 0x0 CALLDATALOAD PUSH1 0xE0 SHR DUP1 PUSH4 0x4717F97C EQ PUSH2 0x30 JUMPI JUMPDEST PUSH1 0x0 DUP1 REVERT JUMPDEST PUSH2 0x38 PUSH2 0x4F JUMP JUMPDEST PUSH1 0x40 MLOAD PUSH2 0x46 SWAP3 SWAP2 SWAP1 PUSH2 0x99 JUMP JUMPDEST PUSH1 0x40 MLOAD DUP1 SWAP2 SUB SWAP1 RETURN JUMPDEST PUSH1 0x0 DUP1 PUSH1 0x0 PUSH1 0xB SWAP1 POP PUSH1 0x0 PUSH1 0xA SWAP1 POP DUP1 DUP3 PUSH2 0x6A SWAP2 SWAP1 PUSH2 0xF1 JUMP JUMPDEST SWAP4 POP DUP1 DUP3 PUSH2 0x78 SWAP2 SWAP1 PUSH2 0x14B JUMP JUMPDEST SWAP3 POP POP POP SWAP1 SWAP2 JUMP JUMPDEST PUSH1 0x0 DUP2 SWAP1 POP SWAP2 SWAP1 POP JUMP JUMPDEST PUSH2 0x93 DUP2 PUSH2 0x80 JUMP JUMPDEST DUP3 MSTORE POP POP JUMP JUMPDEST PUSH1 0x0 PUSH1 0x40 DUP3 ADD SWAP1 POP PUSH2 0xAE PUSH1 0x0 DUP4 ADD DUP6 PUSH2 0x8A JUMP JUMPDEST PUSH2 0xBB PUSH1 0x20 DUP4 ADD DUP5 PUSH2 0x8A JUMP JUMPDEST SWAP4 SWAP3 POP POP POP JUMP JUMPDEST PUSH32 0x4E487B7100000000000000000000000000000000000000000000000000000000 PUSH1 0x0 MSTORE PUSH1 0x11 PUSH1 0x4 MSTORE PUSH1 0x24 PUSH1 0x0 REVERT JUMPDEST PUSH1 0x0 PUSH2 0xFC DUP3 PUSH2 0x80 JUMP JUMPDEST SWAP2 POP PUSH2 0x107 DUP4 PUSH2 0x80 JUMP JUMPDEST SWAP3 POP DUP2 PUSH32 0xFFFFFFFFFFFFFFFFFFFFFFFFFFFFFFFFFFFFFFFFFFFFFFFFFFFFFFFFFFFFFFFF DIV DUP4 GT DUP3 ISZERO ISZERO AND ISZERO PUSH2 0x140 JUMPI PUSH2 0x13F PUSH2 0xC2 JUMP JUMPDEST JUMPDEST DUP3 DUP3 MUL SWAP1 POP SWAP3 SWAP2 POP POP JUMP JUMPDEST PUSH1 0x0 PUSH2 0x156 DUP3 PUSH2 0x80 JUMP JUMPDEST SWAP2 POP PUSH2 0x161 DUP4 PUSH2 0x80 JUMP JUMPDEST SWAP3 POP DUP3 PUSH32 0xFFFFFFFFFFFFFFFFFFFFFFFFFFFFFFFFFFFFFFFFFFFFFFFFFFFFFFFFFFFFFFFF SUB DUP3 GT ISZERO PUSH2 0x196 JUMPI PUSH2 0x195 PUSH2 0xC2 JUMP JUMPDEST JUMPDEST DUP3 DUP3 ADD SWAP1 POP SWAP3 SWAP2 POP POP JUMP INVALID LOG2 PUSH5 0x6970667358 0x22 SLT KECCAK256 PUSH4 0x70E64B5B LT 0x26 0xF6 CALLDATALOAD 0xDB EQ GASPRICE 0x5D PUSH13 0x2423B8E9ECF4654CC2F2D0BF60 PUSH4 0xB4BEFFE5 PUSH5 0x736F6C6343 STOP ADDMOD 0xD STOP CALLER "
		},
		"gasEstimates": {
			"creation": {
				"codeDepositCost": "94200",
				"executionCost": "141",
				"totalCost": "94341"
			},
			"external": {
				"getResults()": "infinite"
			}
		},
		"methodIdentifiers": {
			"getResults()": "4717f97c"
		}
	},
	"abi": [
		{
			"inputs": [],
			"name": "getResults",
			"outputs": [
				{
					"internalType": "uint256",
					"name": "product",
					"type": "uint256"
				},
				{
					"internalType": "uint256",
					"name": "total",
					"type": "uint256"
				}
			],
			"stateMutability": "pure",
			"type": "function"
		}
	]
}