{
	"data": {
		"bytecode": {
			"linkReferences": {},
			"object": "60806040526009600055600260015534801561001a57600080fd5b506102548061002a6000396000f3fe608060405234801561001057600080fd5b50600436106100415760003560e01c8063254d6005146100465780634717f97c146100645780637e09697d14610083575b600080fd5b61004e6100a1565b60405161005b91906100fb565b60405180910390f35b61006c6100a7565b60405161007a929190610116565b60405180910390f35b61008b6100dc565b60405161009891906100fb565b60405180910390f35b60005481565b600080600080546001546100bb919061016e565b9050600080546001546100ce91906101c8565b905081819350935050509091565b60015481565b6000819050919050565b6100f5816100e2565b82525050565b600060208201905061011060008301846100ec565b92915050565b600060408201905061012b60008301856100ec565b61013860208301846100ec565b9392505050565b7f4e487b7100000000000000000000000000000000000000000000000000000000600052601160045260246000fd5b6000610179826100e2565b9150610184836100e2565b9250817fffffffffffffffffffffffffffffffffffffffffffffffffffffffffffffffff04831182151516156101bd576101bc61013f565b5b828202905092915050565b60006101d3826100e2565b91506101de836100e2565b9250827fffffffffffffffffffffffffffffffffffffffffffffffffffffffffffffffff038211156102135761021261013f565b5b82820190509291505056fea2646970667358221220f6fdc792d5f562e8f6cdba88314e8e8cf83fab9ba0d7e9cf2e7c99dfe5f6ccef64736f6c634300080d0033",
			"opcodes": "PUSH1 0x80 PUSH1 0x40 MSTORE PUSH1 0x9 PUSH1 0x0 SSTORE PUSH1 0x2 PUSH1 0x1 SSTORE CALLVALUE DUP1 ISZERO PUSH2 0x1A JUMPI PUSH1 0x0 DUP1 REVERT JUMPDEST POP PUSH2 0x254 DUP1 PUSH2 0x2A PUSH1 0x0 CODECOPY PUSH1 0x0 RETURN INVALID PUSH1 0x80 PUSH1 0x40 MSTORE CALLVALUE DUP1 ISZERO PUSH2 0x10 JUMPI PUSH1 0x0 DUP1 REVERT JUMPDEST POP PUSH1 0x4 CALLDATASIZE LT PUSH2 0x41 JUMPI PUSH1 0x0 CALLDATALOAD PUSH1 0xE0 SHR DUP1 PUSH4 0x254D6005 EQ PUSH2 0x46 JUMPI DUP1 PUSH4 0x4717F97C EQ PUSH2 0x64 JUMPI DUP1 PUSH4 0x7E09697D EQ PUSH2 0x83 JUMPI JUMPDEST PUSH1 0x0 DUP1 REVERT JUMPDEST PUSH2 0x4E PUSH2 0xA1 JUMP JUMPDEST PUSH1 0x40 MLOAD PUSH2 0x5B SWAP2 SWAP1 PUSH2 0xFB JUMP JUMPDEST PUSH1 0x40 MLOAD DUP1 SWAP2 SUB SWAP1 RETURN JUMPDEST PUSH2 0x6C PUSH2 0xA7 JUMP JUMPDEST PUSH1 0x40 MLOAD PUSH2 0x7A SWAP3 SWAP2 SWAP1 PUSH2 0x116 JUMP JUMPDEST PUSH1 0x40 MLOAD DUP1 SWAP2 SUB SWAP1 RETURN JUMPDEST PUSH2 0x8B PUSH2 0xDC JUMP JUMPDEST PUSH1 0x40 MLOAD PUSH2 0x98 SWAP2 SWAP1 PUSH2 0xFB JUMP JUMPDEST PUSH1 0x40 MLOAD DUP1 SWAP2 SUB SWAP1 RETURN JUMPDEST PUSH1 0x0 SLOAD DUP2 JUMP JUMPDEST PUSH1 0x0 DUP1 PUSH1 0x0 DUP1 SLOAD PUSH1 0x1 SLOAD PUSH2 0xBB SWAP2 SWAP1 PUSH2 0x16E JUMP JUMPDEST SWAP1 POP PUSH1 0x0 DUP1 SLOAD PUSH1 0x1 SLOAD PUSH2 0xCE SWAP2 SWAP1 PUSH2 0x1C8 JUMP JUMPDEST SWAP1 POP DUP2 DUP2 SWAP4 POP SWAP4 POP POP POP SWAP1 SWAP2 JUMP JUMPDEST PUSH1 0x1 SLOAD DUP2 JUMP JUMPDEST PUSH1 0x0 DUP2 SWAP1 POP SWAP2 SWAP1 POP JUMP JUMPDEST PUSH2 0xF5 DUP2 PUSH2 0xE2 JUMP JUMPDEST DUP3 MSTORE POP POP JUMP JUMPDEST PUSH1 0x0 PUSH1 0x20 DUP3 ADD SWAP1 POP PUSH2 0x110 PUSH1 0x0 DUP4 ADD DUP5 PUSH2 0xEC JUMP JUMPDEST SWAP3 SWAP2 POP POP JUMP JUMPDEST PUSH1 0x0 PUSH1 0x40 DUP3 ADD SWAP1 POP PUSH2 0x12B PUSH1 0x0 DUP4 ADD DUP6 PUSH2 0xEC JUMP JUMPDEST PUSH2 0x138 PUSH1 0x20 DUP4 ADD DUP5 PUSH2 0xEC JUMP JUMPDEST SWAP4 SWAP3 POP POP POP JUMP JUMPDEST PUSH32 0x4E487B7100000000000000000000000000000000000000000000000000000000 PUSH1 0x0 MSTORE PUSH1 0x11 PUSH1 0x4 MSTORE PUSH1 0x24 PUSH1 0x0 REVERT JUMPDEST PUSH1 0x0 PUSH2 0x179 DUP3 PUSH2 0xE2 JUMP JUMPDEST SWAP2 POP PUSH2 0x184 DUP4 PUSH2 0xE2 JUMP JUMPDEST SWAP3 POP DUP2 PUSH32 0xFFFFFFFFFFFFFFFFFFFFFFFFFFFFFFFFFFFFFFFFFFFFFFFFFFFFFFFFFFFFFFFF DIV DUP4 GT DUP3 ISZERO ISZERO AND ISZERO PUSH2 0x1BD JUMPI PUSH2 0x1BC PUSH2 0x13F JUMP JUMPDEST JUMPDEST DUP3 DUP3 MUL SWAP1 POP SWAP3 SWAP2 POP POP JUMP JUMPDEST PUSH1 0x0 PUSH2 0x1D3 DUP3 PUSH2 0xE2 JUMP JUMPDEST SWAP2 POP PUSH2 0x1DE DUP4 PUSH2 0xE2 JUMP JUMPDEST SWAP3 POP DUP3 PUSH32 0xFFFFFFFFFFFFFFFFFFFFFFFFFFFFFFFFFFFFFFFFFFFFFFFFFFFFFFFFFFFFFFFF SUB DUP3 GT ISZERO PUSH2 0x213 JUMPI PUSH2 0x212 PUSH2 0x13F JUMP JUMPDEST JUMPDEST DUP3 DUP3 ADD SWAP1 POP SWAP3 SWAP2 POP POP JUMP INVALID LOG2 PUSH5 0x6970667358 0x22 SLT KECCAK256 0xF6 REVERT 0xC7 SWAP3 0xD5 CREATE2 PUSH3 0xE8F6CD 0xBA DUP9 BALANCE 0x4E DUP15 DUP13 0xF8 EXTCODEHASH 0xAB SWAP12 LOG0 0xD7 0xE9 0xCF 0x2E PUSH29 0x99DFE5F6CCEF64736F6C634300080D0033000000000000000000000000 "
		},
		"gasEstimates": {
			"creation": {
				"codeDepositCost": "119200",
				"executionCost": "44377",
				"totalCost": "163577"
			},
			"external": {
				"Num1()": "2451",
				"Num2()": "2407",
				"getResults()": "infinite"
			}
		},
		"methodIdentifiers": {
			"Num1()": "7e09697d",
			"Num2()": "254d6005",
			"getResults()": "4717f97c"
		}
	},
	"abi": [
		{
			"inputs": [],
			"name": "Num1",
			"outputs": [
				{
					"internalType": "uint256",
					"name": "",
					"type": "uint256"
				}
			],
			"stateMutability": "view",
			"type": "function"
		},
		{
			"inputs": [],
			"name": "Num2",
			"outputs": [
				{
					"internalType": "uint256",
					"name": "",
					"type": "uint256"
				}
			],
			"stateMutability": "view",
			"type": "function"
		},
		{
			"inputs": [],
			"name": "getResults",
			"outputs": [
				{
					"internalType": "uint256",
					"name": "",
					"type": "uint256"
				},
				{
					"internalType": "uint256",
					"name": "",
					"type": "uint256"
				}
			],
			"stateMutability": "view",
			"type": "function"
		}
	]
}